:02000002D0002C
:1040000000400D0018960E00000006000C0005018F
:084010000401E80500000000B6
:04401800F4720E0030
:1040200009480A49884208B505D0094A824202D0A7
:10403000121A0FF0BFFF0748074A0021121A0FF0AB
:10404000C4FF014808BD00BF5CD603209C940E004D
:10405000B0D70320B0D70320F0E7032070B508F0F5
:1040600019FA074C074BE41AA40800251E46A5427E
:1040700004D056F8253098470135F8E770BD00BFE9
:1040800084940E0024940E0004F014BE08B503F0CE
:104090006DFDBDE8084008F0BFB906F053BF06F05B
:1040A00059BF06F057BF0078B0FA80F0400970475A
:1040B00001230370704700009FED010B704700BFA4
:1040C000182D4454FB2109409FED010B704700BFA0
:1040D0006957148B0ABF054008B551EC100B53EC1F
:1040E000112B0EF06BFF41EC100B08BD08B551EC25
:1040F000100B53EC112B0EF05FFF41EC100B08BDC1
:1041000008B551EC100B53EC112B0FF009F941ECF1
:10411000100B08BD08B551EC100B53EC112B0FF030
:1041200029FA41EC100B08BD51EC100B10EE102ACF
:1041300001F1004343EC102B7047B0EE410AF0EE62
:10414000610A70470000000008B551EC100B53ECF9
:10415000112B0FF075FB10B99FED030B08BD9FED00
:10416000040B08BDAFF30080000000000000000059
:10417000000000000000F03F08B551EC100B53ECBC
:10418000112B0FF053FB10B99FED030B08BD9FEDF2
:10419000040B08BDAFF30080000000000000000029
:1041A000000000000000F03F08B551EC100B53EC8C
:1041B000112B0FF027FB10B99FED030B08BD9FEDEE
:1041C000040B08BDAFF300800000000000000000F9
:1041D000000000000000F03F08B551EC100B53EC5C
:1041E000112B0FF019FB10B99FED030B08BD9FEDCC
:1041F000040B08BDAFF300800000000000000000C9
:10420000000000000000F03F08B551EC100B53EC2B
:10421000112B0FF0EDFA10B99FED030B08BD9FEDC8
:10422000040B08BDAFF30080000000000000000098
:10423000000000000000F03F08B551EC100B53ECFB
:10424000112B0FF0D5FA10B19FED030B08BD9FEDB8
:10425000040B08BDAFF30080000000000000000068
:10426000000000000000F03F07B50023002251ECE1
:10427000100B8DED001B0FF0BBFA58B99DED001B24
:104280000022002351EC110B0FF0B2FAB0FA80F0CB
:10429000400900E000200EF0DDFF41EC100B03B000
:1042A0005DF804FB07B50023002251EC100B8DEDE7
:1042B000001B0FF09DFA58B19DED001B002200235A
:1042C00051EC110B0FF094FAB0FA80F0400900E0C5
:1042D00001200EF0BFFF41EC100B03B05DF804FBB2
:1042E00008B50022002351EC100B0FF081FA10B931
:1042F0009FED030B08BD9FED040B08BDAFF30080DD
:104300000000000000000000000000000000F03F7E
:1043100008B50022002351EC100B0FF069FA10B120
:104320009FED030B08BD9FED040B08BDAFF30080AC
:104330000000000000000000000000000000F03F4E
:1043400008B50022002351EC100B0FF051FA003099
:1043500018BF012040420EF07DFF41EC100B08BD5C
:1043600008B50022002351EC100B0FF041FAB0FA0F
:1043700080F0400940420EF06DFF41EC100B08BD8B
:104380002DE9F84310F0180718BF00F007074FEAAF
:10439000870910F0100F14BF0423002309F114063D
:1043A0001E4404463046884606F0CCFD32460021C5
:1043B00005460FF00AFE47B1B8F1000F05D04A4696
:1043C000414605F110000FF0F5FD00232C60AB60B5
:1043D0002846BDE8F883000038B555EC104B0022A4
:1043E000002310EE100A29460FF00CFAE0B914A3CE
:1043F000D3E90023204629460FF022FAB8B929460E
:1044000020460FF065FA01231A464FF0FF3198421B
:1044100006D3B1FBF2F49C4209D35A430133F6E7C9
:1044200010460EF007FF04E00020034901E00349B5
:10443000002041EC100B38BD0000F87F0000F07F39
:104440000000E0FFFFFFEF41F8B555EC104B0022F4
:10445000002310EE100A294657EC116B0FF0D2F929
:1044600000283FD100220023304639460FF0CAF918
:10447000C0BB32463B46204629460FF0C3F988BBF5
:104480001FA3D3E90023204629460FF0D9F960BBCA
:104490001BA3D3E90023304639460FF0D1F920BBE6
:1044A000294620460FF014FA3946044630460FF0EC
:1044B0000FFAB0EB540F88BF201A01231A46241AB2
:1044C0004FF0FF35904209D3A118B5FBF1F69E429B
:1044D0000BD34B43B3FBF2F30132F3E718460EF074
:1044E000A9FE04E00020044901E00449002041EC59
:1044F000100BF8BDAFF300800000F87F0000F07FE4
:104500000000E0FFFFFFEF4100B52DED028BB0EEA4
:10451000418AF0EE618A83B0FFF796FF51EC100BF1
:10452000B0EE480AF0EE680ACDE90001FFF754FF4B
:10453000DDE9000153EC102B0EF0F2FE41EC100B04
:1045400003B0BDEC028B5DF804FB10B5044630B13E
:1045500000F006F82046BDE8104006F0FBBC10BD98
:1045600010B5044630B3036803F01F03093B0E2B5C
:1045700020D8DFE803F01A1714110E0B081F1A17C2
:1045800014110E0B0800806AFFF7DFFF606AFFF767
:10459000DCFF206AFFF7D9FFE069FFF7D6FFA069CB
:1045A000FFF7D3FF6069FFF7D0FF2069BDE8104037
:1045B000FFF7CBBF10BD00002DE9F74F1823DFF840
:1045C00070B28360044665682B7813B91A23A36020
:1045D0000CE1A3F13002092A01D92E2B07D1211DAC
:1045E000284611F001FB1E2384ED040BF3E0613B30
:1045F000192B5AD863681A78A2F16101192902D8D7
:1046000001336360F6E7A2F130010929F8D95F2A86
:10461000F6D0E669C5EB03087EB1276A77B1D6F814
:10462000009042464946284610F098FC10B919F807
:1046300008302BB31036013FF0E737464FF0170A2A
:10464000C7EB0A0907EB69094FEA09130BEB0306ED
:104650005BF80330019342461946284610F07EFC71
:10466000002840F0BE80019B13F808301BB9002ED3
:1046700000F0B08004E009F1FF3A5745E0DDA9E021
:10468000B36803F01F030F2B06DC082B09DA002B9D
:1046900040F0A2801F2305E0172B00F39D80F368F4
:1046A000A361B368A36073683DE06A1C62602B7805
:1046B0002A2B3ED01ED8212B43D00CD80D2B00F036
:1046C0008B8004D8093B012B40F2868082E0202BAE
:1046D00000F082807EE0262B66D005D8252B79D18C
:1046E0002023A360434B1EE0282B6FD0292B71D1D0
:1046F0001D2370E03C2B3BD00AD82C2B68D00FD365
:104700002D2B12D02F2B65D12023A3603A4B0AE02A
:104710003E2B3BD023D35E2B0FD07C2B4DD059E0CA
:104720002023A360354B236156E02023A360344B44
:10473000F9E72023A360334BF5E72023A360324B36
:10474000F1E7AB1C63606B783D2B4FF020030BBF90
:10475000A360A3602D4B626018BF2D4BE3E7AB1C39
:1047600063606B783D2B35D12023A360294BDAE7BA
:10477000AB1C63606B783D2B4FF020030BBFA36035
:10478000A360254B626018BF244BCCE7AB1C636071
:104790006B783D2B4FF020030BBFA360A360204B31
:1047A000626018BF1F4BBEE7AB1C63606B78262BA3
:1047B00010D12023A3601C4BB5E7AB1C63606B7862
:1047C0007C2B07D12023A360184BACE71C2302E00D
:1047D0001B2300E01923A360A368182B3FF4F3AE5A
:1047E00004E07FF748AF09F1010746E703B0BDE8F1
:1047F000F08F00BF01E60D0015410D00D9400D00FE
:10480000ED400D0001410D0001E90D0039420D00A0
:10481000E1420D0009420D00D9410D00A9410D00F2
:1048200079410D0049410D0069420D00A5420D007E
:1048300008730E0073B5054600F0F6F90B4E0446FA
:10484000AB681B2B0ED12846FFF7B6FE2846009416
:1048500000F0EAF9694601902A20FFF791FD04462D
:104860008660EDE7204602B070BD00BF3B410D0001
:104870002DE9F0410446806800F01F03083B172B28
:1048800000F28A80DFE803F01E334646464646467D
:104890001E334646464646468888888877880C16E2
:1048A00000210120FFF76CFDD4E904230546C0E98F
:1048B00002236DE000210846FFF762FD2369836053
:1048C000054665E00021FFF75BFD23698360A3686F
:1048D000D90644BFA369036105462046FFF76CFE75
:1048E000A3681C2B63D12046FFF766FE4AE0002137
:1048F000FFF746FD23698360A368DA0644BFA36916
:10490000436105462046FFF757FE204600F054F865
:1049100028614CE010F018064FF0000118BF00F0BD
:104920000706FFF72DFD23698360A368DB0642BFFE
:10493000331DA26940F8232005462046FFF73CFEC0
:10494000A3681C2B21D105F10C080027B7420AD01F
:104950002046FFF731FE204600F066F948F8040FC4
:10496000A3681B2B05D0A3681D2B0ED1013EBE42B0
:104970000AE00137EAE72046FFF71EFE2046FFF770
:1049800059FF0546A3681D2B02D01923A3600EE032
:104990002046FFF711FE0AE000210846FFF7F0FC71
:1049A0001923A360034B0022C0E9022305462846D1
:1049B000BDE8F0810000F87F2DE9F043394F3A4D12
:1049C00087B004460126A368202B02D0012E44D1D3
:1049D00027E02369DFF8CC80BB4203D12046FFF7F4
:1049E000EBFDF0E7AB42DFF8C09001D17642F5E78E
:1049F0002E4F0025A368202B10D12369434503D1F6
:104A00002046FFF7D9FDF5E74B45F9D0BB4205D16C
:104A10000DB16D42F4E74FF0FF35F1E7012E1BD1E8
:104A20001DB92046FFF724FF39E00135204609D1A2
:104A3000FFF71EFF06A941F8140D2920FFF7A0FC7F
:104A40001A4B2BE0FFF714FF06A941F8100D29209F
:104A5000FFF796FC164B21E055B92046FFF708FFFB
:104A600006A941F80C0D2920FFF78AFC114B15E02F
:104A70000135204609D1FFF7FBFE06A941F8080DD4
:104A80002920FFF77DFC0C4B08E0FFF7F1FE06A99B
:104A900041F8040D2920FFF773FC084B836007B031
:104AA000BDE8F083D9400D00ED400D00E1420D005E
:104AB00011430D0029410D0041430D0061430D00DC
:104AC00073B50546FFF778FF0C4E0446AB68202B04
:104AD00011D12B69B3420ED12846FFF76DFD284650
:104AE0000094FFF769FF694601902A20FFF748FC10
:104AF00004468660EAE7204602B070BD01E90D0079
:104B00002DE9F7430646FFF7DBFFDFF84880DFF8C3
:104B100048900F4F0446B368202B15D135694545A1
:104B20000ED13046FFF748FD30460094FFF7C8FF2E
:104B3000694601902A20FFF723FC04468560EAE7D6
:104B40004D45EED0BD42ECD0204603B0BDE8F08329
:104B500001E60D0001410D0015410D002DE9F34165
:104B60000546FFF7CDFFDFF840800E4F0446AB68E7
:104B7000202B13D12E6946450ED12846FFF71CFD88
:104B800028460094FFF7BCFF694601902A20FFF7F2
:104B9000F7FB04468660EAE7BE42EED0204602B04C
:104BA000BDE8F081ED400D00D9400D002DE9F7433F
:104BB0000646FFF7D3FF164FDFF86480DFF86490F6
:104BC0000546B368202B1ED13469BC420ED1304655
:104BD000FFF7F2FC30460095FFF7C0FF69460190F1
:104BE0002A20FFF7CDFB05468460EAE74445EED076
:104BF0004C45ECD0074B9C42E9D0074B9C42E6D099
:104C0000064B9C42E3D0284603B0BDE8F08300BFCA
:104C100049410D00D9410D0009420D0039420D00F6
:104C200079410D00A9410D002DE9F3410546FFF73B
:104C3000BDFFDFF840800E4F0446AB68202B13D138
:104C40002E6946450ED12846FFF7B6FC284600944B
:104C5000FFF7ACFF694601902A20FFF791FB04465D
:104C60008660EAE7BE42EED0204602B0BDE8F081A1
:104C7000A5420D0069420D0070B504462DED0C8B68
:104C8000002800F0D182036803F01F020F2A08DC1D
:104C9000082A0EDA4AB1012A40F0C68290ED020BD2
:104CA000C4E2172A40F35B81BEE2836893ED000BF8
:104CB000BCE213F0180F85680DD003F00703013B29
:104CC000062B08D8DFE813F00D0016002E00510067
:104CD0007F00B800FC00BDEC0C8B2B46BDE870409B
:104CE00018470069FFF7C8FFBDEC0C8B2B46BDE8E9
:104CF000704018470069FFF7BFFF6069B0EE408A57
:104D0000F0EE608AFFF7B8FFB0EE401AF0EE601ADE
:104D1000B0EE480AF0EE680ABDEC0C8B2B46BDE8FD
:104D2000704018470069FFF7A7FF6069B0EE408A3E
:104D3000F0EE608AFFF7A0FFA069B0EE409AF0EEB7
:104D4000609AFFF799FFB0EE491AF0EE691AB0EEDB
:104D5000402AF0EE602AB0EE480AF0EE680ABDEC98
:104D60000C8B2B46BDE8704018470069FFF784FFA5
:104D70006069B0EE408AF0EE608AFFF77DFFA069BF
:104D8000B0EE409AF0EE609AFFF776FFE069B0EE81
:104D900040AAF0EE60AAFFF76FFFB0EE4A2AF0EEED
:104DA0006A2AB0EE491AF0EE691AB0EE403AF0EE17
:104DB000603AB0EE480AF0EE680ABDEC0C8B2B4668
:104DC000BDE8704018470069FFF756FF6069B0EE14
:104DD000408AF0EE608AFFF74FFFA069B0EE409A7C
:104DE000F0EE609AFFF748FFE069B0EE40AAF0EEFF
:104DF00060AAFFF741FF206AB0EE40BAF0EE60BA59
:104E0000FFF73AFFB0EE4B3AF0EE6B3AB0EE4A2ABB
:104E1000F0EE6A2AB0EE404AF0EE604AB0EE491A6F
:104E2000F0EE691AB0EE480AF0EE680ABDEC0C8BA1
:104E30002B46BDE8704018470069FFF71DFF606909
:104E4000B0EE408AF0EE608AFFF716FFA069B0EE80
:104E5000409AF0EE609AFFF70FFFE069B0EE40AACB
:104E6000F0EE60AAFFF708FF206AB0EE40BAF0EE5D
:104E700060BAFFF701FF606AB0EE40CAF0EE60CAA8
:104E8000FFF7FAFEB0EE4C4AF0EE6C4AB0EE4B3A49
:104E9000F0EE6B3AB0EE405AF0EE605AB0EE4A2AAD
:104EA000F0EE6A2AB0EE491AF0EE691AB0EE480A3E
:104EB000F0EE680ABDEC0C8B2B46BDE8704018473D
:104EC0000069FFF7D9FE6069B0EE408AF0EE608AB3
:104ED000FFF7D2FEA069B0EE409AF0EE609AFFF7BD
:104EE000CBFEE069B0EE40AAF0EE60AAFFF7C4FE88
:104EF000206AB0EE40BAF0EE60BAFFF7BDFE606A1D
:104F0000B0EE40CAF0EE60CAFFF7B6FEA06AB0EE9F
:104F100040DAF0EE60DAFFF7AFFEB0EE4D5AF0EE99
:104F20006D5AB0EE4C4AF0EE6C4AB0EE406AF0EECC
:104F3000606AB0EE4B3AF0EE6B3AB0EE4A2AF0EE11
:104F40006A2AB0EE491AF0EE691AB0EE480AF0EE9D
:104F5000680ABDEC0C8B2B46BDE87040184713F077
:104F6000180F85680DD003F00703013B062B08D806
:104F7000DFE813F00E001900330058008800C3006A
:104F80000901BDEC0C8B20692B46BDE87040184729
:104F900046690069FFF770FEBDEC0C8B30462B466E
:104FA000BDE87040184786690069FFF765FE6069D3
:104FB000B0EE408AF0EE608AFFF75EFEB0EE401A77
:104FC000F0EE601AB0EE480AF0EE680ABDEC0C8B09
:104FD00030462B46BDE870401847C6690069FFF7A8
:104FE0004BFE6069B0EE408AF0EE608AFFF744FE47
:104FF000A069B0EE409AF0EE609AFFF73DFEB0EE89
:10500000491AF0EE691AB0EE402AF0EE602AB0EECE
:10501000480AF0EE680ABDEC0C8B30462B46BDE822
:1050200070401847066A0069FFF726FE6069B0EE17
:10503000408AF0EE608AFFF71FFEA069B0EE409A4A
:10504000F0EE609AFFF718FEE069B0EE40AAF0EECD
:1050500060AAFFF711FEB0EE4A2AF0EE6A2AB0EE1F
:10506000491AF0EE691AB0EE403AF0EE603AB0EE4E
:10507000480AF0EE680ABDEC0C8B30462B46BDE8C2
:1050800070401847466A0069FFF7F6FD6069B0EEA8
:10509000408AF0EE608AFFF7EFFDA069B0EE409A1B
:1050A000F0EE609AFFF7E8FDE069B0EE40AAF0EE9E
:1050B00060AAFFF7E1FD206AB0EE40BAF0EE60BAF8
:1050C000FFF7DAFDB0EE4B3AF0EE6B3AB0EE4A2A5B
:1050D000F0EE6A2AB0EE404AF0EE604AB0EE491AAD
:1050E000F0EE691AB0EE480AF0EE680ABDEC0C8BDF
:1050F00030462B46BDE870401847866A0069FFF7C6
:10510000BBFD6069B0EE408AF0EE608AFFF7B4FD47
:10511000A069B0EE409AF0EE609AFFF7ADFDE0694D
:10512000B0EE40AAF0EE60AAFFF7A6FD206AB0EE4E
:1051300040BAF0EE60BAFFF79FFD606AB0EE40CA79
:10514000F0EE60CAFFF798FDB0EE4C4AF0EE6C4A04
:10515000B0EE4B3AF0EE6B3AB0EE405AF0EE605AD9
:10516000B0EE4A2AF0EE6A2AB0EE491AF0EE691A59
:10517000B0EE480AF0EE680ABDEC0C8B30462B46C8
:10518000BDE870401847C66A0069FFF775FD6069A1
:10519000B0EE408AF0EE608AFFF76EFDA069B0EED7
:1051A000409AF0EE609AFFF767FDE069B0EE40AA22
:1051B000F0EE60AAFFF760FD206AB0EE40BAF0EEB4
:1051C00060BAFFF759FD606AB0EE40CAF0EE60CAFF
:1051D000FFF752FDA06AB0EE40DAF0EE60DAFFF7BA
:1051E0004BFDB0EE4D5AF0EE6D5AB0EE4C4AF0EE7B
:1051F0006C4AB0EE406AF0EE606AB0EE4B3AF0EE08
:105200006B3AB0EE4A2AF0EE6A2AB0EE491AF0EE96
:10521000691AB0EE480AF0EE680ABDEC0C8B304615
:105220002B46BDE8704018479FED030BBDEC0C8B7F
:1052300070BD00BFAFF30080000000000000F87FE9
:10524000F8B52DED028B0268012A044627D9930692
:1052500025D512F0180318BF02F00703033300F13D
:105260000C0600EB83050127AE4209D056F8040F67
:10527000FFF7E6FF33681B68012B18BF0027F3E731
:105280006FB12046FFF7F8FC2046B0EE408AF0EE02
:10529000608AFFF765F984ED028B01232360BDEC82
:1052A000028BF8BD30B58BB01D460190009068466A
:1052B00007910892FFF780F96846FFF7BBFA029B57
:1052C0001A2B04460DD0FFF740F90DB900200EE06F
:1052D0009DE80500101A01D02860F7E701232B6034
:1052E00005E0FFF7ADFF0DB100232B6020460BB0AA
:1052F00030BD000080E80600104A82630261104A57
:10530000C261104ADFED106AD2ED007A9FED0F7A8C
:105310000F4980ED020A67EEA66AC16086EE876AD1
:10532000DFED0C6A80ED087A67EEA67A80ED056AFB
:10533000C7EE876AC0ED066A704700BF0000A04153
:105340000000904160D60320000068420000AE4299
:1053500000002042000018422DE9F0410C460646AC
:10536000904605F027FC4FF47A7707FB04070024EA
:105370002546B08808F075F90444012007F0D0FAFA
:1053800005F018FCB84205F10105F2D307EE105AFA
:1053900007EE904AF8EE476AF8EE677A184BD6EDBA
:1053A000085A87EEA67AD3ED007A164B93ED006A81
:1053B000154BC5EE866A984567EE277A9FED137AFE
:1053C00027EE877AD6ED077AD7EE267A0CD1B2EEA1
:1053D000027A67EE877AF1EE046A87EEA67ADFED4D
:1053E0000C7A77EE277A02E00A4B984502D1FDEE5F
:1053F000E77A01E0DFED087A17EE900ABDE8F08168
:105400005CD6032060D6032006750E0000008039AC
:10541000000000425A830E0000000000F8B5044668
:1054200005F0C8FB002500F51C5710372E462088D4
:1054300008F017F90544012007F072FA05F0BAFBED
:10544000B84206F10106F2D307EE905A07EE106A51
:10545000F8EE677AB8EE477A154BC7EE876AD3ED58
:10546000007A66EEA77A17EE900A0DF005FF00228B
:10547000104B0DF055FF104B00220DF051FF0EF0B8
:1054800047FAD4ED0A7A0D4A07EE100A77EE677AEA
:105490000A21C4ED097A2046FFF75EFF07EE900A65
:1054A000F8EEE77A94ED090AC4ED0E7AF8BD00BF74
:1054B0005CD6032000408F400000303F5A830E002E
:1054C000F8B50C46074605F075FB4FF47A7606FBF7
:1054D000040600242546388808F0C3F80444012057
:1054E00007F01EFA05F066FBB04205F10105F2D3A4
:1054F00007EE904A07EE105AF8EE677AB8EE477A50
:105500000B4BC7EE876AD3ED007A66EEA77A17EEEB
:10551000900A0DF0B1FE0022064B0DF001FF0022B3
:10552000054B0DF0FDFE0EF0F3F900EE100AF8BD8C
:105530005CD6032000408F400000303F0000000098
:10554000D0B52DED028B0446B0EE408AFFF7B8FFD0
:10555000D4ED0A7A30EE670AD4ED097A70EE677AF4
:1055600017EE900A0DF088FE0022214B0EF002F893
:10557000D4ED0F7AF8EEE77A064617EE900A0F465A
:105580000DF07AFE02460B46304639460DF0F2FF2A
:1055900015A3D3E900230DF0C3FE0EF0B9F9B3EE65
:1055A000077AB4EEC78A94ED0E7AF1EE10FA78EE2F
:1055B000476A07EE900ACCBF94ED0C6A94ED0D6A31
:1055C00038EE478AE6EE667AD4ED0B6AB7EE000A4B
:1055D000A6EEC80ABDEC028BD4ED026A87EEA67A6D
:1055E00020EE070AD0BD00BF0000000065CDCD4110
:1055F00000408F4008B50346FFF77CFE0D4A9FED43
:105600000E7AD2ED007ADFED0D6A0D4ADA6327EEED
:10561000877A4FF07C52C7EE267ADA62094A1A631B
:10562000094A5A6318469FED097A67EE877AC3EDF7
:105630000A7A08BD60D6032040E38649A07A004A72
:10564000A08601009A9981411F85934000007A4409
:1056500005F0F0BA70470000014B01221A70704744
:10566000BCDF032010B508460EF091FB094C0A4B35
:10567000206001221A7007F03FFB084907F079F912
:1056800007F03AFB23680649BDE81040194407F0CB
:1056900070B900BFB4D6032060E0032017760E0077
:1056A00062790E0038B5064D002404F160002844EC
:1056B000103C07F05FFD14F1700FF6D138BD00BF4C
:1056C0001CD8032037B59DF8184023438DF80030CF
:1056D0003C23054606F000FD284603B030BD0022FD
:1056E0001146406805F098BB00231A4619464068E9
:1056F00005F09ABB73B51E4B1D7806460C46B5B92E
:1057000002A801221A7040F8045D2A46294605F0D5
:1057100041FA019B1E2B0AD103232068A3710823A1
:10572000A5802581638110B105F014FC2560B4F9D2
:1057300004300BB922689AB1216859B18A88012ACC
:1057400003D0042A06D1022205E089896181A27171
:10575000238105E0042223814FF6FF73A271638148
:1057600054F8063F3360A388B380304602B070BD62
:10577000B4D7032008B505F01DFA034B1860BDE847
:10578000084005F0F9BA00BF20E6032000220430EB
:1057900005F0E8BA10B5044B036004460021FFF79A
:1057A000F5FF204610BD00BFB8750E0010B50446C9
:1057B000FFF7F0FF2046202107F09EFF204610BD96
:1057C00003682BB14268934202D218460EF0DFBA4A
:1057D0000020704738B50568044645B143689D42CE
:1057E00005D228460FF0B2FB013005442560204663
:1057F00038BDF8B504460F46466821B90368721CE7
:1058000042609955F8BD08460FF0A0FBA368451CFF
:10581000AA199A4208D820682A46394630440EF020
:10582000C9FB63681D446560F8BD000070B504469F
:105830004068A6682568054A0B46311A284405F0D9
:10584000A9FB636801301844606070BD2F760E00BC
:1058500070B504464068A6682568054A0B46311AAB
:10586000284405F097FB636801301844606070BD00
:1058700032760E002DE9F04FDFF8C8908DB0064665
:105880001C4601F1FF3803EB020A012554454FD0B5
:1058900018F8017F07F04CFE394606F06EF907F064
:1058A00047FE06F075F9054668B107F041FE06F0BF
:1058B00076F907F03DFE394606F05FF907F038FE4D
:1058C00006F066F905461C4904A807F09AFC314623
:1058D00004A807F06CFD194907F075FD10228346F6
:1058E000394608A807F0F0FC08A9584607F05FFD04
:1058F0000146684607F0C4FC08A807F03BFC04A872
:1059000007F038FC002D0CBF012500250C4904F8D8
:10591000015B18BF4946684607F012FD07F0ECF935
:10592000009907F026F8684607F024FC1036ADE72A
:1059300028460DB0BDE8F08F42760E004A760E0084
:105940003A760E0036760E0010B507F0D5F9064906
:1059500007F00FF840F22C43044A05480021BDE847
:10596000104004F0BCBD00BF9F760E0078DB032022
:10597000E8D7032010B507F0BFF9064906F0F9FF94
:1059800040F22C43044A05480021BDE8104004F0D1
:1059900059BD00BFAD760E0078DB0320E8D70320A9
:1059A00008B5054B00221A7007F0A6F90349BDE8B7
:1059B000084006F0DEBF00BF38DB0320BC760E00D7
:1059C0001FB50968684607F01CFC684607F05BFDD8
:1059D000009905480EF082FDFFF7B6FF684607F014
:1059E000C9FB05B05DF804FB88DC03201FB509681E
:1059F000684607F006FC684607F045FD0099054833
:105A00000EF06CFDFFF7A0FF684607F0B3FB05B092
:105A10005DF804FB88DD03201FB50968684607F0C0
:105A2000F0FB684607F02FFD009905480EF056FD83
:105A3000FFF78AFF684607F09DFB05B05DF804FBA1
:105A400088DE032008B508680EF09EF951EC100BB3
:105A50000DF05EFF024B1860BDE80840FFF774BF11
:105A600088DF032038B5124C0D462088012107F04D
:105A7000CCFD052006F054FF0021208807F0C5FD6D
:105A8000C82006F04DFF0121208807F0BEFD05204B
:105A900006F046FF0021208807F0B7FD28680EF0C9
:105AA00076F9044B01280CBF002201221A7038BD80
:105AB00078D6032039DB032038B51A4C0D462088F0
:105AC000012107F0A2FD052006F02AFF0021208811
:105AD00007F09BFDC82006F023FF0121208807F076
:105AE00094FD052006F01CFF002120880E4C07F0D5
:105AF0008CFD28680EF04BF9C4F8200407F0FCF880
:105B00000A4906F036FF07F0F7F8D4F820340849C0
:105B1000194406F02EFF074B00221A70BDE83840EA
:105B2000FFF712BF78D6032078DB0320CA760E0079
:105B300062790E0060E0032038B51A4C0D462088CB
:105B4000012107F062FD052006F0EAFE0021208811
:105B500007F05BFDC82006F0E3FE0121208807F076
:105B600054FD052006F0DCFE002120880E4C07F0D5
:105B70004CFD28680EF00BF9003018BF012084F8A6
:105B80001704FFF7E1FE07F0B7F8084906F0F1FE49
:105B900007F0B2F894F8173405491944BDE83840C5
:105BA00006F0E7BE78D6032078DB0320E6760E0009
:105BB00062790E0038B51A4C0D462088012107F095
:105BC00024FD052006F0ACFE0021208807F01DFD15
:105BD000C82006F0A5FE0121208807F016FD05204B
:105BE00006F09EFE002120880E4C07F00EFD28686E
:105BF0000EF0CDF8003018BF012084F81804FFF72C
:105C0000A3FE07F079F8084906F0B3FE07F074F830
:105C100094F8183405491944BDE8384006F0A9BE87
:105C200078D6032078DB03200F770E0062790E0010
:105C300038B51A4C0D462088012107F0E6FC0520F6
:105C400006F06EFE0021208807F0DFFCC82006F079
:105C500067FE0121208807F0D8FC052006F060FED1
:105C6000002120880E4C07F0D0FC28680EF08FF839
:105C7000003018BF012084F81904FFF765FE07F013
:105C80003BF8084906F075FE07F036F894F8193429
:105C900005491944BDE8384006F06BBE78D60320AC
:105CA00078DB032037770E0062790E0038B51A4C86
:105CB0000D462088012107F0A8FC052006F030FEE3
:105CC0000021208807F0A1FCC82006F029FE012150
:105CD000208807F09AFC052006F022FE002120888B
:105CE0000E4C07F092FC28680EF051F8003018BFF7
:105CF000012084F81A04FFF727FE06F0FDFF08498B
:105D000006F037FE06F0F8FF94F81A3405491944F6
:105D1000BDE8384006F02DBE78D6032078DB03209E
:105D20005F770E0062790E00F8B508681E4C1F4DB3
:105D30000EF02DF8D4F81C74064606F0DDFF1C4961
:105D400006F017FE06F0D8FFA91906F012FE032E82
:105D5000234601D1902203E0012E14BF6422482281
:105D6000C3F81C24D3F81C349F421BD006F0C4FF98
:105D7000104906F0FEFD06F0BFFF0B4BD3F81C14D4
:105D8000294406F0F6FD06F0B7FF0B4906F0F1FDD9
:105D9000FFF7DAFD4FF47A6006F0C2FDBDE8F84087
:105DA00007F088B8F8BD00BF78DB032062790E00E9
:105DB00088770E00B7770E00D7770E0038B51A4CEB
:105DC0000D462088012107F020FC052006F0A8FDE3
:105DD0000021208807F019FCC82006F0A1FD012150
:105DE000208807F012FC052006F09AFD002120888B
:105DF0000E4C07F00AFC28680DF0C9FF003018BFF0
:105E0000012084F81B04FFF79FFD06F075FF084989
:105E100006F0AFFD06F070FF94F81B3405491944F5
:105E2000BDE8384006F0A5BD78D6032078DB032016
:105E3000EA770E0062790E0008B5074B1A78074B17
:105E400093F81414914205D083F81424FFF77CFDD5
:105E5000012008BD002008BDE0E0032078DB03201E
:105E600008B5074B1A78074B93F81514914205D0E3
:105E700083F81524FFF768FD012008BD002008BD48
:105E8000C5DF032078DB032008B5074B1A78074BE2
:105E900093F81614914205D083F81624FFF754FDA9
:105EA000012008BD002008BDC4DF032078DB0320EB
:105EB00038B5046805467CB16368013B63605BB933
:105EC000236820469B689847A368013BA3601BB9E1
:105ED00023682046DB689847284638BD1FB51A4C12
:105EE00006F00AFF194906F044FD06F005FFD4F854
:105EF00020341749194406F03CFDD4F82014154B02
:105F00000022032912D8DFE801F01102070C1B78E8
:105F10008DF80020104A0DE01B788DF800200F4A04
:105F200008E01B788DF800200D4A03E01B788DF8FF
:105F300000200C4A0C4902A8FFF7C4FB03A8FFF796
:105F4000B7FF04B010BD00BF78DB032050780E000F
:105F500062790E0018D8032090780E00A0780E0009
:105F6000B0780E007F780E00E4820E0010B5044B6E
:105F7000044640F8183BFFF79BFF204610BD00BFCA
:105F800004880E0038B5054622B90368C9B29B687B
:105F9000984702E0D2B206F009FD0446284606F012
:105FA000EFFC204438BD37B5044610EE100A0D460C
:105FB0000DF062F92A46CDE900010021204606F0E5
:105FC000E2FD03B030BD10B42AB903685DF8044B9C
:105FD0009B68C9B21847D2B25DF8044B06F0E6BC24
:105FE00010B506F089FE5B2106F0C7FC06F084FEC2
:105FF000044603F0FBFB0A2201462046FFF7E3FFBD
:1060000006F07AFE0249BDE8104006F0B2BC00BFBF
:10601000C4780E00F8B504460E461746FFF7E0FFB9
:1060200006F06AFE214606F0A4FC37440124BE4275
:1060300028D016F8015BA5F120035E2B0BD824B9FC
:1060400006F05AFE5D2106F098FC06F055FE294642
:1060500006F093FCEAE706F04FFE002C14BF5B212C
:106060007C2106F08AFC0F2D04D806F045FE302175
:1060700006F083FC06F040FE1022294606F096FC4E
:106080000024D4E724B906F037FE5D2106F075FC44
:1060900006F032FEBDE8F84006F072BCF0B5476B82
:1060A00087B00446EFB1FFF79BFF06F025FE3149AC
:1060B00006F05FFC06F020FE616B06F05AFC06F06D
:1060C0001BFE3A2106F059FC06F016FE218F0A222B
:1060D000FFF758FF0023228F616B204605F044F93B
:1060E00043E0FFF77DFF06F007FE224906F041FC82
:1060F00006F002FE0A2294F8231006F057FC06F080
:10610000FBFD2E2106F039FC06F0F6FD0A2294F87C
:10611000221006F04BFC06F0EFFD2E2106F02DFCC0
:1061200006F0EAFD0A2294F8211006F03FFC06F082
:10613000E3FD2E2106F021FC06F0DEFD2546064695
:106140000A2215F8201F06F031FC304606F018FC34
:10615000094B00930FCD01AE0FC62B683370228F11
:106160003B466946204605F081F9431E5842584196
:1061700007B0F0BDC7780E004C890E0070B54160C5
:10618000044616461D4603F031FBA0F59C50083826
:106190002061E0606061FFF723FF06F0ADFD034979
:1061A00006F0FAFB21684E630D8770BDD6780E00AD
:1061B00008B500234377006805F0D2F9BDE8084030
:1061C00003F0FABA38B50546FFF7FDFE0446284647
:1061D00006F0D6FB204438BD2DE9F04107460C46B9
:1061E00015462AB90368C9B29B68BDE8F041184753
:1061F000002907DA0A2A05D12D2106F0BEFB6142EB
:10620000064601E021460026EAB2384606F0CEFBFB
:106210003044BDE8F08100002DE9F0418EB004AFBC
:106220000446052207F10C01006806F064FB0546F0
:10623000002800F0078205281AD1024607F10C0158
:10624000B848FFF7E7FEB7F80D20B7F80F80130A3C
:1062500043EA02234FEA182242EA08289BB21FFAB7
:1062600088F8A7F80D30A7F80F80B3B92C4601E0E5
:106270004FF0FF34FFF7B4FE06F03EFDAA4906F0EA
:1062800078FB06F039FD0A2205462146FFF7A4FFF8
:10629000284606F075FB0020D9E13B7B002B5FD13F
:1062A00003F0A4FA657FE060B7F80F00002D53D12A
:1062B000B7F80D30012B4FD1092834D0C82801D0B0
:1062C00004283AD1FFF78CFE06F016FD974906F038
:1062D00050FB06F011FD6369E1680A22C91AFFF755
:1062E00072FE06F009FD924906F056FBE368636111
:1062F0000123637703F07CFA054660B1FFF770FE77
:1063000006F0FAFC8B4906F034FB06F0F5FC0A2295
:106310002946FFF757FF204600F060FBFFF72AFAF7
:1063200001F0C6F88EE1FFF75BFE06F0E5FC82495E
:1063300006F032FB03236377ADE7FFF751FE06F06B
:10634000DBFC7E4906F015FB06F0D6FC0A22B7F806
:106350000F10FFF717FE9EE7053818BF012076E102
:10636000B8F5806F11D9FFF73BFE06F0C5FC744904
:1063700006F0FFFA06F0C0FC0A22B7F80F10FFF78C
:1063800001FE2046FFF714FF5CE108F1080323F04B
:1063900007036E46ADEB030D04AD42462946206867
:1063A00006F0A9FA804507D0FFF71AFE06F0A4FC14
:1063B000644906F0F1FA63E0B7F80F200023AB540C
:1063C0001AB129465748FFF725FE03F00FFA3B7B29
:1063D000E060112B00F0BC8008D8062B36D00F2BC4
:1063E00000F09280022B40F016810CE01D2B0AD0A9
:1063F00003D8142B00F088800DE1292B32D0372BE5
:1064000000F0F98007E1637F03BBFFF7E9FD06F0C9
:1064100073FC4D4906F0C0FA0123637703F0E8F9F5
:10642000054660B1FFF7DCFD06F066FC414906F069
:10643000A0FA06F061FC0A222946FFF7C3FE2046B7
:1064400000F0CCFAFFF796F901F032F80023C821EA
:10645000B7F80D200091029301931946204600F0F1
:10646000D3F9ECE0A3681BB9202004F06BFDA06019
:10647000B7F80F80FD61A8444545C7F8208001D3D7
:106480000020DDE029462022A0680EF07CFDA368F4
:106490000025DD7707F11C00FFF79CF903684345F1
:1064A00008D2F86920B13B6A9842C0F0CD802846F6
:1064B00085B200E05025FFF793FD06F01DFC23494F
:1064C00006F057FA06F018FCA16806F052FA06F03A
:1064D00013FC3A2106F051FA06F00EFC0A22294676
:1064E000FFF750FD206805F03BF82368A2685A6367
:1064F0001D870023637703F079F9A0F59C500838D5
:106500002061E06060619AE0FB68C3F30F2363835E
:10651000B7F80F202946204600F072FA0023638363
:106520008DE000BF64790E0066790E0074790E006C
:1065300082790E0087790E0092790E00A5790E00FF
:10654000BC790E00CD790E00DD790E00E3790E00E6
:1065500000233B71B7F80F307D612B449D42BB6136
:106560006DD22868B86007F11400FFF733F97A6933
:10657000B7F80F30FA61511B5B1A3B627B62364AF7
:10658000BB6893422BD00DD8344A93421BD002F5FE
:1065900000320332934228D107F11C01381D03F069
:1065A0000AF94CE02E4A934213D002F19F6202F5A1
:1065B000003202F58072934217D107F11C01381D99
:1065C000FFF7EEF93BE007F11C01381D03F0F3F88B
:1065D00035E007F11C01381D00F062FD2FE007F1E6
:1065E0001C01381D03F0E7F829E0FFF7F9FC06F07D
:1065F00083FB1C4907E0B7F80F3003B3FFF7F0FC4B
:1066000006F07AFB184906F0B4F906F075FB294646
:1066100006F0C2F913E0FFF7E3FC06F06DFB134947
:1066200006F0A7F906F068FB0A220546397B06F05A
:10663000BDF9284606F0A4F92046FFF7B9FD012070
:10664000B54604E0012002E00DF0A5FB30E7283755
:10665000BD46BDE8F08100BF6D6574616F74610077
:1066600061636F6EF3790E00097A0E00127A0E00E4
:106670002DE9FF4104460D46FFF77CF8637F022BAE
:1066800000F0A780237F628B0133DBB22377002ADF
:1066900064D1022B62D8206804F073FD40B1002D54
:1066A00040F09980206804F073FF002800F3938085
:1066B00003F09CF80746206804F063FD657F012D18
:1066C00006464DD128B967612046FFF771FD354672
:1066D0007BE0E368484AFB1A934227D9FFF780FC26
:1066E00006F00AFB454906F044F906F005FB0A22CC
:1066F0003946FFF768FC06F0FFFA414906F039F920
:1067000006F0FAFA0A22E168FFF75DFC06F0F4FAF7
:106710003B4906F02EF906F0EFFA0A226169FFF70D
:1067200051FD2046FFF744FD00254EE04EF6602265
:10673000934203D82369FB1A93420FD9636940F649
:10674000B832FB1A934209D90023029301930093B4
:106750001A460621204600F057F86761012534E00B
:10676000002DFBD16169791A78B140F6B8339942AE
:10677000F4D9FFF735FC06F0BFFA224906F00CF910
:10678000206804F0EDFE65771FE041F288339942FE
:10679000E4D9206804F0E4FE2068FFF77FFC05469A
:1067A00008B9676111E0D4F80480012727834046C7
:1067B0000EF0CCFB43468DE8410002963A461D217F
:1067C000204600F021F823696361237F013B237792
:1067D0000EE000250CE02046FFF71EFD05460028D0
:1067E0007FF460AF206804F0BBFE02F0E5FFECE749
:1067F000284604B0BDE8F081880D0100287A0E001B
:1068000024750E003C7A0E002DE9F04F83B000AFE6
:10681000044600683D6B894616469B46EA4604F0EE
:10682000B0FC002871D0B9F11D0F05D8674B23FAD1
:1068300009F3DB0700F1C580637F012B65D116B931
:10684000668B002E66D0A9F10C03082B6AD97A6BEF
:10685000BBF1000F14BFA8464FF00008002ABA6B26
:1068600008F1050314BF90464FF00008984408F162
:10687000070323F00703AA18ADEB030DC2F30723A8
:1068800076BA43EA0223C7F804D08DF80090ADF839
:106890000160ADF80330BBF1000F63D0002D61D073
:1068A0002A4659460DF105000DF084FB681D7B6BEF
:1068B000002B59D10025454562D2C5EB0806B6F537
:1068C000806F7B6828BF4FF4806603EB050926B113
:1068D000324649463E48FFF79DFB3246494620680E
:1068E00004F039FC0646002002F07EFF002E45D160
:1068F000FFF776FB06F000FA364906F04DF82068FF
:1069000004F02EFE667702F057FF0C37D546BD46E1
:10691000BDE8F08F238B01339BB203B9012323839E
:10692000268B90E7E3682269934238BF134603F150
:10693000420802F05BFFC0EB080000280ADB0021E0
:106940002046FFF795FE02F051FFC0EB080000283B
:10695000F5DA7CE7217F00297FF479AF2046FFF745
:1069600087FE74E70520A2E7BB6B002BA2D01A4676
:106970007B68796B18440DF01DFB9BE735449AE763
:106980001BD0FFF72DFB06F0B7F9134905F0F1FF17
:1069900006F0B2F90A222946FFF715FB06F0ACF91A
:1069A0002F2105F0EAFF06F0A7F90A224146FFF77A
:1069B00009FC2046FFF7FCFBA7E702F017FF206168
:1069C000A3E7002E7FF443AF3AE700BF4500002065
:1069D0004A7A0E004C7A0E00567A0E0000B595B039
:1069E00004AB00220193492300930292034B11212F
:1069F000FFF70AFF15B05DF804FB00BFCC750E0071
:106A00002DE9F0418E188EB0B14280460D461746F2
:106A10000591069680F03D810B88ADF8123005A8EF
:106A2000FEF7D8FE03689E4240F233810598037852
:106A3000412B12D101300DF0AAF9052801DDFF2408
:106A40000FE0059801300DF0A2F90028F7DB05985A
:106A500001300DF09CF90E3002E005A8FEF7B0FE03
:106A6000C4B2BDF8123047F27622934200F0B780EC
:106A70000DD847F2612293427DD047F264229342BF
:106A800051D046F67052934240F0D48027E047F24E
:106A90006472934259D047F27672934200F0B0800C
:106AA00047F26172934240F0C58085E00378412B44
:106AB00025D101300DF06BF9052814DDFF2405A860
:106AC000FEF788FE059D744928460DF0FDFC014641
:106AD000D0B9204606F088FD05A8FEF77BFE059894
:106AE0008642E3D8D5E0059801300DF050F9002832
:106AF000E4DB059801300DF04AF90E3002E005A8FC
:106B0000FEF75EFEC4B2DAE7644928460DF0DCFC0D
:106B1000002800F0A480624928460DF0D5FC00282A
:106B200000F09D809DE00AAB079307A81023002585
:106B30005C4909930895FEF75CFE07A82146FEF71D
:106B400075FE204606F07AFD26E005A8FEF742FE17
:106B500003689E4240F29D80A4B20121204606F0C7
:106B600043FD05A8FEF72CFE011C18BF012120469D
:106B700006F04BFD8DE00AAB07934B49102307A8A5
:106B8000002509930895FEF734FE07A82146FEF775
:106B90004DFE204606F065FD014607A8FEF758FEAB
:106BA000089B0295013B0093079B01952A461421FF
:106BB0004046FFF729FE6CE005A8FEF70BFE0368D0
:106BC0009E4266D9A4B20121204606F00DFD05A81B
:106BD000FEF7F6FD0146204606F05AFD59E00EADDF
:106BE000204605F8104D02F0E9FD0346284623B182
:106BF0002E4A934201D098474BE002F0DBFD48E07B
:106C000005A8FEF7E7FD059B0A935D1B7F1B204649
:106C10000B970C978DF81C4002F0DAFD03460AA989
:106C200007A823B1224A934201D0984731E002F0ED
:106C3000C2FD2EE0FFF7D4F906F05EF81D4905F01D
:106C400098FE06F059F8294605F0A6FE0023022119
:106C50000091B8F81A20029301931946A8E7012180
:106C600037E7FFF7BDF906F047F8134905F081FE55
:106C700006F042F80A22214605F098FE06F03CF89C
:106C80000E4905F076FE06F037F8059905F084FE0A
:106C900022E70EB0BDE8F081B5740E00467A0E0012
:106CA0005C7A0E00607A0E00637A0E00B5970D00D4
:106CB000B7970D00667A0E00777A0E00847A0E0080
:106CC000F0B5ADF2244D08AB002405460F46059300
:106CD00005A84FF480630E49079316460694FEF705
:106CE00088FD394605A8FEF7A1FD314605A8FEF747
:106CF0009DFD069B0294013B00930194059B224657
:106D000014212846FFF780FD0DF2244DF0BD00BF91
:106D10008B7A0E00F0B5ADF2344D0CAB0024054675
:106D20000F46059305A84FF4806311490793164653
:106D30000694FEF75EFD394605A8FEF777FD31465D
:106D400008A806F09DFA089905A8FEF752FD08A8C4
:106D500006F010FA069B0294013B00930194059BF8
:106D6000224614212846FFF74FFD0DF2344DF0BDA9
:106D70008B7A0E0070B592B06249634C06A806F09B
:106D800040FA6249624806F08EFA03F013FF614A46
:106D9000D4F8283412689B1A1844C4F82804FEF763
:106DA000D3FD5D4B5A491B7843B30AA806F068FA35
:106DB0005A490AA806F007FB0546594803F038FD72
:106DC000584B59491A68594B02440EA805F012FD58
:106DD0000EA9284606F0EBFA504906F0F4FA544999
:106DE00006F0E5FA534906F0EEFA014606A806F069
:106DF00038FA0EA806F0BEF90AA811E00EA806F0AF
:106E00003FFA4D490EA806F0DEFA494906F0CFFADE
:106E1000484906F0D8FA014606A806F022FA0EA85C
:106E200006F0A8F906A90EA806F02AFA0EAA1E2155
:106E30004248FFF76FFF0EA806F09CF940F6B83005
:106E400005F06EFD002202213D4803F0DFFA00222A
:106E500003213B4803F0DAFA06F06AFB04F09BFEDC
:106E600018B906F065FB04F053FE05F045FF3549FF
:106E7000254D05F07EFD344800231A46194640682A
:106E800003F0DAFF00234FF47A7084F8243484F896
:106E9000253405F045FD94F82444CCB105F02CFFD1
:106EA0002A4905F066FD2A4B19680823ADF82830F9
:106EB00012AB012285F8252403F8312D02914FF4FD
:106EC0006171019100920AA90EA806F035F814E04C
:106ED00005F012FF1F4905F04CFD01264FF4FA6042
:106EE00085F8244485F8256405F01AFD1A4B2246DE
:106EF0001B6831460EA805F0E1FF06A806F03AF936
:106F000012B070BD63790E0078DB03208E7A0E001C
:106F1000CCD803202CE00320A5DF0320AC7A0E00A0
:106F200028E00320B4D60320C8E50320937A0E009E
:106F3000DCD803209B7A0E009D7A0E0038E30320F4
:106F4000A4DF0320AE7A0E005CE50320BE7A0E00BB
:106F5000C0DF0320D67A0E0024E00320F0B5ADF2A6
:106F6000344D0CAB002405460F46059305A84FF49D
:106F700080631149079316460694FEF73AFC39469A
:106F800005A8FEF753FC314608A806F079F90899E0
:106F900005A8FEF72EFC08A806F0ECF8069B029464
:106FA000013B00930194059B224614212846FFF7DC
:106FB0002BFC0DF2344DF0BD8B7A0E00F0B5ADF226
:106FC0002C4D0AAB002406460D46079307A84FF444
:106FD000806317498DED050A09930894FEF709FCB3
:106FE000294607A8FEF722FC9DED050A089B099992
:106FF000079D10EE100ACF1A1D440CF03DF90D4A02
:10700000CDE900013946284603F0C4FF089B0294ED
:10701000013018440890013800900194079B2246E3
:1070200014213046FFF7F0FB0DF22C4DF0BD00BFF0
:107030008B7A0E00EF7A0E0038B5094D094C6A685C
:1070400020460B21FFF73CFE2046AA680D21FFF7E2
:1070500037FE95ED030A0F212046FFF7AFFF38BD3D
:1070600078DB032038E3032008B508680CF08FFEB6
:10707000034B5860FEF768FCBDE80840FFF7DCBF33
:1070800078DB032008B508680CF081FE034B98609C
:10709000FEF75AFCBDE80840FFF7CEBF78DB0320BF
:1070A00008B5064B01221A70FFF7C6FF05F024FE53
:1070B0000349BDE8084005F05CBC00BF38DB032095
:1070C000F57A0E0010B508680CF061FE01280DD1AC
:1070D0000D480E4CFEF7A2F984ED030AFEF734FCCE
:1070E00094ED030A0A480F21FFF768FF00220E21E2
:1070F0000748FFF7E5FD4FF47A6005F011FCBDE8A5
:10710000104005F0D7BE00BFC8DF032078DB0320A6
:1071100038E30320F0B5ADF2244D08AB002405465A
:107120000F46059305A84FF480630E490793164652
:107130000694FEF75EFB394605A8FEF777FB31465D
:1071400005A8FEF756FB069B0294013B00930194B1
:10715000059B224614212846FFF756FB0DF2244DCD
:10716000F0BD00BF8B7A0E00F0B5ADF2244D08AB38
:10717000002405460F46059305A84FF480630E4989
:10718000079316460694FEF734FB394605A8FEF72A
:107190004DFB314605A8FEF749FB069B0294013BD7
:1071A00000930194059B224614212846FFF72CFBEF
:1071B0000DF2244DF0BD00BF8B7A0E0010B5464C89
:1071C000464862680A21FFF77BFDA26843480C210C
:1071D000FFF776FD626841480B21FFF771FDA26859
:1071E0003E480D21FFF76CFD04F1100214213B48CD
:1071F000FFF790FF04F5887210213848FFF78AFFE7
:1072000004F5047212213548FFF784FF04F5447237
:107210001A213248FFF77EFF94ED030A2F480F2111
:10722000FFF7CCFE04F5826393ED000A2B48192189
:10723000FFF7C4FED4F8202428481721FFF740FDAB
:10724000274A26481621FFF765FF94F8172423489C
:107250001821FFF789FF94F8182420481B21FFF715
:1072600083FF94F819241D481C21FFF77DFF94F833
:107270001A241A481D21FFF777FF94F81B2417489A
:107280002021FFF771FFD4F81C34902B01D1032289
:1072900003E0482B0CBF012202221F210F48FFF7F9
:1072A0000FFD104B1B7823B10F4A0C481521FFF737
:1072B00031FF0E4B1B682360012384F82434002324
:1072C00084F8253405F018FD094905F052FBBDE8A6
:1072D0001040FEF739BB00BF78DB032038E3032002
:1072E000007B0E0039DB0320147B0E0088D60320C0
:1072F0002F7B0E002DE9FF410968684605F081FFEC
:107300006149684606F085F8002800F0B6805F4CB9
:107310005F4A60481621FFF7FDFE0523002501277F
:107320004FF00F08A3605C49C4F80480002304F107
:107330001000E360256084F8247484F825540DF06F
:10734000CDF8564904F588700DF0C8F8534904F596
:1073500004700DF0C3F804F58266504904F54470DA
:107360000DF0BCF84E4B3360424664230A21494875
:10737000C4F81C34C4F8205484F8145484F8155408
:1073800084F8177484F8185484F8197484F81A74FB
:1073900084F81B74C4F82854FFF792FCA2683D4897
:1073A0000C21FFF78DFC62683A480B21FFF788FC3F
:1073B000A26838480D21FFF783FC04F11002142164
:1073C0003448FFF7A7FE04F5887210213148FFF713
:1073D000A1FE04F5047212212E48FFF79BFE04F56E
:1073E00044721A212B48FFF795FE94ED030A2948B1
:1073F0004146FFF7E3FD96ED000A26481921FFF705
:10740000DDFDD4F8202423481721FFF759FC94F818
:10741000172420481821FFF7A7FE94F818241D48C8
:107420001B21FFF7A1FE94F819241A481C21FFF72D
:107430009BFE94F81A2417481D21FFF795FE02229F
:107440001F211448FFF73CFC94F81B24114820210D
:10745000FFF78AFE134803F077F8134A0D48152109
:10746000FFF758FE05F048FC104905F082FA4FF48A
:10747000FA7005F055FA05F01DFD684605F07AFE34
:1074800004B0BDE8F08100BF487B0E0078DB03202C
:10749000007B0E0038E30320507B0E00667B0E005D
:1074A0000000A041E8D70320777B0E00867B0E000A
:1074B0001FB505F021FC0B4905F05BFA0A4B1A6871
:1074C0000A4B1B689A4201D0FFF778FE0023029313
:1074D000019300931A4610210548FFF795F905B06E
:1074E0005DF804FB967B0E0078DB032088D6032032
:1074F00038E303202DE9F04FADF2D44D054660226C
:1075000000211CA80CF061FD7E4B1C937E4B209348
:107510007E4B24937E4B28937E4C7F4B2C937F4B4A
:10752000309323780DF1200B0DF1280A0DF130096D
:107530000DF1380810AF12AECDF874B0CDF884A0BC
:10754000CDF89490CDF8A4802D97319623B12A469A
:1075500015217348FFF7DEFD07AB06221CA928465C
:10756000FDF7A0FE0590002800F09D806D4D686835
:107570000BF082FECBE90001A8680BF07DFECAE9A2
:107580000001E8680BF078FEC9E9000128690BF0FA
:1075900073FE654AC8E9000110680BF06DFE634A8E
:1075A000C7E9000110680BF067FE059BC6E9000102
:1075B0001846FDF761FB237857EC106B5BB15C4913
:1075C00034A805F05DFE564834AA1521FFF7A2FB4A
:1075D00034A805F0CFFD237833B334AB00251893DE
:1075E000544919954FF4806318A81A93FEF701F9CE
:1075F000152118A8FEF71AF9199B1A9918984E4ADE
:10760000C91A1844CDE9006703F0C4FC199B029520
:10761000013018441990013800900195189B40489A
:107620002A461421FFF7F0F823785BB1434934A8C8
:1076300005F026FE3A4834AA1521FFF76BFB34A863
:1076400005F098FD2378EBB13D4934A805F018FE0C
:1076500034AA15213248FFF75DFB34A805F08AFDF6
:107660000022384B304639460CF0C2F890B1294B15
:107670001C780CB901243FE0334A29481521FFF753
:1076800049FD39E000222F4B304639460CF0B0F866
:107690000028EFD12478002C2ED02C4A2048152128
:1076A000FFF738FD27E02A4934A805F0AAFD0A2291
:1076B000079918A805F01AFE18A934A805F077FE56
:1076C000014614A805F0DCFD18A805F053FD34A808
:1076D00005F050FD23785BB114A934A805F0D0FD66
:1076E0000F4834AA1521FFF715FB34A805F042FD19
:1076F00014A805F03FFD002420460DF2D44DBDE84E
:10770000F08F00BFC27B0E00C67B0E00CA7B0E004E
:10771000CE7B0E0039DB0320D37B0E00D87B0E001E
:1077200038E30320B0E0032010E003206CE30320E3
:10773000A8DF03208B7A0E00DD7B0E0044E00320DF
:10774000E4E003200000F03FE37B0E00FA7B0E0034
:10775000127C0E001FB50968684605F052FD6846A8
:1077600005F091FE009908480CF0B8FEFEF7ECF821
:10777000064B1B7813B10448FFF7BCFE684605F0C2
:10778000F9FC05B05DF804FB88DB032030E0032042
:1077900030B5ADF2244D08AB00240546059305A88D
:1077A0004FF4806307930694FEF723F8069B029438
:1077B000013B00930194059B224640212846FFF798
:1077C00023F80DF2244D30BD70B52F4B2F4C1A7895
:1077D0001E46002A41D005F08FFA2D4905F0C9F860
:1077E00000212C4802F05FFD00212A4802F055FDDF
:1077F000284802F09DFC032205460146254802F078
:10780000DBFB60B105F078FA234905F0B2F80023FC
:107810002370FEF739FB01211E4802F03EFD0422D1
:1078200029461C4802F0C8FBA8B105F065FA1B49BF
:1078300005F09FF801232370FEF726FB38B1184BA3
:1078400093F81A341BB117491748FFF7A1FF01211C
:10785000104802F028FD00233370237833B9134B0E
:10786000197819B9124B188805F0CFFE237853B157
:107870000B4B93F8173433B10D4B01211888BDE839
:10788000704005F0C2BE70BDBCDF0320C4DF032022
:10789000247C0E0040DB03203F7C0E00537C0E0056
:1078A00078DB0320657C0E0038E30320ECD803204E
:1078B00078D6032070B5044600680E4603F050FEEB
:1078C0000023637701F092FF0546637F012B09D007
:1078D00001F08CFF401BB04204D200212046FEF78D
:1078E000C7FEF2E7607F431E5842584170BD00005A
:1078F000F8B5554D2846FDF7F2FE044630BB05F0BD
:10790000FBF95249524E05F034F82846FDF7ECFEDB
:10791000234622462146686803F066FA204603F0B3
:1079200061F9002504460027002003F05BF9001BE5
:1079300061EB05018F4208BF86425FD34248FDF7E5
:10794000CEFE00285AD103F017FAEDE705F0D4F97E
:10795000404905F00EF803F01FFA0446F8B905F0A7
:10796000CBF93D4905F005F803F00EFA204603F087
:1079700039F9002504464EF65F260027002003F063
:1079800031F9001B61EB05018F4208BF864248D3E5
:1079900003F002FA002844D103F0EEF9EEE705F017
:1079A000ABF92E4904F0E5FF2D4C637F012B1ED06F
:1079B00005F0A2F92B4904F0DCFF2B4B2B491B8867
:1079C0002B4A2046FEF7DAFB42F228312046FFF729
:1079D00071FF002836D105F08FF9264904F0C9FF60
:1079E000C82004F09DFFBDE8F84005F063BA05F03B
:1079F00083F92149BDE8F84004F0BBBF1248FDF708
:107A00006EFE1148FDF76BFE0028A4D105F074F955
:107A10001A4904F0AEFFC82004F082FF05F04AFACC
:107A200099E703F0B9F903F0B7F90028BCD105F0E4
:107A300063F9134904F09DFFC82004F071FF05F0BD
:107A400039FAB1E7F8BD00BF5CE50320727C0E0097
:107A50001FBF0200917C0E009D7C0E00DB7C0E009F
:107A600038E30320EF7C0E0084D6032090D6032059
:107A7000127D0E003B780E00277D0E002B780E0045
:107A8000C37C0E0070B52E4C2046FDF728FE05463F
:107A9000E0B905F031F92B4904F06BFF2A4629467D
:107AA000606803F0A9F90546002848D105F024F9DB
:107AB000254904F05EFF2046FDF716FE2B462A46B8
:107AC00029466068BDE8704003F08EB91F4C05F090
:107AD00013F91F4904F04DFF637F012B12D005F00D
:107AE0000BF91C4904F045FF00212046FEF7C0FDBC
:107AF00042F228312046FFF7DDFE40B905F0FCF8E0
:107B0000154902E005F0F8F8144904F032FF03F0DB
:107B100043F968B905F0F0F8114904F02AFF03F0C1
:107B200033F903F039F950B905F0E6F80D4902E0F0
:107B300005F0E2F80C49BDE8704004F01ABF70BDD2
:107B40005CE503202B780E00727C0E0038E30320E6
:107B5000917C0E00EF7C0E003B780E00277D0E001E
:107B60009D7C0E00C37C0E00DB7C0E0013B51C490F
:107B70001C4C6846FDF7BEFD684605F015FA022864
:107B800011D105F0B9F8184904F0F3FE174B0021A4
:107B9000188884F8241405F038FD4FF4FA6004F0D6
:107BA000BFFEFFF7E7F800211148FEF761FD11481D
:107BB00001F09FFE104801F09CFE104B62681B68AC
:107BC0009A420ADC094B0021188805F01EFD4FF48B
:107BD000FA6004F0A5FEFFF7CDF802B010BD00BFBB
:107BE000F4E5032078DB0320387D0E0078D60320EF
:107BF00038E30320F0D80320F4E0032014D8032056
:107C00002DE9F04F2DED028BA9B005F075F8B049C4
:107C1000B04C04F0AEFEB04903A805F0F2FA03A997
:107C20001FA805F02DFBAD491FA805F0CCFBAC4902
:107C300005F0C9FB94F8171405F0D7FBA94905F026
:107C4000C2FBA94905F0BFFB94F8181405F0CDFB61
:107C5000A44905F0B8FBA54905F0B5FB94F8191443
:107C600005F0C3FB9F4905F0AEFBA14905F0ABFB56
:107C700094F81A1405F0B9FB9A4905F0A4FB9D4944
:107C800005F0A1FB94F81B1405F0AFFB954905F036
:107C90009AFB994905F097FBD4F81C1405F0A5FB55
:107CA000904905F090FB954905F08DFBD4F8201420
:107CB00005F09BFB8B4905F086FB014603A805F008
:107CC000D0FA1FA805F056FA05F016F8039904F04B
:107CD00050FE94F82534002B00F04D8205F028FC6E
:107CE00044F6206103F00AFF0321082005F07CFC24
:107CF00003F0EAFF4FF4E13103F0DAFF804D04F0C6
:107D0000FBFF4FF4E13104F0F1FF642004F008FEC2
:107D10000121288805F068FC0021288805F075FC01
:107D200005F006FC03F0EEFE642004F0F9FD04F01B
:107D3000E3FF744904F01DFE05F0FAFB202103F077
:107D40001CFF05F0F5FB03F023FF002841D005F0F0
:107D5000EFFB03F024FF05F0EBFB202103F00DFF08
:107D600005F0E6FB03F014FF98B304F0C5FF664985
:107D700004F0FFFD654B664A1B78664900261FA884
:107D80008DF80060FDF79EFC20A8FEF791F8012118
:107D90006148FDF7FBFC40F6B83004F0C1FD314608
:107DA0005D48FDF7F3FC01215C48FDF7EFFC40F670
:107DB000B83004F0B5FD31465848FDF7E7FC012125
:107DC0005548FDF7E3FC40F6B83004F0A9FD05F096
:107DD00071F85348DFF86091DFF8548102F06CFAD3
:107DE000012202214E4802F011FB012203214C48DE
:107DF00002F00CFB642004F093FD28AA002642F850
:107E0000446D04233146474802F01CFB04F074FF24
:107E1000179B454A012104F0B6FE04F06DFF43496B
:107E200004F0A7FD424B434943480722FDF722FDDA
:107E3000074604F061FF330153F8091004F099FD7F
:107E400004F05AFF3D4904F094FD04F055FF16F884
:107E5000083024490136194404F08BFD072EE8D17F
:107E6000002F73D13649374805F01DFA04F044FF5E
:107E7000354904F07EFD012004F061FB3A463946A5
:107E8000FF2004F06CFB40F6B83004F049FD3846A2
:107E900004F055FB0121288805F0B7FB642004F0AD
:107EA0003FFD3946288805F0B0FB05F041FB03F0A3
:107EB00076FE05F03DFB03F06EFE18B905F038FBC9
:107EC00003F020FE05F034FB03F022FE6EE000BF5D
:107ED000887D0E0078DB032063790E009B7D0E0009
:107EE000AF7D0E0062790E00BE7D0E00CC7D0E00CF
:107EF000DA7D0E00E97D0E00F97D0E000D7E0E008C
:107F000078D603201A7E0E003D7E0E0018D803207E
:107F10006F7E0E00A07E0E00C8D70320F4D703208A
:107F2000A4DF0320E8D70320A67E0E00AC7E0E005F
:107F300008E003207CD603201CD803201B8A0E00F7
:107F4000C57E0E00CCD80320C97E0E00C149C248B0
:107F500005F0A9F904F0D0FEC04904F00AFD0121A2
:107F6000288805F052FB052004F0DAFC002128885F
:107F700005F04BFBC82004F0D3FC0121288805F054
:107F800044FB052004F0CCFC0021288805F03DFBD3
:107F9000C82004F0C5FC0121288805F036FB052027
:107FA00004F0BEFC0021288805F02FFBC82004F057
:107FB000B7FC0FB904F07EFFA948AA4E02F038FCC6
:107FC000054604F099FEA84904F0D3FC04F094FEA1
:107FD0000A222946FEF700F904F08EFEA34904F0B8
:107FE000C8FC04F089FE3368A1492A4607461BA84D
:107FF00004F000FC1BA91FA805F042F99D491FA829
:1080000005F0E1F90168384604F0B3FC1FA805F05B
:10801000B1F81BA805F0AEF8974B9D4232DC9749AA
:108020008F4802F0BCFB8E4802F002FC054604F0CB
:1080300063FE934904F09DFC04F05EFE0A2229468B
:10804000FEF7CAF804F058FE884904F092FC04F0E8
:1080500053FE336886492A4607461BA804F0CAFB2C
:108060001BA91FA805F00CF982491FA805F0ABF960
:108070000168384604F07DFC1FA805F07BF81BA8BA
:1080800005F078F87F4B00251D7005F051FA014688
:108090007D4801F053FEFDF76DFC04F02DFE7B4999
:1080A00004F067FC04F028FE724904F062FC784892
:1080B00001F0C4FF0421764802F01AF801231A46A1
:1080C0001946734802F06CF8D4F81C14704801F09B
:1080D000CFFF01231A4619466D4802F080F8D4F804
:1080E0001C146B4801F0CAFF01260A21684801F000
:1080F000CBFF2B462A46294601960096644802F09B
:1081000083F83146624802F0CEF83146614E60484D
:1081100002F0C3F82946308805F066FA2A464FF087
:10812000FF335D493088009504F03CFA4FF49670B7
:1081300004F0F6FB02F03EFD054602F03BFD401B5D
:10814000B0F5FA5FC0F06C8500F093BD04F0D4FD8B
:10815000524904F00EFC02F02DFD41F6A3760546CF
:10816000494801F058FC002800F06E854C4A002375
:10817000136084F825343749374805F094F8FFF741
:1081800081FC04F069FB28B33E4B1A781E460ABBFB
:1081900004F083FB0146324802F001FB04F07DFB52
:1081A00005462F4802F044FB854200F05A8504F052
:1081B00074FB05462A4802F03BFB281A09288CBFAD
:1081C0000020012030B10123337004F095FD3549C2
:1081D00004F0CFFB344B1B780BB9FDF77FFEFFF7A4
:1081E000F3FA2948284D01F016FC002800F0C0845D
:1081F0002E492F4EDFF8C890DFF8B0A0284601F0D6
:1082000023FD2C49284601F033FD04F075FD2A4971
:1082100004F0AFFB0023336037463368DFF890800B
:10822000032B4FDC04F068FD3B6803F1010B0AEB04
:108230008303804618680BF01FF8CDE900011F4A40
:1082400059F82B300021404604F09DFC3B68013377
:108250003B60E2E7D47E0E00CCD80320D87E0E002F
:1082600028E00320B8D60320E07E0E00AB7D0E0090
:10827000C8E5032062790E007F436D38003B3D4B1B
:10828000E87E0E00A5DF0320B0E00320EF7E0E00A5
:1082900040DB03208CD6032059560D00227F0E00B0
:1082A00014D803202E7F0E0060E0032014E003208A
:1082B000B8DF032058E303204B7F0E00637F0E00DE
:1082C00064D6032004F018FD1249DFF8509004F042
:1082D00050FB0023C8F800304746DFF8448033687D
:1082E000042B1FDC04F008FDD7F800A009EB8A037B
:1082F000834618680AF0C0FFCDE90001064A58F825
:108300002A300021584604F03EFC3B6801333B60B4
:10831000E5E700BF6F7F0E00637F0E0058E3032088
:1083200064D603206868C24E0AF0A6FF02460B46D8
:108330001FA8C04905F0BAF81FA9BF4804F0ABFF59
:108340001FA804F017FFA8680AF096FF02460B4624
:108350001FA8B84905F0AAF81FA9B84804F09BFF68
:108360001FA804F007FFE8680AF086FF02460B46E4
:108370001FA8B04905F09AF81FA9B14804F08BFF77
:108380001FA804F0F7FE2869AE4D0AF075FF0B46F2
:108390000246A8491FA805F089F81FA9AA4804F0B9
:1083A0007AFF1FA804F0E6FEA84AA9480121FCF7BD
:1083B000D3FF07EE900AF8EEE77AA64AA448C5ED87
:1083C000007A0121FCF7C8FF07EE900A0121B8EE00
:1083D000E70A9F48FDF7B4F886ED000A04F08CFC2C
:1083E00095ED000A9C49FDF7DEFD04F085FC0121B6
:1083F00007469748FDF764F898493846FDF7D3FDDE
:1084000004F07AFC96ED000A9549FDF7CCFD306842
:10841000944E0AF031FF02460B461FA8854905F02D
:1084200045F81FA9904804F036FF1FA804F0A2FEEB
:1084300028680AF021FF02460B461FA87D4905F077
:1084400035F81FA9894804F026FF1FA804F092FE02
:10845000212005F006F90AF0FDFE6FA3D3E9002301
:108460000AF05EFF0BF054FA0AF006FF6CA3D3E9A2
:1084700000230AF055FF41EC100B06F03DF86AA30B
:10848000D3E9002351EC100B0AF04AFF0BF040FA3D
:10849000DFED777A08EE100AB4EE678AF1EE10FA93
:1084A000C8BFB0EE678A18EE100A0AF0E5FE0B4668
:1084B000024670491FA804F0F9FF1FA96E4804F096
:1084C000EAFE1FA804F056FE6C491FA803F09CFAB0
:1084D0001FA803F045FAFDEEC07A694917EE902A0D
:1084E0001BA804F0E3FF1BA9664804F0D4FE1BA8F8
:1084F00004F040FE50491BA804F0C2FE62491BA8CC
:1085000004F061FF4D4904F052FF5F4904F05BFF46
:108510004B4904F04CFF5C4904F055FF4A4904F014
:1085200046FF594904F04FFF4F4904F040FF5649B8
:1085300004F049FF4D4904F03AFF534904F043FF6A
:108540004D4904F034FF504904F03DFF4D4904F01B
:108550002EFF01464D4804F084FE1BA804F00AFEDD
:1085600035491BA804F08CFE1BAA01214848FEF7E0
:10857000D1FB1BA804F0FEFD30491BA804F080FECF
:108580001BAA02214248FEF7C5FB1BA804F0F2FD1E
:108590002B491BA804F074FE1BAA03213C48FEF7DC
:1085A000B9FB1BA804F0E6FD27491BA804F068FEF0
:1085B0001BAA04213648FEF7ADFB1BA804F0DAFD28
:1085C00029491BA804F05CFE1BAA05213048FEF7D0
:1085D000A1FB1BA804F0CEFD24491BA804F050FE0B
:1085E0001BAA06212A48FEF795FB1BA804F0C2FD32
:1085F00021491BA804F044FE1BAA07212448FEF7CA
:1086000089FB1BA804F0B6FD1E491BA804F038FE28
:108610001BAA3FE0AFF300809402C1D2AF63523F88
:108620005AF5B9DA8A3D144048AFBC9AF2D77A3E7F
:1086300010E00320897F0E00A0E003208CD80320E7
:108640009CD803206CE30320ACD8032006750E00F1
:10865000C8DF03205A830E008F7F0E009A7F0E0022
:10866000A47F0E00A5DF0320BCD8032034E0032044
:108670000000C842AE7F0E00DCD803205CE503207A
:108680005C880E00B8D70320077A0E00A8DF03200D
:1086900038E3032008217548FEF73CFB1BA804F0D3
:1086A00069FD04F029FB724905461BA804F0E8FDAA
:1086B00070491BA804F087FE0168284604F059F9A8
:1086C0001BA804F057FD6C4B6C49012507A81D70D1
:1086D00004F097FD69490BA804F093FD6848FEF784
:1086E00009FF0246002800F08480664B5F481D7039
:1086F00000220921FEF7E4FA2A4609215B48FEF729
:10870000DFFA33781BB360491BA804F07AFD5F4899
:1087100002F08EF85E4B5F491A685F4B024417A85F
:1087200004F068F817A91BA804F041FE5B4904F0A7
:108730004AFE5B4904F03BFE5A4904F044FE014600
:1087400007A804F08EFD17A804F014FD0EE05649AA
:108750001BA804F056FD52491BA804F028FE5149FD
:1087600004F031FE014607A804F07BFD1BA804F0CD
:1087700001FD07A91BA804F083FD1BAA1E213B488D
:10878000FEF7C8FA1BA804F0F5FC484B1B78002B39
:1087900000F0108104F081F801460FA803F0A6FF55
:1087A0000FA913A804F06CFD414913A804F00BFEB7
:1087B000374B0A221968054617A804F097FD17A938
:1087C000284604F0F4FD01461BA804F059FD1BAA3D
:1087D00015212648FEF7C2FB1BA804F0CBFC17A806
:1087E00004F0C8FC13A804F0C5FC0FA804F0C2FCF8
:1087F000E0E001461D48FEF763FA2E4B1A7822B1DD
:108800002D492E4804F04FFD2A4609211748FEF74E
:1088100057FA33782949002B52D017A804F030FDBD
:108820001E4917A804F0CFFD0546184802F000F8CD
:10883000174B18491A68184B02441BA803F0DAFFBB
:108840001BA9284604F0B3FD144904F0BCFD1449EB
:1088500004F0ADFD134904F0B6FD014607A804F08D
:1088600000FD1BA804F086FC17A83BE038E30320BA
:10887000A8DF032062790E0030E0032063790E0048
:1088800088DB0320E0E00320B47F0E0028E0032013
:10889000B4D60320C8E50320937A0E00AC7A0E000C
:1088A000DCD803209B7A0E00BB7F0E0039DB03204F
:1088B000CF7F0E00C4DF0320D17F0E00CCD8032071
:1088C0001BA804F0DDFC95491BA804F07CFD94492D
:1088D00004F06DFD934904F076FD014607A804F00D
:1088E000C0FC1BA804F046FC099B042B22DC8E492B
:1088F0001BA804F0DBFD1BA907A804F0CCFC1BA8F7
:1089000004F038FC04F0F8F907A905461BA804F0A8
:10891000B7FC86491BA804F056FD0168284604F000
:1089200028F81BA804F026FC4FF47A7003F0F8FF37
:1089300004F0C0FA07A91BA804F0A2FC1BAA1E2180
:108940007B48FEF7E7F91BA804F014FC794B1B7871
:108950006BB303F0A2FF01460FA803F0C7FE0FA9F7
:1089600013A804F08DFC744913A804F02CFD734B7C
:108970000A221968054617A804F0B8FC17A928466A
:1089800004F015FD01461BA804F07AFC1BAA152172
:108990006748FEF7E3FA1BA804F0ECFB17A804F005
:1089A000E9FB13A804F0E6FB0FA804F0E3FB644B1B
:1089B00000221A70634E337863B302F0FBF8624B07
:1089C00062491D68451B2A461BA804F06FFD1BA9C0
:1089D0000BA804F060FC1BA804F0CCFB04F08CF99D
:1089E0000BA907461BA804F04BFC50491BA804F038
:1089F000EAFC0168384603F0BCFF1BA804F0BAFB90
:108A0000B5F5FA5F06D9524B0021188804F0FDFD38
:108A100000233370FDF710FA002860D0484B1B7814
:108A2000002B37D094F8183443B3494B01211888F0
:108A300004F0EBFD02F0BEF8434B464918600246D5
:108A40001BA804F033FD1BA90BA804F024FC1BA8F1
:108A500004F090FB04F050F90BA905461BA804F0A4
:108A60000FFC32491BA804F0AEFC0168284603F055
:108A700080FF1BA804F07EFB0123337094F81934A7
:108A80006BB335492A48FEF783FE02F093F8334B67
:108A9000186024E002F08EF8304B31491A680A233E
:108AA000821A1BA8B2FBF3F204F000FD1BA90BA86D
:108AB00004F0F1FB1BA804F05DFB04F01DF90BA909
:108AC00005461BA804F0DCFB18491BA804F07BFC3E
:108AD0000168284603F04DFF1BA804F04BFB214B17
:108AE000214DD3ED007AB4EEE78AF1EE10FA4CBFD7
:108AF000012300232B70FDF7B3F940B12B7833B17C
:108B000094F81B341BB119490948FEF741FE0BA824
:108B100004F030FB07A804F02DFB38E09D7A0E002E
:108B2000DCD803209B7A0E00D77F0E0062790E00FE
:108B300038E3032039DB0320CF7F0E00B4D60320B7
:108B4000E0E00320ECD8032034DB0320E07F0E00BC
:108B500078D60320FB7F0E0024800E0054E0032013
:108B60002F800E0088DF0320C5DF032056800E0013
:108B7000284601F0DEF850B904F0BEF8434903F08E
:108B8000F8FE4FF47A7003F0CBFE04F093F9404BFB
:108B9000404C1B78F3B10A22216817A804F0A6FB09
:108BA00017A91BA804F06CFB3B491BA804F00BFCA5
:108BB00001461FA804F064FB1FAA15213748FEF7E1
:108BC000CDF91FA804F0D6FA1BA804F0D3FA17A811
:108BD00004F0D0FA04F090F8054601F0EBFF0A2209
:108BE00001462846FDF7EFF904F086F82C492A4D96
:108BF00003F0BFFE04F080F82168294403F0B9FEB9
:108C000004F07AF8294603F0B4FE236803A8013380
:108C1000236004F0AFFA29B0BDEC028BBDE8F08F01
:108C200004F086FC01461F4801F088F800287FF414
:108C30008DAA04F061F81C4903F09BFE4FF47A7092
:108C400003F06EFEFFF779BA01F0B4FF401BB042AB
:108C50003FF68CAA642003F063FEFEF7B5FDFFF734
:108C60007FBA124801F0E4FD054603F016FEFFF757
:108C7000A4BA04F041F80E4903F07BFE4FF47A7079
:108C800003F04EFE04F016F9FFF765BA6B800E0094
:108C900039DB032014D8032062790E0038E3032067
:108CA0001B8A0E00B0E00320FD7E0E0028E00320AA
:108CB00096800E002DE9F0418EB001F07BFF8B4BCA
:108CC0008B4C186004F034FC44F6206102F016FF6F
:108CD0000321082004F088FC02F0F6FF4FF4E13194
:108CE00002F0E6FF04F008F84FF4E13103F0FEFF74
:108CF000642003F015FE0121208804F075FC00219A
:108D0000208804F082FC04F013FC02F0FBFE6420D7
:108D100003F006FE03F0F0FF764903F02AFE04F0AC
:108D200007FC202102F029FF04F002FC02F030FFD2
:108D3000002841D004F0FCFB02F031FF04F0F8FB06
:108D4000202102F01AFF04F0F3FB02F021FF98B398
:108D500003F0D2FF684903F00CFE684B684A1B78A9
:108D6000684900250AA88DF80050FCF7ABFC0BA859
:108D7000FDF79EF801216448FCF708FD40F6B83085
:108D800003F0CEFD29466048FCF700FD01215F4855
:108D9000FCF7FCFC40F6B83003F0C2FD29465B4806
:108DA000FCF7F4FC01215848FCF7F0FC40F6B83021
:108DB00003F0B6FD04F07EF8554801F07DFA01227B
:108DC0000221534801F022FB01220321504801F007
:108DD0001DFB642003F0A4FD0EAA002142F82C1D07
:108DE00004234C4801F02EFB03F086FF039B4A4A04
:108DF000012103F0C8FE04A84849FCF77BFC04A845
:108E000004F0D2F8032814D8DFE800F002060A0EB6
:108E100003F072FF42490AE003F06EFF414906E0A9
:108E200003F06AFF404902E003F066FF3F4903F0A8
:108E3000A0FD03F061FF3E49DFF800813D4F03F0E4
:108E400098FD3C4B3C493D480722FCF713FD0026AA
:108E5000054603F051FF330153F8081003F089FD74
:108E600003F04AFF364903F084FD03F045FFF35D4C
:108E700034490136194403F07CFD072EE9D1002D59
:108E800068D13149314804F00EFA03F035FF30491A
:108E900003F06FFD012003F052FB2A462946FF2014
:108EA00003F05DFB40F6B83003F03AFD284603F0CE
:108EB00046FB0121208804F0A8FB642003F030FD6C
:108EC0002946208804F0A1FB04F032FB02F067FE83
:108ED00004F02EFB02F05FFE18B904F029FB02F04B
:108EE00011FE04F025FB02F013FE63E02CE00320EA
:108EF00078D60320BF800E003D7E0E0018D80320D8
:108F00006F7E0E00A07E0E00C8D70320F4D703208A
:108F1000A4DF0320E8D70320A67E0E00F4E503209B
:108F2000D7800E0003810E0021810E0070810E009B
:108F3000AC7E0E0008E003207CD603201CD8032062
:108F40001B8A0E0062790E00C57E0E00CCD803206D
:108F5000C97E0E0079497A4804F0A5F903F0CCFEE9
:108F6000784903F006FD0121208804F04EFB05201E
:108F700003F0D6FC0021208804F047FBC82003F052
:108F8000CFFC0121208804F040FB052003F0C8FC41
:108F90000021208804F039FBC82003F0C1FC012126
:108FA000208804F032FB052003F0BAFC0021208861
:108FB00004F02BFBC82003F0B3FC0DB903F07AFFDB
:108FC0006148624D01F034FC044603F095FE6049AF
:108FD00003F0CFFC03F090FE0A222146FDF7FCF8D7
:108FE00003F08AFE5B4903F0C4FC03F085FE2B68A6
:108FF00059492246064606A803F0FCFB06A90AA822
:1090000004F03EF955490AA804F0DDF9016830463C
:1090100003F0AFFC0AA804F0ADF806A804F0AAF823
:109020004F4B9C4232DC4F49474801F0B8FB464861
:1090300001F0FEFB044603F05FFE4B4903F099FC90
:1090400003F05AFE0A222146FDF7C6F803F054FE4B
:10905000404903F08EFC03F04FFE2B683E49224648
:10906000064606A803F0C6FB06A90AA804F008F9FC
:109070003A490AA804F0A7F90168304603F079FCE0
:109080000AA804F077F806A804F074F804F050FA7F
:10909000364C374D0146374800F050FE364800F058
:1090A000CDFFFCF767FC22682B689A4272D003F070
:1090B00023FE2B680093314A2368002103F063FDEF
:1090C000182363600523A3602D492E4BE36004F150
:1090D00010000BF003FA2C4904F588700BF0FEF930
:1090E000294904F504700BF0F9F9274904F5447097
:1090F0000BF0F4F904F58263244A1A606422002319
:10910000C4F81C24012284F8143484F8153484F83B
:10911000172484F8183484F8192484F81A2484F85D
:109120001B24C4F82834C4F8203403F0E5FD1849A2
:1091300003F01FFCFEF7DCFB31E000BFD47E0E0025
:10914000CCD80320D87E0E0028E00320B8D6032018
:10915000E07E0E00AB7D0E00C8E5032062790E00B4
:109160007F436D38003B3D4BE87E0E0078DB0320EB
:1091700088D60320B0E0032040DB0320CF810E001F
:10918000FC810E0000001CC334820E000000A041D0
:1091900048820E0003F0B0FD974903F0EAFB03F0AC
:1091A000ABFD964903F0E5FB03F0A6FD944903F0FF
:1091B000E0FB944800F042FF0421924800F098FF41
:1091C00001231A4619468F4800F0EAFFD4F81C1410
:1091D0008C4800F04DFF01231A461946894800F0DB
:1091E000FEFFD4F81C14874800F048FF0A21854888
:1091F00000F04AFF012500231A4619460195009503
:10920000804801F001F829467E4801F04CF82946D3
:109210007D4D7C4801F041F82888002104F0E4F9F4
:1092200000224FF0FF3328887849009203F0BAF902
:1092300003F062FD7249764D03F09BFB754906A869
:1092400003F0DFFF06A90AA804F01AF86C490AA87F
:1092500004F0B9F8704904F0B6F8704904F0A7F8C2
:10926000674904F0B0F86E4904F0ADF86D4B93ED2A
:10927000000A04F0C4F8624904F0A5F86A4904F051
:10928000A2F86A4B93ED000A04F0B9F85C4904F0C7
:109290009AF8674904F097F895ED0A0A04F0AFF8D8
:1092A000574904F090F8014606A803F0DAFF0AA82F
:1092B00003F060FF03F020FD069903F05AFBE3681A
:1092C0006B6203F019FD95ED090A022103F04CFCD5
:1092D00003F012FD95ED0E0A5649FCF764FE03F00B
:1092E0000BFD554903F045FB03F006FD534903F020
:1092F00040FB4FF4967003F013FB01F05BFC054656
:1093000001F058FC401BB0F5FA5F68D204F010F988
:1093100001464B4800F012FD48B903F0EDFC494905
:1093200003F027FB4FF47A7003F0FAFAE8E703F052
:10933000E3FC454903F01DFB444B454A1B88454966
:109340004548FCF71BFFFEF79DFB002301930093AC
:109350001A464249424801F02FFD424B1B780BB997
:10936000FCF7BCFD01F026FC41F6A3760546344827
:1093700000F051FB50B901F01DFC401BB04205D874
:10938000642003F0CDFAFEF71FFAF0E7A368364A2F
:1093900036484FF47A71594300F089FA334800F0A7
:1093A000A8FA334A33486F2100F081FA314800F0BF
:1093B000A0FA03F0A1FC304903F0DBFA2F49304852
:1093C00003F071FFFEF71CFC03F096FC2D4903F03F
:1093D000D0FA06A803F0CEFE0EB0BDE8F08103F08F
:1093E0008BFC294903F0C5FA4FF47A7003F098FA20
:1093F00003F060FDA0E700BF54820E00EF7E0E0078
:1094000062790E0040DB03208CD6032059560D00F4
:10941000C8DF032063790E00BD820E00E4E0032064
:1094200064820E0060D603207C820E005CD603208E
:1094300093820E00A8820E00B4820E00C9820E0034
:10944000B0E00320FD7E0E00227F0E0084D60320B4
:10945000127D0E0090D6032038E3032065560D00E0
:10946000D6820E0060E00320017C0D00F0D80320BE
:10947000C9770D00F4E00320EE820E00D47E0E00CA
:10948000CCD80320FE820E0096800E00984B2DE96A
:10949000F74300251D60974B974E984CDFF8EC8200
:1094A00001271F60964B1F7001F0C4FB304602F08D
:1094B0000BF906F11C0002F067FC22469149756326
:1094C0003046358704F00AF98F4B2A461E605D60EE
:1094D0009D60DD601D615D611D835D831D775D772E
:1094E0001421022001F008FD884E01974FF01E095B
:1094F0000346CDF8009002228549304603F076FD00
:1095000022464146304604F0E9F82A46142102205A
:1095100001F0F2FC7F4E01970346CDF80090022245
:109520004FF47F01304603F061FD2246414630464C
:1095300004F0D4F87848794E794FDFF8548200F07F
:10954000BBFC03F0F5FF2A460146304600F072FFEF
:1095500022467449304604F0C1F87348734E01F056
:109560000CF8734800F0A7FE724800F012FA294682
:10957000304602F0C7FF22466F49304604F0AEF88D
:109580006E4E3946404603F03CFE4046DFF804820A
:109590002246314604F0A2F83946404603F031FE37
:1095A0004046DFF8F4812246314604F097F8394608
:1095B000404603F026FE4046DFF8E0812246314671
:1095C00004F08CF83946404603F01BFE4046DFF8B5
:1095D000D0812246314604F081F83946404603F0F6
:1095E00010FE4046DFF8BC812246314604F076F892
:1095F0003946404603F005FE4046DFF8AC8122467E
:10960000314604F06BF83946404603F0FAFD404617
:10961000DFF898812246314604F060F8394640462A
:1096200003F0EFFD4046DFF888812246314604F022
:1096300055F839464046424F03F0E3FD2246314695
:10964000404604F04BF83F49384603F0DAFD38460F
:109650003D4F2246314604F041F83C49384603F07C
:10966000D0FD38463A4F2246314604F037F83949A2
:10967000384603F0C6FD22463146384604F02EF83F
:10968000354E364800F0B8F8354800F0B5F83549A1
:10969000304603F0B6FD344906F1100003F0B1FD89
:1096A000324906F1200003F0ACFD314906F13000EB
:1096B00003F0A7FD2F4906F1400003F0A2FD2E495B
:1096C00006F1500003F09DFD2C4906F1600003F007
:1096D00098FD22462A49284604F000F89FED290A01
:1096E00029480F22112103B0BDE8F043FBF782BFE8
:1096F00024E00320C0DF032064E00320B0D7032070
:1097000018D803206D5F0D0038E30320F4D7032041
:1097100000FFFF00C8D7032040DB0320E8D7032069
:1097200063790E001DA40D0028E0032058E00320FB
:10973000A4DF0320B0E0032023C50D0075D10D0088
:10974000E4E0032014830E0044E0032033830E0082
:10975000CCD80320D47E0E001CD80320F0D80320E0
:10976000F4E0032045830E0049830E004D830E0074
:1097700058830E005C830E0061830E0069830E0027
:10978000A5560D009A998140C8DF032095570D001A
:10979000A0E003208CD803209CD80320ACD8032061
:1097A000BCD8032034E00320DCD80320B8D7032042
:1097B000A8DF032070477047704700007F289ABFDA
:1097C000024B53F820000020704700BF8C850E002C
:1097D0007F289ABF024B53F820000020704700BF3B
:1097E0008C830E0001F026BA03F09AB801F0E2B9BA
:1097F0000020704701F01EBA4FF0FF33C0F840322E
:10980000704770B50546FFF7F1FF0024064628199A
:10981000242200210AF0D9FB2E512434B4F5107F04
:10982000F5D10023C5F8403270BDD0F840320F2B7F
:1098300008DC0023242202FB0301496829B101331B
:10984000102BF8D14FF0FF307047184670472DE9C4
:10985000F8439846D0F84032002B05468946174613
:1098600001DAFFF7CEFF2846FFF7DFFF041E1ADB01
:10987000CFB124266643AB199DF820201A73099AAC
:109880005A610122C3F810905F60C3F808801A770C
:10989000FFF7ACFFA851D5F840320133C5F840328C
:1098A0002046BDE8F8834FF0FF30BDE8F88307B5E8
:1098B000002301930093FFF7CAFF03B05DF804FB98
:1098C0000F2938B5044613D8D0F8403283B124228A
:1098D00002FB01F52844436853B100210AF075FBEF
:1098E000FFF784FF6051D4F84032013BC4F84032A6
:1098F00038BD2DE9F041054605F51177FFF776FFF4
:1099000001262B1D4FF0000E4FF0020C1A68C3F811
:109910001CE0E2B153F8048CDC68C8EB0002A24200
:1099200015D3B2FBF4F104FB018243F8042C1A7E38
:109930006AB1196909B9DE6109E05A69914206D92B
:1099400001329142DE615A6198BFC3F81CC02433D2
:10995000BB42DBD12C460026236A6BB1227B6368B5
:1099600012B1A068984700E09847236A022B03D100
:1099700031462846FFF7A4FF0136102E04F12404D7
:10998000EAD1BDE8F08101F055B90368C9B29B681E
:109990001847002242608260C260026142618261B7
:1099A000C261026242628262012280F82C2080F849
:1099B0002D2080F82E20704738B505460C460068EB
:1099C000692102F0DEF8210A2868FFF7DEFFE1B224
:1099D0002868FFF7DAFF286802F0DAF808B10020FB
:1099E00038BD02226921286802F0C4F8286803689B
:1099F0001B6998470028F2D0286803685B6998477C
:109A00000446286803685B699847240204F47F448D
:109A1000C0B2204338BD08B540F20221FFF7CCFFA9
:109A2000431E5842584108BDF0B58BB00546FFF7BC
:109A3000F2FF0446002800F004810027692128680D
:109A40000097019702970397049705970697079742
:109A50000897099702F095F803212868FFF795FF0A
:109A600039462868FFF791FF286802F091F806460A
:109A7000002840F0E5803C226921286802F07AF84D
:109A8000286803681B69984718BB009868600198AC
:109A9000A8600298E86003982861049868610598B6
:109AA000A8610698E8610798286208986862002310
:109AB0000998A86285F82C3085F82D3085F82E306D
:109AC000BFE0009BC0B240EA0320009001363C2E6C
:109AD000DBD0286803685B699847F3B23A2BF5D866
