:02000002D0002C
:1040000000400D00704B0E00000006000D00050181
:0840100004014E040000000051
:04401800EC320E0078
:1040200009480A49884208B505D0094A824202D0A7
:10403000121A0CF03BFA0748074A0021121A0CF03A
:1040400040FA014808BD00BFD4DA0320104A0E0030
:104050000CDC03200CDC0320F0E7032070B504F037
:10406000CFFF074C074BE41AA40800251E46A542C3
:1040700004D056F8253098470135F8E770BD00BFE9
:10408000044A0E00AC490E0002F048BD08B502F02B
:10409000C5FEBDE8084004F081BF04F029B904F072
:1040A0002FB904F02DB90078B0FA80F040097047BC
:1040B00001230370704700009FED010B704700BFA4
:1040C000182D4454FB2109409FED010B704700BFA0
:1040D0006957148B0ABF054008B551EC100B53EC1F
:1040E000112B0BF097FB41EC100B08BD08B551EC00
:1040F000100B53EC112B0BF08BFB41EC100B08BD9C
:1041000008B551EC100B53EC112B0BF035FD41ECC5
:10411000100B08BD08B551EC100B53EC112B0BF034
:1041200055FE41EC100B08BD51EC100B10EE102A9F
:1041300001F1004343EC102B7047B0EE410AF0EE62
:10414000610A70470000000008B551EC100B53ECF9
:10415000112B0BF0A1FF10B99FED030B08BD9FEDD4
:10416000040B08BDAFF30080000000000000000059
:10417000000000000000F03F08B551EC100B53ECBC
:10418000112B0BF07FFF10B99FED030B08BD9FEDC6
:10419000040B08BDAFF30080000000000000000029
:1041A000000000000000F03F08B551EC100B53EC8C
:1041B000112B0BF053FF10B99FED030B08BD9FEDC2
:1041C000040B08BDAFF300800000000000000000F9
:1041D000000000000000F03F08B551EC100B53EC5C
:1041E000112B0BF045FF10B99FED030B08BD9FEDA0
:1041F000040B08BDAFF300800000000000000000C9
:10420000000000000000F03F08B551EC100B53EC2B
:10421000112B0BF019FF10B99FED030B08BD9FED9B
:10422000040B08BDAFF30080000000000000000098
:10423000000000000000F03F08B551EC100B53ECFB
:10424000112B0BF001FF10B19FED030B08BD9FED8B
:10425000040B08BDAFF30080000000000000000068
:10426000000000000000F03F07B50023002251ECE1
:10427000100B8DED001B0BF0E7FE58B99DED001BF8
:104280000022002351EC110B0BF0DEFEB0FA80F09F
:10429000400900E000200BF009FC41EC100B03B0DA
:1042A0005DF804FB07B50023002251EC100B8DEDE7
:1042B000001B0BF0C9FE58B19DED001B002200232E
:1042C00051EC110B0BF0C0FEB0FA80F0400900E099
:1042D00001200BF0EBFB41EC100B03B05DF804FB8D
:1042E00008B50022002351EC100B0BF0ADFE10B905
:1042F0009FED030B08BD9FED040B08BDAFF30080DD
:104300000000000000000000000000000000F03F7E
:1043100008B50022002351EC100B0BF095FE10B1F4
:104320009FED030B08BD9FED040B08BDAFF30080AC
:104330000000000000000000000000000000F03F4E
:1043400008B50022002351EC100B0BF07DFE00306D
:1043500018BF012040420BF0A9FB41EC100B08BD37
:1043600008B50022002351EC100B0BF06DFEB0FAE3
:1043700080F0400940420BF099FB41EC100B08BD66
:104380002DE9F84310F0180718BF00F007074FEAAF
:10439000870910F0100F14BF0423002309F114063D
:1043A0001E4404463046884603F0A2FF32460021F0
:1043B00005460CF086F847B1B8F1000F05D04A4623
:1043C000414605F110000CF071F800232C60AB6041
:1043D0002846BDE8F883000038B555EC104B0022A4
:1043E000002310EE100A29460BF038FEE0B914A3A2
:1043F000D3E90023204629460BF04EFEB8B92946E2
:1044000020460BF091FE01231A464FF0FF319842EF
:1044100006D3B1FBF2F49C4209D35A430133F6E7C9
:1044200010460BF033FB04E00020034901E0034990
:10443000002041EC100B38BD0000F87F0000F07F39
:104440000000E0FFFFFFEF41F8B555EC104B0022F4
:10445000002310EE100A294657EC116B0BF0FEFDFD
:1044600000283FD100220023304639460BF0F6FDEC
:10447000C0BB32463B46204629460BF0EFFD88BBC9
:104480001FA3D3E90023204629460BF005FE60BB9D
:104490001BA3D3E90023304639460BF0FDFD20BBBA
:1044A000294620460BF040FE3946044630460BF0C4
:1044B0003BFEB0EB540F88BF201A01231A46241A82
:1044C0004FF0FF35904209D3A118B5FBF1F69E429B
:1044D0000BD34B43B3FBF2F30132F3E718460BF077
:1044E000D5FA04E00020044901E00449002041EC31
:1044F000100BF8BDAFF300800000F87F0000F07FE4
:104500000000E0FFFFFFEF4100B52DED028BB0EEA4
:10451000418AF0EE618A83B0FFF796FF51EC100BF1
:10452000B0EE480AF0EE680ACDE90001FFF754FF4B
:10453000DDE9000153EC102B0BF01EFB41EC100BDE
:1045400003B0BDEC028B5DF804FB10B5044630B13E
:1045500000F006F82046BDE8104003F0D1BE10BDC3
:1045600010B5044630B3036803F01F03093B0E2B5C
:1045700020D8DFE803F01A1714110E0B081F1A17C2
:1045800014110E0B0800806AFFF7DFFF606AFFF767
:10459000DCFF206AFFF7D9FFE069FFF7D6FFA069CB
:1045A000FFF7D3FF6069FFF7D0FF2069BDE8104037
:1045B000FFF7CBBF10BD00002DE9F74F1823DFF840
:1045C00070B28360044665682B7813B91A23A36020
:1045D0000CE1A3F13002092A01D92E2B07D1211DAC
:1045E00028460DF011FB1E2384ED040BF3E0613B24
:1045F000192B5AD863681A78A2F16101192902D8D7
:1046000001336360F6E7A2F130010929F8D95F2A86
:10461000F6D0E669C5EB03087EB1276A77B1D6F814
:1046200000904246494628460CF0AAFC10B919F8F9
:1046300008302BB31036013FF0E737464FF0170A2A
:10464000C7EB0A0907EB69094FEA09130BEB0306ED
:104650005BF8033001934246194628460CF090FC63
:10466000002840F0BE80019B13F808301BB9002ED3
:1046700000F0B08004E009F1FF3A5745E0DDA9E021
:10468000B36803F01F030F2B06DC082B09DA002B9D
:1046900040F0A2801F2305E0172B00F39D80F368F4
:1046A000A361B368A36073683DE06A1C62602B7805
:1046B0002A2B3ED01ED8212B43D00CD80D2B00F036
:1046C0008B8004D8093B012B40F2868082E0202BAE
:1046D00000F082807EE0262B66D005D8252B79D18C
:1046E0002023A360434B1EE0282B6FD0292B71D1D0
:1046F0001D2370E03C2B3BD00AD82C2B68D00FD365
:104700002D2B12D02F2B65D12023A3603A4B0AE02A
:104710003E2B3BD023D35E2B0FD07C2B4DD059E0CA
:104720002023A360354B236156E02023A360344B44
:10473000F9E72023A360334BF5E72023A360324B36
:10474000F1E7AB1C63606B783D2B4FF020030BBF90
:10475000A360A3602D4B626018BF2D4BE3E7AB1C39
:1047600063606B783D2B35D12023A360294BDAE7BA
:10477000AB1C63606B783D2B4FF020030BBFA36035
:10478000A360254B626018BF244BCCE7AB1C636071
:104790006B783D2B4FF020030BBFA360A360204B31
:1047A000626018BF1F4BBEE7AB1C63606B78262BA3
:1047B00010D12023A3601C4BB5E7AB1C63606B7862
:1047C0007C2B07D12023A360184BACE71C2302E00D
:1047D0001B2300E01923A360A368182B3FF4F3AE5A
:1047E00004E07FF748AF09F1010746E703B0BDE8F1
:1047F000F08F00BF59AE0D0015410D00D9400D00DE
:10480000ED400D0001410D0059B10D0039420D0080
:10481000E1420D0009420D00D9410D00A9410D00F2
:1048200079410D0049410D0069420D00A5420D007E
:1048300000330E0073B5054600F0F6F90B4E044642
:10484000AB681B2B0ED12846FFF7B6FE2846009416
:1048500000F0EAF9694601902A20FFF791FD04462D
:104860008660EDE7204602B070BD00BF3B410D0001
:104870002DE9F0410446806800F01F03083B172B28
:1048800000F28A80DFE803F01E334646464646467D
:104890001E334646464646468888888877880C16E2
:1048A00000210120FFF76CFDD4E904230546C0E98F
:1048B00002236DE000210846FFF762FD2369836053
:1048C000054665E00021FFF75BFD23698360A3686F
:1048D000D90644BFA369036105462046FFF76CFE75
:1048E000A3681C2B63D12046FFF766FE4AE0002137
:1048F000FFF746FD23698360A368DA0644BFA36916
:10490000436105462046FFF757FE204600F054F865
:1049100028614CE010F018064FF0000118BF00F0BD
:104920000706FFF72DFD23698360A368DB0642BFFE
:10493000331DA26940F8232005462046FFF73CFEC0
:10494000A3681C2B21D105F10C080027B7420AD01F
:104950002046FFF731FE204600F066F948F8040FC4
:10496000A3681B2B05D0A3681D2B0ED1013EBE42B0
:104970000AE00137EAE72046FFF71EFE2046FFF770
:1049800059FF0546A3681D2B02D01923A3600EE032
:104990002046FFF711FE0AE000210846FFF7F0FC71
:1049A0001923A360034B0022C0E9022305462846D1
:1049B000BDE8F0810000F87F2DE9F043394F3A4D12
:1049C00087B004460126A368202B02D0012E44D1D3
:1049D00027E02369DFF8CC80BB4203D12046FFF7F4
:1049E000EBFDF0E7AB42DFF8C09001D17642F5E78E
:1049F0002E4F0025A368202B10D12369434503D1F6
:104A00002046FFF7D9FDF5E74B45F9D0BB4205D16C
:104A10000DB16D42F4E74FF0FF35F1E7012E1BD1E8
:104A20001DB92046FFF724FF39E00135204609D1A2
:104A3000FFF71EFF06A941F8140D2920FFF7A0FC7F
:104A40001A4B2BE0FFF714FF06A941F8100D29209F
:104A5000FFF796FC164B21E055B92046FFF708FFFB
:104A600006A941F80C0D2920FFF78AFC114B15E02F
:104A70000135204609D1FFF7FBFE06A941F8080DD4
:104A80002920FFF77DFC0C4B08E0FFF7F1FE06A99B
:104A900041F8040D2920FFF773FC084B836007B031
:104AA000BDE8F083D9400D00ED400D00E1420D005E
:104AB00011430D0029410D0041430D0061430D00DC
:104AC00073B50546FFF778FF0C4E0446AB68202B04
:104AD00011D12B69B3420ED12846FFF76DFD284650
:104AE0000094FFF769FF694601902A20FFF748FC10
:104AF00004468660EAE7204602B070BD59B10D0059
:104B00002DE9F7430646FFF7DBFFDFF84880DFF8C3
:104B100048900F4F0446B368202B15D135694545A1
:104B20000ED13046FFF748FD30460094FFF7C8FF2E
:104B3000694601902A20FFF723FC04468560EAE7D6
:104B40004D45EED0BD42ECD0204603B0BDE8F08329
:104B500059AE0D0001410D0015410D002DE9F34145
:104B60000546FFF7CDFFDFF840800E4F0446AB68E7
:104B7000202B13D12E6946450ED12846FFF71CFD88
:104B800028460094FFF7BCFF694601902A20FFF7F2
:104B9000F7FB04468660EAE7BE42EED0204602B04C
:104BA000BDE8F081ED400D00D9400D002DE9F7433F
:104BB0000646FFF7D3FF164FDFF86480DFF86490F6
:104BC0000546B368202B1ED13469BC420ED1304655
:104BD000FFF7F2FC30460095FFF7C0FF69460190F1
:104BE0002A20FFF7CDFB05468460EAE74445EED076
:104BF0004C45ECD0074B9C42E9D0074B9C42E6D099
:104C0000064B9C42E3D0284603B0BDE8F08300BFCA
:104C100049410D00D9410D0009420D0039420D00F6
:104C200079410D00A9410D002DE9F3410546FFF73B
:104C3000BDFFDFF840800E4F0446AB68202B13D138
:104C40002E6946450ED12846FFF7B6FC284600944B
:104C5000FFF7ACFF694601902A20FFF791FB04465D
:104C60008660EAE7BE42EED0204602B0BDE8F081A1
:104C7000A5420D0069420D0070B504462DED0C8B68
:104C8000002800F0D182036803F01F020F2A08DC1D
:104C9000082A0EDA4AB1012A40F0C68290ED020BD2
:104CA000C4E2172A40F35B81BEE2836893ED000BF8
:104CB000BCE213F0180F85680DD003F00703013B29
:104CC000062B08D8DFE813F00D0016002E00510067
:104CD0007F00B800FC00BDEC0C8B2B46BDE870409B
:104CE00018470069FFF7C8FFBDEC0C8B2B46BDE8E9
:104CF000704018470069FFF7BFFF6069B0EE408A57
:104D0000F0EE608AFFF7B8FFB0EE401AF0EE601ADE
:104D1000B0EE480AF0EE680ABDEC0C8B2B46BDE8FD
:104D2000704018470069FFF7A7FF6069B0EE408A3E
:104D3000F0EE608AFFF7A0FFA069B0EE409AF0EEB7
:104D4000609AFFF799FFB0EE491AF0EE691AB0EEDB
:104D5000402AF0EE602AB0EE480AF0EE680ABDEC98
:104D60000C8B2B46BDE8704018470069FFF784FFA5
:104D70006069B0EE408AF0EE608AFFF77DFFA069BF
:104D8000B0EE409AF0EE609AFFF776FFE069B0EE81
:104D900040AAF0EE60AAFFF76FFFB0EE4A2AF0EEED
:104DA0006A2AB0EE491AF0EE691AB0EE403AF0EE17
:104DB000603AB0EE480AF0EE680ABDEC0C8B2B4668
:104DC000BDE8704018470069FFF756FF6069B0EE14
:104DD000408AF0EE608AFFF74FFFA069B0EE409A7C
:104DE000F0EE609AFFF748FFE069B0EE40AAF0EEFF
:104DF00060AAFFF741FF206AB0EE40BAF0EE60BA59
:104E0000FFF73AFFB0EE4B3AF0EE6B3AB0EE4A2ABB
:104E1000F0EE6A2AB0EE404AF0EE604AB0EE491A6F
:104E2000F0EE691AB0EE480AF0EE680ABDEC0C8BA1
:104E30002B46BDE8704018470069FFF71DFF606909
:104E4000B0EE408AF0EE608AFFF716FFA069B0EE80
:104E5000409AF0EE609AFFF70FFFE069B0EE40AACB
:104E6000F0EE60AAFFF708FF206AB0EE40BAF0EE5D
:104E700060BAFFF701FF606AB0EE40CAF0EE60CAA8
:104E8000FFF7FAFEB0EE4C4AF0EE6C4AB0EE4B3A49
:104E9000F0EE6B3AB0EE405AF0EE605AB0EE4A2AAD
:104EA000F0EE6A2AB0EE491AF0EE691AB0EE480A3E
:104EB000F0EE680ABDEC0C8B2B46BDE8704018473D
:104EC0000069FFF7D9FE6069B0EE408AF0EE608AB3
:104ED000FFF7D2FEA069B0EE409AF0EE609AFFF7BD
:104EE000CBFEE069B0EE40AAF0EE60AAFFF7C4FE88
:104EF000206AB0EE40BAF0EE60BAFFF7BDFE606A1D
:104F0000B0EE40CAF0EE60CAFFF7B6FEA06AB0EE9F
:104F100040DAF0EE60DAFFF7AFFEB0EE4D5AF0EE99
:104F20006D5AB0EE4C4AF0EE6C4AB0EE406AF0EECC
:104F3000606AB0EE4B3AF0EE6B3AB0EE4A2AF0EE11
:104F40006A2AB0EE491AF0EE691AB0EE480AF0EE9D
:104F5000680ABDEC0C8B2B46BDE87040184713F077
:104F6000180F85680DD003F00703013B062B08D806
:104F7000DFE813F00E001900330058008800C3006A
:104F80000901BDEC0C8B20692B46BDE87040184729
:104F900046690069FFF770FEBDEC0C8B30462B466E
:104FA000BDE87040184786690069FFF765FE6069D3
:104FB000B0EE408AF0EE608AFFF75EFEB0EE401A77
:104FC000F0EE601AB0EE480AF0EE680ABDEC0C8B09
:104FD00030462B46BDE870401847C6690069FFF7A8
:104FE0004BFE6069B0EE408AF0EE608AFFF744FE47
:104FF000A069B0EE409AF0EE609AFFF73DFEB0EE89
:10500000491AF0EE691AB0EE402AF0EE602AB0EECE
:10501000480AF0EE680ABDEC0C8B30462B46BDE822
:1050200070401847066A0069FFF726FE6069B0EE17
:10503000408AF0EE608AFFF71FFEA069B0EE409A4A
:10504000F0EE609AFFF718FEE069B0EE40AAF0EECD
:1050500060AAFFF711FEB0EE4A2AF0EE6A2AB0EE1F
:10506000491AF0EE691AB0EE403AF0EE603AB0EE4E
:10507000480AF0EE680ABDEC0C8B30462B46BDE8C2
:1050800070401847466A0069FFF7F6FD6069B0EEA8
:10509000408AF0EE608AFFF7EFFDA069B0EE409A1B
:1050A000F0EE609AFFF7E8FDE069B0EE40AAF0EE9E
:1050B00060AAFFF7E1FD206AB0EE40BAF0EE60BAF8
:1050C000FFF7DAFDB0EE4B3AF0EE6B3AB0EE4A2A5B
:1050D000F0EE6A2AB0EE404AF0EE604AB0EE491AAD
:1050E000F0EE691AB0EE480AF0EE680ABDEC0C8BDF
:1050F00030462B46BDE870401847866A0069FFF7C6
:10510000BBFD6069B0EE408AF0EE608AFFF7B4FD47
:10511000A069B0EE409AF0EE609AFFF7ADFDE0694D
:10512000B0EE40AAF0EE60AAFFF7A6FD206AB0EE4E
:1051300040BAF0EE60BAFFF79FFD606AB0EE40CA79
:10514000F0EE60CAFFF798FDB0EE4C4AF0EE6C4A04
:10515000B0EE4B3AF0EE6B3AB0EE405AF0EE605AD9
:10516000B0EE4A2AF0EE6A2AB0EE491AF0EE691A59
:10517000B0EE480AF0EE680ABDEC0C8B30462B46C8
:10518000BDE870401847C66A0069FFF775FD6069A1
:10519000B0EE408AF0EE608AFFF76EFDA069B0EED7
:1051A000409AF0EE609AFFF767FDE069B0EE40AA22
:1051B000F0EE60AAFFF760FD206AB0EE40BAF0EEB4
:1051C00060BAFFF759FD606AB0EE40CAF0EE60CAFF
:1051D000FFF752FDA06AB0EE40DAF0EE60DAFFF7BA
:1051E0004BFDB0EE4D5AF0EE6D5AB0EE4C4AF0EE7B
:1051F0006C4AB0EE406AF0EE606AB0EE4B3AF0EE08
:105200006B3AB0EE4A2AF0EE6A2AB0EE491AF0EE96
:10521000691AB0EE480AF0EE680ABDEC0C8B304615
:105220002B46BDE8704018479FED030BBDEC0C8B7F
:1052300070BD00BFAFF30080000000000000F87FE9
:10524000F8B52DED028B0268012A044627D9930692
:1052500025D512F0180318BF02F00703033300F13D
:105260000C0600EB83050127AE4209D056F8040F67
:10527000FFF7E6FF33681B68012B18BF0027F3E731
:105280006FB12046FFF7F8FC2046B0EE408AF0EE02
:10529000608AFFF765F984ED028B01232360BDEC82
:1052A000028BF8BD30B58BB01D460190009068466A
:1052B00007910892FFF780F96846FFF7BBFA029B57
:1052C0001A2B04460DD0FFF740F90DB900200EE06F
:1052D0009DE80500101A01D02860F7E701232B6034
:1052E00005E0FFF7ADFF0DB100232B6020460BB0AA
:1052F00030BD000008B502F0BFFD034B1860BDE8EB
:10530000084002F0CDBF00BFF4E5032038B5846942
:105310000A4B036005467CB16368013B63605BB97F
:10532000236820469B689847A368013BA3601BB98C
:1053300023682046DB689847284638BD30400E0079
:1053400010B50446FFF7E2FF204610BD10B5044635
:10535000FFF7DCFF2046FEF7A2FE204610BD0368E3
:105360002BB14268934202D218460AF08CBF00204B
:10537000704738B50568044645B143689D4205D27B
:1053800028460BF0F5FD013005442560204638BD68
:10539000F8B504460F46466821B90368721C42609E
:1053A0009955F8BD08460BF0E3FDA368451CAA1902
:1053B0009A4208D820682A46394630440BF076F8DD
:1053C00063681D446560F8BD70B504464068A66812
:1053D0002568054A0B46311A284402F0B1FF63687C
:1053E00001301844606070BD55350E0070B504463C
:1053F0004068A6682568054A0B46311A284402F021
:105400009FFF636801301844606070BD58350E001E
:105410004FF44673024A0348002102F066BC00BF05
:10542000B4DE032010DC03204FF44673024A034825
:10543000002102F00EBC00BFB4DE032010DC03200C
:1054400013B5124C00222046022102F04BF8002234
:105450000321204602F046F803F0BEFE0C4903F09B
:10546000E2F90C4800231A461946406802F0F0FEA3
:1054700041F2883003F052FC074B00221B680121E7
:10548000684602F0EBFF02B010BD00BFCCE1032084
:105490005C350E0080E3032024E3032008B5054BB0
:1054A00000221A7003F098FE0349BDE8084003F09B
:1054B000BAB900BFB1DE032070350E001FB5096810
:1054C000684603F085F8684603F03FF900990548FF
:1054D0000BF032F8FFF79CFF684603F032F805B096
:1054E0005DF804FBC4DF03201FB50968684603F0BC
:1054F0006FF8684603F029F9009905480BF01CF88D
:10550000FFF786FF684603F01CF805B05DF804FB62
:10551000C4E0032008B508680AF0B2FE51EC100B95
:105520000AF022FE034BC3F81003BDE80840FFF762
:105530006FBF00BFB4DE032008B508680AF0A3FE01
:10554000034B01280CBF002201221A7008BD00BFC6
:10555000B2DE032008B5074B1A78074B93F81413F3
:10556000914205D083F81423FFF752FF012008BDB4
:10557000002008BD1CDC0320B4DE032008B5074B67
:105580001A78074B93F81513914205D083F8152329
:10559000FFF73EFF012008BD002008BDE8E1032021
:1055A000B4DE032008B500234377006804F06DFAE9
:1055B000BDE8084002F01EBB2DE9F0418E188EB008
:1055C000B14280460D4617460591069680F0198136
:1055D0000B88ADF8123005A8FFF7CBFE03689E429A
:1055E00040F20F8105980378412B12D101300AF067
:1055F0004AFE052801DDFF240FE0059801300AF07E
:1056000042FE0028F7DB059801300AF03CFE0E3020
:1056100002E005A8FFF7A3FEC4B2BDF8123047F2BE
:105620007622934200F0B4800DD847F26122934273
:105630007AD047F2642293424FD046F6705293429A
:1056400040F0D18034E047F26472934257D047F281
:105650007672934200F0AD8047F26172934240F05F
:10566000C28082E00378412B32D101300AF00BFE78
:10567000052821DDFF2405A8FFF77BFE059D624973
:1056800028460AF04FFF0146002800F0B6805F4927
:1056900028460AF047FF002800F0AE805C49284603
:1056A0000AF040FF002800F0A78005A8FFF761FE80
:1056B00005988642D6D8A4E0059801300AF0E3FDAB
:1056C0000028D7DB059801300AF0DDFD0E3002E03E
:1056D00005A8FFF744FEC4B2CDE70AAB079307A8BD
:1056E000102300254B4909930895FFF751FE07A8A1
:1056F0002146FFF769FE204604F08AFB25E005A855
:10570000FFF737FE03689E427BD9A4B201212046F1
:1057100004F054FB05A8FFF722FE011C18BF01216D
:10572000204604F05CFB6CE00AAB07933A49102377
:1057300007A8002509930895FFF72AFE07A8214628
:10574000FFF742FE204604F076FB014607A8FFF76C
:105750004DFE089B0295013B0093079B01952A464D
:105760001421404600F050FA4BE005A8FFF701FE77
:1057700003689E4245D9A4B20121204604F01EFBD5
:1057800005A8FFF7ECFD0146204604F06BFB38E06E
:105790000EAD204605F8104D02F02EFA03462846BD
:1057A00023B11E4A934201D098472AE002F020FA22
:1057B00027E005A8FFF7DDFD059B0A935D1B7D1B18
:1057C00020460B950C958DF81C4002F01FFA0346FD
:1057D0000AA907A823B1124A934201D0984710E0C2
:1057E00002F007FA0DE0002302210091B8F81A2018
:1057F000029301931946B4E70121204604F0DEFA32
:1058000053E70EB0BDE8F081B1340E007D350E00D7
:1058100081350E0085350E0088350E00F17B0D00B8
:10582000F37B0D002DE9F0418EB004AF0546052253
:1058300007F10C01006803F062F9002800F01981FB
:10584000052801D0002019E1B7F80D20B7F80F4066
:10585000130A43EA0222230A43EA042492B2A4B2BE
:10586000A7F80D20A7F80F40002AEBD03B7BF3B937
:1058700002F0BAF96B7FE860B7F80F209BB9B7F870
:105880000D1001290FD1042A01D0C82ADAD1012430
:1058900068616C77284600F099FAFFF72BFD00F05D
:1058A000BDFC2046EAE0501F18BF0120E6E0B4F539
:1058B000806F03D92846FFF775FEDAE004F108038C
:1058C00023F00703E846ADEB030D04AE2246314654
:1058D000286803F014F984424FF0000440F0C480BB
:1058E000B7F80F30F45402F07FF93B7BE860112BDE
:1058F00072D006D8062B20D00F2B60D0022B09D0F7
:10590000AEE0292B25D0372B00F0B080142B40F0CF
:10591000A78054E06B7F43B901236B77284600F0E2
:1059200055FAFFF7E7FC00F079FC0023C821B7F82F
:105930000D2002930193009106E0C823B7F80D20D3
:1059400000930294019423461946284600F05CF91E
:105950008CE0AB681BB9202002F0CAFCA860B7F845
:105960000F40FE613444A6423C6201D300207EE039
:1059700020223146A8680BF018FB07F11C00FFF746
:10598000F8FC0368A34207D2F86918B13B6A984251
:1059900071D3002084B200E05024286804F075F828
:1059A0002B68AA685A631C8700236B7702F01CF9E6
:1059B000A0F59C5008382861E860686156E0FB68F3
:1059C000B7F80F20C3F30F236B8331462846FFF748
:1059D000F3FD00236B8349E0B7F80F303C7133448B
:1059E0009E427E61BB6141D23068B86007F114000D
:1059F000FFF7BFFC7A69B7F80F30FA61961B9E1B60
:105A0000204ABB683E6293427E621DD00BD802F1F1
:105A1000FD3202F10222934228D107F11C01381D08
:105A200002F0E7F822E0184A934213D002F19F6295
:105A300002F5003202F58072934217D107F11C0182
:105A4000381DFFF72BFD11E007F11C01381D02F096
:105A5000D0F80BE007F11C01381D00F0B5FA05E0A5
:105A60002846FFF79FFD01E0204600E00120C546E3
:105A700004E0012002E00AF00AFC8BE72837BD466B
:105A8000BDE8F0817274630061636F6E2DE9F041CF
:105A900004468AB00D46FFF72DFC637F022B00F011
:105AA0009D80237F628B0133DBB22377002A41D1B3
:105AB000022B3FD8206803F014FE40B1002D40F0C7
:105AC0008F80206803F0F8FF002800F3898002F03F
:105AD0008BF80646206803F004FE677F012F054619
:105AE0002AD120B966612046FFF75CFD72E0E368C9
:105AF00044F63822F31A934204D92046FFF752FDA8
:105B0000002567E042F21072934203D82369F31A2A
:105B100093420FD9636940F6B832F31A934209D918
:105B200000230293019300931A460621204600F0B9
:105B30006BF8666101254DE0002FFBD1626950B121
:105B4000B61A40F6B8339E42F4D9206803F09DFFA0
:105B50003D4667773EE0B21A41F288339A42E9D96E
:105B6000206803F092FFD4F800E0DEF834C0BEF8FD
:105B70003880BCF1000F06D02B4642466146704685
:105B800003F0DCFD0EE01F4B04930EF120070FCF56
:105B900005AD0FC53B682B704246634604A97046AD
:105BA00003F0F6FE431E5D425D410DB9666111E0F2
:105BB00067680126268338460BF0DAF900238DE862
:105BC0000900029332463B460221204600F01CF8B1
:105BD00023696361237F013B23770EE000250CE0FE
:105BE0002046FFF71FFE054600287FF46AAF2068B5
:105BF00003F04BFF01F0FEFFECE728460AB0BDE8DA
:105C0000F08100BF103F0E002DE9F04F83B000AFD0
:105C1000044600683D6B894616469B46EA4603F0FB
:105C200060FD002860D019F0FD0F00F0A080B9F1F0
:105C3000060F00F09C80637F012B55D116B9668B4F
:105C4000002E56D0A9F10C03082B5AD97A6BBBF160
:105C5000000F14BFA8464FF00008002ABA6B08F1E5
:105C6000050314BF90464FF00008984408F107035D
:105C700023F00703AA18ADEB030DC2F3072376BA8E
:105C800043EA0223C7F804D08DF80090ADF8016014
:105C9000ADF80330BBF1000F52D0002D50D02A4692
:105CA00059460DF105000AF001FC681D7B6B002BC5
:105CB00048D10025454551D2C5EB08027B682068D4
:105CC000B2F5806F28BF4FF48062591903F0F3FCDE
:105CD0000646002001F086FF002E3DD1206803F02B
:105CE000D4FE667701F086FF0C37D546BD46BDE889
:105CF000F08F238B01339BB203B901232383268BBF
:105D0000A0E7E3682269934238BF134603F14208D3
:105D100001F06AFFC0EB080000280ADB00212046E2
:105D2000FFF7B4FE01F060FFC0EB08000028F5DAD1
:105D30008CE7217F002989D12046FFF7A7FE85E760
:105D40000520B3E7BB6B002BB3D01A467B68796B99
:105D500018440AF0ABFBACE73544ABE703D0204670
:105D6000FFF720FCC0E701F03FFF2061BCE7002EF9
:105D70007FF46CAF63E70000F0B5ADF2244D08ABE3
:105D8000002405460F46059305A84FF480630E498D
:105D9000079316460694FFF7FBFA394605A8FFF766
:105DA00013FB314605A8FFF70FFB069B0294013B4E
:105DB00000930194059B224614212846FFF724FFF7
:105DC0000DF2244DF0BD00BF8B350E001FB5002233
:105DD0004923009302920192034B1121FFF714FF14
:105DE00005B05DF804FB00BF0A350E00F0B5ADF25A
:105DF000344D0CAB002405460F46059305A84FF41F
:105E000080631149079316460694FFF7C1FA394695
:105E100005A8FFF7D9FA314608A802F018FC08993E
:105E200005A8FFF7B5FA08A802F08BFB069B0294C1
:105E3000013B00930194059B224614212846FFF75D
:105E4000E3FE0DF2344DF0BD8B350E00F0B5ADF232
:105E5000244D1E4608AB174600240546059305A8A9
:105E60004FF4806307930694FFF792FA394605A82A
:105E7000FFF78EFA314605A8FFF78AFA069B0294CF
:105E8000013B00930194059B22460D212846FFF714
:105E9000BBFE0DF2244DF0BDF0B5ADF2244D1E4613
:105EA00008AB174600240546059305A84FF4806308
:105EB00007930694FFF76CFA394605A8FFF768FACE
:105EC000316805A8FFF764FA069B0294013B009332
:105ED0000194059B22460D212846FFF795FE0DF201
:105EE000244DF0BDF0B5ADF22C4D0AAB00240646B2
:105EF0000D46079307A84FF4806317498DED050AF7
:105F000009930894FFF744FA294607A8FFF75CFABB
:105F10009DED050A089B0999079D10EE100ACF1AFE
:105F20001D4409F0D5FD0D4ACDE90001394628464A
:105F300002F006FA089B02940130184408900138D8
:105F400000900194079B224614213046FFF75CFE27
:105F50000DF22C4DF0BD00BF8B350E008E350E00BE
:105F600038B5094D094C6A6820460B21FFF704FF3C
:105F70002046AA680D21FFF7FFFE95ED030A0F21C9
:105F80002046FFF7AFFF38BDB4DE032004E3032053
:105F900008B508680AF077F9034B5860FFF738FA3C
:105FA000BDE80840FFF7DCBFB4DE032008B5086891
:105FB0000AF069F9034B9860FFF72AFABDE8084038
:105FC000FFF7CEBFB4DE032008B5064B01221A70DE
:105FD000FFF7C6FF03F000F90349BDE8084002F0EF
:105FE00022BC00BFB1DE032094350E0010B5086856
:105FF0000AF049F901280DD109480A4C01F0AAF824
:1060000084ED030AFFF704FA94ED030A06480F2112
:10601000FFF768FF00220E210348FFF7ADFE10BD19
:1060200070E20320B4DE032004E30320F0B5ADF2F8
:10603000244D08AB002405460F46059305A84FF4F0
:1060400080630E49079316460694FFF7A1F9394677
:1060500005A8FFF7B9F9314605A8FFF799F9069B9E
:106060000294013B00930194059B2246142128468B
:10607000FFF7CAFD0DF2244DF0BD00BF8B350E00B9
:10608000F0B585B00968684602F0A2FA3949684659
:1060900002F049FB002867D0374C384A38481621AF
:1060A000FFF7C4FF00250523032600273549A36019
:1060B00004F1100066602560E7600AF03DFA31499E
:1060C00004F588700AF038FA2E4904F504700AF0D5
:1060D00033FA32460A212A48C4F8107384F814535C
:1060E00084F81553FFF748FEA26825480C21FFF7F6
:1060F00043FE626822480B21FFF73EFEA26820485B
:106100000D21FFF739FE04F1100214211C48FFF79E
:106110008DFF04F5887210211948FFF787FF04F5F9
:10612000047212211648FFF781FF94ED030A144808
:106130000F21FFF7D7FE94EDC40A11481921FFF78C
:10614000D1FE114801F006FE104A0D481521FFF757
:106150006DFF03F041F80D4902F065FB4FF4FA7052
:1061600002F0DCFD02F076F9684602F0EAF905B0CB
:10617000F0BD00BF9E350E00B4DE0320A6350E0034
:1061800004E30320C0360E0010DC0320BA350E00F5
:1061900010B51E4C1E4862680A21FFF7EDFDA2688B
:1061A0001B480C21FFF7E8FD626819480B21FFF737
:1061B000E3FDA26816480D21FFF7DEFD04F1100291
:1061C00014211348FFF732FF04F58872102110489C
:1061D000FFF72CFF04F5047212210D48FFF726FF8C
:1061E00094ED030A0A480F21FFF77CFE94EDC40AE0
:1061F00007481921FFF776FE064B1B7823B1064AA4
:1062000003481521FFF712FF10BD00BFB4DE0320C5
:1062100004E30320B2DE0320C9350E001FB502F0EF
:10622000DBFF0A4902F0FFFA094B1B780BB1FFF7BD
:10623000AFFF00230293019300931A4610210548F3
:10624000FFF7E2FC05B05DF804FB00BFE4350E008B
:10625000B0DE032004E303202DE9F04FADF2CC4D76
:106260000546602200211AA80AF02BF96C4B1A93FC
:106270006C4B1E936C4B22936C4B26936C4B2A9366
:106280006C4C6D4B2E930EAB2B9323780DF1180BAA
:106290000DF1200A0DF128090DF1300810AFCDF8ED
:1062A0006CB0CDF87CA0CDF88C90CDF89C802F9769
:1062B00023B12A4615216148FFF7B8FE05AB062237
:1062C0001AA92846FEF7EEFF064600287AD05C4D54
:1062D000686809F0FDFBCBE90001A86809F0F8FB4C
:1062E000CAE90001E86809F0F3FBC9E9000128697F
:1062F00009F0EEFB534BC8E90001186809F0E8FB10
:10630000C7E900013046FEF7B7FC237857EC106B65
:106310005BB14D4932A802F09AF9484832AA1521DA
:10632000FFF764FD32A802F00CF92378002B38D077
:1063300032AB00251693454917954FF4806316A894
:106340001893FFF725F8152116A8FFF73DF8179BBE
:10635000189916983E4AC91A1844CDE9006701F009
:10636000EFFF179B029501301844179001380090F9
:10637000169B324801952A461421FFF745FC00225E
:10638000344B3046394609F05FFE90B1294B1C78FA
:106390000CB901243FE0304A28481521FFF746FE9A
:1063A00039E000222B4B3046394609F04DFE0028DB
:1063B000EFD12478002C2ED0284A20481521FFF751
:1063C00035FE27E0264932A802F002F90A22059993
:1063D00016A802F060F916A932A802F086F9014663
:1063E00012A802F034F916A802F0ABF832A802F0B5
:1063F000A8F823785BB112A932A802F028F90F4857
:1064000032AA1521FFF7F2FC32A802F09AF812A87E
:1064100002F097F8002420460DF2CC4DBDE8F08F35
:10642000F5350E00F9350E00FD350E0001360E0073
:1064300006360E00B2DE03200B360E0004E3032006
:10644000D4E2032028E30320D4E103208B350E009F
:1064500010360E000000F03F16360E002D360E00EE
:1064600045360E002DE9F0432DED028B2B492C48CB
:106470002C4D2D4F294C99B001F064FA2B49284836
:1064800001F074FA02F0A8FE294902F0CCF90023C9
:106490002B602E462B68DFF88C80032B17DC02F074
:1064A0009BFE336803F1010904EB830380461868FF
:1064B00009F00EFBCDE9000157F829301D4A0021F3
:1064C000404602F0CDFA336801333360E2E702F070
:1064D00083FE1949DFF8549002F0A5F90023C8F8AB
:1064E00000304446DFF840802B68042B26DC02F0A5
:1064F00073FE266809EB86030746186809F0E8FA78
:10650000CDE900010B4A58F826300021384602F048
:10651000A7FA236801332360E6E700BFFCE103200C
:10652000D4E20320E4E10320D4DA0320B0E2032024
:1065300057360E006E360E0079360E00BF4CC04D39
:10654000606809F0C5FA02460B460EA8BD4902F084
:1065500009F90EA9BC4802F085F80EA801F0F1FF78
:10656000A06809F0B5FA02460B460EA8B54902F03C
:10657000F9F80EA9B54802F075F80EA801F0E1FF90
:10658000E06809F0A5FA02460B460EA8AD4902F0F4
:10659000E9F80EA9AE4802F065F80EA801F0D1FFA7
:1065A000206909F095FA0B460246A6490EA802F0AA
:1065B000D9F80EA9A74802F055F80EA801F0C1FFBE
:1065C000A54AA648012100F063FD07EE900AF8EE07
:1065D000E77AC5ED007A02F0FFFDA14902F010F95B
:1065E00002F0FAFD0446286809F072FA41EC100B3B
:1065F0000221204602F026FA02F0EEFD02F007F931
:1066000002F0EAFD974902F0FBF802F0E5FD0121F6
:106610000446924800F0F0FD10EE100A09F058FA16
:1066200041EC100B0221204602F00CFA02F0D4FDDE
:1066300002F0EDF802F0D0FD8B498C4C02F0E0F84E
:106640008B4A8648012100F023FD07EE900A0121C4
:10665000B8EEE70A814800F00FFE84ED000A02F070
:10666000BBFD0646206809F033FA41EC100B02210D
:10667000304602F0EAF902F0AFFD02F0C8F82068F7
:106680007C4C7D4E09F024FA02460B460EA86D495B
:1066900002F068F80EA9794801F0E4FF0EA801F0B5
:1066A00050FF286809F014FA02460B460EA8654907
:1066B00002F058F80EA9724801F0D4FF0EA801F0BC
:1066C00040FF70490EA802F0E1FD6F4802F022FC85
:1066D00010EE100AB0EE408A09F0FAF90B460246B5
:1066E0006A490AA802F03EF80AA9694801F0BAFF0F
:1066F0000AA801F026FF119A66490AA802F032F8AA
:106700000AA9654801F0AEFF0AA801F01AFF4E4938
:106710000AA801F09CFF61490AA801F0F2FF4B4969
:1067200001F0E3FF5D4901F0ECFF494901F0DDFFB5
:106730005A4901F0E6FF474901F0D7FF574901F0F8
:10674000E0FF4E4901F0D1FF544901F0DAFF4C4916
:1067500001F0CBFF514901F0D4FF4D4901F0C5FFD5
:106760004E4901F0CEFF4C4901F0BFFF01462046E3
:1067700001F05EFF0AA801F0E4FE33490AA801F027
:1067800066FF0AAA01214648FFF730FB0AA801F07C
:10679000D8FE2E490AA801F05AFF0AAA0221404851
:1067A000FFF724FB0AA801F0CCFE29490AA801F052
:1067B0004EFF0AAA03213A48FFF718FB0AA801F086
:1067C000C0FE24490AA801F042FF0AAA0421344865
:1067D000FFF70CFB0AA801F0B4FE28490AA801F053
:1067E00036FF0AAA05212E48FFF700FB0AA801F090
:1067F000A8FE23490AA801F02AFF0AAA0621284870
:10680000FFF7F4FA0AA801F09CFE21490AA801F05A
:106810001EFF0AAA07212248FFF7E8FA0AA801F09A
:1068200090FE1D490AA801F012FF0AAA08211C487F
:10683000FFF7DCFA0AA801F084FE33E0D4E203207B
:1068400028E3032092360E00C4E2032024DC032058
:1068500034DC0320ECE1032098360E0070E20320C4
:106860009A360E00A2360E00A9360E0020DC032058
:10687000B0360E00D4E103201CDC032044DC0320EE
:1068800060E2032080E3032054DC0320B2360E00D4
:106890005CDC032088400E0048E20320B8360E007E
:1068A00004E3032002F098FC216801F0BCFF694B6F
:1068B000694801241C70FFF7CFFC054600283FD033
:1068C00000220B216548347000F018FE224600219A
:1068D0006348FFF751FA022209216148FFF74CFA99
:1068E00060490AA801F074FE02F007FA5E4B5F49A6
:1068F000024606A802F0AEF906A90AA801F0F5FEC4
:106900005B4901F0FEFE5B4901F0EFFE5A4901F0E0
:10691000F8FE014602A801F09AFE06A801F011FE59
:106920000AA801F00EFE02A90AA801F090FE0AAA28
:106930001E214B48FFF75AFA0AA801F002FE3EE07A
:1069400022460B21454800F0D9FD2A4629464448F5
:10695000FFF712FA224609214148FFF70DFA47498D
:106960000AA801F035FE02F0C8F93F4B3F49024644
:1069700006A802F06FF906A90AA801F0B6FE3C4984
:1069800001F0BFFE3B4901F0B0FE3B4901F0B9FE0A
:10699000014602A801F05BFE06A801F0D2FD0AA89C
:1069A00001F0CFFD02A90AA801F051FE0AAA1E219A
:1069B0002B48FFF71BFA0AA801F0C3FD357002A8A7
:1069C00001F0BFFDFEF7C6FD50B1337813B12C4B7B
:1069D0002C4A01E02C4B2D4A2D492148FFF736FA6D
:1069E0002C4B2D4CD3EDC47AB4EEE78AF1EE10FABD
:1069F0004CBF012300232370FEF7C0FD08B32378AA
:106A000026490AA85BB101F0E3FD1A490AA801F082
:106A10006CFE234901F075FE224A03460AE001F0AC
:106A2000D7FD14490AA801F060FE1F4901F069FE74
:106A30001E4A03460A481E49FFF72EFA0AA801F02B
:106A400080FD1C4A13680133136019B0BDEC028B42
:106A5000BDE8F0835EE20320C4DE0320CCE1032026
:106A600004E30320BA360E00C2360E0044E30320CE
:106A7000C0360E005CDC0320C8360E00CA360E009D
:106A8000CE360E00E9360E00FF360E001A370E0025
:106A9000C4DF0320B4DE0320E8E1032036370E0014
:106AA00050370E0053370E0075370E0078370E0042
:106AB000C4E00320D0E1032008B5074800F029FE18
:106AC00018B1BDE80840FFF7CDBC02F085FB0349D3
:106AD000BDE8084001F0A7BED4E20320A0370E00B5
:106AE0001FB50968684601F073FD684601F02DFE88
:106AF0000099084809F020FDFEF78AFC064B1B7838
:106B000013B10448FFF7A8FB684601F01AFD05B071
:106B10005DF804FBC4DE03205EE20320F8B5A14863
:106B2000A14C406800231A46194601F089FB032155
:106B3000082003F043F902F04FFB4FF4165102F026
:106B40003FFB4FF4967002F0E9F803F0D3F902F03E
:106B5000B9FC964801F07AF8954800F019FC00223B
:106B60000221934800F0BEFC00220321904800F06F
:106B7000B9FC642002F0D2F8012202218C4800F016
:106B8000B1FC012203218A4800F0ACFC01220B2158
:106B9000874800F0B3FC00220B21854800F0A8FCD8
:106BA00040F6B83002F0BAF8FEF73EFC814B22689E
:106BB0001B689A4226D02360182363600523A360D4
:106BC0007D497E4BE36004F1100009F0B5FC7C497F
:106BD00004F5887009F0B0FC794904F5047009F0F7
:106BE000ABFC784BC4F81033002384F8143384F8DA
:106BF0001533754B01221A70FEF70AFC02F0ECFA0D
:106C0000724902E002F0E8FA714901F00CFE02F06C
:106C1000E3FA01F0FCFD02F0DFFA6E4901F003FE39
:106C200002F0DAFA6C4901F0EBFD02F0D5FA6B4B99
:106C30000546186808F04CFF41EC100B022128466D
:106C400001F003FF02F0C8FA654901F0D9FD02F036
:106C5000C3FA644B0546186808F03AFF41EC100B84
:106C60000221284601F0F1FE02F0B6FA5E495F4DBE
:106C700001F0C6FD02F0B0FA0646A86A08F028FF47
:106C800041EC100B0221304601F0DFFE02F0A4FAC5
:106C90000646E068686208F01BFF41EC100B022119
:106CA000304601F0D2FE02F097FA514901F0A8FDFA
:106CB00002F092FA0646A86B08F00AFF41EC100BAE
:106CC0000221304601F0C1FE02F086FA494901F086
:106CD000AAFD02F081FA484901F0A5FD4FF4967033
:106CE00002F01CF803F006F90146444800F0A4FE47
:106CF00050B902F071FA424901F095FD4FF4FA6083
:106D000002F00CF8FEF79CFB3E4D01F0D1FA3E4B31
:106D10006B6000F069FFA0F59C5008382861E860BE
:106D200068612868394B43635023038702F0ADFE46
:106D300000236B7700F058FF42F2273706466B7F3F
:106D4000012B09D000F050FF801BB84204D800216D
:106D50002C48FEF79BFEF2E701F08EF841F6A37691
:106D60000546264800F0D5FC40B901F085F8401BE7
:106D7000B04203D8642001F0D1FFF2E702F02CFA10
:106D8000234901F050FDA368224A23484FF47A7149
:106D9000594300F0B9FE204800F0D8FEBDE8F840A5
:106DA000FFF78ABE80E30320B4DE032010DC03205B
:106DB000CCE10320E8DA0320A3370E0000001CC357
:106DC000DB370E0000002041B0DE0320F5370E0057
:106DD00000380E0065380E000F380E0014DB03205B
:106DE00027380E0010DB03203E380E0070E203202F
:106DF00053380E005C380E0070380E00D4E20320C9
:106E00007C380E0004E30320ECDA032090380E00F7
:106E1000A4380E00B96A0D006CDC032008B500210F
:106E20000A48FEF733FE0A4800F090FE094B5A6804
:106E3000094B1B689A4207DC4FF4FA6001F06EFFC1
:106E4000BDE80840FEF7FCBA08BD00BF04E303201C
:106E50006CDC0320B4DE0320D0E10320F8B5594EEA
:106E6000594B5A4D5A4F00241C6000F09DFF30468C
:106E700002F0BEFE06F11C0002F016F92A46554942
:106E800074633046348703F075F8534B1E605C60C2
:106E90009C60DC601C615C611C835C831C775C779C
:106EA0004E4B4F4E1C704FF6FF725C809A80022052
:106EB00001F06AF92146012001F07EF903F01AF889
:106EC00022460146304600F0B9FE2A464549304682
:106ED00003F050F8444E454800F058FA444800F09A
:106EE000D6FB2146304601F0D5FF3046414E42499F
:106EF000424C2A4603F03EF83146384601F068FB22
:106F000038463F4F2A46214603F034F8314638468A
:106F100001F05EFB38463B4F2A46214603F02AF833
:106F20003146384601F054FB3846374F2A46214651
:106F300003F020F83146384601F04AFB3846334F1B
:106F40002A46214603F016F83146384601F040FB48
:106F500038462F4F2A46214603F00CF83146384672
:106F600001F036FB38462B4F2A46214603F002F843
:106F70003146384601F02CFB3846274F2A46214639
:106F800002F0F8FF3146384601F022FB3846234F25
:106F90002A46214602F0EEFF3146384601F018FB42
:106FA0002A462146384602F0E5FF1D4800F051FD13
:106FB0009FED1C0A1C480F221121BDE8F84000F08B
:106FC000B5B900BF0CE2032024E303200CDC03204E
:106FD000C4E2032041530D0004E3032058E20320E0
:106FE00010DC0320257C0D0054DC0320CCE10320C1
:106FF000D4E20320E93D0E00B38E0D0043850D0061
:1070000024DC032034DC0320ECE1032044DC0320F7
:1070100060E203205CDC032048E20320D4E103208B
:107020006CDC03209A99814070E2032080E806001E
:10703000104A82630261104AC261104ADFED106A91
:10704000D2ED007A9FED0F7A0F4980ED020A67EECC
:10705000A66AC16086EE876ADFED0C6A80ED087A69
:1070600067EEA67A80ED056AC7EE876AC0ED066A0C
:10707000704700BF0000A0410000904114DB0320D6
:10708000000068420000AE420000204200001842AA
:107090002DE9F0410C460646904600F0EDFE4FF417
:1070A0007A7707FB040700242546B08802F0C3FE68
:1070B0000444012001F032FE00F0DEFEB84205F18A
:1070C0000105F2D307EE105A07EE904AF8EE476A30
:1070D000F8EE677A184BD6ED085A87EEA67AD3ED0C
:1070E000007A164B93ED006A154BC5EE866A9845FB
:1070F00067EE277A9FED137A27EE877AD6ED077A27
:10710000D7EE267A0CD1B2EE027A67EE877AF1EEEC
:10711000046A87EEA67ADFED0C7A77EE277A02E032
:107120000A4B984502D1FDEEE77A01E0DFED087ADF
:1071300017EE900ABDE8F08110DB032014DB03207A
:1071400098360E000000803900000042B0360E0074
:1071500000000000F8B5044600F08EFE002500F5A2
:107160001C5710372E46208802F065FE054401208A
:1071700001F0D4FD00F080FEB84206F10106F2D322
:1071800007EE905A07EE106AF8EE677AB8EE477A83
:10719000154BC7EE876AD3ED007A66EEA77A17EE35
:1071A000900A08F095FC0022104B08F0E5FC104B0B
:1071B000002208F0E1FC08F0D7FFD4ED0A7A0D4A6E
:1071C00007EE100A77EE677A0A21C4ED097A2046A5
:1071D000FFF75EFF07EE900AF8EEE77A94ED090AF2
:1071E000C4ED0E7AF8BD00BF10DB032000408F40D5
:1071F0000000303FB0360E00F8B50C46074600F0F0
:107200003BFE4FF47A7606FB0406002425463888B8
:1072100002F011FE0444012001F080FD00F02CFE7C
:10722000B04205F10105F2D307EE904A07EE105A7D
:10723000F8EE677AB8EE477A0B4BC7EE876AD3ED64
:10724000007A66EEA77A17EE900A08F041FC002259
:10725000064B08F091FC0022054B08F08DFC08F06D
:1072600083FF00EE100AF8BD10DB032000408F40C2
:107270000000303F00000000D0B52DED028B044629
:10728000B0EE408AFFF7B8FFD4ED0A7A30EE670A15
:10729000D4ED097A70EE677A17EE900A08F018FCC0
:1072A0000022214B08F092FDD4ED0F7AF8EEE77A38
:1072B000064617EE900A0F4608F00AFC02460B46F7
:1072C0003046394608F082FD15A3D3E9002308F0C3
:1072D00053FC08F049FFB3EE077AB4EEC78A94ED89
:1072E0000E7AF1EE10FA78EE476A07EE900ACCBFFC
:1072F00094ED0C6A94ED0D6A38EE478AE6EE667AF4
:10730000D4ED0B6AB7EE000AA6EEC80ABDEC028BFC
:10731000D4ED026A87EEA67A20EE070AD0BD00BF40
:107320000000000065CDCD4100408F4008B5034608
:10733000FFF77CFE0D4A9FED0E7AD2ED007ADFED6D
:107340000D6A0D4ADA6327EE877A4FF07C52C7EE5A
:10735000267ADA62094A1A63094A5A6318469FED87
:10736000097A67EE877AC3ED0A7A08BD14DB032039
:1073700040E38649A07A004AA08601009A9981419B
:107380001F85934000007A4400F00EBD7047000056
:1073900010B5534C204600F03FF920460122002151
:1073A00000F03DF901221146204600F038F9204650
:1073B0000122022100F033F920460122032100F0CE
:1073C0002EF920460122042100F029F9204601224D
:1073D000052100F024F920460022062100F01FF9C3
:1073E00020460122072100F01AF920460022082138
:1073F00000F015F920460022092100F010F920467E
:1074000000220A2100F00BF9204600220B2100F097
:1074100006F9204600220C2100F001F92046002246
:107420000D2100F0FCF8204600220E2100F0F7F8B4
:10743000204600220F2100F0F2F820460122002110
:1074400000F016F901221146204600F011F92046FD
:107450000122022100F00CF920460122032100F054
:1074600007F920460122042100F002F920460122FA
:10747000052100F0FDF820460122062100F0F8F871
:1074800020460122072100F0F3F8204601220821BE
:1074900000F0EEF820460122092100F0E9F820462C
:1074A00001220A2100F0E4F8204601220B2100F01D
:1074B000DFF8204601220C2100F0DAF820460122F4
:1074C0000D2100F0D5F8204601220E2100F0D0F861
:1074D000204601220F21BDE8104000F0C9B800BFCE
:1074E0002CE30320014800F0A6B800BF2CE30320E2
:1074F000014800F0BDB800BF2CE3032070B5074C75
:107500000D4616462046012200F089F832462946EB
:107510002046BDE8704000F08EB800BF2CE3032089
:1075200000F042BC10B5044602F0E4FC03682146BA
:107530009B68BDE81040184708B502F0DBFC036803
:107540005B699847C0B208BD38B504460D4602F0E5
:10755000D1FC217841F0200101F0D4FF2846FFF74B
:10756000E1FF02F0C7FC01F0D4FF02F0C3FC217878
:10757000012241F0200101F0B7FFBDE83840FFF7DC
:10758000DBBF70B5064614460D4602F0B3FC3178F9
:1075900041F0200101F0B6FF2846FFF7C3FF204667
:1075A000FFF7C0FF02F0A6FCBDE8704001F0B1BFDC
:1075B0002DE9F0419DF81860072998BF1E4601F09B
:1075C00007079046314601240546BC40FFF7BCFF43
:1075D000B8F1000F01D0044301E020EA0404E2B254
:1075E00031462846BDE8F041FFF7CBBF10B507296B
:1075F00028BF07210170044602F07CFC01F062FF05
:107600002046FF220021FFF7BCFF2046FF22012178
:10761000BDE81040FFF7B5BF0021FFF7E7BF07B592
:107620000123B2FA82F2009352090023FFF7C0FF50
:1076300003B05DF804FB0829F8B501F007060C4615
:1076400034BF1421152105461746FFF77DFF01239E
:10765000B3400FB1034301E020EA0303082CDAB280
:10766000284634BF12211321BDE8F840FFF789BF37
:1076700007B50D2300930C23FFF79AFF03B05DF8C5
:1076800004FB00F091BB0368C9B29B681847002255
:1076900042608260C260026142618261C2610262D4
:1076A00042628262012280F82C2080F82D2080F82E
:1076B0002E20704738B505460C460068692101F058
:1076C00021FF210A2868FFF7DEFFE1B22868FFF7F3
:1076D000DAFF286801F01DFF08B1002038BD022242
:1076E0006921286801F0FDFE286803681B69984736
:1076F0000028F2D0286803685B6998470446286828
:1077000003685B699847240204F47F44C0B22043B5
:1077100038BD08B540F20221FFF7CCFF431E5842A6
:10772000584108BDF0B58BB00546FFF7F2FF04469F
:10773000002800F00481002769212868009701973C
:107740000297039704970597069707970897099755
:1077500001F0D8FE03212868FFF795FF3946286815
:10776000FFF791FF286801F0D4FE0646002840F09C
:10777000E5803C226921286801F0B3FE286803688F
:107780001B69984718BB009868600198A860029828
:10779000E86003982861049868610598A8610698D4
:1077A000E861079828620898686200230998A8622F
:1077B00085F82C3085F82D3085F82E30BFE0009B01
:1077C000C0B240EA0320009001363C2EDBD028688E
:1077D00003685B699847F3B23A2BF5D801A252F8D7
:1077E00023F000BFBF770D00BF770D00C9770D00F4
:1077F000BF770D00BF770D00C9770D00D1780D0060
:10780000D1780D00C9770D00D1780D00D1780D0029
:10781000C9770D00DD780D00DD780D00C9770D000A
:10782000DD780D00DD780D00C9770D00E9780D00D9
:10783000E9780D00C9770D00E9780D00E9780D00B1
:10784000C9770D00F5780D00F5780D00C9770D00AA
:10785000F5780D00F5780D00C9770D0001790D0060
:1078600001790D00C9770D0001790D0001790D0036
:10787000C9770D000D790D000D790D00C9770D0048
:107880000D790D000D790D00C9770D0019790D00E6
:1078900019790D00C9770D0019790D0019790D00BE
:1078A000C9770D0025790D0025790D00C9770D00E8
:1078B00025790D0025790D00C9770D0031790D006E
:1078C00031790D00C9770D0031790D0031790D0046
:1078D000019BC0B240EA0320019075E7029BC0B251
:1078E00040EA032002906FE7039BC0B240EA032006
:1078F000039069E7049BC0B240EA0320049063E769
:10790000059BC0B240EA032005905DE7069BC0B22C
:1079100040EA0323069357E7C3B2079843EA0023DC
:10792000079351E7C3B2089843EA002308934BE753
:10793000C3B2099843EA0023099345E73C46204631
:107940000BB0F0BD38B590F82C3004460D460BB1A5
:10795000FFF7E8FE012384F82C3063682B60A368EE
:107960006B60E368AB602369EB6038BD38B590F8B5
:107970002D3004460D460BB1FFF7D4FE012384F8E9
:107980002D3063692B60A3696B60E369AB60236A88
:10799000EB60636A2B6138BD10B5FF200C46631A9B
:1079A000DBB29A4211D914F8013B5840082310F079
:1079B000800F03F1FF334FEA400018BF80F0310021
:1079C00013F0FF03C0B2F2D1E9E710BD2DE9F34196
:1079D0000F46161215468DF8052001A9022204460D
:1079E0008DF80460FFF7D8FF69218046206801F018
:1079F00089FD390A2068FFF746FEF9B22068FFF7D3
:107A000042FE31462068FFF73EFEE9B22068FFF7EC
:107A10003AFE2068036841469B689847206801F059
:107A200078FDB0FA80F0400902B0BDE8F0814FF473
:107A300040721021FFF7CABF10B504460160084626
:107A400001F040FD2046BDE81040FFF7F0BF00F018
:107A5000ABB94FF0FF33C0F84032704770B5054600
:107A600000F0C2F80024064628192422002108F05C
:107A700028FD2E512434B4F5107FF5D10023C5F82C
:107A8000403270BDD0F840320F2B08DC0023242296
:107A900002FB0301496829B10133102BF8D14FF0E3
:107AA000FF307047184670472DE9F8439846D0F8E4
:107AB0004032002B05468946174601DAFFF7CEFF14
:107AC0002846FFF7DFFF041E1ADBCFB124266643EA
:107AD000AB199DF820201A73099A5A610122C3F844
:107AE00010905F60C3F808801A7700F07DF8A85105
:107AF000D5F840320133C5F840322046BDE8F8835E
:107B00004FF0FF30BDE8F88307B5002301930093E1
:107B1000FFF7CAFF03B05DF804FB0F2938B5044630
:107B200013D8D0F8403283B1242202FB01F5284457
:107B3000436853B1002108F0C4FC00F055F86051CF
:107B4000D4F84032013BC4F8403238BD2DE9F04151
:107B5000054605F5117700F047F801262B1D4FF07B
:107B6000000E4FF0020C1A68C3F81CE0E2B153F8A3
:107B7000048CDC68C8EB0002A24215D3B2FBF4F11E
:107B800004FB018243F8042C1A7E6AB1196909B911
:107B9000DE6109E05A69914206D901329142DE6103
:107BA0005A6198BFC3F81CC02433BB42DBD12C46BA
:107BB0000026236A6BB1227B636812B1A0689847E4
:107BC00000E09847236A022B03D131462846FFF78D
:107BD000A4FF0136102E04F12404EAD1BDE8F0819F
:107BE00000F0E2B801F09AB800F046B900F0DCB855
:107BF00070477047704700007F289ABF024B53F8C8
:107C000020000020704700BF783B0E007F289ABFFD
:107C1000024B53F820000020704700BF78390E0057
:107C200000F0C2B8704710B50446FCF738FA204699
:107C300010BD0368C9B29B681847000010B5024C1C
:107C400004604160826010BD803D0E00406801F01C
:107C500039BC2DE9F04704460D4617469846B8F161
:107C6000000F3FD0A168606841F0500101F04AFC6C
:107C7000290A6068FFF7DDFF29466068FFF7D9FF32
:107C80000021606801F041FC10B10020BDE8F087E0
:107C9000B8F1200FA1686068C14628BF4FF02009E5
:107CA00001234A4641F0500101F023FC02F022F981
:107CB00003681B6998478145E7DC3E46C7EB050A28
:107CC00002F018F903685B69984706F8010BF21B8C
:107CD000C6EB0803914506EB0A053B44F0D89846ED
:107CE0003746BCE70120BDE8F0872DE9F0470446A0
:107CF0000D4690461F4657B3A168606841F0500199
:107D000001F000FC290A6068FFF793FF29466068CC
:107D1000FFF78FFF08F11E094646C8EB050A6068A9
:107D200016F8011B03689B6898474E4506EB0A0549
:107D3000B04607F1FF3701D0002FF0D10121606874
:107D400001F0E3FB0028D6D00020BDE8F087012039
:107D5000BDE8F08730B589B005462022002168468D
:107D600008F0AFFB002420236A4621462846FFF78F
:107D7000BCFF20B12034B4F5004FF4D1012009B08C
:107D800030BD00F011B8000008B5024B1B689B68BD
:107D9000019308BD6802030008B5024B1B68DB684D
:107DA000019308BD6802030008B5024B1B681B68FD
:107DB000019308BD2C02030008B5024B1B685B68E9
:107DC000019308BD2C02030008B5024B1B689B6899
:107DD000019308BD2C02030008B5024B1B68DB6849
:107DE000019308BD2C02030008B5024B1B681B69F8
:107DF000019308BD2C02030008B5024B1B685B69A8
:107E0000019308BD2C02030008B5024B1B689B6A56
:107E1000019308BD2C02030008B5024B1B681B6BC5
:107E2000019308BD2C02030008B5024B1B689B6F31
:107E3000019308BD2C02030008B5024B1B68DB69E7
:107E4000019308BD3002030008B5024B1B681B6A92
:107E5000019308BD3002030008B5024B1B685B6943
:107E6000019308BD6C02030008B5024B1B685B68F8
:107E7000019308BD1802030008B5024B1B685B693B
:107E8000019308BD1802030008B5024B1B68DB69AB
:107E9000019308BD1802030008B5024B1B689B6DD7
:107EA000019308BD1802030008B5024B1B689B6EC6
:107EB000019308BD3402030008B5024B1B689B68A0
:107EC000019308BD4802030008B5024B1B681B69FB
:107ED000019308BD4802030008B5024B1B685B69AB
:107EE000019308BD4802030008B5024B1B681B6BD9
:107EF000019308BD4802030008B5024B1B685B6C88
:107F0000019308BD4802030008B5024B1B685B697A
:107F1000019308BD6402030008B5024B1B681B6A8D
:107F2000019308BD6402030008B5024B1B689B6AFD
:107F3000019308BD6402030008B5024B1B681B686F
:107F4000019308BD3C02030008B5024B1B68DB68C7
:107F5000019308BD3C02030008B5024B1B681B6976
:107F6000019308BD3C02030008B5024B1B685B6926
:107F7000019308BD3C02030008B5024B1B689B69D6
:107F8000019308BD3C02030008B5024B1B68DB6986
:107F9000019308BD3C02030008B5024B1B681B6A35
:107FA000019308BD3C02030008B5024B1B689B6AA5
:107FB000019308BD3C02030008B5024B1B68DB6857
:107FC000019308BD2802030008B5024B1B685B69DA
:107FD000019308BD2802030008B5024B1B689B698A
:107FE000019308BD2802030008B5024B1B68DB693A
:107FF000019308BD2802030008B5024B1B681B6AE9
:10800000019308BD2802030008B5024B1B685B6A98
:10801000019308BD2802030008B5024B1B689B6A48
:10802000019308BD2802030008B5024B1B68DB6AF8
:10803000019308BD2802030008B5024B1B681B6BA7
:10804000019308BD2802030008B5024B1B685B6B57
:10805000019308BD2802030008B5024B1B681B6C86
:10806000019308BD2802030008B5024B1B689B6CF6
:10807000019308BD2802030008B5024B1B68DB6CA6
:10808000019308BD2802030008B5024B1B689B69D9
:10809000019308BD3802030008B5024B1B68DB6979
:1080A000019308BD3802030008B5024B1B681B6A28
:1080B000019308BD3802030008B5024B1B689B6A98
:1080C000019308BD3802030008B5024B1B681B6B07
:1080D000019308BD3802030008B5024B1B689B6B77
:1080E000019308BD3802030008B5024B1B685B6CA6
:1080F000019308BD7402030008B5024B1B681B689E
:10810000019308BD4C02030008B5024B1B685B6875
:10811000019308BD4C02030008B5024B1B681B69A4
:10812000019308BD4C02030008B5024B1B685B6954
:10813000019308BD4C02030008B5024B1B689B6904
:10814000019308BD4C02030008B5024B1B68DB69B4
:10815000019308BD4C02030008B5024B1B681B6A63
:10816000019308BD4C02030008B5024B1B681B6D50
:10817000019308BD6002030008B5024B1B681B6831
:10818000019308BD2002030008B5024B1B685B6821
:10819000019308BD2002030008B5024B1B685B6910
:1081A000019308BD2002030008B5024B1B689B69C0
:1081B000019308BD2002030008B5024B1B68DB6A6F
:1081C000019308BD2002030008B5024B1B689B6D9C
:1081D000019308BD2002030008B5034B1B68D3F8C8
:1081E0008830019308BD00002002030008B5034B4E
:1081F0001B68D3F89430019308BD000020020300EF
:1082000008B5024B1B685B68019308BD4002030080
:1082100008B5024B1B689B68019308BD4002030030
:1082200008B5024B1B68DB68019308BD40020300E0
:1082300008B5024B1B681B69019308BD400203008F
:1082400008B5024B1B685B69019308BD400203003F
:1082500008B5024B1B689B69019308BD40020300EF
:1082600008B5024B1B68DB69019308BD400203009F
:1082700008B5024B1B681B6A019308BD400203004E
:1082800008B5024B1B681B6B019308BD400203003D
:1082900008B5024B1B685B6B019308BD40020300ED
:1082A00008B5024B1B689B68019308BD440203009C
:1082B00008B5024B1B68DB68019308BD440203004C
:1082C00008B5024B1B685B69019308BD44020300BB
:1082D00008B5024B1B681B6B019308BD44020300E9
:1082E00008B5024B1B68DB6B019308BD4402030019
:1082F00008B5024B1B681B68019308BD1C020300F4
:1083000008B5024B1B685B68019308BD1C020300A3
:1083100008B5024B1B689B68019308BD1C02030053
:1083200008B5024B1B681B69019308BD1C020300C2
:1083300008B5024B1B689B69019308BD1C02030032
:1083400008B5024B1B68DB69019308BD1C020300E2
:1083500008B5024B1B681B6A019308BD1C02030091
:1083600008B5024B1B685B6A019308BD1C02030041
:1083700008B5024B1B681B6B019308BD1C02030070
:1083800008B5024B1B68DB6B019308BD1C020300A0
:10839000002211464068FFF76BBF0022114640687B
:1083A000FFF776BF00224068FFF76ABF002281F026
:1083B00001014068FFF754BF00231A461946406880
:1083C000FFF746BF00231A4619464068FFF738BF3B
:1083D000002211464068FFF72BBF0022114640687B
:1083E000FFF716BF002202214068FFF719BF0023E4
:1083F0001A464068FFF704BF024B03225A60024A44
:108400001A60704730E30320903D0E00704710B5AE
:108410000446FBF744FE204610BD000070B5084B33
:108420000360044600250E4640F80C5FFFF75CFD34
:1084300030462671FFF700FDA560204670BD00BFE5
:10844000C43D0E000079FFF7FFBC014600228C20DE
:10845000FFF72ABD0020FFF7F8BF000010B5044663
:10846000084611461A460023FFF79EFE064B0022DF
:108470001A704FF6FF7258809A801A689B882260A3
:10848000A380204610BD00BF38E30320044B00202A
:108490004FF6FF72187058809A80FFF775BE00BFC4
:1084A00038E3032010B5044608F062FD01382318B4
:1084B0002046984206D20278197800F8011B03F88A
:1084C0000129F6E710BD70B50C46911E222920D86F
:1084D0002546294610B9234430220EE0B0FBF2F6BF
:1084E00002FB1600C1B205F8011B092894BF303108
:1084F000573105F8011C3046EBE7994202D201F8EA
:10850000012BFAE7002320460B70FFF7CBFF204634
:1085100070BD002070BD38B5031E0C4615460BDA41
:10852000B3F1004F4FF02D0214BF584218460123FB
:108530000A702A46194400E00123FFF7C4FF2046D1
:1085400038BD10B504460068FFF7DAFE204610BDBE
:1085500010B50446006808B1FFF7D2FE002323607F
:10856000A360636010BD38B504460D460068013154
:10857000FFF7CEFE10B184E82100012038BD10B510
:108580000368044613B143688B4207D22046FFF7C5
:10859000EAFF20B1A3680BB922681370012010BD57
:1085A00070B50E46114604461546FFF7E8FF18B9A8
:1085B0002046FFF7CDFF09E02A463146A560206836
:1085C00007F074FF2268A3680021D154204670BDD3
:1085D00038B50023044603604360836003730D468F
:1085E00039B1084608F0C4FC294602462046FFF788
:1085F000D7FF204638BD38B5054600680C4660B147
:108600006A688B689A4206D3096807F095FFA368E9
:10861000AB6000230AE0FFF773FE23682B606368FA
:108620006B60A368AB60002323606360A36038BD08
:10863000884210B50B46044607D0096819B19A68FC
:10864000FFF7AEFF01E0FFF783FF204610BD10B536
:10865000002304460360436083600373FFF7E8FF71
:10866000204610BD884210B5044601D0FFF7C3FF75
:10867000204610BD38B505460C4641B1084608F005
:1086800077FC214602462846FFF78AFF01E0FFF704
:108690005FFF284638BD10B5044600238AB023602A
:1086A0006360A3602373084601A9FFF734FF01A9A3
:1086B0002046FFF7DFFF20460AB010BD70B5044624
:1086C0000E4609B9002070BD6AB18368D5182946E5
:1086D000FFF755FF0028F5D02068A36831461844FD
:1086E00007F02AFFA560012070BD10B58A680968EF
:1086F0000446FFF7E3FF10B92046FFF729FF2046A5
:1087000010BD38B504460D4641B1084608F030FCAE
:10871000294602462046FFF7D1FF10B92046FFF751
:1087200017FF204638BD08B582680B4612B919B943
:10873000012008BD11B90368187802E0006807F04D
:10874000F1FEB0FA80F0400908BD38B5046805466E
:1087500034B1207820B109F087FB04F8010BF8E769
:10876000284638BD0EB4FFB509AC054654F8047B65
:10877000019423463A46052102A8FFF7F1FD0C4972
:1087800006462846FFF724FF31462846FFF7F7FE46
:10879000286830B123463A46711C0194FFF7E0FD8A
:1087A000A860284604B0BDE8F04003B0704700BFA1
:1087B000E93D0E00F8B506460D468F180024BD426F
:1087C0000CD0336815F8011B9B6830469847002889
:1087D00001DB0444F3E7002C08BF04462046F8BD43
:1087E00070B505460C46084649B108F0C1FB2B6838
:1087F000024621462846DB68BDE87040184770BD38
:1088000008B5FFF7EDFF08BD03689B68184738B54A
:108810000D210546FFF7F8FF0A2104462846FFF719
:10882000F3FF204438BD38B50546FFF7D9FF0446AD
:108830002846FFF7ECFF204438BD30B58BB00B461F
:1088400000218DF82410012A98BF0A220DF123047B
:10885000B3FBF2F505FB123303F0FF03092B94BFC2
:1088600030333733DBB2214604F801392B46002D73
:10887000EED1FFF7B5FF0BB030BD10B42AB90368D5
:108880005DF8044B9B68C9B21847D2B25DF8044B3F
:10889000FFF7D3BFFFF7F1BF2DE9F04107460E46C2
:1088A00015462AB90368C9B29B68BDE8F04118476C
:1088B0000A2A02D1002901DA04E0D2B2BDE8F0416F
:1088C000FFF7BBBF2D21FFF79FFF2A4604467142E9
:1088D0003846FFF7B2FF2044BDE8F081FFF7DCBF68
:1088E0002DE9F04757EC106B82460D4610EE102A2A
:1088F0003B4610EE100A394607F0D8FB08B148494C
:1089000012E027F000494FF0FF32464B304649460F
:1089100007F0CCFB68B94FF0FF32424B3046494676
:1089200007F0A6FB28B940495046FFF759FFBDE8BC
:10893000F0874FF060423D4B3046394607F0ACFBC4
:1089400008B13B49F0E74FF060423A4B30463946B8
:1089500007F084FB0028F4D100220023304639467A
:1089600007F07CFB40B12D215046FFF74DFF07F18A
:10897000004304461F4600E004462F494FF000081C
:1089800000205FFA88F39D4206D900222B4B07F0A6
:108990001DFA08F10108F4E732463B4606F03AFFBB
:1089A0000F46064607F0C0FB0A22014680465046A5
:1089B000FFF743FF04447DB3404607F067F80246E3
:1089C0000B463046394606F023FF06460F46504612
:1089D0001B49FFF705FF0444184B00223046394677
:1089E00007F0CAF80F46064607F076FB0A22014652
:1089F00080465046FFF750FF0444404607F056F8C3
:108A000002460B463046394606F002FF013D15F09E
:108A1000FF0506460F46DFD12046BDE8F08700BFC0
:108A2000CC3D0E00FFFFEF7FD43D0E00FFFFEF4176
:108A3000D03D0E00FFFFEFC10000E03F00002440EA
:108A400076370E00C9B2FFF74BBF38B5C9B205463D
:108A5000FFF746FF04462846FFF7D9FE204438BDFD
:108A60000CB42DE9F04387B000AF07F13804054698
:108A700054F8049B3C600E4623464A461421381D98
:108A8000FFF76EFC132805D8391D2846FFF7A8FE0E
:108A9000044613E000F1080323F00703E846ADEBBA
:108AA000030D411C23464A4668463C60FFF758FCCC
:108AB00069462846FFF794FE0446C5461EB128467F
:108AC000FFF7A5FE044420461C37BD46BDE8F04331
:108AD00002B0704710B50446FFF7CEF9E060236896
:108AE00020465B699847002808DAFFF7C5F9E36874
:108AF000C01AA3689842F2D34FF0FF3010BD2DE9A1
:108B0000F04180460D468F180C46BC42A4EB05068A
:108B100007D04046FFF7DEFF002802DB04F8010B18
:108B2000F3E73046BDE8F081014B024A1A60704716
:108B300040E30320823E0E0008B50020FFF7C8FB8B
:108B400028B1FFF7BDFB80F00100C0B208BD0120D5
:108B500008BD000037B50E4B1B6819440D4B1B6850
:108B6000044602A8194440F8041D07F0A3FB07F0CF
:108B70004BFB054608F0FCF92844002300F8013CB3
:108B800029462046FFF724FD204603B030BD00BF34
:108B900050E303204CE303202DE9F047A4B014ACCC
:108BA00007468946204611461D4607F0C5FC20466B
:108BB00008F0DEF9804625B9244903A807F0BCFC7B
:108BC00013E03C2195FBF1F2002AB8BF524292FB20
:108BD000F1F301FB132200924FF461631C4A95FBF1
:108BE000F3F3102103A8FFF7ABFB25462E1B08F17A
:108BF000FF3AB2451BD92B78252B16D16B787A2BEF
:108C000013D103A808F0B4F980463044C6EB0A0239
:108C1000A91C204407F04AFC424603A9284607F055
:108C200045FC204608F0A4F980460135DEE74B46B6
:108C30002246322107A807F0E7FC07A93846FFF7CC
:108C4000C7FC384624B0BDE8F08700BF75480E0069
:108C5000AB3E0E00F7B5054601921C4613B9124B08
:108C60001C682CB1114B2046196807F05BFC20B939
:108C700001992846FFF76EFF13E00D4F019A3B68FC
:108C80000C4E1A44336802A8134440F8043D07F020
:108C900011FB3A6833680146134428462246FFF721
:108CA0007BFF284603B0F0BD48E3032018DB032018
:108CB00050E303204CE3032010B50020FFF7ECF84D
:108CC000044668B9FFF758FA01280BD12046FFF790
:108CD0007BFA38B9FFF730FF30B9FFF7E1FAF9E76F
:108CE000012010BD002010BDFFF726FF0020FFF778
:108CF000D3F8003018BF012010BD08B5FFF7DCFF26
:108D0000BDE80840FFF7C0B8024B1A68024B1A6072
:108D1000704700BF18DB032048E303200021FFF762
:108D20003BBA10B58368044613B103220146984745
:108D3000204610BD10B50446FFF7F3FF204610BDD6
:108D40000348044A04490023836001F013B900BFBB
:108D500054E303200CDC0320358D0D007047007DAB
:108D600070470000037D1BB18369B3F1004F02D14E
:108D70009FED050A704707EE903A9FED047AF8EEF2
:108D8000E77A87EE870A7047000000000000C842BB
:108D9000037D1BB1036AB3F1004F02D19FED050AB9
:108DA000704707EE903A9FED047AF8EEE77A87EE87
:108DB000870A7047000000000000C84270B50D46E9
:108DC00006460A2281682846FFF788FD2C210446C2
:108DD0002846FFF719FD0A220444F1682846FFF7E8
:108DE0007DFD204470BDA0F10400FFF7E7BF10B582
:108DF0000446FBF754F9204610BD0000037D7BB10B
:108E0000436A002B0CDB07EE903ADFED076A9FED1B
:108E1000070AB8EEE77AC7EE267A27EE800A70478F
:108E2000BFEE000A704700BF00FF7F470000C84246
:108E3000037D7BB1C369002B0CDB07EE903ADFEDBD
:108E4000076A9FED070AB8EEE77AC7EE267A27EEA3
:108E5000800A7047BFEE000A704700BF00FF7F47DF
:108E60000000C84230B50D4600F110040FCD0FC40C
:108E700095E8030084E80300012030BD006800F09D
:108E80004FBB10B50446016002710AB1FFF7F6FF4F
:108E9000204610BD38B504460D4601F04BF82A4671
:108EA00001462046FFF7EDFF204638BD006800F080
:108EB00040BB10B5037904460BB1FFF7F7FF20461E
:108EC00010BDF8B5044616461D460F46FFF7D6FFFF
:108ED0002068362100F016FB2068036839469B683D
:108EE00098470121206800F010FB0222362101235F
:108EF000206800F0FEFA206803685B6998473070CC
:108F0000206803685B69984728702046BDE8F840F0
:108F1000FFF7CCBF07B502AB002203F8012D8DF897
:108F2000062004210DF10602FFF7CBFF9DF8070094
:108F300006F0BCFD0022094B06F01EFE07F014F9F6
:108F40009DF8063000EE103A07EE900AB8EEC00A1F
:108F500037EE800A03B05DF804FB00BF0000703FED
:108F600008B50C4B33B100F037F903681B6998471B
:108F7000002809DC084B63B100F026FA03681B697E
:108F80009847002803DC08BDAFF30080F2E7AFF399
:108F9000008008BD000000000000000008B5FFF7D9
:108FA000DFFFFEF769FF014B186008BDF4E5032001
:108FB00007B5002300931A466FF07701FFF716F903
:108FC00003B05DF804FB000007B543880A2B08D006
:108FD000502B09D1094B1B683BB103B05DF804EB82
:108FE0001847FFF7E5FF06E0002300931A466FF0ED
:108FF0007701FFF7FBF803B05DF804FB64E303209F
:1090000010B5FEF731FF044607F064FA074B13B1C1
:109010002046AFF3008000210448FFF761F90021EA
:109020000348BDE81040FFF7D7B800BF00000000BC
:10903000C98F0D00704710B50446FBF730F8204685
:1090400010BDF0B5037D062B8DB00E4600F1040770
:109050004FF0000402D000F1080518E00CAD3946CD
:1090600005F8304D2F232A460A20FEF74DFF2846EB
:1090700007F07EFF33680246DB6829463046984792
:109080000FE024B12E213046FFF7BEFB044415F853
:10909000011D0A223046FFF7FDFBBD420444F0D11A
:1090A00020460DB0F0BD000010B5054B044611225E
:1090B00040F8043B002107F004FA204610BD00BF31
:1090C000103F0E000346074A10B543F8042B01F188
:1090D000100251F8044B43F8044B9142F9D10A783D
:1090E0001A7010BD103F0E00037D042B01D14068A3
:1090F00008E0062B0AD1436853B1836843B1C368C3
:1091000033B10069003018BF01207047002070475C
:109110001846704710B59DF8084044EA032343EA17
:10912000024242EA016104234160037510BD37B574
:109130000D788B784A78C97800912946FFF7EAFFC5
:1091400003B030BD4174704770470021007CFEF7CA
:10915000F3BF0121007CFEF7EFBF007CFEF7E4BF08
:10916000007CFEF7D9BF38B50446007C0D46FEF7FB
:10917000DBFF002801DC607C20B12946207CFEF763
:10918000E3FF012038BD007CFEF7E6BF10B50446C2
:10919000FAF785FF204610BD10B504460023636032
:1091A0004FF47A73A360054B2360012308462174B2
:1091B00063741146FEF7A0FF204610BD243F0E0049
:1091C0000022007CFEF7A0BF10B514220446002147
:1091D00007F077F9204610BD30B50E4D87B001A8D5
:1091E000FFF7F2FF296811F0010410D12846FAF7C1
:1091F0005AFF60B101AA21460748FFF7CDFF284674
:10920000FAF756FF054A0649034800F0B3FE024844
:1092100007B030BD68E303206CE303200CDC0320BF
:1092200049910D00002211464068FFF701B8002265
:1092300011464068FFF71CB8002211464068FFF74E
:1092400027B800224068FFF71BB8002281F0010117
:109250004068FFF705B800231A4619464068FEF734
:10926000F7BF00231A4619464068FEF7E9BF0022FF
:1092700011464068FEF7CCBF002202214068FEF78D
:10928000CFBF00231A464068FEF7BABFF0B51B4BAC
:10929000036000250F462833182689B04360856097
:1092A000C560324629460446103007F00AF92A46BE
:1092B00029467868FEF7BCFF08B9A0601BE0294684
:1092C000324602A80095019507F0FBF802A968460E
:1092D000ADF80860FEF708FF10B10123A3600AE0B3
:1092E000009B019AA360E2600BB90223A36002A96C
:1092F0002046FFF7B7FD204609B0F0BDDC3E0E006A
:1093000038B50C4C28252A460021204607F0D9F80C
:109310004FF0FF3363602580074C042320466360D1
:109320002C25064B40F8083B2A46002107F0C9F8D7
:10933000258138BDB4E3032080E30320543F0E00B1
:10934000704741747047007CFEF72EBE007CFEF72C
:1093500003BE007CFEF710BE007CFEF705BE007C5D
:10936000FEF712BE10B50446FAF799FE204610BD6E
:1093700070B5457C04460E4625B9007CFEF714FE08
:10938000002805DD3146207CBDE87040FEF7DCBDDD
:10939000284670BD10B5044608461146002262609A
:1093A0004FF47A72A260054A22600122207462742E
:1093B0001A46FEF7C1FD204610BD00BF883F0E00D3
:1093C000007CFEF7E9BD0000F8B5194C25684DB9E1
:1093D0008420FAF762FE064618B18422294607F077
:1093E00070F82660134D2E684EB98420FAF755FEAA
:1093F000074618B18422314607F063F82F600E4FFC
:10940000396811F0010611D13846FAF74CFE68B1FF
:1094100022682B6809483146FFF7BCFF3846FAF747
:1094200047FE074A0749054800F0A4FD0348F8BD78
:10943000F8E30320F0E30320F4E30320DCE303205C
:109440000CDC032041930D007047F8B50646154625
:109450000C468F18BC4206D0336814F8011B9B6879
:1094600030469847F6E72846F8BD0022007CFEF714
:10947000C3BD0021007CFEF7C7BD0021007CFEF7C4
:10948000CBBD0021007CFEF7CFBD0021007CFEF7A4
:10949000D3BD10B50446FAF702FE204610BD000009
:1094A00010B504464FF47A730846A3600021044BBC
:1094B000207461602360FEF7CFFD204610BD00BF21
:1094C000B83F0E0000231A461946007CFEF774BD13
:1094D00013B50024007C0094FEF776FDC0B202B004
:1094E00010BD0123FFF7F4BF0123D2B2C9B2FFF7C9
:1094F000EFBFDBB2D2B2C9B2FFF7EABF0022007CF5
:10950000FEF76ABDC9B2FFF7F9BF0022007CFEF783
:109510006BBD0121FFF7F9BF0021007CFEF794BD70
:1095200008B50021007CFEF79FFDB0FA80F04009ED
:1095300008BD08B50021007CFEF79EFDB0FA80F062
:10954000400908BD002211464068FEF791BE002286
:1095500011464068FEF79CBE00224068FEF790BEB0
:10956000002281F001014068FEF77ABE00231A460E
:1095700019464068FEF76CBE00231A46194640683B
:10958000FEF75EBE002211464068FEF751BE002283
:1095900011464068FEF73CBE002202214068FEF7FB
:1095A0003FBE00231A464068FEF72ABE38B505467E
:1095B00078B1046844B1A3681BB103222146204658
:1095C00098472046FAF76BFD2846BDE83840FAF781
:1095D00066BD38BD10B103685B681847704710B5A9
:1095E00003680446BBB15868FEF766FC78B9236887
:1095F0005A7C12B95868FEF767FC23685868FEF772
:109600006BFC20680023236028B1FFF7CFFF2068A0
:1096100008B1FFF7CBFF204610BD000038B50B4B5B
:1096200003600446D0F8CC0108B1FAF73AFDD4F84B
:10963000C4512DB12846FFF7D2FF2846FAF72FFD77
:10964000A06808B1FFF7C6FF204638BDE03F0E0016
:1096500038B50D4C0D4B23600025022304F5E47052
:109660006360A560C4F8C451C4F8C851FEF744FC57
:10967000074BC4F8CC5123602046064A0649BDE892
:10968000384000F077BC00BFFCE3032094400E009C
:10969000E03F0E000CDC03201D960D0037B502AC38
:1096A000036804F8011DDD6B01224FF0FF332146F2
:1096B000A84703B030BD10B40368DC6B4FF0FF3334
:1096C000A4465DF8044B604737B502AC036804F864
:1096D000011DDD6B214613460122A84703B030BDB2
:1096E000704738B543691A68002A044605DAB3F8AA
:1096F0008620B3F884309A4201D001250BE003683C
:109700001B699847002814BF0125002503D1236851
:109710002046DB6A9847284638BD43691868C0432D
:10972000C00F704770470020704710B50446FAF725
:10973000B6FC204610BDFAF7B2BC00002DE9F0439C
:109740009846036893B0DB6A0C460646174698476E
:1097500012AB002543F8485D2A4629462046FEF70D
:109760001BFB00283ADB009B002B39D05B69002BE8
:1097700036D006A8FFF798FC009B5C696378022B43
:1097800001D1211D13E00A2B14D11122294601A871
:1097900006F097FEA36833BBE36823BB4FF6FF7068
:1097A0002569FEF7B9FB85421DD104F1140106A815
:1097B000FFF7BDFC06A8FFF797FC88B1336807AD3B
:1097C000D3F82090184B0C930FCD0DAC0FC42B6821
:1097D00023703A4643460CA93046C84704461CE06D
:1097E0004FF0FF3419E004F1080301AD1834186894
:1097F00059682A4603C20833A3421546F7D1062307
:1098000001A90CA80DAD8DF81430FFF75BFC0FCD4E
:1098100007AC0FC42B682370CCE70098FEF7B4FAAE
:10982000204613B0BDE8F083103F0E007FB516460A
:1098300000224260029203925A1C04460D4608D050
:109840004FF47A72B3FBF2F1029102FB11314A43F9
:10985000039260690823009341F205026B4440F6CD
:10986000FF710068FEF710FC002808DB6069002328
:10987000324629460068FEF727FC002804DAFEF786
:109880007FFD03686360002004B070BD10B50368FD
:1098900004469B689847A368013BA3602BB92368E3
:1098A0002046DB68BDE81040184710BD70B504467F
:1098B0004D69054B44F8043B8C3506460FCD0FC46B
:1098C0002B682370304670BD103F0E0010B5436901
:1098D000B3F88620B3F884309A42044605D0626912
:1098E000B2F884301344187910BD03681B69984797
:1098F0000028F4D14FF0FF3010BD10B54369B3F824
:109900008620B3F884309A42044608D06269B2F8DF
:109910008430591C1344A2F88410187910BD0368D0
:109920001B6998470028F1D14FF0FF3010BDF8B502
:1099300043691746B3F88620B3F884309A42054647
:109940000E4606D103681B69984710B94FF0FF34E3
:1099500014E06969B1F88430B1F88640E41ABC4279
:1099600028BF3C46194422460431304606F09EFD8D
:109970006A69B2F884302344A2F884302046F8BDE6
:1099800042690023A2F884304269A2F88630704709
:109990002DE9F041984603680D468AB0DB6A064619
:1099A000174698472B7D7469042B0CBF02200A20B0
:1099B00006220121FEF790FB206073691C68002CD1
:1099C0005BDB3046FFF7DCFFB8F1000F17D0002358
:1099D00003A95FFA88F00393ADF81030FEF73CFA64
:1099E000002849DB70690623009341F20B0203ABA8
:1099F00040F6FF710068FEF747FB00283CDB1C24A3
:109A00002246002103A806F05CFD2B7D8DF80C405A
:109A1000042B0CD1022338468DF80D30FEF784FA62
:109A2000ADF80E006868FEF777FA049013E00A2399
:109A300038468DF80D30FEF777FA05ACADF80E001C
:109A40002B1D05F1140718685968224603C2083314
:109A5000BB421446F7D173691C2203A91868FEF7AC
:109A600023FB002808DB2C1D0FCC76698C360FC633
:109A700023683370012404E0044633683046DB6A0F
:109A8000984720460AB0BDE8F08110B54369044606
:109A90001868002801DBFEF7FFFA63694FF0FF3218
:109AA0001A606069112200218C3006F00AFD204600
:109AB000BDE81040FFF764BF30B54269B2F88630A8
:109AC0008BB004461BB1B2F884209A4240D063693F
:109AD000186800283FDBB3F886507F2D3BD8191D4E
