:02000002D0002C
:1040000000400D004C8B0E00000006000C00050166
:0840100004017E050000000020
:04401800B4680E007A
:1040200009480A49884208B505D0094A824202D0A7
:10403000121A0FF09FFA0748074A0021121A0FF0D0
:10404000A4FA014808BD00BF58D50320D0890E004E
:10405000ACD60320B0D60320F4E7032070B507F0F8
:10406000BDFC074C074BE41AA40800251E46A542D8
:1040700004D056F8253098470135F8E770BD00BFE9
:10408000C8890E0064890E0004F04CBA08B504F02B
:10409000F9FDBDE8084007F06FBC06F02FBD06F043
:1040A00035BD06F033BD0078B0FA80F040097047A6
:1040B00001230370704700009FED010B704700BFA4
:1040C000182D4454FB2109409FED010B704700BFA0
:1040D0006957148B0ABF054008B551EC100B53EC1F
:1040E000112B0EF0FBFB41EC100B08BD08B551EC99
:1040F000100B53EC112B0EF0EFFB41EC100B08BD35
:1041000008B551EC100B53EC112B0EF099FD41EC5E
:10411000100B08BD08B551EC100B53EC112B0EF031
:10412000B9FE41EC100B08BD51EC100B10EE102A3B
:1041300001F1004343EC102B7047B0EE410AF0EE62
:10414000610A70470000000008B551EC100B53ECF9
:10415000112B0FF005F810B99FED030B08BD9FED73
:10416000040B08BDAFF30080000000000000000059
:10417000000000000000F03F08B551EC100B53ECBC
:10418000112B0EF0E3FF10B99FED030B08BD9FED5F
:10419000040B08BDAFF30080000000000000000029
:1041A000000000000000F03F08B551EC100B53EC8C
:1041B000112B0EF0B7FF10B99FED030B08BD9FED5B
:1041C000040B08BDAFF300800000000000000000F9
:1041D000000000000000F03F08B551EC100B53EC5C
:1041E000112B0EF0A9FF10B99FED030B08BD9FED39
:1041F000040B08BDAFF300800000000000000000C9
:10420000000000000000F03F08B551EC100B53EC2B
:10421000112B0EF07DFF10B99FED030B08BD9FED34
:10422000040B08BDAFF30080000000000000000098
:10423000000000000000F03F08B551EC100B53ECFB
:10424000112B0EF065FF10B19FED030B08BD9FED24
:10425000040B08BDAFF30080000000000000000068
:10426000000000000000F03F07B50023002251ECE1
:10427000100B8DED001B0EF04BFF58B99DED001B90
:104280000022002351EC110B0EF042FFB0FA80F037
:10429000400900E000200EF06DFC41EC100B03B073
:1042A0005DF804FB07B50023002251EC100B8DEDE7
:1042B000001B0EF02DFF58B19DED001B00220023C6
:1042C00051EC110B0EF024FFB0FA80F0400900E031
:1042D00001200EF04FFC41EC100B03B05DF804FB25
:1042E00008B50022002351EC100B0EF011FF10B99D
:1042F0009FED030B08BD9FED040B08BDAFF30080DD
:104300000000000000000000000000000000F03F7E
:1043100008B50022002351EC100B0EF0F9FE10B18D
:104320009FED030B08BD9FED040B08BDAFF30080AC
:104330000000000000000000000000000000F03F4E
:1043400008B50022002351EC100B0EF0E1FE003006
:1043500018BF012040420EF00DFC41EC100B08BDCF
:1043600008B50022002351EC100B0EF0D1FEB0FA7C
:1043700080F0400940420EF0FDFB41EC100B08BDFF
:104380002DE9F84310F0180718BF00F007074FEAAF
:10439000870910F0100F14BF0423002309F114063D
:1043A0001E4404463046884606F0A8FB32460021EB
:1043B00005460FF0EAF847B1B8F1000F05D04A46BC
:1043C000414605F110000FF0D5F800232C60AB60DA
:1043D0002846BDE8F883000038B555EC104B0022A4
:1043E000002310EE100A29460EF09CFEE0B914A33B
:1043F000D3E90023204629460EF0B2FEB8B929467B
:1044000020460EF0F5FE01231A464FF0FF31984288
:1044100006D3B1FBF2F49C4209D35A430133F6E7C9
:1044200010460EF097FB04E00020034901E0034929
:10443000002041EC100B38BD0000F87F0000F07F39
:104440000000E0FFFFFFEF41F8B555EC104B0022F4
:10445000002310EE100A294657EC116B0EF062FE95
:1044600000283FD100220023304639460EF05AFE84
:10447000C0BB32463B46204629460EF053FE88BB61
:104480001FA3D3E90023204629460EF069FE60BB36
:104490001BA3D3E90023304639460EF061FE20BB52
:1044A000294620460EF0A4FE3946044630460EF05A
:1044B0009FFEB0EB540F88BF201A01231A46241A1E
:1044C0004FF0FF35904209D3A118B5FBF1F69E429B
:1044D0000BD34B43B3FBF2F30132F3E718460EF074
:1044E00039FB04E00020044901E00449002041ECCC
:1044F000100BF8BDAFF300800000F87F0000F07FE4
:104500000000E0FFFFFFEF4100B52DED028BB0EEA4
:10451000418AF0EE618A83B0FFF796FF51EC100BF1
:10452000B0EE480AF0EE680ACDE90001FFF754FF4B
:10453000DDE9000153EC102B0EF082FB41EC100B77
:1045400003B0BDEC028B5DF804FB10B5044630B13E
:1045500000F006F82046BDE8104006F0D7BA10BDBE
:1045600010B5044630B3036803F01F03093B0E2B5C
:1045700020D8DFE803F01A1714110E0B081F1A17C2
:1045800014110E0B0800806AFFF7DFFF606AFFF767
:10459000DCFF206AFFF7D9FFE069FFF7D6FFA069CB
:1045A000FFF7D3FF6069FFF7D0FF2069BDE8104037
:1045B000FFF7CBBF10BD00002DE9F74F1823DFF840
:1045C00070B28360044665682B7813B91A23A36020
:1045D0000CE1A3F13002092A01D92E2B07D1211DAC
:1045E000284610F0E1FD1E2384ED040BF3E0613B4F
:1045F000192B5AD863681A78A2F16101192902D8D7
:1046000001336360F6E7A2F130010929F8D95F2A86
:10461000F6D0E669C5EB03087EB1276A77B1D6F814
:1046200000904246494628460FF078FF10B919F825
:1046300008302BB31036013FF0E737464FF0170A2A
:10464000C7EB0A0907EB69094FEA09130BEB0306ED
:104650005BF8033001934246194628460FF05EFF8F
:10466000002840F0BE80019B13F808301BB9002ED3
:1046700000F0B08004E009F1FF3A5745E0DDA9E021
:10468000B36803F01F030F2B06DC082B09DA002B9D
:1046900040F0A2801F2305E0172B00F39D80F368F4
:1046A000A361B368A36073683DE06A1C62602B7805
:1046B0002A2B3ED01ED8212B43D00CD80D2B00F036
:1046C0008B8004D8093B012B40F2868082E0202BAE
:1046D00000F082807EE0262B66D005D8252B79D18C
:1046E0002023A360434B1EE0282B6FD0292B71D1D0
:1046F0001D2370E03C2B3BD00AD82C2B68D00FD365
:104700002D2B12D02F2B65D12023A3603A4B0AE02A
:104710003E2B3BD023D35E2B0FD07C2B4DD059E0CA
:104720002023A360354B236156E02023A360344B44
:10473000F9E72023A360334BF5E72023A360324B36
:10474000F1E7AB1C63606B783D2B4FF020030BBF90
:10475000A360A3602D4B626018BF2D4BE3E7AB1C39
:1047600063606B783D2B35D12023A360294BDAE7BA
:10477000AB1C63606B783D2B4FF020030BBFA36035
:10478000A360254B626018BF244BCCE7AB1C636071
:104790006B783D2B4FF020030BBFA360A360204B31
:1047A000626018BF1F4BBEE7AB1C63606B78262BA3
:1047B00010D12023A3601C4BB5E7AB1C63606B7862
:1047C0007C2B07D12023A360184BACE71C2302E00D
:1047D0001B2300E01923A360A368182B3FF4F3AE5A
:1047E00004E07FF748AF09F1010746E703B0BDE8F1
:1047F000F08F00BF21DF0D0015410D00D9400D00E5
:10480000ED400D0001410D0021E20D0039420D0087
:10481000E1420D0009420D00D9410D00A9410D00F2
:1048200079410D0049410D0069420D00A5420D007E
:10483000C8680E0073B5054600F0F6F90B4E044645
:10484000AB681B2B0ED12846FFF7B6FE2846009416
:1048500000F0EAF9694601902A20FFF791FD04462D
:104860008660EDE7204602B070BD00BF3B410D0001
:104870002DE9F0410446806800F01F03083B172B28
:1048800000F28A80DFE803F01E334646464646467D
:104890001E334646464646468888888877880C16E2
:1048A00000210120FFF76CFDD4E904230546C0E98F
:1048B00002236DE000210846FFF762FD2369836053
:1048C000054665E00021FFF75BFD23698360A3686F
:1048D000D90644BFA369036105462046FFF76CFE75
:1048E000A3681C2B63D12046FFF766FE4AE0002137
:1048F000FFF746FD23698360A368DA0644BFA36916
:10490000436105462046FFF757FE204600F054F865
:1049100028614CE010F018064FF0000118BF00F0BD
:104920000706FFF72DFD23698360A368DB0642BFFE
:10493000331DA26940F8232005462046FFF73CFEC0
:10494000A3681C2B21D105F10C080027B7420AD01F
:104950002046FFF731FE204600F066F948F8040FC4
:10496000A3681B2B05D0A3681D2B0ED1013EBE42B0
:104970000AE00137EAE72046FFF71EFE2046FFF770
:1049800059FF0546A3681D2B02D01923A3600EE032
:104990002046FFF711FE0AE000210846FFF7F0FC71
:1049A0001923A360034B0022C0E9022305462846D1
:1049B000BDE8F0810000F87F2DE9F043394F3A4D12
:1049C00087B004460126A368202B02D0012E44D1D3
:1049D00027E02369DFF8CC80BB4203D12046FFF7F4
:1049E000EBFDF0E7AB42DFF8C09001D17642F5E78E
:1049F0002E4F0025A368202B10D12369434503D1F6
:104A00002046FFF7D9FDF5E74B45F9D0BB4205D16C
:104A10000DB16D42F4E74FF0FF35F1E7012E1BD1E8
:104A20001DB92046FFF724FF39E00135204609D1A2
:104A3000FFF71EFF06A941F8140D2920FFF7A0FC7F
:104A40001A4B2BE0FFF714FF06A941F8100D29209F
:104A5000FFF796FC164B21E055B92046FFF708FFFB
:104A600006A941F80C0D2920FFF78AFC114B15E02F
:104A70000135204609D1FFF7FBFE06A941F8080DD4
:104A80002920FFF77DFC0C4B08E0FFF7F1FE06A99B
:104A900041F8040D2920FFF773FC084B836007B031
:104AA000BDE8F083D9400D00ED400D00E1420D005E
:104AB00011430D0029410D0041430D0061430D00DC
:104AC00073B50546FFF778FF0C4E0446AB68202B04
:104AD00011D12B69B3420ED12846FFF76DFD284650
:104AE0000094FFF769FF694601902A20FFF748FC10
:104AF00004468660EAE7204602B070BD21E20D0060
:104B00002DE9F7430646FFF7DBFFDFF84880DFF8C3
:104B100048900F4F0446B368202B15D135694545A1
:104B20000ED13046FFF748FD30460094FFF7C8FF2E
:104B3000694601902A20FFF723FC04468560EAE7D6
:104B40004D45EED0BD42ECD0204603B0BDE8F08329
:104B500021DF0D0001410D0015410D002DE9F3414C
:104B60000546FFF7CDFFDFF840800E4F0446AB68E7
:104B7000202B13D12E6946450ED12846FFF71CFD88
:104B800028460094FFF7BCFF694601902A20FFF7F2
:104B9000F7FB04468660EAE7BE42EED0204602B04C
:104BA000BDE8F081ED400D00D9400D002DE9F7433F
:104BB0000646FFF7D3FF164FDFF86480DFF86490F6
:104BC0000546B368202B1ED13469BC420ED1304655
:104BD000FFF7F2FC30460095FFF7C0FF69460190F1
:104BE0002A20FFF7CDFB05468460EAE74445EED076
:104BF0004C45ECD0074B9C42E9D0074B9C42E6D099
:104C0000064B9C42E3D0284603B0BDE8F08300BFCA
:104C100049410D00D9410D0009420D0039420D00F6
:104C200079410D00A9410D002DE9F3410546FFF73B
:104C3000BDFFDFF840800E4F0446AB68202B13D138
:104C40002E6946450ED12846FFF7B6FC284600944B
:104C5000FFF7ACFF694601902A20FFF791FB04465D
:104C60008660EAE7BE42EED0204602B0BDE8F081A1
:104C7000A5420D0069420D0070B504462DED0C8B68
:104C8000002800F0D182036803F01F020F2A08DC1D
:104C9000082A0EDA4AB1012A40F0C68290ED020BD2
:104CA000C4E2172A40F35B81BEE2836893ED000BF8
:104CB000BCE213F0180F85680DD003F00703013B29
:104CC000062B08D8DFE813F00D0016002E00510067
:104CD0007F00B800FC00BDEC0C8B2B46BDE870409B
:104CE00018470069FFF7C8FFBDEC0C8B2B46BDE8E9
:104CF000704018470069FFF7BFFF6069B0EE408A57
:104D0000F0EE608AFFF7B8FFB0EE401AF0EE601ADE
:104D1000B0EE480AF0EE680ABDEC0C8B2B46BDE8FD
:104D2000704018470069FFF7A7FF6069B0EE408A3E
:104D3000F0EE608AFFF7A0FFA069B0EE409AF0EEB7
:104D4000609AFFF799FFB0EE491AF0EE691AB0EEDB
:104D5000402AF0EE602AB0EE480AF0EE680ABDEC98
:104D60000C8B2B46BDE8704018470069FFF784FFA5
:104D70006069B0EE408AF0EE608AFFF77DFFA069BF
:104D8000B0EE409AF0EE609AFFF776FFE069B0EE81
:104D900040AAF0EE60AAFFF76FFFB0EE4A2AF0EEED
:104DA0006A2AB0EE491AF0EE691AB0EE403AF0EE17
:104DB000603AB0EE480AF0EE680ABDEC0C8B2B4668
:104DC000BDE8704018470069FFF756FF6069B0EE14
:104DD000408AF0EE608AFFF74FFFA069B0EE409A7C
:104DE000F0EE609AFFF748FFE069B0EE40AAF0EEFF
:104DF00060AAFFF741FF206AB0EE40BAF0EE60BA59
:104E0000FFF73AFFB0EE4B3AF0EE6B3AB0EE4A2ABB
:104E1000F0EE6A2AB0EE404AF0EE604AB0EE491A6F
:104E2000F0EE691AB0EE480AF0EE680ABDEC0C8BA1
:104E30002B46BDE8704018470069FFF71DFF606909
:104E4000B0EE408AF0EE608AFFF716FFA069B0EE80
:104E5000409AF0EE609AFFF70FFFE069B0EE40AACB
:104E6000F0EE60AAFFF708FF206AB0EE40BAF0EE5D
:104E700060BAFFF701FF606AB0EE40CAF0EE60CAA8
:104E8000FFF7FAFEB0EE4C4AF0EE6C4AB0EE4B3A49
:104E9000F0EE6B3AB0EE405AF0EE605AB0EE4A2AAD
:104EA000F0EE6A2AB0EE491AF0EE691AB0EE480A3E
:104EB000F0EE680ABDEC0C8B2B46BDE8704018473D
:104EC0000069FFF7D9FE6069B0EE408AF0EE608AB3
:104ED000FFF7D2FEA069B0EE409AF0EE609AFFF7BD
:104EE000CBFEE069B0EE40AAF0EE60AAFFF7C4FE88
:104EF000206AB0EE40BAF0EE60BAFFF7BDFE606A1D
:104F0000B0EE40CAF0EE60CAFFF7B6FEA06AB0EE9F
:104F100040DAF0EE60DAFFF7AFFEB0EE4D5AF0EE99
:104F20006D5AB0EE4C4AF0EE6C4AB0EE406AF0EECC
:104F3000606AB0EE4B3AF0EE6B3AB0EE4A2AF0EE11
:104F40006A2AB0EE491AF0EE691AB0EE480AF0EE9D
:104F5000680ABDEC0C8B2B46BDE87040184713F077
:104F6000180F85680DD003F00703013B062B08D806
:104F7000DFE813F00E001900330058008800C3006A
:104F80000901BDEC0C8B20692B46BDE87040184729
:104F900046690069FFF770FEBDEC0C8B30462B466E
:104FA000BDE87040184786690069FFF765FE6069D3
:104FB000B0EE408AF0EE608AFFF75EFEB0EE401A77
:104FC000F0EE601AB0EE480AF0EE680ABDEC0C8B09
:104FD00030462B46BDE870401847C6690069FFF7A8
:104FE0004BFE6069B0EE408AF0EE608AFFF744FE47
:104FF000A069B0EE409AF0EE609AFFF73DFEB0EE89
:10500000491AF0EE691AB0EE402AF0EE602AB0EECE
:10501000480AF0EE680ABDEC0C8B30462B46BDE822
:1050200070401847066A0069FFF726FE6069B0EE17
:10503000408AF0EE608AFFF71FFEA069B0EE409A4A
:10504000F0EE609AFFF718FEE069B0EE40AAF0EECD
:1050500060AAFFF711FEB0EE4A2AF0EE6A2AB0EE1F
:10506000491AF0EE691AB0EE403AF0EE603AB0EE4E
:10507000480AF0EE680ABDEC0C8B30462B46BDE8C2
:1050800070401847466A0069FFF7F6FD6069B0EEA8
:10509000408AF0EE608AFFF7EFFDA069B0EE409A1B
:1050A000F0EE609AFFF7E8FDE069B0EE40AAF0EE9E
:1050B00060AAFFF7E1FD206AB0EE40BAF0EE60BAF8
:1050C000FFF7DAFDB0EE4B3AF0EE6B3AB0EE4A2A5B
:1050D000F0EE6A2AB0EE404AF0EE604AB0EE491AAD
:1050E000F0EE691AB0EE480AF0EE680ABDEC0C8BDF
:1050F00030462B46BDE870401847866A0069FFF7C6
:10510000BBFD6069B0EE408AF0EE608AFFF7B4FD47
:10511000A069B0EE409AF0EE609AFFF7ADFDE0694D
:10512000B0EE40AAF0EE60AAFFF7A6FD206AB0EE4E
:1051300040BAF0EE60BAFFF79FFD606AB0EE40CA79
:10514000F0EE60CAFFF798FDB0EE4C4AF0EE6C4A04
:10515000B0EE4B3AF0EE6B3AB0EE405AF0EE605AD9
:10516000B0EE4A2AF0EE6A2AB0EE491AF0EE691A59
:10517000B0EE480AF0EE680ABDEC0C8B30462B46C8
:10518000BDE870401847C66A0069FFF775FD6069A1
:10519000B0EE408AF0EE608AFFF76EFDA069B0EED7
:1051A000409AF0EE609AFFF767FDE069B0EE40AA22
:1051B000F0EE60AAFFF760FD206AB0EE40BAF0EEB4
:1051C00060BAFFF759FD606AB0EE40CAF0EE60CAFF
:1051D000FFF752FDA06AB0EE40DAF0EE60DAFFF7BA
:1051E0004BFDB0EE4D5AF0EE6D5AB0EE4C4AF0EE7B
:1051F0006C4AB0EE406AF0EE606AB0EE4B3AF0EE08
:105200006B3AB0EE4A2AF0EE6A2AB0EE491AF0EE96
:10521000691AB0EE480AF0EE680ABDEC0C8B304615
:105220002B46BDE8704018479FED030BBDEC0C8B7F
:1052300070BD00BFAFF30080000000000000F87FE9
:10524000F8B52DED028B0268012A044627D9930692
:1052500025D512F0180318BF02F00703033300F13D
:105260000C0600EB83050127AE4209D056F8040F67
:10527000FFF7E6FF33681B68012B18BF0027F3E731
:105280006FB12046FFF7F8FC2046B0EE408AF0EE02
:10529000608AFFF765F984ED028B01232360BDEC82
:1052A000028BF8BD30B58BB01D460190009068466A
:1052B00007910892FFF780F96846FFF7BBFA029B57
:1052C0001A2B04460DD0FFF740F90DB900200EE06F
:1052D0009DE80500101A01D02860F7E701232B6034
:1052E00005E0FFF7ADFF0DB100232B6020460BB0AA
:1052F00030BD7047014B01221A707047C4DE032095
:1053000010B506F0E5FF5B2105F056FF06F0E0FF63
:10531000044605F07BF80A220146204605F085FF89
:1053200006F0D6FF0249BDE8104005F041BF00BFBE
:10533000336B0E0038B5064D002404F1600028449C
:10534000103C05F07FFD14F1700FF6D138BD00BFA1
:1053500018D7032010B508460DF0F9FF084C094B8B
:10536000206001221A7006F0B3FF074905F020FF04
:1053700006F0AEFF21680A22BDE8104005F0A6BF86
:10538000A0D50320ACE10320366B0E00F8B504462F
:105390000E461746FFF7B4FF06F09AFF214605F0C8
:1053A00007FF37440124BE4228D016F8015BA5F15F
:1053B00020035E2B0BD824B906F08AFF5D2105F08F
:1053C000FBFE06F085FF294605F0F6FEEAE706F04B
:1053D0007FFF002C14BF5B217C2105F0EDFE0F2D1B
:1053E00004D806F075FF302105F0E6FE06F070FFE8
:1053F0001022294605F026FF0024D4E724B906F040
:1054000067FF5D2105F0D8FE06F062FFBDE8F840B9
:1054100005F0D5BE37B59DF8184023438DF8003010
:105420003C23054606F036FC284603B030BD00227A
:105430001146406805F0F2BA00231A461946406842
:1054400005F0F4BA73B50E4B1D7806460C4685B9C7
:1054500002A801221A7040F8045D2A46294605F088
:10546000ADF8019B1E2B04D1032323700823658014
:10547000A38023683360A388B380304602B070BD38
:10548000B4D6032008B505F071F8034B1860BDE8E9
:10549000084005F0FBBA00BF10E6032000220430EC
:1054A00005F03CBA10B5044B036004460021FFF739
:1054B000F5FF204610BD00BFD46A0E0010B50446AB
:1054C000FFF7F0FF2046202107F0B7FD204610BD72
:1054D00003682BB14268934202D218460DF037BFE1
:1054E0000020704738B50568044645B143689D42C1
:1054F00005D228460FF00AF8013005442560204601
:1055000038BDF8B504460F46466821B90368721CD9
:1055100042609955F8BD08460EF0F8FFA368451C97
:10552000AA199A4208D820682A46394630440EF013
:1055300021F863681D446560F8BD000070B504463D
:105540004068A6682568054A0B46311A284405F0CC
:10555000FDFA636801301844606070BD4E6B0E0048
:1055600070B504464068A6682568054A0B46311A9E
:10557000284405F0EBFA636801301844606070BDA0
:10558000516B0E00F0B5476B87B00446EFB1FFF7E3
:10559000B7FE06F09DFE2F4905F00AFE06F098FEC4
:1055A000616B05F005FE06F093FE3A2105F004FE5E
:1055B00006F08EFE218F0A2205F088FE0023228F3E
:1055C000616B204607F0F4F83FE0FFF799FE06F024
:1055D0007FFE204905F0ECFD06F07AFE0A2294F8E1
:1055E000231005F02FFE06F073FE2E2105F0E4FDDA
:1055F00006F06EFE0A2294F8221005F023FE06F053
:1056000067FE2E2105F0D8FD254606F061FE0A2230
:1056100094F8211005F016FE06F05AFE2E2105F032
:10562000CBFD06F055FE0A2215F8201F05F00CFEF2
:10563000094B00930FCD01AE0FC62B683370228F3C
:105640003B466946204607F035F9431E584258410B
:1056500007B0F0BD556B0E00407E0E0070B5416086
:10566000044616461D4604F0D1FEA0F59C500838AD
:105670002061E0606061FFF743FE06F029FE034908
:1056800005F0A9FD21684E630D8770BD646B0E00A7
:105690002DE9F04F92468FB0994606461D46884642
:1056A0000124C9EB05039A457BD918F8017B07F063
:1056B0009FFC394606F0A8FE07F09AFC06F0AFFE04
:1056C00078BB06F005FE3949834602A805F001FCC7
:1056D000314602A805F09CFC354905F0A5FC35498A
:1056E00005F0A2FC10220190394606A805F054FCF2
:1056F000019B06A9184605F08BFC01460AA805F097
:1057000027FC0A99584605F066FD0AA805F09AFBA1
:1057100006A805F097FB02A805F094FB01232B7067
:105720003CE007F065FC06F081FE07F061FC3946BD
:1057300006F06AFE07F05CFC06F071FE0028C0D09F
:1057400006F0C6FD1949044602A805F0C2FB314621
:1057500002A805F05DFC184905F066FC154905F046
:1057600063FC10228346394606A805F015FC06A9FD
:10577000584605F04DFC01460AA805F0E9FB0A99D8
:10578000204605F028FD0AA805F05CFB06A805F0F8
:1057900059FB002402A805F055FB2C70103601358A
:1057A0007FE720460FB0BDE8F08F00BFF26B0E0020
:1057B0000A6C0E00FA6B0E00066C0E0010B506F0B7
:1057C00087FD064905F007FD40F22C43044A0548D1
:1057D0000021BDE8104003F0D1BF00BF526C0E00A5
:1057E00080DA0320E8D6032010B506F071FD0649E3
:1057F00005F0F1FC40F22C43044A05480021BDE8C5
:10580000104003F06FBF00BF5F6C0E0080DA032012
:10581000E8D6032008B5054B00221A7006F058FDA3
:105820000349BDE8084005F0D6BC00BF44DA0320B8
:105830006D6C0E001FB50968684605F04AFB6846A6
:1058400005F045FC009905480EF028F9FFF7B6FF72
:10585000684605F0F7FA05B05DF804FB90DB03201D
:105860001FB50968684605F034FB684605F02FFC53
:10587000009905480EF012F9FFF7A0FF684605F001
:10588000E1FA05B05DF804FB90DC03201FB5096860
:10589000684605F01EFB684605F019FC00990548AE
:1058A0000EF0FCF8FFF78AFF684605F0CBFA05B06A
:1058B0005DF804FB90DD032008B508680DF044FD99
:1058C00051EC100B0DF0B4FC024B1860BDE8084021
:1058D000FFF774BF90DE032008B508680DF037FDB0
:1058E000034B01280CBF002201221A7008BD00BF23
:1058F00045DA032010B508680B4C0DF028FDC4F8FC
:10590000200406F0E5FC094905F052FC06F0E0FC35
:105910000A22D4F8201405F0D9FC054B00221A7095
:10592000BDE81040FFF74ABF80DA03207A6C0E0012
:10593000ACE1032010B508680B4C0DF008FD0030F9
:1059400018BF012084F81704FFF738FF06F0C0FCE9
:10595000064905F02DFC06F0BBFC94F817140A224A
:10596000BDE8104005F0B2BC80DA0320966C0E0052
:1059700010B508680B4C0DF0EAFC003018BF012090
:1059800084F81804FFF71AFF06F0A2FC064905F098
:105990000FFC06F09DFC94F818140A22BDE8104094
:1059A00005F094BC80DA0320BF6C0E0010B50868C7
:1059B0000B4C0DF0CCFC003018BF012084F819040A
:1059C000FFF7FCFE06F084FC064905F0F1FB06F04B
:1059D0007FFC94F819140A22BDE8104005F076BC4B
:1059E00080DA0320E76C0E0010B508680B4C0DF050
:1059F000AEFC003018BF012084F81A04FFF7DEFE69
:105A000006F066FC064905F0D3FB06F061FC94F84D
:105A10001A140A22BDE8104005F058BC80DA0320B1
:105A20000F6D0E0070B508681E4C0DF090FCD4F898
:105A30001C64054606F04CFC1B4905F0B9FB06F05A
:105A400047FC0A22294605F041FC032D234601D1DB
:105A5000902203E0012D14BF64224822C3F81C24C5
:105A6000D3F81C349E421BD006F032FC0F4905F0DF
:105A70009FFB06F02DFC0B4B0A22D3F81C1405F0FB
:105A800025FC06F025FC0A4905F092FBFFF796FE7F
:105A90004FF47A6005F0B0FEBDE8704005F016B92D
:105AA00070BD00BF80DA0320386D0E00676D0E00F8
:105AB000876D0E0010B508680B4C0DF048FC0030E7
:105AC00018BF012084F81B04FFF778FE06F000FCE5
:105AD000064905F06DFB06F0FBFB94F81B140A2247
:105AE000BDE8104005F0F2BB80DA03209A6D0E008D
:105AF00008B5074B1A78074B93F81414914205D058
:105B000083F81424FFF75AFE012008BD002008BDC9
:105B10001CE2032080DA032008B5074B1A78074BF4
:105B200093F81514914205D083F81524FFF746FE2B
:105B3000012008BD002008BDCDDE032080DA03204F
:105B400008B5074B1A78074B93F81614914205D005
:105B500083F81624FFF732FE012008BD002008BD9F
:105B6000CCDE032080DA032038B5046805467CB11A
:105B70006368013B63605BB9236820469B68984774
:105B8000A368013BA3601BB923682046DB689847E4
:105B9000284638BD1FB5194C06F09AFB184905F088
:105BA00007FB06F095FB0A22D4F8201405F08EFBC3
:105BB000D4F82014134B0022032912D8DFE801F097
:105BC0001102070C1B788DF800200F4A0DE01B789E
:105BD0008DF800200D4A08E01B788DF800200C4A53
:105BE00003E01B788DF800200A4A0B4902A8FFF752
:105BF00011FC03A8FFF7B8FF04B010BD80DA032042
:105C0000FD6D0E0014D703203D6E0E004D6E0E008C
:105C10005D6E0E002C6E0E002B770E0010B5044B3F
:105C2000044640F8183BFFF79FFF204610BD00BF19
:105C30002C7F0E0008B500234377006806F0B4FE01
:105C4000BDE8084004F0EABB2DE9F0418E188EB0A3
:105C5000B14280460D4617460591069680F03D817B
:105C60000B88ADF8123005A8FFF73CFC03689E4294
:105C700040F2338105980378412B12D101300DF0A9
:105C800066FB052801DDFF240FE0059801300DF0CB
:105C90005EFB0028F7DB059801300DF058FB0E3055
:105CA00002E005A8FFF714FCC4B2BDF8123047F2B9
:105CB0007622934200F0B7800DD847F261229342DA
:105CC0007DD047F26422934251D046F670529342FF
:105CD00040F0D48027E047F26472934259D047F2F3
:105CE0007672934200F0B08047F26172934240F0C6
:105CF000C58085E00378412B25D101300DF027FBCD
:105D0000052814DDFF2405A8FFF7ECFB059D744969
:105D100028460DF0B9FE0146D0B9204607F0CCF870
:105D200005A8FFF7DFFB05988642E3D8D5E0059884
:105D300001300DF00CFB0028E4DB059801300DF07C
:105D400006FB0E3002E005A8FFF7C2FBC4B2DAE79B
:105D5000644928460DF098FE002800F0A4806249AE
:105D600028460DF091FE002800F09D809DE00AABD2
:105D7000079307A8102300255C4909930895FFF7AE
:105D8000C0FB07A82146FFF7D9FB204607F0BEF865
:105D900026E005A8FFF7A6FB03689E4240F29D801F
:105DA000A4B20121204607F087F805A8FFF790FB71
:105DB000011C18BF0121204607F08FF88DE00AABC7
:105DC00007934B49102307A8002509930895FFF76F
:105DD00098FB07A82146FFF7B1FB204607F0A9F87A
:105DE000014607A8FFF7BCFB089B0295013B009307
:105DF000079B01952A461421404600F073FB6CE096
:105E000005A8FFF76FFB03689E4266D9A4B2012183
:105E1000204607F051F805A8FFF75AFB0146204637
:105E200007F09EF859E00EAD204605F8104D04F03D
:105E3000F7FA0346284623B12E4A934201D09847E9
:105E40004BE004F0E9FA48E005A8FFF74BFB059B9F
:105E50000A935D1B7F1B20460B970C978DF81C4007
:105E600004F0E8FA03460AA907A823B1224A93429C
:105E700001D0984731E004F0D0FA2EE0FFF740FA65
:105E800006F026FA1D4905F093F906F021FA294695
:105E900005F0A1F9002302210091B8F81A2002931D
:105EA00001931946A8E7012137E7FFF729FA06F021
:105EB0000FFA134905F07CF906F00AFA0A22214686
:105EC00005F0C0F906F004FA0E4905F071F906F084
:105ED000FFF9059905F07FF922E70EB0BDE8F081E2
:105EE00083730E00856F0E00716E0E00756E0E00CE
:105EF000786E0E0019A40D001BA40D007B6E0E0021
:105F00008C6E0E00996E0E002DE9F0418EB004AF3C
:105F10000446052207F10C01006805F0F0FA054679
:105F2000002800F0FD8105281AD1024607F10C0176
:105F3000B548FFF72BFAB7F80D20B7F80F80130A12
:105F400043EA02234FEA182242EA08289BB21FFACA
:105F500088F8A7F80D30A7F80F8093B92C4601E018
:105F60004FF0FF34FFF7CCF906F0B2F9A74905F07E
:105F70001FF906F0ADF90A22214605F0A7F9002025
:105F8000D3E13B7B002B5DD104F040FA657FE060FC
:105F9000B7F80F00002D51D1B7F80D30012B4DD1BE
:105FA000092834D0C82801D004283AD1FFF7A8F92D
:105FB00006F08EF9964905F0FBF806F089F9636959
:105FC000E1680A22C91A05F030F906F081F9914911
:105FD00005F001F9E36863610123637704F018FABF
:105FE000054660B1FFF78CF906F072F98A4905F0B1
:105FF000DFF806F06DF90A22294605F031F920464E
:1060000000F084FBFFF73EFA00F05EFF88E1FFF747
:1060100077F906F05DF9814905F0DDF80323637730
:10602000ADE7FFF76DF906F053F97D4905F0C0F8CB
:1060300006F04EF90A22B7F80F109EE7053818BF90
:10604000012072E1B8F5806F11D9FFF759F906F018
:106050003FF9744905F0ACF806F03AF90A22B7F8AE
:106060000F1005F033F92046FFF7E4FD58E108F181
:10607000080323F007036E46ADEB030D04AD424663
:106080002946206805F03BFA804507D0FFF738F92C
:1060900006F01EF9644905F09EF863E0B7F80F209A
:1060A0000023AB541AB129465748FFF76FF904F0A3
:1060B000ADF93B7BE060112B00F0BC8008D8062BCB
:1060C00036D00F2B00F09280022B40F016810CE0AE
:1060D0001D2B0AD003D8142B00F088800DE1292B4A
:1060E00032D0372B00F0F98007E1637F03BBFFF765
:1060F00007F906F0EDF84D4905F06DF801236377D7
:1061000004F086F9054660B1FFF7FAF806F0E0F80A
:10611000414905F04DF806F0DBF80A22294605F062
:106120009FF8204600F0F2FAFFF7ACF900F0CCFE41
:106130000023C821B7F80D2000910293019319465E
:10614000204600F0CFF9E8E0A3681BB9202004F056
:10615000D5FCA060B7F80F80FD61A8444545C7F89D
:10616000208001D30020D9E029462022A0680EF02B
:10617000EAF9A3680025DD7707F11C00FFF7B2F903
:106180000368434508D2F86920B13B6A9842C0F0E1
:10619000C980284685B200E05025FFF7B1F806F027
:1061A00097F8234905F004F806F092F8A16804F086
:1061B000FFFF06F08DF83A2104F0FEFF06F088F8A4
:1061C0000A22294605F082F8206806F0EDFB2368D4
:1061D000A2685A631D870023637704F017F9A0F5BE
:1061E0009C5008382061E060606196E0FB68C3F372
:1061F0000F236383B7F80F2029462046FFF724FDBD
:106200000023638389E000BFA06E0E00A26E0E0023
:10621000B06E0E00BE6E0E00C36E0E00CE6E0E008F
:10622000E16E0E00F86E0E00096F0E00196F0E0081
:106230001F6F0E0000233B71B7F80F307D612B44B8
:106240009D42BB6169D22868B86007F11400FFF76E
:1062500049F97A69B7F80F30FA61511B5B1A3B6252
:106260007B62344ABB6893422BD00DD8324A9342AA
:106270001BD002F500320332934228D107F11C01F2
:10628000381D04F0CAF848E02C4A934213D002F1BA
:106290009F6202F5003202F58072934217D107F136
:1062A0001C01381DFFF7B6FA37E007F11C01381D55
:1062B00004F0B3F831E007F11C01381D00F0FEFBDB
:1062C0002BE007F11C01381D04F0A7F825E0FFF7CB
:1062D00017F805F0FDFF1A4907E0B7F80F30E3B1F2
:1062E000FFF70EF805F0F4FF164904F061FF05F022
:1062F000EFFF294604F06FFF0FE0FFF701F805F00C
:10630000E7FF114904F054FF05F0E2FF0A22397B50
:1063100004F09AFF2046FFF78DFC0120B54604E00B
:10632000012002E00DF017F834E72837BD46BDE83C
:10633000F08100BF6D6574616F74610061636F6EA1
:106340002F6F0E00456F0E004E6F0E002DE9FF41BE
:1063500004460D46FFF796F8637F022B00F0A780F6
:10636000237F628B0133DBB22377002A64D1022BB7
:1063700062D8206806F045F940B1002D40F09980C0
:10638000206806F029FB002800F3938004F03EF813
:106390000746206806F035F9657F012D06464DD188
:1063A00028B967612046FFF745FC35467BE0E36886
:1063B000484AFB1A934227D9FEF7A2FF05F088FF4F
:1063C000454904F0F5FE05F083FF0A22394604F042
:1063D0002CFF05F07DFF414904F0EAFE05F078FF4F
:1063E0000A22E16804F021FF05F072FF3B4904F046
:1063F000DFFE05F06DFF0A22616904F03BFF2046D5
:10640000FFF718FC00254EE04EF66022934203D8B9
:106410002369FB1A93420FD9636940F6B832FB1A1D
:10642000934209D900230293019300931A4606214F
:10643000204600F057F86761012534E0002DFBD1BC
:106440006169791A78B140F6B8339942F4D9FEF708
:1064500057FF05F03DFF224904F0BDFE206806F01D
:10646000A3FA65771FE041F288339942E4D92068A6
:1064700006F09AFA2068FFF785F8054608B96761C3
:1064800011E0D4F804800127278340460EF03EF83F
:1064900043468DE8410002963A461D21204600F011
:1064A00021F823696361237F013B23770EE00025F8
:1064B0000CE02046FFF728FD054600287FF460AF7A
:1064C000206806F071FA03F0A9FFECE7284604B053
:1064D000BDE8F081880D0100646F0E00786F0E003A
:1064E0007B6F0E002DE9F04F83B000AF04460068CB
:1064F0003D6B894616469B46EA4606F082F8002820
:1065000071D0B9F11D0F05D8674B23FA09F3DB07EA
:1065100000F1C580637F012B65D116B9668B002E13
:1065200066D0A9F10C03082B6AD97A6BBBF1000F76
:1065300014BFA8464FF00008002ABA6B08F1050303
:1065400014BF90464FF00008984408F1070323F069
:106550000703AA18ADEB030DC2F3072376BA43EA8B
:106560000223C7F804D08DF80090ADF80160ADF8B3
:106570000330BBF1000F63D0002D61D02A4659468D
:106580000DF105000CF0F6FF681D7B6B002B59D157
:106590000025454562D2C5EB0806B6F5806F7B68DD
:1065A00028BF4FF4806603EB050926B13246494601
:1065B0003E48FEF7EBFE32464946206806F00BF8EF
:1065C0000646002003F020FF002E45D1FEF798FE7E
:1065D00005F07EFE364904F0FEFD206806F0E4F981
:1065E000667703F01BFF0C37D546BD46BDE8F08F3C
:1065F000238B01339BB203B901232383268B90E7BE
:10660000E3682269934238BF134603F1420803F05E
:10661000FDFEC0EB080000280ADB00212046FFF742
:1066200095FE03F0F3FEC0EB08000028F5DA7CE7E6
:10663000217F00297FF479AF2046FFF787FE74E7BA
:106640000520A2E7BB6B002BA2D01A467B68796BB2
:1066500018440CF08FFF9BE735449AE71BD0FEF7F8
:106660004FFE05F035FE134904F0A2FD05F030FEA3
:106670000A22294604F0F2FD05F02AFE2F2104F03B
:106680009BFD05F025FE0A22414604F0E9FD204667
:10669000FFF7D0FAA7E703F0B9FE2061A3E7002EC9
:1066A0007FF443AF3AE700BF45000020896F0E003A
:1066B0008B6F0E00956F0E00F0B5ADF2244D08AB58
:1066C000002405460F46059305A84FF480630E4944
:1066D000079316460694FEF714FF394605A8FEF701
:1066E0002DFF314605A8FEF729FF069B0294013BCA
:1066F00000930194059B224614212846FFF7F2FEE1
:106700000DF2244DF0BD00BF9B6F0E0000B595B09B
:1067100004AB00220193492300930292034B112101
:10672000FFF7E0FE15B05DF804FB00BFE86A0E005D
:10673000F0B5ADF2344D0CAB002405460F46059381
:1067400005A84FF480631149079316460694FEF797
:10675000D8FE394605A8FEF7F1FE314608A804F038
:10676000F7FB089905A8FEF7CCFE08A804F06AFB21
:10677000069B0294013B00930194059B2246142141
:106780002846FFF7AFFE0DF2344DF0BD9B6F0E00B3
:1067900070B592B06249634C06A804F09AFB624956
:1067A000624804F0E8FB03F0E1FE614AD4F82834C3
:1067B00012689B1A1844C4F82804FEF7FFFF5D4BCB
:1067C0005A491B7843B30AA804F0C2FB5A490AA8E5
:1067D00004F02AFC0546594802F03FFF584B59493E
:1067E0001A68594B02440EA804F0A2FF0EA92846CD
:1067F00004F00EFC504904F017FC544904F008FC66
:10680000534904F011FC014606A804F092FB0EA8BF
:1068100004F018FB0AA811E00EA804F099FB4D49FA
:106820000EA804F001FC494904F0F2FB484904F0C9
:10683000FBFB014606A804F07CFB0EA804F002FB5B
:1068400006A90EA804F084FB0EAA1E214248FFF7F9
:106850006FFF0EA804F0F6FA40F6B83004F0CCFF53
:10686000002202213D4803F083F8002203213B4827
:1068700003F07EF806F0BCFB05F0D4FD18B906F075
:10688000B7FB05F0A7FD05F023FD3549254D04F0C4
:10689000A2FC344800231A461946406804F0CEF89A
:1068A00000234FF47A7084F8243484F8253404F0FB
:1068B000A3FF94F82444CCB105F00AFD2A4904F062
:1068C0008AFC2A4B19680823ADF8283012AB012244
:1068D00085F8252403F8312D02914FF4617101915F
:1068E00000920AA90EA804F025FA14E005F0F0FCC5
:1068F0001F4904F070FC01264FF4FA6085F8244427
:1069000085F8256404F078FF1A4B22461B6831464F
:106910000EA804F0DFF906A804F094FA12B070BDD6
:10692000F16B0E0080DA03209E6F0E00D8D7032093
:1069300078E10320ADDE0320BC6F0E0074E103207C
:10694000A0D50320ACE20320A36F0E00E8D70320FC
:10695000AB6F0E00AD6F0E0034E20320ACDE0320FF
:10696000BE6F0E00E0E50320CD6F0E00C8DE0320F1
:10697000E46F0E0070E10320F0B5ADF2344D0CABC6
:10698000002405460F46059305A84FF4806311497E
:10699000079316460694FEF7B4FD394605A8FEF7A0
:1069A000CDFD314608A804F0D3FA089905A8FEF7F2
:1069B000A8FD08A804F046FA069B0294013B009348
:1069C0000194059B224614212846FFF78BFD0DF20A
:1069D000344DF0BD9B6F0E00F0B5ADF22C4D0AABFF
:1069E000002406460D46079307A84FF48063174915
:1069F0008DED050A09930894FEF783FD294607A843
:106A0000FEF79CFD9DED050A089B0999079D10EE78
:106A1000100ACF1A1D440CF0BFF80D4ACDE9000151
:106A20003946284604F092F8089B02940130184435
:106A30000890013800900194079B224614213046AB
:106A4000FFF750FD0DF22C4DF0BD00BF9B6F0E0007
:106A5000FC6F0E0038B5094D094C6A6820460B21C1
:106A6000FFF72AFE2046AA680D21FFF725FE95EDC7
:106A7000030A0F212046FFF7AFFF38BD80DA03205D
:106A800034E2032008B508680CF061FC034B586041
:106A9000FEF794FEBDE80840FFF7DCBF80DA032074
:106AA00008B508680CF053FC034B9860FEF786FEAF
:106AB000BDE80840FFF7CEBF80DA032008B5064BDB
:106AC00001221A70FFF7C6FF05F002FC0349BDE87A
:106AD000084004F080BB00BF44DA032002700E00BF
:106AE00010B508680CF033FC01280DD10D480E4C90
:106AF00002F03AFB84ED030AFEF760FE94ED030A10
:106B00000A480F21FFF768FF00220E210748FFF710
:106B1000D3FD4FF47A6004F06FFEBDE8104004F03E
:106B2000D5B800BFD0DE032080DA032034E2032092
:106B3000F0B5ADF2244D08AB002405460F46059391
:106B400005A84FF480630E49079316460694FEF796
:106B5000D8FC394605A8FEF7F1FC314605A8FEF73A
:106B6000D0FC069B0294013B00930194059B2246B6
:106B700014212846FFF7B6FC0DF2244DF0BD00BFEE
:106B80009B6F0E00F0B5ADF2244D08AB0024054616
:106B90000F46059305A84FF480630E4907931646E8
:106BA0000694FEF7AEFC394605A8FEF7C7FC314651
:106BB00005A8FEF7C3FC069B0294013B00930194D9
:106BC000059B224614212846FFF78CFC0DF2244D2C
:106BD000F0BD00BF9B6F0E0010B5464C4648626882
:106BE0000A21FFF769FDA26843480C21FFF764FD05
:106BF000626841480B21FFF75FFDA2683E480D2106
:106C0000FFF75AFD04F1100214213B48FFF790FFF3
:106C100004F5887210213848FFF78AFF04F50472E2
:106C200012213548FFF784FF04F544721A213248D7
:106C3000FFF77EFF94ED030A2F480F21FFF7CCFEEC
:106C400004F5826393ED000A2B481921FFF7C4FE77
:106C5000D4F8202428481721FFF72EFD274A26487C
:106C60001621FFF765FF94F8172423481821FFF732
:106C700089FF94F8182420481B21FFF783FF94F81C
:106C800019241D481C21FFF77DFF94F81A241A4887
:106C90001D21FFF777FF94F81B2417482021FFF7E9
:106CA00071FFD4F81C34902B01D1032203E0482B50
:106CB0000CBF012202221F210F48FFF7FDFC104BE1
:106CC0001B7823B10F4A0C481521FFF731FF0E4BFB
:106CD0001B682360012384F82434002384F82534BE
:106CE00005F0F6FA094904F076FABDE81040FEF71F
:106CF00065BD00BF80DA032034E203200C700E0073
:106D000045DA032020700E0074D503203B700E007E
:106D10002DE9FF410968684604F0DBF861496846DF
:106D200004F094F9002800F0B6805F4C5F4A604898
:106D30001621FFF7FDFE0523002501274FF00F0860
:106D4000A3605C49C4F80480002304F11000E360F0
:106D5000256084F8247484F825540CF09FFE56496D
:106D600004F588700CF09AFE534904F504700CF099
:106D700095FE04F58266504904F544700CF08EFED1
:106D80004E4B3360424664230A214948C4F81C3400
:106D9000C4F8205484F8145484F8155484F81774F3
:106DA00084F8185484F8197484F81A7484F81B74DD
:106DB000C4F82854FFF780FCA2683D480C21FFF777
:106DC0007BFC62683A480B21FFF776FCA2683848E2
:106DD0000D21FFF771FC04F1100214213448FFF774
:106DE000A7FE04F5887210213148FFF7A1FE04F5D3
:106DF000047212212E48FFF79BFE04F544721A21FB
:106E00002B48FFF795FE94ED030A29484146FFF70A
:106E1000E3FD96ED000A26481921FFF7DDFDD4F8C1
:106E2000202423481721FFF747FC94F81724204813
:106E30001821FFF7A7FE94F818241D481B21FFF71F
:106E4000A1FE94F819241A481C21FFF79BFE94F820
:106E50001A2417481D21FFF795FE02221F2114480E
:106E6000FFF72AFC94F81B2411482021FFF78AFE23
:106E7000134802F0B8FC134A0D481521FFF758FEDD
:106E800005F026FA0F4904F0A6F94FF4FA7004F061
:106E9000B3FC03F01BFF684603F0D4FF04B0BDE869
:106EA000F08100BF53700E0080DA03200C700E00DA
:106EB00034E203205B700E0071700E000000A041F0
:106EC000E8D6032082700E001FB505F001FA0B49C9
:106ED00004F081F90A4B1A680A4B1B689A4201D0E8
:106EE000FFF77AFE00230293019300931A461021C4
:106EF0000548FFF7F7FA05B05DF804FB91700E0046
:106F000080DA032074D5032034E203202DE9F04F0A
:106F1000ADF2D44D0546602200211CA80CF035FBD3
:106F20007E4B1C937E4B20937E4B24937E4B289369
:106F30007E4C7F4B2C937F4B309323780DF1200BAD
:106F40000DF1280A0DF130090DF1380810AF12AE1D
:106F5000CDF874B0CDF884A0CDF89490CDF8A4808D
:106F60002D97319623B12A4615217348FFF7E0FD8E
:106F700007AB06221CA92846FEF794F905900028C5
:106F800000F09D806D4D68680BF006FECBE90001B6
:106F9000A8680BF001FECAE90001E8680BF0FCFDEF
:106FA000C9E9000128690BF0F7FD654AC8E900014D
:106FB00010680BF0F1FD634AC7E9000110680BF09F
:106FC000EBFD059BC6E900011846FDF755FE237849
:106FD00057EC106B5BB15C4934A803F0B9FF56481D
:106FE00034AA1521FFF7A4FB34A803F02BFF237864
:106FF00033B334AB00251893544919954FF480638B
:1070000018A81A93FEF77DFA152118A8FEF796FA2C
:10701000199B1A9918984E4AC91A1844CDE9006765
:1070200003F094FD199B0295013018441990013822
:1070300000900195189B40482A461421FFF752FA08
:1070400023785BB1434934A803F082FF3A4834AA5D
:107050001521FFF76DFB34A803F0F4FE2378EBB1A4
:107060003D4934A803F074FF34AA15213248FFF7D4
:107070005FFB34A803F0E6FE0022384B3046394669
:107080000CF046F890B1294B1C780CB901243FE074
:10709000334A29481521FFF74BFD39E000222F4BD9
:1070A000304639460CF034F80028EFD12478002C13
:1070B0002ED02C4A20481521FFF73AFD27E02A4917
:1070C00034A803F006FF0A22079918A803F076FFF8
:1070D00018A934A803F09CFF014614A803F038FF58
:1070E00018A803F0AFFE34A803F0ACFE23785BB120
:1070F00014A934A803F02CFF0F4834AA1521FFF778
:1071000017FB34A803F09EFE14A803F09BFE002496
:1071100020460DF2D44DBDE8F08F00BFBC700E00CC
:10712000C0700E00C4700E00C8700E0045DA032057
:10713000CD700E00D2700E0034E20320ECE103208B
:107140005CE1032068E20320B0DE03209B6F0E00A9
:10715000D7700E0090E1032020E203200000F03FF2
:10716000DD700E00F4700E000C710E001FB5096882
:10717000684603F0AEFE684603F0A9FF0099084890
:107180000CF08CFCFEF71AFB064B1B7813B104487D
:10719000FFF7BCFE684603F055FE05B05DF804FB42
:1071A00090DA03207CE1032030B5ADF2244D08AB2A
:1071B00000240546059305A84FF4806307930694C1
:1071C000FEF79FF9069B0294013B00930194059BF7
:1071D000224640212846FFF785F90DF2244D30BDA7
:1071E00070B52F4B2F4C1A781E46002A41D005F05F
:1071F0006FF82D4903F0EFFF00212C4802F0A0FDAD
:1072000000212A4802F096FD284802F0DEFC032205
:1072100005460146254802F0D3FC60B105F058F858
:10722000234903F0D8FF00232370FEF789FC0121D6
:107230001E4802F07FFD042229461C4802F0C0FCD3
:10724000A8B105F045F81B4903F0C5FF01232370E1
:10725000FEF776FC38B1184B93F81A341BB1174976
:107260001748FFF7A1FF0121104802F069FD002334
:107270003370237833B9134B197819B9124B188826
:1072800005F02BFE237853B10B4B93F8173433B131
:107290000D4B01211888BDE8704005F01EBE70BD81
:1072A000C4DE0320CCDE03201E710E0048DA03206A
:1072B00038710E004B710E0080DA03205C710E00F5
:1072C00034E20320F8D703206CD5032070B50446C0
:1072D00000680E4605F068FB0023637703F096F81C
:1072E0000546637F012B09D003F090F8401BB042A4
:1072F00004D200212046FFF729F8F2E7607F431E01
:107300005842584170BD0000F8B5554D2846FEF76B
:107310008EF8044630BB04F0DBFF5249524E03F0B6
:107320005AFF2846FEF788F8234622462146686819
:1073300003F05CFB204603F031F9002504460027EA
:10734000002003F02BF9001B61EB05018F4208BF01
:1073500086425FD34248FEF76AF800285AD103F00C
:1073600095FBEDE704F0B4FF404903F034FF03F070
:107370009DFB0446F8B904F0ABFF3D4903F02BFF39
:1073800003F08CFB204603F009F9002504464EF675
:107390005F260027002003F001F9001B61EB0501C7
:1073A0008F4208BF864248D303F080FB002844D1B7
:1073B00003F06CFBEEE704F08BFF2E4903F00BFFAC
:1073C0002D4C637F012B1ED004F082FF2B4903F06C
:1073D00002FF2B4B2B491B882B4A2046FEF73EF918
:1073E00042F228312046FFF771FF002836D104F021
:1073F0006FFF264903F0EFFEC82004F0FDF9BDE859
:10740000F84003F063BC04F063FF2149BDE8F84095
:1074100003F0E1BE1248FEF70AF81148FEF707F83C
:107420000028A4D104F054FF1A4903F0D4FEC82068
:1074300004F0E2F903F04AFC99E703F037FB03F0AC
:1074400035FB0028BCD104F043FF134903F0C3FE11
:10745000C82004F0D1F903F039FCB1E7F8BD00BF52
:10746000E0E5032069710E001FBF020087710E0066
:1074700092710E00CE710E0034E20320E1710E0015
:1074800070D503207CD5032003720E00E96D0E0039
:1074900018720E00DA6D0E00B7710E0070B52E4C2A
:1074A0002046FDF7C4FF0546E0B904F011FF2B4963
:1074B00003F091FE2A462946606803F09FFA0546CC
:1074C000002848D104F004FF254903F084FE20463B
:1074D000FDF7B2FF2B462A4629466068BDE870409A
:1074E00003F084BA1F4C04F0F3FE1F4903F073FE4F
:1074F000637F012B12D004F0EBFE1C4903F06BFEFE
:1075000000212046FEF722FF42F228312046FFF7F5
:10751000DDFE40B904F0DCFE154902E004F0D8FEBF
:10752000144903F058FE03F0C1FA68B904F0D0FE24
:10753000114903F050FE03F0B1FA03F0B7FA50B965
:1075400004F0C6FE0D4902E004F0C2FE0C49BDE89D
:10755000704003F040BE70BDE0E50320DA6D0E0020
:1075600069710E0034E2032087710E00E1710E0094
:10757000E96D0E0018720E0092710E00B7710E00C8
:10758000CE710E00000000002DE9F04F2DED028BB2
:10759000A5B0A54C04F09CFEA44903F01CFE04F029
:1075A00097FEA34903F004FE04F092FE0A2294F829
:1075B000171403F08BFE04F08BFE9E4903F0F8FDD8
:1075C00004F086FE0A2294F8181403F07FFE04F0FB
:1075D0007FFE994903F0ECFD04F07AFE0A2294F84C
:1075E000191403F073FE04F073FE944903F0E0FDF8
:1075F00004F06EFE0A2294F81A1403F067FE04F0F9
:1076000067FE8F4903F0D4FD04F062FE0A2294F86D
:107610001B1403F05BFE04F05BFE8A4903F0C8FD17
:1076200004F056FE0A22D4F81C1403F04FFE04F0B6
:107630004FFE854903F0BCFD04F04AFE0A22D4F84F
:10764000201403F043FE94F825342546002B00F067
:10765000F88105F0CDFC44F6206104F0B1FE032171
:10766000082005F029FC04F081FD4FF4E13104F01D
:1076700071FD764C04F02CFE4FF4E13104F022FE53
:10768000642004F0B9F80121208805F015FC0021E0
:10769000208805F022FC05F0ABFC04F095FE642088
:1076A00004F0AAF804F014FE694903F094FD05F013
:1076B0009FFC202104F0A8FE05F09AFC04F0AFFE28
:1076C000002841D005F094FC04F0B0FE05F090FCD9
:1076D000202104F099FE05F08BFC04F0A0FE98B385
:1076E00004F0F6FD5B4903F076FD5B4B594A1B78CD
:1076F0005A4900241BA88DF80040FDF78BFE1CA8FA
:10770000FEF732FA01215648FDF7C8FE40F6B830C0
:1077100004F072F821465248FDF7C0FE012151489D
:10772000FDF7BCFE40F6B83004F066F821464D483F
:10773000FDF7B4FE01214A48FDF7B0FE40F6B8302F
:1077400004F05AF803F0C2FA4748DFF83481474F93
:1077500002F064F801220221434802F009F90122F3
:107760000321414802F004F9642004F045F824AAFA
:10777000002442F8344D042321463D4801F0B2FF75
:1077800004F0A6FD179B3B4A012103F069FE04F0BB
:107790009FFD394903F01FFD344B38493848072213
:1077A000FDF776FF064604F093FD230153F8081019
:1077B00003F0FEFC04F08CFD324903F0F9FC04F008
:1077C00087FD395D0A22013403F080FD072CEAD1E0
:1077D000002E5FD12C492D4803F0CDFB04F078FD3D
:1077E0002B4903F0F8FC012004F043F832463146FF
:1077F000FF2004F04EF840F6B83003F0FDFF3046AD
:1078000004F037F805F0F4FB04F010FE05F0F0FB8F
:1078100004F008FE18B905F0EBFB04F0D5FD05F007
:10782000E7FB04F0D7FD3EE080DA032028720E006B
:107830003A720E005B720E0069720E0077720E00D3
:1078400086720E0096720E00AA720E006CD503208E
:10785000B7720E00D9720E0014D703200A730E00FF
:10786000C8D60320F4D60320ACDE032010DF0320AB
:10787000E8D6032010730E0016730E00A4D5032063
:1078800018D70320AC7D0E002E730E00D8D703202E
:1078900032730E00B649B74803F06DFB04F018FDD3
:1078A000B54903F098FCC82003F0A6FF0EB903F019
:1078B0000DFAB248B24E01F0D0FE044604F008FDC5
:1078C000B04903F088FC04F003FD0A22214603F0CE
:1078D000DBFC04F0FDFCAC4903F07DFC04F0F8FC9B
:1078E0003368AA49224607461BA803F021FF1B99CB
:1078F000384603F070FC1BA803F0A4FAA44B9C428A
:1079000027DCA4499D4801F05FFE9C4801F0A5FEDC
:10791000044604F0DDFCA04903F05DFC04F0D8FC53
:107920000A22214603F0B0FC04F0D2FC964903F091
:1079300052FC04F0CDFC33689449074622461BA84C
:1079400003F0F6FE1B99384603F045FC1BA803F034
:1079500079FA924B00241C7005F04AFB01469048CE
:1079600002F07CFCFDF740FF04F0B2FC8D4903F00F
:107970001FFC04F0ADFC03F022FC8B4802F0A1F8E0
:107980000421894802F0EAF801231A46194686487C
:1079900002F053F9D5F81C14834802F0FFF80123D4
:1079A0001A461946804802F067F9D5F81C147E483B
:1079B00002F0FAF801260A217B4802F0FBF8234680
:1079C0002246214601960096774802F06AF9314630
:1079D000754802F0B5F93146744E734802F0AAF9C1
:1079E0002146308805F068FA22464FF0FF3370498F
:1079F0003088009404F0E2FB4FF4967003F0FCFE34
:107A000002F0B4FD044602F0B1FD001BB0F5FA5FD0
:107A1000C0F01A8500F074BD04F05AFC654903F00B
:107A2000DAFB02F0A3FD41F6A37604465C4802F0BF
:107A300082FA002800F01C855F4A0023136085F855
:107A400025344B494B4803F096FAFFF727FD03F026
:107A5000A1FE28B3514B1A781E460ABB03F0BBFEA9
:107A60000146464801F0B0FD03F0B5FE0446434828
:107A700001F0F3FD844200F03B8503F0ACFE0446C8
:107A80003E4801F0EAFD201A09288CBF00200120A1
:107A900030B10123337004F01BFC484903F09BFB19
:107AA000474B1B780BB9FEF775F8FFF799FB3C487D
:107AB0003B4C02F040FA002800F073844149424FE9
:107AC000DFF81891DFF8FCA0204602F04DFB3F499B
:107AD000204602F05DFB04F0FBFB3D4903F07BFB1D
:107AE00000233B60B8463B68374E032B1ADC04F09A
:107AF000EFFBD8F8003003F1010B0AEB83030646D5
:107B000018680BF049F8CDE90001324A59F82B30DA
:107B10000021304603F0A4FCD8F800300133C8F847
:107B20000030E0E704F0D4FB2B49DFF8B080DFF849
:107B30009C9003F050FB002333603B68042B4FDC28
:107B400004F0C6FBD6F800A009EB8A038346186848
:107B50000BF022F8CDE900011E4A58F82A30002126
:107B6000584603F07DFC336801333360E5E700BF1E
:107B70003C730E00D8D7032040730E0074E103203D
:107B8000B4D5032047730E00AC7D0E00ACE2032099
:107B90007F436D38003B3D4B4E730E00ADDE03203E
:107BA000ECE1032054730E0048DA032078D503205B
:107BB000F5520D0086730E0030E2032091730E0023
:107BC000ACE1032060E10320C0DE032054E2032087
:107BD000AE730E00C5730E00D1730E0058D503208E
:107BE0006068C74EDFF87C830AF0D6FF02460B467A
:107BF0001BA8C44903F07EFA1BA9C34803F0B3F9DC
:107C00001BA803F01FF9A0680AF0C6FF02460B4646
:107C10001BA8BC4903F06EFA1BA9BC4803F0A3F9EA
:107C20001BA803F00FF9E0680AF0B6FF02460B4606
:107C30001BA8B44903F05EFA1BA9B54803F093F9F9
:107C40001BA803F0FFF820690AF0A6FF0B460246C6
:107C5000AC491BA803F04EFA1BA9AE4803F083F908
:107C60001BA803F0EFF8AC4AAC48012101F01AFA66
:107C700007EE900AF8EEE77AC6ED007A04F028FBEA
:107C8000A74903F095FA04F023FB044630680AF094
:107C900083FF41EC100B0221204603F0D3FB04F0DC
:107CA00017FB03F08CFA04F013FB9E4903F080FAF3
:107CB00004F00EFB01210446984801F0A7FA10EEEB
:107CC000100A0AF069FF41EC100B0221204603F074
:107CD000B9FB04F0FDFA03F072FA04F0F9FA9249E4
:107CE000924C03F065FA924A8C48012101F0DAF9CE
:107CF00007EE900A0121B8EEE70A884801F0C4FABD
:107D000084ED000A04F0E4FA074620680AF044FF14
:107D100041EC100B0221384603F097FB2068854C9C
:107D2000854F0AF039FF02460B461BA8754903F040
:107D3000E1F91BA9814803F016F91BA803F082F8AA
:107D400030680AF029FF02460B461BA86D4903F074
:107D5000D1F91BA97A4803F006F91BA803F072F8C1
:107D6000212005F0E6F80AF005FF5FA3D3E9002320
:107D70000AF066FF0BF05CFA0AF00EFF5CA3D3E991
:107D800000230AF05DFF41EC100B06F045F85AA302
:107D9000D3E9002351EC100B0AF052FF0BF048FA24
:107DA000DFED687A08EE100AB4EE678AF1EE10FA99
:107DB000C8BFB0EE678A18EE100A0AF0EDFE0B4657
:107DC000024661491BA803F095F91BA95F4803F01F
:107DD000CAF81BA803F036F85D491BA804F068FF39
:107DE0001BA804F011FFFDEEC07A5A4917EE902A45
:107DF00017A803F07FF917A9574803F0B4F817A89C
:107E000003F020F8404917A803F0A2F8534917A837
:107E100003F00AF93D4903F0FBF8504903F004F977
:107E20003B4903F0F5F84D4903F0FEF8394903F0FA
:107E3000EFF84A4903F0F8F8404903F0E9F84749F8
:107E400003F0F2F83E4903F0E3F8444903F0ECF89C
:107E50003E4903F0DDF8414903F0E6F83E4903F0FE
:107E6000D7F80146204603F064F817A802F0EAFFAD
:107E7000254917A803F06CF817AA01213848FEF726
:107E800057FC17A802F0DEFF204917A803F060F89E
:107E900017AA02213248FEF74BFC17A802F0D2FFC6
:107EA0001B4917A803F054F817AA03212C48FEF722
:107EB0003FFC17A802F0C6FF164917A803F048F8C0
:107EC00017AA04212648FEF733FC17A802F0BAFFD0
:107ED0001A4917A803F03CF817AA05212048FEF715
:107EE00027FC17A840E000BF9402C1D2AF63523F05
:107EF0005AF5B9DA8A3D144048AFBC9AF2D77A3EB7
:107F000068E20320EA730E0088D7032098D7032085
:107F1000A8D70320B8D70320F0730E00D0DE0320CB
:107F2000F2730E00FA730E0001740E005CE1032080
:107F3000EE770E00B0DE03201CE20320C8D703203A
:107F400080E103200000C84208740E00E8D7032037
:107F5000E0E50320847F0E00B8D60320436F0E00B7
:107F600034E2032045DA032002F06CFF7D4917A8B4
:107F700002F0EEFF17AA06217B48FEF7D9FB17A8EF
:107F800002F060FF794917A802F0E2FF17AA072163
:107F90007548FEF7CDFB17A802F054FF744917A8E7
:107FA00002F0D6FF17AA08216F48FEF7C1FB17A8F9
:107FB00002F048FF04F08CF921686E4C03F00BF9D5
:107FC0006D4B6E49012603A81E7002F082FF6B49BB
:107FD00007A802F07EFF6A48FEF798FF02460028D5
:107FE00000F08380002209215F483E70FEF764FBA9
:107FF000324609215C48FEF75FFB23781BB36149D9
:1080000017A802F066FF604801F027FB5F4B60494C
:108010001A68604B024413A803F08AFB13A917A83F
:1080200002F0F6FF5C4902F0FFFF504902F0F0FF5A
:108030005A4902F0F9FF014603A802F07AFF13A89B
:1080400002F000FF0EE0564917A802F042FF474930
:1080500017A802F0DDFF514902F0E6FF014603A830
:1080600002F067FF17A802F0EDFE03A917A802F0BF
:108070006FFF17AA1E213C48FEF75AFB17A802F013
:10808000E1FE98F80030002B00F0008103F0A3FB24
:1080900001460BA803F0CCFA0BA90FA802F058FF79
:1080A00040490FA802F0C0FF384B0A221968044665
:1080B00013A802F083FF13A9204602F0A9FF01468E
:1080C00017A802F045FF17AA15212748FEF754FC10
:1080D00017A802F0B7FE13A802F0B4FE0FA802F032
:1080E000B1FE0BA802F0AEFED0E001461E48FEF73E
:1080F000E3FA2D4B1A7822B12C492D4802F03BFFB0
:10810000324609211848FEF7D7FA23782849002B70
:1081100050D013A802F01CFF1F4913A802F084FFDF
:108120000446194801F099FA184B19491A68194B75
:10813000024417A803F0FCFA17A9204602F068FFD2
:10814000154902F071FF094902F062FF134902F07C
:108150006BFF014603A802F0ECFE17A802F072FEC6
:1081600013A839E080E1032034E20320E8D703209C
:10817000B8D60320ADDE03207CE10320F16B0E00B6
:1081800090DA03200E740E0074E10320A0D50320C2
:10819000ACE20320A36F0E00BC6F0E00AB6F0E00AD
:1081A00015740E0029740E00CCDE03202B740E0013
:1081B000D8D7032017A802F0CBFEB44917A802F0C5
:1081C00033FFB34902F024FFB24902F02DFF01460C
:1081D00003A802F0AEFE17A802F034FE059B042BA4
:1081E00015DCAD4917A802F085FF17A903A802F016
:1081F000BAFE17A802F026FE04F06AF8039902F00E
:10820000EAFF4FF47A7003F0F7FA02F05FFD03A97A
:1082100017A802F09DFE17AA1E21A048FEF788FAB3
:1082200017A802F00FFE98F800306BB303F0D3FAF2
:1082300001460BA803F0FCF90BA90FA802F088FE79
:1082400097490FA802F0F0FE964B0A2219680446DF
:1082500013A802F0B3FE13A9204602F0D9FE01468E
:1082600017A802F075FE17AA15218C48FEF784FBAB
:1082700017A802F0E7FD13A802F0E4FD0FA802F032
:10828000E1FD0BA802F0DEFD00233B70864C237855
:10829000FBB102F06BF9854B85491E68861B32469F
:1082A00017A802F027FF17A907A802F05CFE17A87D
:1082B00002F0C8FD04F00CF8079902F08CFFB6F547
:1082C000FA5F06D97B4B0021188804F006FE0023D4
:1082D0002370FDF70DFC002844D03B7853B395F88C
:1082E0001834DBB1734B0121188804F0F6FD02F05D
:1082F0003DF96E4B70491860024617A802F0FAFE6D
:1083000017A907A802F02FFE17A802F09BFD03F0A3
:10831000DFFF079902F05FFF0123237095F81934FE
:1083200003B366495D48FEF73FFF02F01FF9644B57
:10833000186017E002F01AF9614B62491A680A23C3
:10834000821A17A8B2FBF3F202F0D4FE17A907A80D
:1083500002F009FE17A802F075FD03F0B9FF0799B6
:1083600002F039FF584B594CD3ED007AB4EEE78A4E
:10837000F1EE10FA4CBF012300232370FDF7CCFB74
:1083800040B1237833B195F81B341BB150494348B1
:10839000FEF70AFF07A802F055FD03A802F052FD00
:1083A0000EE0204601F055FF50B903F091FF494916
:1083B00002F011FF4FF47A7003F01EFA02F086FC0F
:1083C000454B464C1B78F3B10A22216813A802F0F2
:1083D000F5FD13A917A802F0BBFD414917A802F04B
:1083E00023FE01461BA802F0B3FD1BAA15212B4852
:1083F000FEF7C2FA1BA802F025FD17A802F022FD25
:1084000013A802F01FFD03F063FF054602F0AEF86B
:108410000A220146284602F008FF03F059FF3149BD
:1084200002F0C6FE03F054FF0A22216802F04EFF5C
:1084300003F04EFF02F0C3FE23680133236025B032
:10844000BDEC028BBDE8F08F04F0D2FD014626485A
:1084500001F004FF00287FF4DFAA03F039FF23496D
:1084600002F0B9FE4FF47A7003F0C6F9FFF7CBBA09
:1084700002F07CF8001BB0423FF6DEAA642003F055
:10848000BBF9FEF7ADFEFFF7D1BA00BFAD6F0E002E
:10849000E8D70320AB6F0E0031740E0034E20320E6
:1084A00029740E00A0D50320F8D7032040DA03205A
:1084B0003A740E006CD5032055740E007E740E00C5
:1084C000A0E1032089740E0090DE0320CDDE03209E
:1084D000B0740E00C5740E0045DA032030E20320AC
:1084E000F06B0E00AC7D0E00ECE1032062730E0019
:1084F0000A4801F0B2F8044603F06DF9FFF7C3BA79
:1085000003F0E6FE064902F066FE4FF47A7003F0CF
:1085100073F902F0DBFBFFF784BA00BF74E10320BC
:10852000EF740E00F0B58BB002F020F8844B854C50
:10853000186004F05DFD44F6206103F041FF032163
:10854000082004F0B9FC03F011FE4FF4E13103F010
:1085500001FE03F0BDFE4FF4E13103F0B3FE6420F1
:1085600003F04AF90121208804F0A6FC00212088AC
:1085700004F0B3FC04F03CFD03F026FF642003F09C
:108580003BF903F0A5FE704902F025FE04F030FD32
:10859000202103F039FF04F02BFD03F040FF0028F9
:1085A00041D004F025FD03F041FF04F021FD20211E
:1085B00003F02AFF04F01CFD03F031FF98B303F031
:1085C00087FE624902F007FE614B604A1B786149F1
:1085D000002406A88DF80040FCF71CFF07A8FDF753
:1085E000C3FA01215C48FCF759FF40F6B83003F0AC
:1085F00003F921465848FCF751FF01215748FCF781
:108600004DFF40F6B83003F0F7F821465348FCF729
:1086100045FF01215048FCF741FF40F6B83003F018
:10862000EBF802F053FB4E4801F0F8F8012202216A
:108630004B4801F09DF901220321494801F098F9C6
:10864000642003F0D9F80AAA002142F81C1D042373
:10865000444801F047F803F03BFE039B424A0121E6
:1086600002F0FEFE04A84149FCF7ECFE04A802F06B
:1086700087FB032814D8DFE800F002060A0E03F097
:1086800027FE3B490AE003F023FE3A4906E003F0E7
:108690001FFE394902E003F01BFE384902F09BFD42
:1086A00003F016FE3649374F374E02F094FD364B35
:1086B000364934480722FCF7EBFF0025044603F057
:1086C00007FE2B01D95902F073FD03F001FE30497A
:1086D00002F06EFD03F0FCFD715D0A22013502F02F
:1086E000F5FD072DEBD1002C5AD12A492A4802F07A
:1086F00042FC03F0EDFD294902F06DFD012003F07D
:10870000B8F822462146FF2003F0C3F840F6B830FF
:1087100003F072F8204603F0ACF804F069FC03F0B3
:1087200085FE04F065FC03F07DFE18B904F060FCE2
:1087300003F04AFE04F05CFC03F04CFE39E000BF9D
:1087400078E103206CD5032017750E00D9720E0056
:1087500014D703200A730E00C8D60320F4D60320D2
:10876000ACDE0320E8D6032010730E0078E203206D
:108770002E750E0059750E0076750E00C4750E002C
:1087800016730E0018D7032010DF0320A4D5032092
:10879000AC7D0E002E730E00D8D7032032730E006E
:1087A0006149624802F0E7FB03F092FD604902F084
:1087B00012FDC82003F020F80CB902F087FA5D48DA
:1087C0005D4D00F04AFF044603F082FD5B4902F074
:1087D00002FD03F07DFD0A22214602F055FD03F063
:1087E00077FD574902F0F7FC03F072FD2B685549FD
:1087F0002246064606A802F09BFF0699304602F084
:10880000EAFC06A802F01EFB4F4B9C4227DC4F49B6
:10881000484800F0D9FE474800F01FFF044603F027
:1088200057FD4B4902F0D7FC03F052FD0A222146C6
:1088300002F02AFD03F04CFD414902F0CCFC03F0AC
:1088400047FD2B683F490646224606A802F070FF06
:108850000699304602F0BFFC06A802F0F3FA04F0D5
:10886000C7FB3C4C3C4D01463C4801F0F7FC3C4802
:1088700001F027F9FCF7B8FF22682B689A427FD0F5
:1088800003F026FD374902F093FC03F021FD0A2294
:10889000216802F01BFD03F01BFD334902F088FC48
:1088A00003F016FD0A22296802F010FD1823636008
:1088B0000523A3602D492E4BE36004F110000BF05B
:1088C000EDF82C4904F588700BF0E8F8294904F517
:1088D00004700BF0E3F8274904F544700BF0DEF860
:1088E00004F58263244A1A6064220023C4F81C241D
:1088F000012284F8143484F8153484F8172484F899
:10890000183484F8192484F81A2484F81B24C4F831
:108910002834C4F8203403F0DBFC184902F05BFC77
:10892000FEF7F2FC31E000BF3C730E00D8D7032005
:1089300040730E0074E10320B4D5032047730E008A
:10894000AC7D0E00ACE203207F436D38003B3D4B15
:108950004E730E0080DA032074D50320ECE103206F
:1089600048DA032022760E0039760E004A760E0091
:1089700000001CC382760E000000A04196760E0017
:1089800003F0A6FC9C4902F026FC03F0A1FC9B49E5
:1089900002F00EFC03F09CFC02F011FC984801F080
:1089A00090F80421964801F0D9F801231A46194697
:1089B000934801F042F9D4F81C14914801F0EEF804
:1089C00001231A4619468E4801F056F9D4F81C14B2
:1089D0008B4801F0E9F80A21894801F0EBF80125FC
:1089E00000231A46194601950095854801F059F96A
:1089F0002946834801F0A4F92946824D804801F0B8
:108A000099F92888002104F057FA00224FF0FF332B
:108A10007D492888009203F0D1FB03F059FC02F055
:108A2000CEFB03F055FC02F0CAFB03F051FC774982
:108A300002F0D1FB03F04CFC754B196802F0CBFB44
:108A400003F046FC734902F0B3FB03F041FC724BA8
:108A5000054618680AF0A0F841EC100B02212846E0
:108A600002F0F3FC03F034FC6C4902F0A1FB03F0CC
:108A70002FFC6B4B054618680AF08EF841EC100B82
:108A80000221284602F0E1FC03F022FC6549664D14
:108A900002F08EFB03F01CFC0646A86A0AF07CF884
:108AA00041EC100B0221304602F0CFFC03F010FC29
:108AB0000646E06868620AF06FF841EC100B02218C
:108AC000304602F0C2FC03F003FC584902F070FB90
:108AD00003F0FEFB0646A86B0AF05EF841EC100BB3
:108AE0000221304602F0B1FC03F0F2FB504902F0E3
:108AF00072FB03F0EDFB4F4902F06DFB4FF49670F3
:108B000002F07AFE01F032FD054601F02FFD401B18
:108B1000B0F5FA5F64D204F06BFA0146464801F002
:108B20009DFB48B903F0D4FB444902F054FB4FF4D9
:108B30007A7002F061FEE8E703F0CAFB404902F0F8
:108B40004AFB404B404A1B8840494148FCF786FDA0
:108B5000FEF7A4FC0023019300931A463D493E48CA
:108B600001F0B4FF3D4B1B780BB9FDF713F801F092
:108B7000FDFC41F6A37605462F4801F0DCF950B91B
:108B800001F0F4FC401BB04205D8642002F034FE32
:108B9000FEF726FBF0E7A368314A32484FF47A71BA
:108BA000594301F0C3FB2F4801F0E2FB2E4A2F4846
:108BB0006F2101F0BBFB2D4801F0DAFB03F088FBCD
:108BC0002B4902F008FB2B492B4802F0D4F9FEF7A1
:108BD000DBFC03F07DFB294902F0FDFA0BB0F0BD90
:108BE00003F076FB264902F0F6FA4FF47A7002F0B1
:108BF00003FE02F06BF8A4E7A1760E0054730E009A
:108C000048DA032078D50320F5520D0006770E00D0
:108C100020E20320B0760E00B0D50320C8760E0007
:108C2000ACD50320DF760E00D0DE0320F4760E00F4
:108C3000FD760E0011770E00ECE1032062730E004A
:108C400086730E0070D5032003720E007CD50320BE
:108C500034E2032055530D001D770E00ACE10320D4
:108C600089750D00FCD70320E1710D0018DF03208A
:108C700035770E003C730E00D8D7032044770E00E2
:108C8000EF740E0013B51C491C4C6846FCF7DAFB68
:108C9000684602F075F8022811D103F019FB184953
:108CA00002F099FA174B0021188884F8241404F074
:108CB00014F94FF4FA6002F09FFDFDF769FD002101
:108CC0001148FDF743FB114801F052FB104801F039
:108CD0004FFB104B62681B689A420ADC094B00216B
:108CE000188804F0FAF84FF4FA6002F085FDFDF7F9
:108CF0004FFD02B010BD00BF78E2032080DA0320F0
:108D000059770E006CD5032034E20320FCD70320F2
:108D100018DF032030E20320984B2DE9F7430025AC
:108D20001D60974B974E984CDFF8EC8201271F602F
:108D3000964B1F7001F09AFB304603F0E9FE06F1F6
:108D40001C0003F063F9224691497563304635876C
:108D500004F06EF98F4B2A461E605D609D60DD60F9
:108D60001D615D611D835D831D775D771421022088
:108D700001F016FE884E01974FF01E090346CDF80C
:108D8000009002228549304601F054FF22464146B8
:108D9000304604F04DF92A461421022001F000FE6D
:108DA0007F4E01970346CDF8009002224FF47F01D9
:108DB000304601F03FFF22464146304604F038F984
:108DC0007848794E794FDFF8548200F0D9FD04F0ED
:108DD0000FF92A460146304600F07CFC22467449D1
:108DE000304604F025F97348734E00F0DBFA7348FF
:108DF00000F012FD724801F05CF82946304602F09E
:108E000085FD22466F49304604F012F96E4E394610
:108E1000404602F05EF84046DFF8048222463146C2
:108E200004F006F93946404602F053F84046DFF8B0
:108E3000F4812246314604F0FBF83946404602F000
:108E400048F84046DFF8E0812246314604F0F0F869
:108E50003946404602F03DF84046DFF8D0812246D0
:108E6000314604F0E5F83946404602F032F8404613
:108E7000DFF8BC812246314604F0DAF83946404634
:108E800002F027F84046DFF8AC812246314604F074
:108E9000CFF83946404602F01CF84046DFF898818A
:108EA0002246314604F0C4F83946404602F011F833
:108EB0004046DFF888812246314604F0B9F8394649
:108EC0004046424F02F005F822463146404604F043
:108ED000AFF83F49384601F0FCFF38463D4F224687
:108EE000314604F0A5F83C49384601F0F2FF384617
:108EF0003A4F2246314604F09BF83949384601F092
:108F0000E8FF22463146384604F092F8354E36489E
:108F100001F0B1F9354801F0AEF93549304601F0BC
:108F2000D8FF344906F1100001F0D3FF324906F1B1
:108F3000200001F0CEFF314906F1300001F0C9FFF9
:108F40002F4906F1400001F0C4FF2E4906F1500000
:108F500001F0BFFF2C4906F1600001F0BAFF224684
:108F60002A49284604F064F89FED290A29480F226F
:108F7000112103B0BDE8F04300F0E0B970E1032037
:108F8000C8DE0320B0E10320B0D6032014D70320AD
:108F90001D5C0D0034E20320F4D6032000FFFF0027
:108FA000C8D6032048DA0320E8D60320F16B0E0070
:108FB000BD960D0074E10320A4E10320ACDE032084
:108FC000ECE103202BB90D0045AE0D0020E203209B
:108FD000A8770E0090E10320C7770E00D8D70320B2
:108FE0003C730E0018D70320FCD7032018DF0320A2
:108FF000D9770E00DD770E00E1770E00EC770E00DA
:10900000F0770E00F5770E008B730E0035530D00D0
:109010009A998140D0DE0320A5540D0088D7032003
:1090200098D70320A8D70320B8D70320C8D7032098
:1090300080E10320E8D70320B8D60320B0DE032068
:1090400080E80600104A82630261104AC261104A39
:10905000DFED106AD2ED007A9FED0F7A0F4980EDB7
:10906000020A67EEA66AC16086EE876ADFED0C6AC7
:1090700080ED087A67EEA67A80ED056AC7EE876A0A
:10908000C0ED066A704700BF0000A041000090419B
:10909000B0D50320000068420000AE42000020422C
:1090A000000018422DE9F0410C460646904601F0BA
:1090B0005DFA4FF47A7707FB040700242546B08851
:1090C00003F037FF0444012002F096FB01F04EFA52
:1090D000B84205F10105F2D307EE105A07EE904AA7
:1090E000F8EE476AF8EE677A184BD6ED085A87EE25
:1090F000A67AD3ED007A164B93ED006A154BC5EEB8
:10910000866A984567EE277A9FED137A27EE877A6D
:10911000D6ED077AD7EE267A0CD1B2EE027A67EE58
:10912000877AF1EE046A87EEA67ADFED0C7A77EEA5
:10913000277A02E00A4B984502D1FDEEE77A01E07A
:10914000DFED087A17EE900ABDE8F081ACD5032078
:10915000B0D50320F0730E000000803900000042FB
:10916000EE770E0000000000F8B5044601F0FEF9AD
:10917000002500F51C5710372E46208803F0D9FE35
:109180000544012002F038FB01F0F0F9B84206F185
:109190000106F2D307EE905A07EE106AF8EE677AEE
:1091A000B8EE477A154BC7EE876AD3ED007A66EEC4
:1091B000A77A17EE900A09F0EFFC0022104B09F095
:1091C0003FFD104B002209F03BFD0AF031F8D4EDD1
:1091D0000A7A0D4A07EE100A77EE677A0A21C4ED83
:1091E000097A2046FFF75EFF07EE900AF8EEE77A6D
:1091F00094ED090AC4ED0E7AF8BD00BFACD503208A
:1092000000408F400000303FEE770E00F8B50C466E
:10921000074601F0ABF94FF47A7606FB040600240A
:109220002546388803F085FE0444012002F0E4FA64
:1092300001F09CF9B04205F10105F2D307EE904A26
:1092400007EE105AF8EE677AB8EE477A0B4BC7EE86
:10925000876AD3ED007A66EEA77A17EE900A09F0D6
:109260009BFC0022064B09F0EBFC0022054B09F0A9
:10927000E7FC09F0DDFF00EE100AF8BDACD50320D5
:1092800000408F400000303FD0B52DED028B0446EA
:10929000B0EE408AFFF7BAFFD4ED0A7A30EE670AE3
:1092A000D4ED097A70EE677A17EE900A09F074FC33
:1092B0000022214B09F0EEFDD4ED0F7AF8EEE77AAB
:1092C000064617EE900A0F4609F066FC02460B466A
:1092D0003046394609F0DEFD15A3D3E9002309F035
:1092E000AFFC09F0A5FFB3EE077AB4EEC78A94EDA0
:1092F0000E7AF1EE10FA78EE476A07EE900ACCBFCC
:1093000094ED0C6A94ED0D6A38EE478AE6EE667AC3
:10931000D4ED0B6AB7EE000AA6EEC80ABDEC028BCC
:10932000D4ED026A87EEA67A20EE070AD0BD00BF10
:109330000000000065CDCD4100408F4008B50346D8
:10934000FFF77EFE0D4A9FED0E7AD2ED007ADFED3B
:109350000D6A0D4ADA6327EE877A4FF07C52C7EE2A
:10936000267ADA62094A1A63094A5A6318469FED57
:10937000097A67EE877AC3ED0A7A08BDB0D5032073
:1093800040E38649A07A004AA08601009A9981416B
:109390001F85934000007A4401F068B80368C9B2A1
:1093A0009B68184710B5044603F022FE03F03AF814
:1093B00018B903F01DFE03F007F8204610BD2DE993
:1093C000F84F924698460D469DF828B09DF82C70AF
:1093D0009DF830609DF8349003F00AFE6F210A2456
:1093E00003F016F803F004FE0021FFF7D7FF03F0A7
:1093F000FFFDB5FBF4F304FB135505EB0315EDB2CC
:1094000005F07F01FFF7CAFF03F0F2FDBAFBF4F1AC
:1094100004FB11AA0AEB011101F07F01FFF7BEFF67
:1094200003F0E6FDB8FBF4F104FB118808EB011131
:1094300001F03F01FFF7B2FF03F0DAFDBBFBF4F1EF
:1094400004FB11B101F0070141F00801FFF7A6FF8D
:1094500003F0CEFDB7FBF4F104FB117707EB01112C
:1094600001F03F01FFF79AFF03F0C2FDB6FBF4F1F4
:1094700004FB116606EB011101F01F01FFF78EFFDF
:1094800003F0B6FDB9FBF4F1036804FB119404EB9F
:1094900001119B68C9B2984703F0AAFD02F0BFFF13
:1094A00003F0A6FD6F2102F0B3FF03F0A1FD002140
:1094B000FFF774FF03F09CFD45F08001FFF76EFF9E
:1094C00003F096FDBDE8F84F02F0A9BF70B51C4649
:1094D00015460E4603F08CFD6F2102F099FF03F054
:1094E00087FD0021FFF75AFF03F082FD02F097FF8E
:1094F00003F07EFD6F21072202F07CFF03F078FD70
:1095000003685B699847C0B2C0F3021303EB83039F
:1095100000F00F0000EB4300307003F069FD0368BA
:109520005B699847C0B2C0F3021303EB830300F0FA
:109530000F0000EB4300287003F05AFD03685B69DD
:109540009847C0B2C0F3011303EB830300F00F0090
:1095500000EB4300207003F04BFD03685B69984704
:10956000049B00F00700187003F042FD03685B697C
:109570009847C0B2C0F3011303EB830300F00F0060
:1095800000EB4300059B187003F032FD03685B6934
:109590009847C0B2C0F300129300134400F00F00CC
:1095A00000EB4300069B187003F022FD03685B6923
:1095B0009847C0B2030903EB830300F00F0000EBF0
:1095C0004300079B187070BD2DE9F04F07468DB022
:1095D00008460C4602F000F88046204601F0F4FFF1
:1095E0008146204601F0E8FF8246204602F004F85A
:1095F0000546204601F0F8FF0646204602F006F830
:109600008346204602F00CF80A22014604A801F025
:10961000D5FC04A9022208A801F052FD08A801F017
:1096200063FD044608A801F00DFCE4B25FFA8BF379
:10963000F6B2EDB202935FFA89F25FFA8AF35FFA4B
:1096400088F13846039401960095FFF7B8FE04A808
:1096500001F0F8FB0DB0BDE8F08F00B591B00DF151
:109660001B0303930DF11A0302930DF119030193E8
:1096700006AB00930DF116020DF117030DF1150164
:10968000FFF724FF9DF8153007939DF816300893D7
:109690009DF8173009939DF819300A939DF81A30F8
:1096A000013B0B939DF81B3007A864330C930AF021
:1096B00051F811B05DF804FB00F0D8BE704710B54A
:1096C0000C21044603F0B9FC204610BD0368C9B262
:1096D0009B68184710B5024C04604160826010BD61
:1096E000C4780E002DE9F04704460D46174698460B
:1096F000B8F1000F3FD0A168606841F0500102F05E
:1097000087FE290A6068FFF7E1FF29466068FFF7D6
:10971000DDFF0021606802F07EFE10B10020BDE890
:10972000F087B8F1200FA1686068C14628BF4FF0EC
:10973000200901234A4641F0500102F060FE03F087
:1097400057FC03681B6998478145E7DC3E46C7EB39
:10975000050A03F04DFC03685B69984706F8010BA6
:10976000F21BC6EB0803914506EB0A053B44F0D813
:1097700098463746BCE70120BDE8F0872DE9F04761
:1097800004460D4690461F4657B3A168606841F0F5
:10979000500102F03DFE290A6068FFF797FF294655
:1097A0006068FFF793FF08F11E094646C8EB050AFB
:1097B000606816F8011B03689B6898474E4506EBE6
:1097C0000A05B04607F1FF3701D0002FF0D1012183
:1097D000606802F020FE0028D6D00020BDE8F087A7
:1097E0000120BDE8F08730B589B005462022002170
:1097F000684609F0CAFE002420236A46214628460E
:10980000FFF7BCFF20B12034B4F5004FF4D10120A4
:1098100009B030BD00F02ABE7047000010B5534CAF
:10982000204600F00FFB20460122002100F00DFB36
:1098300001221146204600F008FB204601220221A9
:1098400000F003FB20460122032100F0FEFA20462F
:109850000122042100F0F9FA20460122052100F03E
:10986000F4FA20460022062100F0EFFA20460122F9
:10987000072100F0EAFA20460022082100F0E5FA6C
:1098800020460022092100F0E0FA204600220A21A9
:1098900000F0DBFA204600220B2100F0D6FA204629
:1098A00000220C2100F0D1FA204600220D2100F008
:1098B000CCFA204600220E2100F0C7FA20460022F2
:1098C0000F2100F0C2FA20460122002100F0E6FA42
:1098D00001221146204600F0E1FA20460122022131
:1098E00000F0DCFA20460122032100F0D7FA2046DE
:1098F0000122042100F0D2FA20460122052100F0C5
:10990000CDFA20460122062100F0C8FA20460122A5
:10991000072100F0C3FA20460122082100F0BEFA18
:1099200020460122092100F0B9FA204601220A212D
:1099300000F0B4FA204601220B2100F0AFFA2046D5
:1099400001220C2100F0AAFA204601220D2100F08C
:10995000A5FA204601220E2100F0A0FA204601229D
:109960000F21BDE8104000F099BA00BF6CE203205F
:10997000014800F076BA00BF6CE2032000F076BD2B
:1099800030B50EA5D5E90045C0E902450DA5D5E9DC
:1099900000450A22C0E904450CA5D5E900458262CC
:1099A000012280F82C2004490270002201634270D9
:1099B000C0E9064530BD00BF404B4C009F27F96C05
:1099C00078D56E3F0E7F8FF27ACD6E3F200FD83064
:1099D0009E9C6C3F38B514460D4603F009FB53219D
:1099E00002F016FD03F004FB036829469B689847C4
:1099F00003F0FEFA036821469B68984703F0F8FAE3
:109A0000BDE8384002F00BBD2DE9F04116461F4677
:109A10000C46054603F0ECFA532102F0F9FC03F082
:109A2000E7FA036821469B68984703F0E1FA02F0E1
:109A3000F6FC03F0DDFA532102F0EAFC03F0D8FA59
:109A40003246532102F0D6FC3C4603F0D1FA0368BB
:109A50001B69C7EB0408984738B103F0C9FA0368DB
:109A60005B69984704F8010BEFE746451EBF0123E9
:109A700028706B7003F0BCFABDE8F04102F0CFBC77
:109A8000F8B50B4D04460F46008D0021164603F035
:109A900024FA3946284601F00BF93146284601F0F0
:109AA00007F9208D0121BDE8F84003F016BA00BF88
:109AB000F0E5032090F82C300BB1FFF78BBFFFF7D8
:109AC000DFBF10B590F82C3004461BB103F090FABC
:109AD00002F07AFC204600222D21FFF7EBFF204602
