:02000002D0002C
:1040000000400D0008750E00000006000D000501BF
:0840100004017C050000000022
:0440180004570E003B
:1040200009480A49884208B505D0094A824202D0A7
:10403000121A0EF0C7F90748074A0021121A0EF0AB
:10404000CCF9014808BD00BF60D5032090730E0075
:10405000B0D60320B0D60320F0E7032070B506F0F9
:1040600039FC074C074BE41AA40800251E46A5425C
:1040700004D056F8253098470135F8E770BD00BFE9
:1040800088730E0024730E0003F052BA08B503F0D3
:1040900075FDBDE8084006F0EBBB05F04BBC05F034
:1040A00051BC05F04FBC0078B0FA80F04009704771
:1040B00001230370704700009FED010B704700BFA4
:1040C000182D4454FB2109409FED010B704700BFA0
:1040D0006957148B0ABF054008B551EC100B53EC1F
:1040E000112B0DF023FB41EC100B08BD08B551EC72
:1040F000100B53EC112B0DF017FB41EC100B08BD0E
:1041000008B551EC100B53EC112B0DF0C1FC41EC38
:10411000100B08BD08B551EC100B53EC112B0DF032
:10412000E1FD41EC100B08BD51EC100B10EE102A14
:1041300001F1004343EC102B7047B0EE410AF0EE62
:10414000610A70470000000008B551EC100B53ECF9
:10415000112B0DF02DFF10B99FED030B08BD9FED46
:10416000040B08BDAFF30080000000000000000059
:10417000000000000000F03F08B551EC100B53ECBC
:10418000112B0DF00BFF10B99FED030B08BD9FED38
:10419000040B08BDAFF30080000000000000000029
:1041A000000000000000F03F08B551EC100B53EC8C
:1041B000112B0DF0DFFE10B99FED030B08BD9FED35
:1041C000040B08BDAFF300800000000000000000F9
:1041D000000000000000F03F08B551EC100B53EC5C
:1041E000112B0DF0D1FE10B99FED030B08BD9FED13
:1041F000040B08BDAFF300800000000000000000C9
:10420000000000000000F03F08B551EC100B53EC2B
:10421000112B0DF0A5FE10B99FED030B08BD9FED0E
:10422000040B08BDAFF30080000000000000000098
:10423000000000000000F03F08B551EC100B53ECFB
:10424000112B0DF08DFE10B19FED030B08BD9FEDFE
:10425000040B08BDAFF30080000000000000000068
:10426000000000000000F03F07B50023002251ECE1
:10427000100B8DED001B0DF073FE58B99DED001B6A
:104280000022002351EC110B0DF06AFEB0FA80F011
:10429000400900E000200DF095FB41EC100B03B04D
:1042A0005DF804FB07B50023002251EC100B8DEDE7
:1042B000001B0DF055FE58B19DED001B00220023A0
:1042C00051EC110B0DF04CFEB0FA80F0400900E00B
:1042D00001200DF077FB41EC100B03B05DF804FBFF
:1042E00008B50022002351EC100B0DF039FE10B977
:1042F0009FED030B08BD9FED040B08BDAFF30080DD
:104300000000000000000000000000000000F03F7E
:1043100008B50022002351EC100B0DF021FE10B166
:104320009FED030B08BD9FED040B08BDAFF30080AC
:104330000000000000000000000000000000F03F4E
:1043400008B50022002351EC100B0DF009FE0030DF
:1043500018BF012040420DF035FB41EC100B08BDA9
:1043600008B50022002351EC100B0DF0F9FDB0FA56
:1043700080F0400940420DF025FB41EC100B08BDD8
:104380002DE9F84310F0180718BF00F007074FEAAF
:10439000870910F0100F14BF0423002309F114063D
:1043A0001E4404463046884605F0C4FA32460021D1
:1043B00005460EF012F847B1B8F1000F05D04A4695
:1043C000414605F110000DF0FDFF00232C60AB60AD
:1043D0002846BDE8F883000038B555EC104B0022A4
:1043E000002310EE100A29460DF0C4FDE0B914A315
:1043F000D3E90023204629460DF0DAFDB8B9294655
:1044000020460DF01DFE01231A464FF0FF31984261
:1044100006D3B1FBF2F49C4209D35A430133F6E7C9
:1044200010460DF0BFFA04E00020034901E0034903
:10443000002041EC100B38BD0000F87F0000F07F39
:104440000000E0FFFFFFEF41F8B555EC104B0022F4
:10445000002310EE100A294657EC116B0DF08AFD6F
:1044600000283FD100220023304639460DF082FD5E
:10447000C0BB32463B46204629460DF07BFD88BB3B
:104480001FA3D3E90023204629460DF091FD60BB10
:104490001BA3D3E90023304639460DF089FD20BB2C
:1044A000294620460DF0CCFD3946044630460DF035
:1044B000C7FDB0EB540F88BF201A01231A46241AF7
:1044C0004FF0FF35904209D3A118B5FBF1F69E429B
:1044D0000BD34B43B3FBF2F30132F3E718460DF075
:1044E00061FA04E00020044901E00449002041ECA5
:1044F000100BF8BDAFF300800000F87F0000F07FE4
:104500000000E0FFFFFFEF4100B52DED028BB0EEA4
:10451000418AF0EE618A83B0FFF796FF51EC100BF1
:10452000B0EE480AF0EE680ACDE90001FFF754FF4B
:10453000DDE9000153EC102B0DF0AAFA41EC100B51
:1045400003B0BDEC028B5DF804FB10B5044630B13E
:1045500000F006F82046BDE8104005F0F3B910BDA4
:1045600010B5044630B3036803F01F03093B0E2B5C
:1045700020D8DFE803F01A1714110E0B081F1A17C2
:1045800014110E0B0800806AFFF7DFFF606AFFF767
:10459000DCFF206AFFF7D9FFE069FFF7D6FFA069CB
:1045A000FFF7D3FF6069FFF7D0FF2069BDE8104037
:1045B000FFF7CBBF10BD00002DE9F74F1823DFF840
:1045C00070B28360044665682B7813B91A23A36020
:1045D0000CE1A3F13002092A01D92E2B07D1211DAC
:1045E00028460FF009FD1E2384ED040BF3E0613B28
:1045F000192B5AD863681A78A2F16101192902D8D7
:1046000001336360F6E7A2F130010929F8D95F2A86
:10461000F6D0E669C5EB03087EB1276A77B1D6F814
:1046200000904246494628460EF0A0FE10B919F8FF
:1046300008302BB31036013FF0E737464FF0170A2A
:10464000C7EB0A0907EB69094FEA09130BEB0306ED
:104650005BF8033001934246194628460EF086FE69
:10466000002840F0BE80019B13F808301BB9002ED3
:1046700000F0B08004E009F1FF3A5745E0DDA9E021
:10468000B36803F01F030F2B06DC082B09DA002B9D
:1046900040F0A2801F2305E0172B00F39D80F368F4
:1046A000A361B368A36073683DE06A1C62602B7805
:1046B0002A2B3ED01ED8212B43D00CD80D2B00F036
:1046C0008B8004D8093B012B40F2868082E0202BAE
:1046D00000F082807EE0262B66D005D8252B79D18C
:1046E0002023A360434B1EE0282B6FD0292B71D1D0
:1046F0001D2370E03C2B3BD00AD82C2B68D00FD365
:104700002D2B12D02F2B65D12023A3603A4B0AE02A
:104710003E2B3BD023D35E2B0FD07C2B4DD059E0CA
:104720002023A360354B236156E02023A360344B44
:10473000F9E72023A360334BF5E72023A360324B36
:10474000F1E7AB1C63606B783D2B4FF020030BBF90
:10475000A360A3602D4B626018BF2D4BE3E7AB1C39
:1047600063606B783D2B35D12023A360294BDAE7BA
:10477000AB1C63606B783D2B4FF020030BBFA36035
:10478000A360254B626018BF244BCCE7AB1C636071
:104790006B783D2B4FF020030BBFA360A360204B31
:1047A000626018BF1F4BBEE7AB1C63606B78262BA3
:1047B00010D12023A3601C4BB5E7AB1C63606B7862
:1047C0007C2B07D12023A360184BACE71C2302E00D
:1047D0001B2300E01923A360A368182B3FF4F3AE5A
:1047E00004E07FF748AF09F1010746E703B0BDE8F1
:1047F000F08F00BF71CD0D0015410D00D9400D00A7
:10480000ED400D0001410D0071D00D0039420D0049
:10481000E1420D0009420D00D9410D00A9410D00F2
:1048200079410D0049410D0069420D00A5420D007E
:1048300018570E0073B5054600F0F6F90B4E044606
:10484000AB681B2B0ED12846FFF7B6FE2846009416
:1048500000F0EAF9694601902A20FFF791FD04462D
:104860008660EDE7204602B070BD00BF3B410D0001
:104870002DE9F0410446806800F01F03083B172B28
:1048800000F28A80DFE803F01E334646464646467D
:104890001E334646464646468888888877880C16E2
:1048A00000210120FFF76CFDD4E904230546C0E98F
:1048B00002236DE000210846FFF762FD2369836053
:1048C000054665E00021FFF75BFD23698360A3686F
:1048D000D90644BFA369036105462046FFF76CFE75
:1048E000A3681C2B63D12046FFF766FE4AE0002137
:1048F000FFF746FD23698360A368DA0644BFA36916
:10490000436105462046FFF757FE204600F054F865
:1049100028614CE010F018064FF0000118BF00F0BD
:104920000706FFF72DFD23698360A368DB0642BFFE
:10493000331DA26940F8232005462046FFF73CFEC0
:10494000A3681C2B21D105F10C080027B7420AD01F
:104950002046FFF731FE204600F066F948F8040FC4
:10496000A3681B2B05D0A3681D2B0ED1013EBE42B0
:104970000AE00137EAE72046FFF71EFE2046FFF770
:1049800059FF0546A3681D2B02D01923A3600EE032
:104990002046FFF711FE0AE000210846FFF7F0FC71
:1049A0001923A360034B0022C0E9022305462846D1
:1049B000BDE8F0810000F87F2DE9F043394F3A4D12
:1049C00087B004460126A368202B02D0012E44D1D3
:1049D00027E02369DFF8CC80BB4203D12046FFF7F4
:1049E000EBFDF0E7AB42DFF8C09001D17642F5E78E
:1049F0002E4F0025A368202B10D12369434503D1F6
:104A00002046FFF7D9FDF5E74B45F9D0BB4205D16C
:104A10000DB16D42F4E74FF0FF35F1E7012E1BD1E8
:104A20001DB92046FFF724FF39E00135204609D1A2
:104A3000FFF71EFF06A941F8140D2920FFF7A0FC7F
:104A40001A4B2BE0FFF714FF06A941F8100D29209F
:104A5000FFF796FC164B21E055B92046FFF708FFFB
:104A600006A941F80C0D2920FFF78AFC114B15E02F
:104A70000135204609D1FFF7FBFE06A941F8080DD4
:104A80002920FFF77DFC0C4B08E0FFF7F1FE06A99B
:104A900041F8040D2920FFF773FC084B836007B031
:104AA000BDE8F083D9400D00ED400D00E1420D005E
:104AB00011430D0029410D0041430D0061430D00DC
:104AC00073B50546FFF778FF0C4E0446AB68202B04
:104AD00011D12B69B3420ED12846FFF76DFD284650
:104AE0000094FFF769FF694601902A20FFF748FC10
:104AF00004468660EAE7204602B070BD71D00D0022
:104B00002DE9F7430646FFF7DBFFDFF84880DFF8C3
:104B100048900F4F0446B368202B15D135694545A1
:104B20000ED13046FFF748FD30460094FFF7C8FF2E
:104B3000694601902A20FFF723FC04468560EAE7D6
:104B40004D45EED0BD42ECD0204603B0BDE8F08329
:104B500071CD0D0001410D0015410D002DE9F3410E
:104B60000546FFF7CDFFDFF840800E4F0446AB68E7
:104B7000202B13D12E6946450ED12846FFF71CFD88
:104B800028460094FFF7BCFF694601902A20FFF7F2
:104B9000F7FB04468660EAE7BE42EED0204602B04C
:104BA000BDE8F081ED400D00D9400D002DE9F7433F
:104BB0000646FFF7D3FF164FDFF86480DFF86490F6
:104BC0000546B368202B1ED13469BC420ED1304655
:104BD000FFF7F2FC30460095FFF7C0FF69460190F1
:104BE0002A20FFF7CDFB05468460EAE74445EED076
:104BF0004C45ECD0074B9C42E9D0074B9C42E6D099
:104C0000064B9C42E3D0284603B0BDE8F08300BFCA
:104C100049410D00D9410D0009420D0039420D00F6
:104C200079410D00A9410D002DE9F3410546FFF73B
:104C3000BDFFDFF840800E4F0446AB68202B13D138
:104C40002E6946450ED12846FFF7B6FC284600944B
:104C5000FFF7ACFF694601902A20FFF791FB04465D
:104C60008660EAE7BE42EED0204602B0BDE8F081A1
:104C7000A5420D0069420D0070B504462DED0C8B68
:104C8000002800F0D182036803F01F020F2A08DC1D
:104C9000082A0EDA4AB1012A40F0C68290ED020BD2
:104CA000C4E2172A40F35B81BEE2836893ED000BF8
:104CB000BCE213F0180F85680DD003F00703013B29
:104CC000062B08D8DFE813F00D0016002E00510067
:104CD0007F00B800FC00BDEC0C8B2B46BDE870409B
:104CE00018470069FFF7C8FFBDEC0C8B2B46BDE8E9
:104CF000704018470069FFF7BFFF6069B0EE408A57
:104D0000F0EE608AFFF7B8FFB0EE401AF0EE601ADE
:104D1000B0EE480AF0EE680ABDEC0C8B2B46BDE8FD
:104D2000704018470069FFF7A7FF6069B0EE408A3E
:104D3000F0EE608AFFF7A0FFA069B0EE409AF0EEB7
:104D4000609AFFF799FFB0EE491AF0EE691AB0EEDB
:104D5000402AF0EE602AB0EE480AF0EE680ABDEC98
:104D60000C8B2B46BDE8704018470069FFF784FFA5
:104D70006069B0EE408AF0EE608AFFF77DFFA069BF
:104D8000B0EE409AF0EE609AFFF776FFE069B0EE81
:104D900040AAF0EE60AAFFF76FFFB0EE4A2AF0EEED
:104DA0006A2AB0EE491AF0EE691AB0EE403AF0EE17
:104DB000603AB0EE480AF0EE680ABDEC0C8B2B4668
:104DC000BDE8704018470069FFF756FF6069B0EE14
:104DD000408AF0EE608AFFF74FFFA069B0EE409A7C
:104DE000F0EE609AFFF748FFE069B0EE40AAF0EEFF
:104DF00060AAFFF741FF206AB0EE40BAF0EE60BA59
:104E0000FFF73AFFB0EE4B3AF0EE6B3AB0EE4A2ABB
:104E1000F0EE6A2AB0EE404AF0EE604AB0EE491A6F
:104E2000F0EE691AB0EE480AF0EE680ABDEC0C8BA1
:104E30002B46BDE8704018470069FFF71DFF606909
:104E4000B0EE408AF0EE608AFFF716FFA069B0EE80
:104E5000409AF0EE609AFFF70FFFE069B0EE40AACB
:104E6000F0EE60AAFFF708FF206AB0EE40BAF0EE5D
:104E700060BAFFF701FF606AB0EE40CAF0EE60CAA8
:104E8000FFF7FAFEB0EE4C4AF0EE6C4AB0EE4B3A49
:104E9000F0EE6B3AB0EE405AF0EE605AB0EE4A2AAD
:104EA000F0EE6A2AB0EE491AF0EE691AB0EE480A3E
:104EB000F0EE680ABDEC0C8B2B46BDE8704018473D
:104EC0000069FFF7D9FE6069B0EE408AF0EE608AB3
:104ED000FFF7D2FEA069B0EE409AF0EE609AFFF7BD
:104EE000CBFEE069B0EE40AAF0EE60AAFFF7C4FE88
:104EF000206AB0EE40BAF0EE60BAFFF7BDFE606A1D
:104F0000B0EE40CAF0EE60CAFFF7B6FEA06AB0EE9F
:104F100040DAF0EE60DAFFF7AFFEB0EE4D5AF0EE99
:104F20006D5AB0EE4C4AF0EE6C4AB0EE406AF0EECC
:104F3000606AB0EE4B3AF0EE6B3AB0EE4A2AF0EE11
:104F40006A2AB0EE491AF0EE691AB0EE480AF0EE9D
:104F5000680ABDEC0C8B2B46BDE87040184713F077
:104F6000180F85680DD003F00703013B062B08D806
:104F7000DFE813F00E001900330058008800C3006A
:104F80000901BDEC0C8B20692B46BDE87040184729
:104F900046690069FFF770FEBDEC0C8B30462B466E
:104FA000BDE87040184786690069FFF765FE6069D3
:104FB000B0EE408AF0EE608AFFF75EFEB0EE401A77
:104FC000F0EE601AB0EE480AF0EE680ABDEC0C8B09
:104FD00030462B46BDE870401847C6690069FFF7A8
:104FE0004BFE6069B0EE408AF0EE608AFFF744FE47
:104FF000A069B0EE409AF0EE609AFFF73DFEB0EE89
:10500000491AF0EE691AB0EE402AF0EE602AB0EECE
:10501000480AF0EE680ABDEC0C8B30462B46BDE822
:1050200070401847066A0069FFF726FE6069B0EE17
:10503000408AF0EE608AFFF71FFEA069B0EE409A4A
:10504000F0EE609AFFF718FEE069B0EE40AAF0EECD
:1050500060AAFFF711FEB0EE4A2AF0EE6A2AB0EE1F
:10506000491AF0EE691AB0EE403AF0EE603AB0EE4E
:10507000480AF0EE680ABDEC0C8B30462B46BDE8C2
:1050800070401847466A0069FFF7F6FD6069B0EEA8
:10509000408AF0EE608AFFF7EFFDA069B0EE409A1B
:1050A000F0EE609AFFF7E8FDE069B0EE40AAF0EE9E
:1050B00060AAFFF7E1FD206AB0EE40BAF0EE60BAF8
:1050C000FFF7DAFDB0EE4B3AF0EE6B3AB0EE4A2A5B
:1050D000F0EE6A2AB0EE404AF0EE604AB0EE491AAD
:1050E000F0EE691AB0EE480AF0EE680ABDEC0C8BDF
:1050F00030462B46BDE870401847866A0069FFF7C6
:10510000BBFD6069B0EE408AF0EE608AFFF7B4FD47
:10511000A069B0EE409AF0EE609AFFF7ADFDE0694D
:10512000B0EE40AAF0EE60AAFFF7A6FD206AB0EE4E
:1051300040BAF0EE60BAFFF79FFD606AB0EE40CA79
:10514000F0EE60CAFFF798FDB0EE4C4AF0EE6C4A04
:10515000B0EE4B3AF0EE6B3AB0EE405AF0EE605AD9
:10516000B0EE4A2AF0EE6A2AB0EE491AF0EE691A59
:10517000B0EE480AF0EE680ABDEC0C8B30462B46C8
:10518000BDE870401847C66A0069FFF775FD6069A1
:10519000B0EE408AF0EE608AFFF76EFDA069B0EED7
:1051A000409AF0EE609AFFF767FDE069B0EE40AA22
:1051B000F0EE60AAFFF760FD206AB0EE40BAF0EEB4
:1051C00060BAFFF759FD606AB0EE40CAF0EE60CAFF
:1051D000FFF752FDA06AB0EE40DAF0EE60DAFFF7BA
:1051E0004BFDB0EE4D5AF0EE6D5AB0EE4C4AF0EE7B
:1051F0006C4AB0EE406AF0EE606AB0EE4B3AF0EE08
:105200006B3AB0EE4A2AF0EE6A2AB0EE491AF0EE96
:10521000691AB0EE480AF0EE680ABDEC0C8B304615
:105220002B46BDE8704018479FED030BBDEC0C8B7F
:1052300070BD00BFAFF30080000000000000F87FE9
:10524000F8B52DED028B0268012A044627D9930692
:1052500025D512F0180318BF02F00703033300F13D
:105260000C0600EB83050127AE4209D056F8040F67
:10527000FFF7E6FF33681B68012B18BF0027F3E731
:105280006FB12046FFF7F8FC2046B0EE408AF0EE02
:10529000608AFFF765F984ED028B01232360BDEC82
:1052A000028BF8BD30B58BB01D460190009068466A
:1052B00007910892FFF780F96846FFF7BBFA029B57
:1052C0001A2B04460DD0FFF740F90DB900200EE06F
:1052D0009DE80500101A01D02860F7E701232B6034
:1052E00005E0FFF7ADFF0DB100232B6020460BB0AA
:1052F00030BD7047014B01221A7070476CDE0320ED
:1053000038B5064D002404F160002844103C04F038
:1053100077FC14F1700FF6D138BD00BFC8D603205A
:1053200010B508460CF03BFF084C094B20600122E9
:105330001A7005F0C5FF074904F018FE05F0C0FF1C
:1053400021680A22BDE8104004F080BEA4D50320E5
:1053500074E1032083590E0010B5054B002204466A
:10536000114640F8043B04F0F7F9204610BD00BF99
:1053700024590E0010B50446FFF7EEFF2046202109
:1053800006F085FD204610BD00231A4619464068E8
:1053900004F068BA00221146406804F05BBA0000CD
:1053A00008B504F031F8034B1860BDE8084004F07C
:1053B00089BA00BFF4E5032003682BB14268934229
:1053C00002D218460CF0EBBE0020704738B50568D5
:1053D000044645B143689D4205D228460DF0BEFF04
:1053E000013005442560204638BDF8B504460F4617
:1053F000466821B90368721C42609955F8BD084699
:105400000DF0ACFFA368451CAA199A4208D8206881
:105410002A46394630440CF0D5FF63681D44656068
:10542000F8BD000070B504464068A6682568054AC6
:105430000B46311A284404F0A5FA63680130184479
:10544000606070BD9B590E0070B504464068A66848
:105450002568054A0B46311A284404F093FA63681C
:1054600001301844606070BD9E590E002DE9F04F68
:1054700092468FB0994606461D4688460124C9EBE0
:1054800005039A457BD918F8017B06F0BBFC394629
:1054900005F0B2FF06F0B6FC05F0B9FF78BB05F0E9
:1054A0000FFF3949834602A804F0F1FB314602A8F8
:1054B00004F08CFC354904F095FC354904F092FC6D
:1054C00010220190394606A804F044FC019B06A96D
:1054D000184604F07BFC01460AA804F017FC0A9960
:1054E000584604F056FD0AA804F08AFB06A804F00A
:1054F00087FB02A804F084FB01232B703CE006F03C
:1055000081FC05F08BFF06F07DFC394605F074FF49
:1055100006F078FC05F07BFF0028C0D005F0D0FE37
:105520001949044602A804F0B2FB314602A804F06F
:105530004DFC184904F056FC154904F053FC1022A8
:105540008346394606A804F005FC06A9584604F02F
:105550003DFC01460AA804F0D9FB0A99204604F054
:1055600018FD0AA804F04CFB06A804F049FB00242F
:1055700002A804F045FB2C70103601357FE7204669
:105580000FB0BDE8F08F00BFA2590E00BA590E004F
:10559000AA590E00B6590E0040F21C43024A0348B5
:1055A000002103F03BB800BF38DA0320B8D603204F
:1055B00040F21C43024A0348002102F0E3BF00BF4F
:1055C00038DA0320B8D6032008B5054B00221A703C
:1055D00005F076FE0349BDE8084004F0DABC00BFE0
:1055E000FDD90320025A0E001FB50968684604F071
:1055F0004EFB684604F049FC009905480DF076F929
:10560000FFF7CAFF684604F0FBFA05B05DF804FB3B
:1056100048DB03201FB50968684604F038FB68467C
:1056200004F033FC009905480DF060F9FFF7B4FF72
:10563000684604F0E5FA05B05DF804FB48DC032099
:105640001FB50968684604F022FB684604F01DFC9B
:10565000009905480DF04AF9FFF79EFF684604F0EF
:10566000CFFA05B05DF804FB48DD032008B50868F3
:105670000CF092FD51EC100B0CF002FD024B186087
:10568000BDE80840FFF788BF48DE032008B508687A
:105690000CF085FD034B01280CBF002201221A707B
:1056A00008BD00BFFED9032008B508680CF077FDDF
:1056B000034BC3F81804BDE80840FFF76DBF00BFF7
:1056C00038DA032038B5144C0D462088012106F045
:1056D0000EFB052004F050FF0021208806F007FB98
:1056E000C82004F049FF0121208806F000FB0520B6
:1056F00004F042FF2088002106F0F9FA28680CF037
:105700004EFD064B003018BF012083F81704BDE89A
:105710003840FFF741BF00BF74D5032038DA0320BB
:1057200008B5074B1A78074B93F81414914205D02B
:1057300083F81424FFF730FF012008BD002008BDC6
:10574000B0DE032038DA032008B5074B1A78074B80
:1057500093F81514914205D083F81524FFF71CFF28
:10576000012008BD002008BD6EDE032038DA0320CA
:1057700008B5074B1A78074B93F81614914205D0D9
:1057800083F81624FFF708FF012008BD002008BD9C
:105790006DDE032038DA032038B5046805467CB195
:1057A0006368013B63605BB9236820469B68984748
:1057B000A368013BA3601BB923682046DB689847B8
:1057C000284638BD1FB5164BD3F81824154B013A9F
:1057D000032A15D8DFE802F01402080E1B788DF8B2
:1057E0000030114A3C2310E01B788DF800300F4A3E
:1057F0003C230AE01B788DF800300D4A3C2304E07E
:105800001B780C4A8DF800303C230B4902A805F0A8
:10581000BDF903A8FFF7C0FF05B05DF804FB00BFAA
:1058200038DA0320C5D60320625A0E00725A0E00E1
:10583000825A0E00515A0E002D610E0010B5044B15
:10584000044640F8183BFFF7A7FF204610BD00BFF5
:1058500048690E0008B500234377006806F09CF8FD
:10586000BDE8084003F028BD2DE9F0418E188EB048
:10587000B14280460D4617460591069680F0198183
:105880000B88ADF8123005A8FFF7A0FD03689E4213
:1058900040F20F8105980378412B12D101300CF0B2
:1058A0007EFC052801DDFF240FE0059801300CF097
:1058B00076FC0028F7DB059801300CF070FC0E3008
:1058C00002E005A8FFF778FDC4B2BDF8123047F238
:1058D0007622934200F0B4800DD847F261229342C1
:1058E0007AD047F2642293424FD046F670529342E8
:1058F00040F0D18034E047F26472934257D047F2CF
:105900007672934200F0AD8047F26172934240F0AC
:10591000C28082E00378412B32D101300CF03FFC91
:10592000052821DDFF2405A8FFF750FD059D6249EC
:1059300028460CF0D1FF0146002800F0B6805F49F0
:1059400028460CF0C9FF002800F0AE805C492846CC
:105950000CF0C2FF002800F0A78005A8FFF736FD75
:1059600005988642D6D8A4E0059801300CF017FCC3
:105970000028D7DB059801300CF011FC0E3002E056
:1059800005A8FFF719FDC4B2CDE70AAB079307A836
:10599000102300254B4909930895FFF726FD07A81A
:1059A0002146FFF73FFD204606F0BAF925E005A89D
:1059B000FFF70CFD03689E427BD9A4B2012120466B
:1059C00006F084F905A8FFF7F7FC011C18BF0121B8
:1059D000204606F08CF96CE00AAB07933A49102395
:1059E00007A8002509930895FFF7FFFC07A82146A3
:1059F000FFF718FD204606F0A6F9014607A8FFF7B5
:105A000023FD089B0295013B0093079B01952A46C5
:105A10001421404600F050FA4BE005A8FFF7D6FCF1
:105A200003689E4245D9A4B20121204606F04EF9F2
:105A300005A8FFF7C1FC0146204606F09BF938E0B7
:105A40000EAD204605F8104D03F038FC03462846FD
:105A500023B11E4A934201D098472AE003F02AFC62
:105A600027E005A8FFF7B2FC059B0A935D1B7D1B91
:105A700020460B950C958DF81C4003F029FC03463D
:105A80000AA907A823B1124A934201D0984710E00F
:105A900003F011FC0DE0002302210091B8F81A2058
:105AA000029301931946B4E70121204606F00EF94E
:105AB00053E70EB0BDE8F081495F0E00965A0E0024
:105AC0009A5A0E009E5A0E00A15A0E00B5920D0071
:105AD000B7920D002DE9F0418EB004AF05460522C6
:105AE00007F10C01006804F0CAFB002800F01981DE
:105AF000052801D0002019E1B7F80D20B7F80F40B4
:105B0000130A43EA0222230A43EA042492B2A4B20B
:105B1000A7F80D20A7F80F40002AEBD03B7BF3B984
:105B200003F0C4FB6B7FE860B7F80F209BB9B7F8B0
:105B30000D1001290FD1042A01D0C82ADAD101247D
:105B400068616C77284600F099FAFFF729FC00F0AD
:105B5000DBFD2046EAE0501F18BF0120E6E0B4F567
:105B6000806F03D92846FFF775FEDAE004F10803D9
:105B700023F00703E846ADEB030D04AE22463146A1
:105B8000286804F07CFB84424FF0000440F0C4809D
:105B9000B7F80F30F45403F089FB3B7BE860112B1E
:105BA00072D006D8062B20D00F2B60D0022B09D044
:105BB000AEE0292B25D0372B00F0B080142B40F01D
:105BC000A78054E06B7F43B901236B77284600F030
:105BD00055FAFFF7E5FB00F097FD0023C821B7F861
:105BE0000D2002930193009106E0C823B7F80D2021
:105BF00000930294019423461946284600F05CF96C
:105C00008CE0AB681BB9202003F094FEA860B7F8C5
:105C10000F40FE613444A6423C6201D300207EE086
:105C200020223146A8680DF0B6FB07F11C00FFF7F3
:105C3000CDFB0368A34207D2F86918B13B6A9842CA
:105C400071D3002084B200E05024286805F0A4FE3F
:105C50002B68AA685A631C8700236B7703F026FB26
:105C6000A0F59C5008382861E860686156E0FB6840
:105C7000B7F80F20C3F30F236B8331462846FFF795
:105C8000F3FD00236B8349E0B7F80F303C713344D8
:105C90009E427E61BB6141D23068B86007F114005A
:105CA000FFF794FB7A69B7F80F30FA61961B9E1BD9
:105CB000204ABB683E6293427E621DD00BD802F13F
:105CC000FD3202F10222934228D107F11C01381D56
:105CD00003F0F1FA22E0184A934213D002F19F62D6
:105CE00002F5003202F58072934217D107F11C01D0
:105CF000381DFFF769FC11E007F11C01381D03F0A6
:105D0000DAFA0BE007F11C01381D00F06BFB05E02F
:105D10002846FFF79FFD01E0204600E00120C54630
:105D200004E0012002E00CF03EFA8BE72837BD4684
:105D3000BDE8F0817274630061636F6E2DE9F0411C
:105D400004468AB00D46FFF72BFB637F022B00F061
:105D50009D80237F628B0133DBB22377002A41D100
:105D6000022B3FD8206805F044FC40B1002D40F0E4
:105D70008F80206805F028FE002800F3898003F05A
:105D800095FA0646206805F034FC677F012F05462A
:105D90002AD120B966612046FFF75CFD72E0E36816
:105DA00044F63822F31A934204D92046FFF752FDF5
:105DB000002567E042F21072934203D82369F31A78
:105DC00093420FD9636940F6B832F31A934209D966
:105DD00000230293019300931A460621204600F007
:105DE0006BF8666101254DE0002FFBD1626950B16F
:105DF000B61A40F6B8339E42F4D9206805F0CCFDBF
:105E00003D4667773EE0B21A41F288339A42E9D9BB
:105E1000206805F0C1FDD4F800E0DEF834C0BEF81B
:105E20003880BCF1000F06D02B46424661467046D2
:105E300005F0B6FC0EE01F4B04930EF120070FCFC8
:105E400005AD0FC53B682B704246634604A97046FA
:105E500005F028FD431E5D425D410DB9666111E00C
:105E600067680126268338460DF078FA00238DE80E
:105E70000900029332463B460221204600F01CF8FE
:105E800023696361237F013B23770EE000250CE04B
:105E90002046FFF71FFE054600287FF46AAF206802
:105EA00005F07AFD03F008FAECE728460AB0BDE8F1
:105EB000F08100BF28680E002DE9F04F83B000AFDD
:105EC000044600683D6B894616469B46EA4605F047
:105ED00090FB002860D019F0FD0F00F0A080B9F110
:105EE000060F00F09C80637F012B55D116B9668B9D
:105EF000002E56D0A9F10C03082B5AD97A6BBBF1AE
:105F0000000F14BFA8464FF00008002ABA6B08F132
:105F1000050314BF90464FF00008984408F10703AA
:105F200023F00703AA18ADEB030DC2F3072376BADB
:105F300043EA0223C7F804D08DF80090ADF8016061
:105F4000ADF80330BBF1000F52D0002D50D02A46DF
:105F500059460DF105000CF035FA681D7B6B002BDE
:105F600048D10025454551D2C5EB08027B68206821
:105F7000B2F5806F28BF4FF48062591905F023FBFA
:105F80000646002003F090F9002E3DD1206805F070
:105F900003FD667703F090F90C37D546BD46BDE8A2
:105FA000F08F238B01339BB203B901232383268B0C
:105FB000A0E7E3682269934238BF134603F1420821
:105FC00003F074F9C0EB080000280ADB002120462A
:105FD000FFF7B4FE03F06AF9C0EB08000028F5DA19
:105FE0008CE7217F002989D12046FFF7A7FE85E7AE
:105FF0000520B3E7BB6B002BB3D01A467B68796BE7
:1060000018440CF0DFF9ACE73544ABE703D0204689
:10601000FFF720FCC0E703F049F92061BCE7002E40
:106020007FF46CAF63E70000F0B5ADF2244D08AB30
:10603000002405460F46059305A84FF480630E49DA
:10604000079316460694FFF7D0F9394605A8FFF7DF
:10605000E9F9314605A8FFF7E5F9069B0294013BF3
:1060600000930194059B224614212846FFF724FF44
:106070000DF2244DF0BD00BFA45A0E001FB5002242
:106080004923009302920192034B1121FFF714FF61
:1060900005B05DF804FB00BF38590E00F0B5ADF255
:1060A000344D0CAB002405460F46059305A84FF46C
:1060B00080631149079316460694FFF796F939460F
:1060C00005A8FFF7AFF9314608A803F01FFE0899AD
:1060D00005A8FFF78AF908A803F092FD069B029431
:1060E000013B00930194059B224614212846FFF7AB
:1060F000E3FE0DF2344DF0BDA45A0E0010B58CB085
:106100004349684603F0C3FD4249434803F011FE8A
:10611000424B41491B7843B304A803F0F7FD4049C3
:1061200004A803F05FFE04463E4802F0E6F93E4B49
:106130003E491A683E4B024408A804F0B9F908A980
:10614000204603F043FE364903F04CFE394903F084
:106150003DFE394903F046FE0146684603F0C7FD9F
:1061600008A803F04DFD04A811E008A803F0CEFD37
:10617000324908A803F036FE2E4903F027FE2E49C7
:1061800003F030FE0146684603F0B1FD08A803F0B5
:1061900037FD694608A803F0B9FD08AA1E21284862
:1061A000FFF77CFF08A803F02BFD40F6B83004F0A1
:1061B000E3F900220221234802F02AFB00220321F6
:1061C000204802F025FB05F01DFE05F023F918B963
:1061D00005F018FE05F0F6F805F072F81A4903F01C
:1061E000D8FE1A4800231A461946406803F042FBBD
:1061F00041F2883004F0C0F9154B00221B680121E0
:1062000008A803F083FC684603F0FAFC0CB010BD4C
:10621000A85D0E00A75A0E0088D7032055DE032084
:10622000C35A0E00C4D60320A4D5032068E203207D
:10623000AC5A0E0098D70320B25A0E00B45A0E0082
:1062400054E1032054DE0320C55A0E00A8E20320C7
:1062500010E10320F0B5ADF2244D1E4608AB174601
:1062600000240546059305A84FF480630793069420
:10627000FFF7BBF8394605A8FFF7B7F8316805A85E
:10628000FFF7B3F8069B0294013B00930194059B32
:1062900022460D212846FFF70FFE0DF2244DF0BDDA
:1062A000F0B5ADF2344D0CAB002405460F46059316
:1062B00005A84FF480631149079316460694FFF72B
:1062C00094F8394605A8FFF7ADF8314608A803F061
:1062D0001DFD089905A8FFF788F808A803F090FCB1
:1062E000069B0294013B00930194059B22461421D6
:1062F0002846FFF7E1FD0DF2344DF0BDA45A0E0023
:10630000F0B5ADF22C4D0AAB002406460D460793BE
:1063100007A84FF4806317498DED050A0993089487
:10632000FFF763F8294607A8FFF77CF89DED050AFB
:10633000089B0999079D10EE100ACF1A1D440BF017
:1063400053FB0D4ACDE900013946284603F01AFBFC
:10635000089B029401301844089001380090019481
:10636000079B224614213046FFF7A6FD0DF22C4D67
:10637000F0BD00BFA45A0E00DD5A0E0038B5094D1D
:10638000094C6A6820460B21FFF74EFE2046AA689A
:106390000D21FFF749FE95ED030A0F212046FFF777
:1063A000AFFF38BD38DA032054E1032008B5086890
:1063B0000BF0F5FE034B5860FFF7EEF8BDE8084020
:1063C000FFF7DCBF38DA032008B508680BF0E7FEFA
:1063D000034B9860FFF7E0F8BDE80840FFF7CEBF39
:1063E00038DA032008B5064B01221A70FFF7C6FF02
:1063F00004F066FF0349BDE8084003F0CABD00BFD2
:10640000FDD90320E35A0E0010B508680BF0C7FE53
:1064100001280DD109480A4C01F0F4FD84ED030A6E
:10642000FFF7BAF894ED030A06480F21FFF768FF5B
:1064300000220E210348FFF7F7FD10BD70DE032098
:1064400038DA032054E10320F0B5ADF2244D08AB57
:10645000002405460F46059305A84FF480630E49B6
:10646000079316460694FEF7C0FF394605A8FEF7C7
:10647000D9FF314605A8FEF7B8FF069B0294013B01
:1064800000930194059B224614212846FFF714FD32
:106490000DF2244DF0BD00BFA45A0E00F0B5ADF2D0
:1064A000244D08AB002405460F46059305A84FF47C
:1064B00080630E49079316460694FEF796FF394609
:1064C00005A8FEF7AFFF314605A8FEF7ABFF069B18
:1064D0000294013B00930194059B22461421284617
:1064E000FFF7EAFC0DF2244DF0BD00BFA45A0E00E8
:1064F00010B52A4C2A4862680A21FFF795FDA26868
:1065000027480C21FFF790FD626825480B21FFF713
:106510008BFDA26822480D21FFF786FD04F11002D1
:1065200014211F48FFF790FF04F5887210211C48C2
:10653000FFF78AFF04F5047212211948FFF784FF60
:1065400004F544721A211648FFF77EFF94ED030A02
:1065500013480F21FFF7D4FE04F5826393ED000A80
:106560000F481921FFF7CCFED4F818240C48172146
:10657000FFF75AFD94F8172409481821FFF78EFFFA
:10658000084A07481621FFF75FFF074B1B7823B126
:10659000064A03481521FFF757FF10BD38DA0320DC
:1065A00054E10320ED5A0E00FED90320015B0E00DA
:1065B0002DE9FF410968684603F069FB4A496846CE
:1065C00003F022FC002800F08880484C484A4948E3
:1065D0001621FFF739FF0F26052300274FF000088B
:1065E0004549A36004F1100066602760C4F80C8080
:1065F0000CF07CF9414904F588700CF077F93F49BB
:1066000004F504700CF072F904F582653B4904F559
:1066100044700CF06BF9012332460A213548C4F866
:10662000183484F81734C5F8008084F8147484F89A
:106630001574FFF7F9FCA2682E480C21FFF7F4FC53
:1066400062682C480B21FFF7EFFCA26829480D2156
:10665000FFF7EAFC04F1100214212648FFF7F4FECC
:1066600004F5887210212348FFF7EEFE04F504724A
:1066700012212048FFF7E8FE04F544721A211D4854
:10668000FFF7E2FE94ED030A1A483146FFF738FEA1
:1066900095ED000A17481921FFF732FED4F81824A7
:1066A00014481721FFF7C0FC94F81724114818214B
:1066B000FFF7F4FE124801F0E6FF124A0D481521DB
:1066C000FFF7C2FE04F0FCFD0E4903F062FC4FF43C
:1066D000FA7003F051FF03F015FA684603F090FAE0
:1066E00004B0BDE8F08100BF1C5B0E0038DA032067
:1066F000ED5A0E0054E10320245B0E003A5B0E00BD
:10670000B8D603204B5B0E001FB504F0D9FD0A4933
:1067100003F03FFC094B1B780BB1FFF7E9FE0023A8
:106720000293019300931A4610210548FFF7C4FB1A
:1067300005B05DF804FB00BF5A5B0E00FCD90320D6
:1067400054E103202DE9F04FADF2CC4D0546602217
:1067500000211AA80BF041FE7A4B1A937A4B1E9334
:106760007A4B22937A4B26937A4B2A937A4C7B4B23
:106770002E930EAB2B9323780DF1180B0DF1200AFD
:106780000DF128090DF1300810AFCDF86CB0CDF83F
:106790007CA0CDF88C90CDF89C802F9723B12A4611
:1067A00015216F48FFF750FE05AB06221AA92846AF
:1067B000FEF778FD0646002800F09680694D68686F
:1067C0000BF012F9CBE90001A8680BF00DF9CAE94A
:1067D0000001E8680BF008F9C9E9000128690BF02D
:1067E00003F9614BC8E9000118680BF0FDF8C7E92F
:1067F00000013046FEF740FA237857EC106B5BB18E
:106800005A4932A803F082FA554832AA1521FFF7F7
:1068100045FC32A803F0F4F9237833B332AB0025FA
:106820001693534917954FF4806316A81893FEF7F3
:10683000DCFD152116A8FEF7F5FD179B1899169893
:106840004C4AC91A1844CDE9006703F09BF8179B1E
:106850000295013018441790013800900195169B5D
:106860003F482A461421FFF727FB23785BB14249B2
:1068700032A803F04BFA3A4832AA1521FFF70EFC72
:1068800032A803F0BDF92378EBB13C4932A803F0FC
:106890003DFA32AA15213248FFF700FC32A803F076
:1068A000AFF90022364B304639460BF059FB90B118
:1068B000294B1C780CB901243FE0324A28481521A5
:1068C000FFF7C2FD39E000222D4B304639460BF070
:1068D00047FB0028EFD12478002C2ED02A4A2048EC
:1068E0001521FFF7B1FD27E0284932A803F0CFF9C1
:1068F0000A22059916A803F03FFA16A932A803F058
:1069000065FA014612A803F001FA16A803F078F917
:1069100032A803F075F923785BB112A932A803F00D
:10692000F5F90F4832AA1521FFF7B8FB32A803F09A
:1069300067F912A803F064F9002420460DF2CC4D4B
:10694000BDE8F08F855B0E00895B0E008D5B0E004D
:10695000915B0E00965B0E00FED903209B5B0E0040
:1069600054E10320B4E1032024E2032058DE032095
:10697000A45A0E00A05B0E0024E10320E4E10320F2
:106980000000F03FA65B0E00BD5B0E00D55B0E0065
:106990001FB50968684603F07AF9684603F075FA8E
:1069A000009908480BF0A2FFFEF7F6FD064B1B7896
:1069B00013B10448FFF7C6FE684603F021F905B09D
:1069C0005DF804FB48DA032020E10320F0B5ADF2C6
:1069D000244D1E4608AB174600240546059305A81E
:1069E0004FF4806307930694FEF7FFFC394605A831
:1069F000FEF7FBFC314605A8FEF7F7FC069B029468
:106A0000013B00930194059B22460D212846FFF788
:106A100053FA0DF2244DF0BD70B5334B334C1A7858
:106A20001D46002A46D004F04BFC314903F0B1FA70
:106A30000021304802F0D4F800212E4802F0CAF8B4
:106A40002C4802F012F8032206460146294802F0BB
:106A500007F898B104F034FC274903F09AFA0023B0
:106A60002370FEF785FE28B1244B254A2549264888
:106A7000FFF7ACFF01211F4802F0ACF804223146B9
:106A80001C4801F0EDFF98B104F01AFC1F4903F017
:106A900080FA01232370FEF76BFE28B11C4B1D4AC0
:106AA00018491948FFF792FF0121124802F098F89F
:106AB00000232B70237833B9174B197819B9174B6A
:106AC000188805F014F9237813B9134B1B7853B1C8
:106AD000134B93F8173433B9104B01211888BDE8D4
:106AE000704005F004B970BD6CDE03206DDE03203C
:106AF000E75B0E0000DA0320015C0E00145C0E0060
:106B0000365C0E0048DD032054E10320595C0E0082
:106B10006A5C0E00865C0E00B0DE032074D5032094
:106B200038DA032070B5044600680E4604F034FFDE
:106B30000023637702F0BAFB0546637F012B09D07F
:106B400002F0B4FB401BB04204D200212046FFF704
:106B5000F5F8F2E7607F431E5842584170BD0000CF
:106B600070B5344C2046FEF715FC0546E0B904F03C
:106B7000A7FB314903F00DFA2A462946606802F066
:106B800059FE0546002853D104F09AFB2B4903F027
:106B900000FA2046FEF7F8FB2B462A462946606895
:106BA000BDE8704002F03EBE254C04F089FB25494B
:106BB00003F0EFF9637F012B1DD004F081FB224924
:106BC00003F0E7F9214B636002F070FB2368204A71
:106BD0005A63A0F59C50083850222061E060606143
:106BE0001A8742F228312046FFF79CFF40B904F093
:106BF00067FB184902E004F063FB174903F0C9F989
:106C000002F070FE68B904F05BFB144903F0C1F9AF
:106C100002F060FE02F066FE50B904F051FB10492C
:106C200002E004F04DFB0F49BDE8704003F0B1B93C
:106C300070BD00BFA8E203202A5A0E00A35C0E001C
:106C400054E10320C55C0E00235D0E0080D50320B7
:106C5000455D0E003D5A0E00595D0E00D45C0E00DD
:106C6000F95C0E00105D0E002DE9F0472DED028B52
:106C7000A0B0FFF775FF03F04DFC28B3454B1A7821
:106C80001D460ABB03F067FC0146434801F0ECFBDC
:106C900003F061FC0446404801F02FFC844200F000
:106CA000308403F058FC04463B4801F026FC201ACF
:106CB00009288CBF0020012030B101232B7004F083
:106CC000FFFA364903F065F9354B1B780BB9FEF72F
:106CD00079FDFFF7A1FE3348324C02F07CF8002822
:106CE00000F0BC833049314E314DDFF8BC80204686
:106CF00002F08AF92F49204602F09AF904F0E0FAEE
:106D00002D4903F046F90023336037463368DFF836
:106D10009C90032B17DC04F0D3FA3B6803F1010AC3
:106D200008EB8303814618680AF05EFECDE9000196
:106D3000224A55F82A300021484603F051FA3B68B0
:106D400001333B60E2E704F0BBFA1D49DFF86080E5
:106D500003F01FF90023C9F800304D46DFF85490C6
:106D60003368042B2EDC04F0ABFA2F6809EB8703A1
:106D7000824618680AF038FECDE9000158F827303D
:106D80000E4A0021504603F02BFA2B6801332B608A
:106D9000E6E700BF55DE0320C4D60320695D0E0080
:106DA00074E10320B4E1032000E1032068DE032046
:106DB00060D5032010E20320865D0E009D5D0E006D
:106DC000A95D0E006068BF4DBF4F0AF00DFE024680
:106DD0000B4616A8BD4903F06BF816A9BC4802F093
:106DE000A0FF16A802F00CFFA0680AF0FDFD024605
:106DF0000B4616A8B54903F05BF816A9B54802F092
:106E000090FF16A802F0FCFEE0680AF0EDFD0246D5
:106E10000B4616A8AD4903F04BF816A9AE4802F090
:106E200080FF16A802F0ECFE20690AF0DDFD0B469B
:106E30000246A64916A803F03BF816A9A74802F097
:106E400070FF16A802F0DCFEA54AA648012101F059
:106E500077F807EE900AF8EEE77AC5ED007A04F0CD
:106E60002FFAA14903F082F804F02AFA04462868B0
:106E70000AF0BAFD41EC100B0221204603F0A2F902
:106E800004F01EFA03F079F804F01AFA974903F0B7
:106E90006DF804F015FA01210446924801F004F956
:106EA00010EE100A0AF0A0FD41EC100B0221204662
:106EB00003F088F904F004FA03F05FF804F000FA34
:106EC0008B498C4C03F052F88B4A8648012101F023
:106ED00037F807EE900A0121B8EEE70A814801F081
:106EE00023F984ED000A04F0EBF9064620680AF065
:106EF0007BFD41EC100B0221304603F066F920685F
:106F00007E4C7F4E0AF070FD02460B4616A86F4974
:106F100002F0CEFF16A97B4802F003FF16A802F08C
:106F20006FFE2868784D0AF05FFD02460B4616A8F2
:106F3000664902F0BDFF16A9744802F0F2FE16A8D9
:106F400002F05EFE724916A804F006F9714803F0DB
:106F50004BFC10EE100AB0EE408A0AF045FD0B46DD
:106F600002466D4912A802F0A3FF12A96B4802F075
:106F7000D8FE12A802F044FE199A694912A802F03C
:106F800097FF12A9674802F0CCFE12A802F038FE63
:106F90004F4912A802F0BAFE634912A802F022FF7C
:106FA0004C4902F013FF604902F01CFF4A4902F00D
:106FB0000DFF5D4902F016FF484902F007FF5A49EC
:106FC00002F010FF4F4902F001FF574902F00AFF9B
:106FD0004E4902F0FBFE544902F004FF4F4902F013
:106FE000F5FE514902F0FEFE4E4902F0EFFE014669
:106FF000204602F07CFE12A802F002FE344912A8DC
:1070000002F084FE12AA01214848FFF747F812A8AF
:1070100002F0F6FD2F4912A802F078FE12AA022112
:107020004248FFF73BF812A802F0EAFD2A4912A8ED
:1070300002F06CFE12AA03213C48FFF72FF812A8B9
:1070400002F0DEFD254912A802F060FE12AA04211A
:107050003648FFF723F812A802F0D2FD294912A8FA
:1070600002F054FE12AA05213048FFF717F812A8C3
:1070700002F0C6FD254912A802F048FE12AA062118
:107080002A48FFF70BF812A802F0BAFD234912A80C
:1070900002F03CFE12AA07212448FEF7FFFF12A8C7
:1070A00002F0AEFD1F4912A802F030FE12AA08211C
:1070B0001E48FEF7F3FF12A802F0A2FD04F000F94B
:1070C000216835E024E20320FED90320C25D0E00D2
:1070D00038D7032048D7032058D7032068D7032088
:1070E000C85D0E0070DE0320CA5D0E00D25D0E008A
:1070F000D95D0E001CE1032091610E0058DE0320D3
:10710000B0DE032078D7032055DE032000E2032001
:10711000A8E20320B4DE0320E05D0E0098D7032030
:10712000A0690E00A8D70320E65D0E0054E10320FD
:1071300002F02FFFAC4BAD49012402A81C7002F0F5
:10714000A6FDAB48FFF7FEFA0246002800F0828059
:1071500022460021A7483470FEF766FF022209216B
:10716000A448FEF761FF2B781BB3A34912A802F0D5
:107170008EFDA24801F0C1F9A14BA2491A68A24BA9
:1071800002440EA803F094F90EA912A802F01EFE04
:107190009E4902F027FE9E4902F018FE9D4902F02A
:1071A00021FE014602A802F0A2FD0EA802F028FD71
:1071B0000EE0994912A802F06AFD954912A802F062
:1071C00005FE944902F00EFE014602A802F08FFD72
:1071D00012A802F015FD02A912A802F097FD12AA4A
:1071E0001E218448FEF75AFF12A802F009FD3B78E1
:1071F000002B00F0B68003F0AEF9014606A803F0BC
:10720000D7F806A90AA802F081FD84490AA802F06D
:10721000E9FD7B4B0A22196804460EA802F0ACFD7A
:107220000EA9204602F0D2FD014612A802F06EFD22
:1072300012AA15216F48FFF733F812A802F0E0FCFC
:107240000EA802F0DDFC0AA802F0DAFC06A802F0A3
:10725000D7FC86E001466748FEF7E6FE0921224694
:107260006448FEF7E1FE2B786D4943B30EA802F0A7
:107270004DFD66490EA802F0B5FD04465F4801F0D9
:107280003CF95F4B5F491A685F4B024412A803F058
:107290000FF912A9204602F099FD5C4902F0A2FD07
:1072A0005B4902F093FD5B4902F09CFD014602A898
:1072B00002F01DFD12A802F0A3FC0EA811E012A816
:1072C00002F024FD574912A802F08CFD504902F04B
:1072D0007DFD504902F086FD014602A802F007FD3F
:1072E00012A802F08DFC02A912A802F00FFD12AA4A
:1072F0001E214048FEF7D2FE12A802F081FC3B7826
:107300006BB303F028F9014606A803F051F806A96B
:107310000AA802F0FBFC41490AA802F063FD384BC1
:107320000A22196804460EA802F026FD0EA920467E
:1073300002F04CFD014612A802F0E8FC12AA152149
:107340002C48FEF7ADFF12A802F05AFC0EA802F07E
:1073500057FC0AA802F054FC06A802F051FC0023D6
:107360003370FEF7DDF950B1337813B12E4B2F4A4D
:1073700001E02F4B2F4A30491E48FFF727FB2F4BC8
:107380002F4CD3ED007AB4EEE78AF1EE10FA4CBF41
:10739000012300232370FEF7D7F908B32378294986
:1073A00012A85BB102F073FC194912A802F00EFD9D
:1073B000254902F017FD254A03460AE002F067FC62
:1073C000134912A802F002FD214902F00BFD214AE7
:1073D000034608482049FEF73DFF12A802F010FCC2
:1073E00002A802F00DFC48E020E10320A85D0E0099
:1073F00048DA032054E10320E85D0E00C4D60320E0
:10740000A4D5032068E20320AC5A0E00C35A0E0034
:1074100098D70320B25A0E00F05D0E00045E0E00F5
:1074200088D70320B45A0E00065E0E00215E0E00BF
:10743000375E0E00525E0E0048DB032048DE03205C
:107440006EDE03206E5E0E00885E0E008B5E0E0008
:10745000AD5E0E00B05E0E0048DC0320204601F059
:1074600048FE50B903F02CFF2A4902F092FD4FF478
:107470007A7003F081F802F045FB274B274C1B780C
:10748000F3B10A2221680EA802F076FC0EA912A818
:1074900002F03CFC224912A802F0A4FC014616A806
:1074A00002F034FC16AA15211E48FEF7F9FE16A8B4
:1074B00002F0A6FB12A802F0A3FB0EA802F0A0FBAC
:1074C00003F0FEFE054601F09FFF0A220146284612
:1074D00002F089FD03F0F4FE134902F047FD03F0CA
:1074E000EFFE0A22216802F0B1FD03F0E9FE02F08E
:1074F00044FD23680133236020B0BDEC028BBDE85E
:10750000F0870A4800F0F9FF044603F024F8FFF77B
:10751000CEBB00BFD85E0E00FED90320F4E10320ED
:10752000A75D0E0054E103205B670E00C4D6032064
:107530002DE9F0418AB004F065FC44F6206103F0C7
:1075400037FF0321082004F0C1FB03F08BFD4FF44B
:10755000E13103F07BFDC04CC04D03F0B1FE4FF4B0
:10756000E13103F0A7FE642003F006F80121208832
:1075700004F0ACFB0021208804F0B9FB04F042FCCD
:1075800003F01AFF642002F0F7FFB54801F096F807
:1075900001220221B24801F03BF901220321B04847
:1075A00001F036F9642002F0E7FF0AAA002142F850
:1075B0001C1D0423AB4800F0E5FF03F081FE039B94
:1075C000A94A012102F00CFEA84B1E7886B90AA830
:1075D00001221A7040F8106D3246314601F034FF36
:1075E000069B1E2B04D103232B7008236E80AB80D7
:1075F0002868AB88049004A8ADF8143002F09EFA15
:10760000032814D8DFE800F002060A0E03F058FE43
:1076100097490AE003F054FE964906E003F050FE55
:10762000954902E003F04CFE944902F0B2FC03F0ED
:1076300047FE9349DFF85482924F02F0AAFC914B27
:10764000914992480722FDF711FF0025064603F0F5
:1076500037FE2B0153F8081002F088FC03F030FECF
:107660008B4902F083FC03F02BFE795D0A22013581
:1076700002F0ECFC072DEAD12EBB8649864802F0C9
:1076800058FB03F01DFE854902F083FC0121208890
:1076900004F02DFB642002F06FFF3146208804F0D7
:1076A00026FB04F0AFFB03F0B9FE04F0ABFB03F0E4
:1076B000B1FE18B904F0A6FB03F07EFE04F0A2FBB5
:1076C00003F080FE2FE07649734802F032FB03F0AE
:1076D000F7FD744902F05DFC0121208804F007FBEE
:1076E000052002F049FF0021208804F000FBC8209B
:1076F00002F042FF0121208804F0F9FA052002F08F
:107700003BFF0021208804F0F2FAC82002F034FF89
:107710000121208804F0EBFA052002F02DFF002162
:10772000208804F0E4FAC82002F026FF0EB902F027
:10773000E9F95D485D4D00F0E0FE044603F0C0FD50
:107740005B4902F026FC03F0BBFD0A22214602F051
:1077500059FC03F0B5FD4E4902F01BFC03F0B0FDEF
:107760002B6854492246064606A802F0A1FE069957
:10777000304602F00EFC06A802F042FA4E4B9C4244
:1077800027DC4E49484800F06FFE474800F0B5FE40
:10779000044603F095FD4A4902F0FBFB03F090FD1F
:1077A0000A22214602F02EFC03F08AFD384902F03D
:1077B000F0FB03F085FD2B683E490646224606A8ED
:1077C00002F076FE0699304602F0E3FB06A802F0CE
:1077D00017FA04F017FB01463A483B4C3B4D01F0C9
:1077E0008DFC3B4801F0BDF8FDF7E2FE394B226805
:1077F0001B689A427AD02360182363600523A36034
:107800003549364BE36004F110000BF06FF8344952
:1078100004F588700BF06AF8314904F504700BF038
:1078200065F82F4904F544700BF060F804F58263A5
:107830002C4A1A60002384F8143484F81534012388
:107840002B70C4F81834FDF7A7FE03F039FD264964
:1078500002F09FFB51E000BF74D5032034E2032007
:1078600054DE0320B8D60320005F0E00B4D60320F8
:10787000065F0E00305F0E004C5F0E00995F0E0039
:10788000F65F0E00F8E10320A8D50320C8D6032038
:107890005B670E000E600E0088D7032014600E0098
:1078A0001E600E0024600E00C4D60320B8D503204D
:1078B0002B600E0068E203207F436D38003B3D4B98
:1078C00032600E00B4E1032038DA0320FCD9032033
:1078D00000DA032078D5032038600E0000001CC3B6
:1078E00070600E00000020418A600E0003F0E8FC8A
:1078F000874902F04EFB00232B7003F0E1FC854921
:1079000002F034FB03F0DCFC02F037FB824801F0AC
:1079100028F80421804801F071F801231A4619461D
:107920007D4801F0DAF812217B4801F087F8012345
:107930001A461946784801F0EFF81221764801F00E
:1079400083F80A21744801F085F8012500231A46BE
:10795000194601950095704801F0F3F829466E48E4
:1079600001F03EF929466D4D6B4801F033F9288846
:10797000002104F0ABF900224FF0FF33684928885A
:10798000009203F097FB03F09BFC02F0F6FA03F081
:1079900097FC02F0F2FA03F093FC624902F0F9FA64
:1079A00003F08EFC604902F0E1FA03F089FC5F4BC2
:1079B000054618680AF018F841EC100B0221284619
:1079C00002F003FC03F07CFC594902F0CFFA03F00B
:1079D00077FC584B054618680AF006F841EC100B86
:1079E0000221284602F0F1FB03F06AFC5249534D94
:1079F00002F0BCFA03F064FC0646A86A09F0F4FF42
:107A000041EC100B0221304602F0DFFB03F058FC82
:107A10000646E068686209F0E7FF41EC100B0221BE
:107A2000304602F0D2FB03F04BFC454902F09EFACF
:107A300003F046FC0646A86B09F0D6FF41EC100B9C
:107A40000221304602F0C1FB03F03AFC3D4902F04E
:107A5000A0FA03F035FC3C4902F09BFA4FF4967013
:107A600002F08AFD04F0CEF90146384801F046FBE9
:107A700050B903F025FC364902F08BFA4FF47A70C6
:107A800002F07AFD02F03EF8FFF76AF80023019356
:107A900000931A462F49304801F034FF2F4B1B78D2
:107AA0000BB9FDF78FFE01F0AFFC41F6A37605465A
:107AB000264801F090F900B3A368294A29484FF4F9
:107AC0007A71594301F082FB264801F0A1FB264A56
:107AD00026486F2101F07AFB244801F099FB03F05E
:107AE000EFFB234902F055FA2249234802F021F91D
:107AF000FFF7BAF80AB0BDE8F08101F085FC401B41
:107B0000B042D9D8642002F037FDFEF785FFCFE7F9
:107B100095600E00A4600E0000DA03207CD50320DF
:107B2000F5520D0008610E00B2600E00B4D50320BE
:107B3000CA600E00B0D50320E1600E0070DE0320A5
:107B4000F6600E00FF600E0013610E00B4E103202A
:107B5000D85E0E0021530D001F610E0074E103205A
:107B6000696C0D00B8D70320196A0D00BCDE032034
:107B700037610E001E600E0088D7032008B5002173
:107B80000E48FEF7DBF80E4801F042FB0D4801F00D
:107B90003FFB0D4B5A680D4B1B689A420CDC0C4B9B
:107BA0000021188804F0A3F84FF4FA6002F0E4FC16
:107BB000BDE80840FEF7A2BA08BD00BF54E10320AB
:107BC000B8D70320BCDE032038DA0320F4E1032019
:107BD00074D50320914B2DE9F3410024904E1C6095
:107BE000904B914DDFF8D08201271F7001F08CFB84
:107BF000304603F085FF06F11C0003F083F92A46A6
:107C00008A4974633046348704F03CF9884B1E601F
:107C10005C609C60DC601C615C611C835C831C7725
:107C20005C77844B844E1C704FF6FF725C809A80A8
:107C3000022001F0A3FD2146384601F0B7FD22469F
:107C40001421022001F0D2FD1E230197009302228D
:107C500003467A497A4F304601F008FF2A467949AF
:107C6000304604F00FF97848784E00F0D9FD04F062
:107C7000C9F822460146304600F07CFC2A46744989
:107C8000304604F0FFF87348734E00F0DBFA734897
:107C900000F012FD724801F05CF82146304602F017
:107CA00063FD2A466F49304604F0ECF86E4E3946C3
:107CB000404601F0ECFF4046DFF800822A4631469C
:107CC00004F0E0F83946404601F0E1FF4046DFF8B5
:107CD000F0812A46314604F0D5F83946404601F095
:107CE000D6FF4046DFF8DC812A46314604F0CAF868
:107CF0003946404601F0CBFF4046DFF8CC812A46AA
:107D0000314604F0BFF83946404601F0C0FF404616
:107D1000DFF8B8812A46314604F0B4F839464046C7
:107D200001F0B5FF4046DFF8A8812A46314604F04D
:107D3000A9F83946404601F0AAFF4046DFF8948191
:107D40002A46314604F09EF83946404601F09FFF2E
:107D50004046DFF884812A46314604F093F83946DC
:107D60004046424F01F093FF2A463146404604F018
:107D700089F83F49384601F08AFF38463D4F2A4688
:107D8000314604F07FF83C49384601F080FF384620
:107D90003A4F2A46314604F075F83949384601F021
:107DA00076FF2A463146384604F06CF8354E3648A0
:107DB00001F0B1F9354801F0AEF93549304601F02E
:107DC00066FF344906F1100001F061FF324906F107
:107DD000200001F05CFF314906F1300001F057FF4F
:107DE0002F4906F1400001F052FF2E4906F15000E4
:107DF00001F04DFF2C4906F1600001F048FF2A46D2
:107E00002A49204604F03EF89FED290A29480F220E
:107E1000112102B0BDE8F04100F0E0B910E103200B
:107E200078E10320C5D60320B0D603203D580D00CD
:107E300054E1032014E1032034E1032000FFFF009C
:107E4000A85D0E0059530D0000DA0320B8D60320B8
:107E50005D850D00C4D60320B4DE032054DE03206C
:107E6000B4E1032087A70D00019C0D00E4E103208D
:107E700046610E0024E1032059610E0088D70320DB
:107E800076610E00C8D60320B8D70320BCDE0320DD
:107E90007C610E0080610E0084610E008F610E0017
:107EA00093610E0098610E00A0610E0001530D0059
:107EB0009A99814070DE032038D7032048D70320E9
:107EC00058D7032068D7032078D7032000E2032087
:107ED00098D70320A8D7032058DE032080E80600A7
:107EE000104A82630261104AC261104ADFED106AD3
:107EF000D2ED007A9FED0F7A0F4980ED020A67EE0E
:107F0000A66AC16086EE876ADFED0C6A80ED087AAA
:107F100067EEA67A80ED056AC7EE876AC0ED066A4D
:107F2000704700BF0000A04100009041B4D503207D
:107F3000000068420000AE420000204200001842EB
:107F40002DE9F0410C460646904601F05DFA4FF4EB
:107F50007A7707FB040700242546B08803F0F3FE78
:107F60000444012002F008FB01F04EFAB84205F18A
:107F70000105F2D307EE105A07EE904AF8EE476A71
:107F8000F8EE677A184BD6ED085A87EEA67AD3ED4D
:107F9000007A164B93ED006A154BC5EE866A98453C
:107FA00067EE277A9FED137A27EE877AD6ED077A68
:107FB000D7EE267A0CD1B2EE027A67EE877AF1EE2E
:107FC000046A87EEA67ADFED0C7A77EE277A02E074
:107FD0000A4B984502D1FDEEE77A01E0DFED087A21
:107FE00017EE900ABDE8F081B0D50320B4D5032088
:107FF000C85D0E00000080390000004291610E0053
:1080000000000000F8B5044601F0FEF9002500F577
:108010001C5710372E46208803F095FE054401209A
:1080200002F0AAFA01F0F0F9B84206F10106F2D323
:1080300007EE905A07EE106AF8EE677AB8EE477AC4
:10804000154BC7EE876AD3ED007A66EEA77A17EE76
:10805000900A09F0C9FC0022104B09F019FD104BE1
:10806000002209F015FD0AF00BF8D4ED0A7A0D4A4A
:1080700007EE100A77EE677A0A21C4ED097A2046E6
:10808000FFF75EFF07EE900AF8EEE77A94ED090A33
:10809000C4ED0E7AF8BD00BFB0D5032000408F407C
:1080A0000000303F91610E00F8B50C46074601F024
:1080B000ABF94FF47A7606FB04060024254638888F
:1080C00003F041FE0444012002F056FA01F09CF94D
:1080D000B04205F10105F2D307EE904A07EE105ABF
:1080E000F8EE677AB8EE477A0B4BC7EE876AD3EDA6
:1080F000007A66EEA77A17EE900A09F075FC002266
:10810000064B09F0C5FC0022054B09F0C1FC09F043
:10811000B7FF00EE100AF8BDB0D5032000408F4035
:108120000000303F00000000D0B52DED028B04466A
:10813000B0EE408AFFF7B8FFD4ED0A7A30EE670A56
:10814000D4ED097A70EE677A17EE900A09F04CFCCC
:108150000022214B09F0C6FDD4ED0F7AF8EEE77A44
:10816000064617EE900A0F4609F03EFC02460B4603
:108170003046394609F0B6FD15A3D3E9002309F0CE
:1081800087FC09F07DFFB3EE077AB4EEC78A94ED61
:108190000E7AF1EE10FA78EE476A07EE900ACCBF3D
:1081A00094ED0C6A94ED0D6A38EE478AE6EE667A35
:1081B000D4ED0B6AB7EE000AA6EEC80ABDEC028B3E
:1081C000D4ED026A87EEA67A20EE070AD0BD00BF82
:1081D0000000000065CDCD4100408F4008B503464A
:1081E000FFF77CFE0D4A9FED0E7AD2ED007ADFEDAF
:1081F0000D6A0D4ADA6327EE877A4FF07C52C7EE9C
:10820000267ADA62094A1A63094A5A6318469FEDC8
:10821000097A67EE877AC3ED0A7A08BDB4D50320E0
:1082200040E38649A07A004AA08601009A998141DC
:108230001F85934000007A4401F066B80368C9B214
:108240009B68184710B5044603F0DCFD03F0E2F824
:1082500018B903F0D7FD03F0AFF8204610BD2DE9A3
:10826000F84F924698460D469DF828B09DF82C7020
:108270009DF830609DF8349003F0C4FD6F210A240E
:1082800003F0BEF803F0BEFD0021FFF7D7FF03F0B7
:10829000B9FDB5FBF4F304FB135505EB0315EDB283
:1082A00005F07F01FFF7CAFF03F0ACFDBAFBF4F164
:1082B00004FB11AA0AEB011101F07F01FFF7BEFFD9
:1082C00003F0A0FDB8FBF4F104FB118808EB0111E9
:1082D00001F03F01FFF7B2FF03F094FDBBFBF4F1A7
:1082E00004FB11B101F0070141F00801FFF7A6FFFF
:1082F00003F088FDB7FBF4F104FB117707EB0111E4
:1083000001F03F01FFF79AFF03F07CFDB6FBF4F1AB
:1083100004FB116606EB011101F01F01FFF78EFF50
:1083200003F070FDB9FBF4F1036804FB119404EB56
:1083300001119B68C9B2984703F064FD03F067F828
:1083400003F060FD6F2103F05BF803F05BFD00219B
:10835000FFF774FF03F056FD45F08001FFF76EFF55
:1083600003F050FDBDE8F84F03F051B870B51C465E
:1083700015460E4603F046FD6F2103F041F803F069
:1083800041FD0021FFF75AFF03F03CFD03F03FF8E9
:1083900003F038FD6F21072203F024F803F032FDCB
:1083A00003685B699847C0B2C0F3021303EB830311
:1083B00000F00F0000EB4300307003F023FD036872
:1083C0005B699847C0B2C0F3021303EB830300F06C
:1083D0000F0000EB4300287003F014FD03685B6995
:1083E0009847C0B2C0F3011303EB830300F00F0002
:1083F00000EB4300207003F005FD03685B699847BC
:10840000049B00F00700187003F0FCFC03685B6934
:108410009847C0B2C0F3011303EB830300F00F00D1
:1084200000EB4300059B187003F0ECFC03685B69EC
:108430009847C0B2C0F300129300134400F00F003D
:1084400000EB4300069B187003F0DCFC03685B69DB
:108450009847C0B2030903EB830300F00F0000EB61
:108460004300079B187070BD2DE9F04F07468DB093
:1084700008460C4601F070FF8046204601F064FF7C
:108480008146204601F058FF8246204601F074FFE5
:108490000546204601F068FF0646204601F076FFBB
:1084A0008346204601F07CFF0A22014604A801F021
:1084B00063FC04A9022208A801F0E0FC08A801F06E
:1084C000F1FC044608A801F09BFBE4B25FFA8BF3D1
:1084D000F6B2EDB202935FFA89F25FFA8AF35FFABD
:1084E00088F13846039401960095FFF7B8FE04A87A
:1084F00001F086FB0DB0BDE8F08F00B591B00DF135
:108500001B0303930DF11A0302930DF11903019359
:1085100006AB00930DF116020DF117030DF11501D5
:10852000FFF724FF9DF8153007939DF81630089348
:108530009DF8173009939DF819300A939DF81A3069
:10854000013B0B939DF81B3007A864330C930AF092
:1085500029F811B05DF804FB00F0D6BE704710B5E5
:108560000C21044603F093FC204610BD0368C9B2F9
:108570009B68184710B5024C04604160826010BDD2
:1085800070620E002DE9F04704460D4617469846E6
:10859000B8F1000F3FD0A168606841F0500102F0CF
:1085A0002FFF290A6068FFF7E1FF29466068FFF79F
:1085B000DDFF0021606802F026FF10B10020BDE859
:1085C000F087B8F1200FA1686068C14628BF4FF05E
:1085D000200901234A4641F0500102F008FF03F050
:1085E00011FC03681B6998478145E7DC3E46C7EBF1
:1085F000050A03F007FC03685B69984706F8010B5E
:10860000F21BC6EB0803914506EB0A053B44F0D884
:1086100098463746BCE70120BDE8F0872DE9F047D2
:1086200004460D4690461F4657B3A168606841F066
:10863000500102F0E5FE290A6068FFF797FF29461E
:108640006068FFF793FF08F11E094646C8EB050A6C
:10865000606816F8011B03689B6898474E4506EB57
:108660000A05B04607F1FF3701D0002FF0D10121F4
:10867000606802F0C8FE0028D6D00020BDE8F08770
:108680000120BDE8F08730B589B0054620220021E1
:10869000684609F0A2FE002420236A4621462846A7
:1086A000FFF7BCFF20B12034B4F5004FF4D1012016
:1086B00009B030BD00F028BE7047000010B5534C23
:1086C000204600F00FFB20460122002100F00DFBA8
:1086D00001221146204600F008FB2046012202211B
:1086E00000F003FB20460122032100F0FEFA2046A1
:1086F0000122042100F0F9FA20460122052100F0B0
:10870000F4FA20460022062100F0EFFA204601226A
:10871000072100F0EAFA20460022082100F0E5FADD
:1087200020460022092100F0E0FA204600220A211A
:1087300000F0DBFA204600220B2100F0D6FA20469A
:1087400000220C2100F0D1FA204600220D2100F079
:10875000CCFA204600220E2100F0C7FA2046002263
:108760000F2100F0C2FA20460122002100F0E6FAB3
:1087700001221146204600F0E1FA204601220221A2
:1087800000F0DCFA20460122032100F0D7FA20464F
:108790000122042100F0D2FA20460122052100F036
:1087A000CDFA20460122062100F0C8FA2046012217
:1087B000072100F0C3FA20460122082100F0BEFA8A
:1087C00020460122092100F0B9FA204601220A219F
:1087D00000F0B4FA204601220B2100F0AFFA204647
:1087E00001220C2100F0AAFA204601220D2100F0FE
:1087F000A5FA204601220E2100F0A0FA204601220F
:108800000F21BDE8104000F099BA00BF28E2032014
:10881000014800F076BA00BF28E2032000F074BDE2
:1088200030B50EA5D5E90045C0E902450DA5D5E94D
:1088300000450A22C0E904450CA5D5E9004582623D
:10884000012280F82C20044902700022016342704A
:10885000C0E9064530BD00BF404B4C009F27F96C76
:1088600078D56E3F0E7F8FF27ACD6E3F200FD830D5
:108870009E9C6C3F38B514460D4603F0C3FA532155
:1088800002F0BEFD03F0BEFA036829469B689847D4
:1088900003F0B8FA036821469B68984703F0B2FAE0
:1088A000BDE8384002F0B3BD2DE9F04116461F4641
:1088B0000C46054603F0A6FA532102F0A1FD03F091
:1088C000A1FA036821469B68984703F09BFA02F0DF
:1088D0009EFD03F097FA532102F092FD03F092FA05
:1088E0003246532102F07EFD3C4603F08BFA0368CA
:1088F0001B69C7EB0408984738B103F083FA036893
:108900005B69984704F8010BEFE746451EBF01235A
:1089100028706B7003F076FABDE8F04102F077BD85
:10892000F8B50B4D04460F46008D0021164603F0A6
:10893000DEF93946284601F0D7F83146284601F0DD
:10894000D3F8208D0121BDE8F84003F0D0B900BF75
:10895000D4E5032090F82C300BB1FFF78BBFFFF765
:10896000DFBF10B590F82C3004461BB103F04AFA73
:1089700002F022FD204600222D21FFF7EBFF2046CA
:1089800010222D21FFF7E6FF204608222D21BDE809
:108990001040FFF7DFBF0000F8B5012AD4BF41F057
:1089A000800441F0C00405460021008D1F46164694
:1089B00003F09DF921460A4801F096F83C46E31B76
:1089C0009E4206DD0021064801F08EF804F8010BF6
:1089D000F5E7288D0121BDE8F84003F088B900BF14
:1089E000D4E5032010B490F82C401CB15DF8044B82
:1089F000FFF75ABF5DF8044BFFF7CEBF37B5043918
:108A00000C2998BF0C4B4FF0010298BF5D5C0DF133
:108A100007034FF0310188BF00250446FFF7E2FF4E
:108A20009DF8072022F013022A4331212046FFF748
:108A300091FF03B030BD00BF78620E0081F30802E1
:108A4000D2B22421FFF786BF81F30802D2B22521DA
:108A5000FFF780BF81F30802D2B22621FFF77ABF69
:108A600041FA02F202F00100704707B501220DF150
:108A700007033021FFF7B6FF9DF8070003B05DF84C
:108A800004FBF7B516461F4601220DF10703044605
:108A90000D46FFF7A7FF01229DF80730B2400FB146
:108AA000134301E023EA02038DF807309DF8072005
:108AB00029462046FFF74EFF03B0F0BD0B460622C5
:108AC0002721FFF7DEBF0B4605222721FFF7D9BF7D
:108AD0000B4604222721FFF7D4BF70B50446164683
:108AE0001D46FFF7EBFF31462046FFF7ECFF294616
:108AF0002046BDE87040FFF7EBBF0B46022227215E
:108B0000FFF7BFBF0B4601222721FFF7BABF0B4675
:108B100000222721FFF7B5BF70B5044616461D4653
:108B2000FFF7EBFF31462046FFF7ECFF29462046D2
:108B3000BDE87040FFF7EBBF13460A462F21FFF751
:108B4000A0BF2DE9F0410129044690461D46069F2D
:108B5000079E01D1002202E0022903D10122062151
:108B6000FFF7EAFFB8F1010F01D1002203E0B8F1ED
:108B7000020F04D1012205212046FFF7DDFF012D60
:108B800002D10022022103E0022D04D10122294654
:108B90002046FFF7D1FF012F01D1002202E0022F72
:108BA00004D1012204212046FFF7C6FF012E01D186
:108BB000002202E0022E06D1012220460321BDE858
:108BC000F041FFF7B9BFBDE8F08113460A462E21F8
:108BD000FFF757BF0A4601B101220421FFF7F5BF95
:108BE0000A4601B101220321FFF7EFBF00F08CBB61
:108BF00010B5044603F006F9036821469B68BDE8FA
:108C00001040184708B503F0FDF803685B69984702
:108C1000C0B208BD38B504460D4603F0F3F821781C
:108C200041F0200102F0ECFB2846FFF7E1FF03F0E2
:108C3000E9F802F0ECFB03F0E5F82178012241F0BD
:108C4000200102F0CFFBBDE83840FFF7DBBF70B575
:108C5000064614460D4603F0D5F8317841F0200160
:108C600002F0CEFB2846FFF7C3FF2046FFF7C0FF08
:108C700003F0C8F8BDE8704002F0C9BB2DE9F0412F
:108C80009DF81860072998BF1E4601F00707904617
:108C9000314601240546BC40FFF7BCFFB8F1000F88
:108CA00001D0044301E020EA0404E2B23146284640
:108CB000BDE8F041FFF7CBBF10B5072928BF07215A
:108CC0000170044603F09EF802F076FB2046FF2276
:108CD0000021FFF7BCFF2046FF220121BDE8104024
:108CE000FFF7B5BF0021FFF7E7BF07B50123B2FAD1
:108CF00082F2009352090023FFF7C0FF03B05DF832
:108D000004FB0829F8B501F007060C4634BF14210E
:108D1000152105461746FFF77DFF0123B3400FB12C
:108D2000034301E020EA0303082CDAB2284634BFEB
:108D300012211321BDE8F840FFF789BF07B50D23C5
:108D400000930C23FFF79AFF03B05DF804FB00F0DB
:108D5000DBBA002242608260C260026142618261CD
:108D6000C261026242628262012280F82C2080F895
:108D70002D2080F82E20704738B505460C46006837
:108D8000692102F03DFB210A2868FFF757FAE1B29A
:108D90002868FFF753FA286802F039FB08B1002071
:108DA00038BD02226921286802F019FB286803688F
:108DB0001B6998470028F2D0286803685B699847C8
:108DC0000446286803685B699847240204F47F44DA
:108DD000C0B2204338BD08B540F20221FFF7CCFFF6
:108DE000431E5842584108BDF0B58BB00546FFF709
:108DF000F2FF0446002800F004810027692128685A
:108E0000009701970297039704970597069707978E
:108E10000897099702F0F4FA03212868FFF70EFA81
:108E200039462868FFF70AFA286802F0F0FA064681
:108E3000002840F0E5803C226921286802F0CFFA42
:108E4000286803681B69984718BB009868600198F8
:108E5000A8600298E8600398286104986861059802
:108E6000A8610698E861079828620898686200235C
:108E70000998A86285F82C3085F82D3085F82E30B9
:108E8000BFE0009BC0B240EA0320009001363C2EB8
:108E9000DBD0286803685B699847F3B23A2BF5D8B2
:108EA00001A252F823F000BF838E0D00838E0D00C7
:108EB0008D8E0D00838E0D00838E0D008D8E0D0026
:108EC000958F0D00958F0D008D8E0D00958F0D00E7
:108ED000958F0D008D8E0D00A18F0D00A18F0D00BF
:108EE0008D8E0D00A18F0D00A18F0D008D8E0D00B8
:108EF000AD8F0D00AD8F0D008D8E0D00AD8F0D006F
:108F0000AD8F0D008D8E0D00B98F0D00B98F0D0046
:108F10008D8E0D00B98F0D00B98F0D008D8E0D0057
:108F2000C58F0D00C58F0D008D8E0D00C58F0D00F6
:108F3000C58F0D008D8E0D00D18F0D00D18F0D00CE
:108F40008D8E0D00D18F0D00D18F0D008D8E0D00F7
:108F5000DD8F0D00DD8F0D008D8E0D00DD8F0D007E
:108F6000DD8F0D008D8E0D00E98F0D00E98F0D0056
:108F70008D8E0D00E98F0D00E98F0D008D8E0D0097
:108F8000F58F0D00F58F0D008D8E0D00F58F0D0006
:108F9000F58F0D00019BC0B240EA0320019075E7F8
:108FA000029BC0B240EA032002906FE7039BC0B26D
:108FB00040EA0320039069E7049BC0B240EA032023
:108FC000049063E7059BC0B240EA032005905DE78B
:108FD000069BC0B240EA0323069357E7C3B2079843
:108FE00043EA0023079351E7C3B2089843EA0023FA
:108FF00008934BE7C3B2099843EA0023099345E776
:109000003C4620460BB0F0BD38B590F82C300446F5
:109010000D460BB1FFF7E8FE012384F82C3063689E
:109020002B60A3686B60E368AB602369EB6038BDBD
:1090300038B590F82D3004460D460BB1FFF7D4FE3D
:10904000012384F82D3063692B60A3696B60E369A9
:10905000AB60236AEB60636A2B6138BD10B5FF20FB
:109060000C46631ADBB29A4211D914F8013B5840FE
:10907000082310F0800F03F1FF334FEA400018BFC0
:1090800080F0310013F0FF03C0B2F2D1E9E710BD68
:109090002DE9F3410F46161215468DF8052001A95A
:1090A000022204468DF80460FFF7D8FF692180464C
:1090B000206802F0A5F9390A2068FFF7BFF8F9B275
:1090C0002068FFF7BBF831462068FFF7B7F8E9B230
:1090D0002068FFF7B3F82068036841469B6898470B
:1090E000206802F094F9B0FA80F0400902B0BDE8BF
:1090F000F0814FF440721021FFF7CABF10B504464B
:109100000160084602F058F92046BDE81040FFF71C
:10911000F0BF00F0F9B84FF0FF33C0F840327047AD
:1091200070B5054600F0C2F800240646281924222E
:10913000002109F052F92E512434B4F5107FF5D1F5
:109140000023C5F8403270BDD0F840320F2B08DC48
:109150000023242202FB0301496829B10133102BAB
:10916000F8D14FF0FF307047184670472DE9F843AB
:109170009846D0F84032002B05468946174601DA5A
:10918000FFF7CEFF2846FFF7DFFF041E1ADBCFB143
:1091900024266643AB199DF820201A73099A5A6158
:1091A0000122C3F810905F60C3F808801A7700F0BE
:1091B0007DF8A851D5F840320133C5F84032204639
:1091C000BDE8F8834FF0FF30BDE8F88307B5002312
:1091D00001930093FFF7CAFF03B05DF804FB0F296A
:1091E00038B5044613D8D0F8403283B1242202FBAC
:1091F00001F52844436853B1002109F0EEF800F06E
:1092000055F86051D4F84032013BC4F8403238BDC3
:109210002DE9F041054605F5117700F047F80126E4
:109220002B1D4FF0000E4FF0020C1A68C3F81CE023
:10923000E2B153F8048CDC68C8EB0002A24215D3FB
:10924000B2FBF4F104FB018243F8042C1A7E6AB1EC
:10925000196909B9DE6109E05A69914206D90132FA
:109260009142DE615A6198BFC3F81CC02433BB42EF
:10927000DBD12C460026236A6BB1227B636812B1D6
:10928000A068984700E09847236A022B03D1314633
:109290002846FFF7A4FF0136102E04F12404EAD17A
:1092A000BDE8F08100F030B801F066B900F0ACB86C
:1092B00000F02AB870477047704700007F289ABFB7
:1092C000024B53F820000020704700BF88640E0056
:1092D0007F289ABF024B53F820000020704700BF40
:1092E00088620E0000F010B808B5024B1B689B683E
:1092F000019308BD6802030008B5024B1B68DB68D8
:10930000019308BD6802030008B5024B1B681B6887
:10931000019308BD2C02030008B5024B1B685B6873
:10932000019308BD2C02030008B5024B1B689B6823
:10933000019308BD2C02030008B5024B1B68DB68D3
:10934000019308BD2C02030008B5024B1B681B6982
:10935000019308BD2C02030008B5024B1B685B6932
:10936000019308BD2C02030008B5024B1B689B69E2
:10937000019308BD2C02030008B5024B1B68DB6992
:10938000019308BD2C02030008B5024B1B689B6AC1
:10939000019308BD2C02030008B5024B1B681B6B30
:1093A000019308BD2C02030008B5024B1B689B6F9C
:1093B000019308BD2C02030008B5024B1B685B69D2
:1093C000019308BD3002030008B5024B1B68DB693E
:1093D000019308BD3002030008B5024B1B681B6AED
:1093E000019308BD3002030008B5024B1B685B699E
:1093F000019308BD6C02030008B5024B1B685B6853
:10940000019308BD1802030008B5024B1B685B6995
:10941000019308BD1802030008B5024B1B68DB6905
:10942000019308BD1802030008B5024B1B689B6D31
:10943000019308BD1802030008B5024B1B689B6E20
:10944000019308BD3402030008B5024B1B68DB6EB4
:10945000019308BD3402030008B5024B1B689B68EA
:10946000019308BD4802030008B5024B1B681B6945
:10947000019308BD4802030008B5024B1B685B69F5
:10948000019308BD4802030008B5024B1B681B6B23
:10949000019308BD4802030008B5024B1B685B6CD2
:1094A000019308BD4802030008B5024B1B685B69C5
:1094B000019308BD6402030008B5024B1B681B6AD8
:1094C000019308BD6402030008B5024B1B689B6A48
:1094D000019308BD6402030008B5024B1B681B68BA
:1094E000019308BD3C02030008B5024B1B68DB6812
:1094F000019308BD3C02030008B5024B1B681B69C1
:10950000019308BD3C02030008B5024B1B685B6970
:10951000019308BD3C02030008B5024B1B689B6920
:10952000019308BD3C02030008B5024B1B68DB69D0
:10953000019308BD3C02030008B5024B1B681B6A7F
:10954000019308BD3C02030008B5024B1B689B6AEF
:10955000019308BD3C02030008B5024B1B68DB6A9F
:10956000019308BD3C02030008B5024B1B681B6851
:10957000019308BD2802030008B5024B1B68DB6895
:10958000019308BD2802030008B5024B1B681B6944
:10959000019308BD2802030008B5024B1B685B69F4
:1095A000019308BD2802030008B5024B1B689B69A4
:1095B000019308BD2802030008B5024B1B68DB6954
:1095C000019308BD2802030008B5024B1B681B6A03
:1095D000019308BD2802030008B5024B1B685B6AB3
:1095E000019308BD2802030008B5024B1B689B6A63
:1095F000019308BD2802030008B5024B1B68DB6A13
:10960000019308BD2802030008B5024B1B681B6BC1
:10961000019308BD2802030008B5024B1B685B6B71
:10962000019308BD2802030008B5024B1B681B6CA0
:10963000019308BD2802030008B5024B1B685B6C50
:10964000019308BD2802030008B5024B1B689B6C00
:10965000019308BD2802030008B5024B1B68DB6CB0
:10966000019308BD2802030008B5024B1B689B69E3
:10967000019308BD3802030008B5024B1B68DB6983
:10968000019308BD3802030008B5024B1B681B6A32
:10969000019308BD3802030008B5024B1B689B6AA2
:1096A000019308BD3802030008B5024B1B681B6B11
:1096B000019308BD3802030008B5024B1B689B6B81
:1096C000019308BD3802030008B5024B1B685B6CB0
:1096D000019308BD7402030008B5024B1B681B68A8
:1096E000019308BD4C02030008B5024B1B685B6880
:1096F000019308BD4C02030008B5024B1B681B69AF
:10970000019308BD4C02030008B5024B1B685B695E
:10971000019308BD4C02030008B5024B1B689B690E
:10972000019308BD4C02030008B5024B1B68DB69BE
:10973000019308BD4C02030008B5024B1B681B6A6D
:10974000019308BD4C02030008B5024B1B681B6D5A
:10975000019308BD6002030008B5034B1B68D3F8F2
:109760008030019308BD00006002030008B5024B81
:109770001B681B68019308BD2002030008B5024B5B
:109780001B685B68019308BD2002030008B5024B0B
:109790001B685B69019308BD2002030008B5024BFA
:1097A0001B689B69019308BD2002030008B5024BAA
:1097B0001B68DB6A019308BD2002030008B5024B59
:1097C0001B68DB6C019308BD2002030008B5024B47
:1097D0001B685B6D019308BD2002030008B5024BB6
:1097E0001B689B6D019308BD2002030008B5024B66
:1097F0001B68DB6F019308BD2002030008B5034B13
:109800001B68D3F88830019308BD000020020300D4
:1098100008B5034B1B68D3F89430019308BD0000D2
:109820002002030008B5024B1B685B68019308BD6A
:109830004002030008B5024B1B689B68019308BDFA
:109840004002030008B5024B1B68DB68019308BDAA
:109850004002030008B5024B1B681B69019308BD59
:109860004002030008B5024B1B685B69019308BD09
:109870004002030008B5024B1B689B69019308BDB9
:109880004002030008B5024B1B68DB69019308BD69
:109890004002030008B5024B1B681B6A019308BD18
:1098A0004002030008B5024B1B681B6B019308BD07
:1098B0004002030008B5024B1B685B6B019308BDB7
:1098C0004002030008B5024B1B689B68019308BD6A
:1098D0004402030008B5024B1B68DB68019308BD16
:1098E0004402030008B5024B1B685B69019308BD85
:1098F0004402030008B5024B1B681B6A019308BDB4
:109900004402030008B5024B1B685B6A019308BD63
:109910004402030008B5024B1B681B6B019308BD92
:109920004402030008B5024B1B68DB6B019308BDC2
:109930004402030008B5024B1B681B68019308BD75
:109940001C02030008B5024B1B685B68019308BD4D
:109950001C02030008B5024B1B689B68019308BDFD
:109960001C02030008B5024B1B681B69019308BD6C
:109970001C02030008B5024B1B689B69019308BDDC
:109980001C02030008B5024B1B68DB69019308BD8C
:109990001C02030008B5024B1B681B6A019308BD3B
:1099A0001C02030008B5024B1B685B6A019308BDEB
:1099B0001C02030008B5024B1B68DB6A019308BD5B
:1099C0001C02030008B5024B1B681B6B019308BD0A
:1099D0001C02030008B5024B1B68DB6B019308BD3A
:1099E0001C020300002211464068FFF753BF00220B
:1099F00011464068FFF75EBF00224068FFF752BF84
:109A0000002281F001014068FFF73CBF00231A46A5
:109A100019464068FFF72EBF00231A4619464068D2
:109A2000FFF720BF002211464068FFF713BF002256
:109A300011464068FFF7FEBE002202214068FFF792
:109A400001BF00231A464068FFF7ECBE024B032219
:109A50005A60024A1A6070472CE2032090660E009A
:109A60000A680B46926801461846104770B50E4CBE
:109A700004601C2444609DF814409DF8106004F0BC
:109A8000030444EA86040025E4B204744274857435
:109A90004161427C85600F2A08BF044BC56006BF48
:109AA0008361C061038370BD24590E00619A0D006B
:109AB000704710B51021044602F0E9F9204610BDA8
:109AC00070B5084B0360044600250E4640F80C5F55
:109AD000FFF7DAFC30462671FFF776FCA5602046DA
