:02000002D0002C
:1040000000400D00F8780E00000006000C000501CD
:0840100004017D050000000021
:04401800A4590E0099
:1040200009480A49884208B505D0094A824202D0A7
:10403000121A0EF017FB0748074A0021121A0EF059
:104040001CFB014808BD00BFD4D5032080770E00BB
:1040500024D7032028D70320F4E7032070B506F007
:1040600037FD074C074BE41AA40800251E46A5425D
:1040700004D056F8253098470135F8E770BD00BFE9
:1040800080770E001C770E0003F068BC08B503F0C3
:104090006BFFBDE8084006F0E9BC05F009BE05F07D
:1040A0000FBE05F00DBE0078B0FA80F040097047F1
:1040B00001230370704700009FED010B704700BFA4
:1040C000182D4454FB2109409FED010B704700BFA0
:1040D0006957148B0ABF054008B551EC100B53EC1F
:1040E000112B0DF073FC41EC100B08BD08B551EC21
:1040F000100B53EC112B0DF067FC41EC100B08BDBD
:1041000008B551EC100B53EC112B0DF011FE41ECE6
:10411000100B08BD08B551EC100B53EC112B0DF032
:1041200031FF41EC100B08BD51EC100B10EE102AC2
:1041300001F1004343EC102B7047B0EE410AF0EE62
:10414000610A70470000000008B551EC100B53ECF9
:10415000112B0EF07DF810B99FED030B08BD9FEDFC
:10416000040B08BDAFF30080000000000000000059
:10417000000000000000F03F08B551EC100B53ECBC
:10418000112B0EF05BF810B99FED030B08BD9FEDEE
:10419000040B08BDAFF30080000000000000000029
:1041A000000000000000F03F08B551EC100B53EC8C
:1041B000112B0EF02FF810B99FED030B08BD9FEDEA
:1041C000040B08BDAFF300800000000000000000F9
:1041D000000000000000F03F08B551EC100B53EC5C
:1041E000112B0EF021F810B99FED030B08BD9FEDC8
:1041F000040B08BDAFF300800000000000000000C9
:10420000000000000000F03F08B551EC100B53EC2B
:10421000112B0DF0F5FF10B99FED030B08BD9FEDBD
:10422000040B08BDAFF30080000000000000000098
:10423000000000000000F03F08B551EC100B53ECFB
:10424000112B0DF0DDFF10B19FED030B08BD9FEDAD
:10425000040B08BDAFF30080000000000000000068
:10426000000000000000F03F07B50023002251ECE1
:10427000100B8DED001B0DF0C3FF58B99DED001B19
:104280000022002351EC110B0DF0BAFFB0FA80F0C0
:10429000400900E000200DF0E5FC41EC100B03B0FC
:1042A0005DF804FB07B50023002251EC100B8DEDE7
:1042B000001B0DF0A5FF58B19DED001B002200234F
:1042C00051EC110B0DF09CFFB0FA80F0400900E0BA
:1042D00001200DF0C7FC41EC100B03B05DF804FBAE
:1042E00008B50022002351EC100B0DF089FF10B926
:1042F0009FED030B08BD9FED040B08BDAFF30080DD
:104300000000000000000000000000000000F03F7E
:1043100008B50022002351EC100B0DF071FF10B115
:104320009FED030B08BD9FED040B08BDAFF30080AC
:104330000000000000000000000000000000F03F4E
:1043400008B50022002351EC100B0DF059FF00308E
:1043500018BF012040420DF085FC41EC100B08BD58
:1043600008B50022002351EC100B0DF049FFB0FA04
:1043700080F0400940420DF075FC41EC100B08BD87
:104380002DE9F84310F0180718BF00F007074FEAAF
:10439000870910F0100F14BF0423002309F114063D
:1043A0001E4404463046884605F082FC3246002111
:1043B00005460EF062F947B1B8F1000F05D04A4644
:1043C000414605F110000EF04DF900232C60AB6062
:1043D0002846BDE8F883000038B555EC104B0022A4
:1043E000002310EE100A29460DF014FFE0B914A3C3
:1043F000D3E90023204629460DF02AFFB8B9294603
:1044000020460DF06DFF01231A464FF0FF31984210
:1044100006D3B1FBF2F49C4209D35A430133F6E7C9
:1044200010460DF00FFC04E00020034901E00349B1
:10443000002041EC100B38BD0000F87F0000F07F39
:104440000000E0FFFFFFEF41F8B555EC104B0022F4
:10445000002310EE100A294657EC116B0DF0DAFE1E
:1044600000283FD100220023304639460DF0D2FE0D
:10447000C0BB32463B46204629460DF0CBFE88BBEA
:104480001FA3D3E90023204629460DF0E1FE60BBBF
:104490001BA3D3E90023304639460DF0D9FE20BBDB
:1044A000294620460DF01CFF3946044630460DF0E3
:1044B00017FFB0EB540F88BF201A01231A46241AA5
:1044C0004FF0FF35904209D3A118B5FBF1F69E429B
:1044D0000BD34B43B3FBF2F30132F3E718460DF075
:1044E000B1FB04E00020044901E00449002041EC54
:1044F000100BF8BDAFF300800000F87F0000F07FE4
:104500000000E0FFFFFFEF4100B52DED028BB0EEA4
:10451000418AF0EE618A83B0FFF796FF51EC100BF1
:10452000B0EE480AF0EE680ACDE90001FFF754FF4B
:10453000DDE9000153EC102B0DF0FAFB41EC100B00
:1045400003B0BDEC028B5DF804FB10B5044630B13E
:1045500000F006F82046BDE8104005F0B1BB10BDE4
:1045600010B5044630B3036803F01F03093B0E2B5C
:1045700020D8DFE803F01A1714110E0B081F1A17C2
:1045800014110E0B0800806AFFF7DFFF606AFFF767
:10459000DCFF206AFFF7D9FFE069FFF7D6FFA069CB
:1045A000FFF7D3FF6069FFF7D0FF2069BDE8104037
:1045B000FFF7CBBF10BD00002DE9F74F1823DFF840
:1045C00070B28360044665682B7813B91A23A36020
:1045D0000CE1A3F13002092A01D92E2B07D1211DAC
:1045E00028460FF059FE1E2384ED040BF3E0613BD7
:1045F000192B5AD863681A78A2F16101192902D8D7
:1046000001336360F6E7A2F130010929F8D95F2A86
:10461000F6D0E669C5EB03087EB1276A77B1D6F814
:1046200000904246494628460EF0F0FF10B919F8AE
:1046300008302BB31036013FF0E737464FF0170A2A
:10464000C7EB0A0907EB69094FEA09130BEB0306ED
:104650005BF8033001934246194628460EF0D6FF18
:10466000002840F0BE80019B13F808301BB9002ED3
:1046700000F0B08004E009F1FF3A5745E0DDA9E021
:10468000B36803F01F030F2B06DC082B09DA002B9D
:1046900040F0A2801F2305E0172B00F39D80F368F4
:1046A000A361B368A36073683DE06A1C62602B7805
:1046B0002A2B3ED01ED8212B43D00CD80D2B00F036
:1046C0008B8004D8093B012B40F2868082E0202BAE
:1046D00000F082807EE0262B66D005D8252B79D18C
:1046E0002023A360434B1EE0282B6FD0292B71D1D0
:1046F0001D2370E03C2B3BD00AD82C2B68D00FD365
:104700002D2B12D02F2B65D12023A3603A4B0AE02A
:104710003E2B3BD023D35E2B0FD07C2B4DD059E0CA
:104720002023A360354B236156E02023A360344B44
:10473000F9E72023A360334BF5E72023A360324B36
:10474000F1E7AB1C63606B783D2B4FF020030BBF90
:10475000A360A3602D4B626018BF2D4BE3E7AB1C39
:1047600063606B783D2B35D12023A360294BDAE7BA
:10477000AB1C63606B783D2B4FF020030BBFA36035
:10478000A360254B626018BF244BCCE7AB1C636071
:104790006B783D2B4FF020030BBFA360A360204B31
:1047A000626018BF1F4BBEE7AB1C63606B78262BA3
:1047B00010D12023A3601C4BB5E7AB1C63606B7862
:1047C0007C2B07D12023A360184BACE71C2302E00D
:1047D0001B2300E01923A360A368182B3FF4F3AE5A
:1047E00004E07FF748AF09F1010746E703B0BDE8F1
:1047F000F08F00BF11D00D0015410D00D9400D0004
:10480000ED400D0001410D0011D30D0039420D00A6
:10481000E1420D0009420D00D9410D00A9410D00F2
:1048200079410D0049410D0069420D00A5420D007E
:10483000B8590E0073B5054600F0F6F90B4E044664
:10484000AB681B2B0ED12846FFF7B6FE2846009416
:1048500000F0EAF9694601902A20FFF791FD04462D
:104860008660EDE7204602B070BD00BF3B410D0001
:104870002DE9F0410446806800F01F03083B172B28
:1048800000F28A80DFE803F01E334646464646467D
:104890001E334646464646468888888877880C16E2
:1048A00000210120FFF76CFDD4E904230546C0E98F
:1048B00002236DE000210846FFF762FD2369836053
:1048C000054665E00021FFF75BFD23698360A3686F
:1048D000D90644BFA369036105462046FFF76CFE75
:1048E000A3681C2B63D12046FFF766FE4AE0002137
:1048F000FFF746FD23698360A368DA0644BFA36916
:10490000436105462046FFF757FE204600F054F865
:1049100028614CE010F018064FF0000118BF00F0BD
:104920000706FFF72DFD23698360A368DB0642BFFE
:10493000331DA26940F8232005462046FFF73CFEC0
:10494000A3681C2B21D105F10C080027B7420AD01F
:104950002046FFF731FE204600F066F948F8040FC4
:10496000A3681B2B05D0A3681D2B0ED1013EBE42B0
:104970000AE00137EAE72046FFF71EFE2046FFF770
:1049800059FF0546A3681D2B02D01923A3600EE032
:104990002046FFF711FE0AE000210846FFF7F0FC71
:1049A0001923A360034B0022C0E9022305462846D1
:1049B000BDE8F0810000F87F2DE9F043394F3A4D12
:1049C00087B004460126A368202B02D0012E44D1D3
:1049D00027E02369DFF8CC80BB4203D12046FFF7F4
:1049E000EBFDF0E7AB42DFF8C09001D17642F5E78E
:1049F0002E4F0025A368202B10D12369434503D1F6
:104A00002046FFF7D9FDF5E74B45F9D0BB4205D16C
:104A10000DB16D42F4E74FF0FF35F1E7012E1BD1E8
:104A20001DB92046FFF724FF39E00135204609D1A2
:104A3000FFF71EFF06A941F8140D2920FFF7A0FC7F
:104A40001A4B2BE0FFF714FF06A941F8100D29209F
:104A5000FFF796FC164B21E055B92046FFF708FFFB
:104A600006A941F80C0D2920FFF78AFC114B15E02F
:104A70000135204609D1FFF7FBFE06A941F8080DD4
:104A80002920FFF77DFC0C4B08E0FFF7F1FE06A99B
:104A900041F8040D2920FFF773FC084B836007B031
:104AA000BDE8F083D9400D00ED400D00E1420D005E
:104AB00011430D0029410D0041430D0061430D00DC
:104AC00073B50546FFF778FF0C4E0446AB68202B04
:104AD00011D12B69B3420ED12846FFF76DFD284650
:104AE0000094FFF769FF694601902A20FFF748FC10
:104AF00004468660EAE7204602B070BD11D30D007F
:104B00002DE9F7430646FFF7DBFFDFF84880DFF8C3
:104B100048900F4F0446B368202B15D135694545A1
:104B20000ED13046FFF748FD30460094FFF7C8FF2E
:104B3000694601902A20FFF723FC04468560EAE7D6
:104B40004D45EED0BD42ECD0204603B0BDE8F08329
:104B500011D00D0001410D0015410D002DE9F3416B
:104B60000546FFF7CDFFDFF840800E4F0446AB68E7
:104B7000202B13D12E6946450ED12846FFF71CFD88
:104B800028460094FFF7BCFF694601902A20FFF7F2
:104B9000F7FB04468660EAE7BE42EED0204602B04C
:104BA000BDE8F081ED400D00D9400D002DE9F7433F
:104BB0000646FFF7D3FF164FDFF86480DFF86490F6
:104BC0000546B368202B1ED13469BC420ED1304655
:104BD000FFF7F2FC30460095FFF7C0FF69460190F1
:104BE0002A20FFF7CDFB05468460EAE74445EED076
:104BF0004C45ECD0074B9C42E9D0074B9C42E6D099
:104C0000064B9C42E3D0284603B0BDE8F08300BFCA
:104C100049410D00D9410D0009420D0039420D00F6
:104C200079410D00A9410D002DE9F3410546FFF73B
:104C3000BDFFDFF840800E4F0446AB68202B13D138
:104C40002E6946450ED12846FFF7B6FC284600944B
:104C5000FFF7ACFF694601902A20FFF791FB04465D
:104C60008660EAE7BE42EED0204602B0BDE8F081A1
:104C7000A5420D0069420D0070B504462DED0C8B68
:104C8000002800F0D182036803F01F020F2A08DC1D
:104C9000082A0EDA4AB1012A40F0C68290ED020BD2
:104CA000C4E2172A40F35B81BEE2836893ED000BF8
:104CB000BCE213F0180F85680DD003F00703013B29
:104CC000062B08D8DFE813F00D0016002E00510067
:104CD0007F00B800FC00BDEC0C8B2B46BDE870409B
:104CE00018470069FFF7C8FFBDEC0C8B2B46BDE8E9
:104CF000704018470069FFF7BFFF6069B0EE408A57
:104D0000F0EE608AFFF7B8FFB0EE401AF0EE601ADE
:104D1000B0EE480AF0EE680ABDEC0C8B2B46BDE8FD
:104D2000704018470069FFF7A7FF6069B0EE408A3E
:104D3000F0EE608AFFF7A0FFA069B0EE409AF0EEB7
:104D4000609AFFF799FFB0EE491AF0EE691AB0EEDB
:104D5000402AF0EE602AB0EE480AF0EE680ABDEC98
:104D60000C8B2B46BDE8704018470069FFF784FFA5
:104D70006069B0EE408AF0EE608AFFF77DFFA069BF
:104D8000B0EE409AF0EE609AFFF776FFE069B0EE81
:104D900040AAF0EE60AAFFF76FFFB0EE4A2AF0EEED
:104DA0006A2AB0EE491AF0EE691AB0EE403AF0EE17
:104DB000603AB0EE480AF0EE680ABDEC0C8B2B4668
:104DC000BDE8704018470069FFF756FF6069B0EE14
:104DD000408AF0EE608AFFF74FFFA069B0EE409A7C
:104DE000F0EE609AFFF748FFE069B0EE40AAF0EEFF
:104DF00060AAFFF741FF206AB0EE40BAF0EE60BA59
:104E0000FFF73AFFB0EE4B3AF0EE6B3AB0EE4A2ABB
:104E1000F0EE6A2AB0EE404AF0EE604AB0EE491A6F
:104E2000F0EE691AB0EE480AF0EE680ABDEC0C8BA1
:104E30002B46BDE8704018470069FFF71DFF606909
:104E4000B0EE408AF0EE608AFFF716FFA069B0EE80
:104E5000409AF0EE609AFFF70FFFE069B0EE40AACB
:104E6000F0EE60AAFFF708FF206AB0EE40BAF0EE5D
:104E700060BAFFF701FF606AB0EE40CAF0EE60CAA8
:104E8000FFF7FAFEB0EE4C4AF0EE6C4AB0EE4B3A49
:104E9000F0EE6B3AB0EE405AF0EE605AB0EE4A2AAD
:104EA000F0EE6A2AB0EE491AF0EE691AB0EE480A3E
:104EB000F0EE680ABDEC0C8B2B46BDE8704018473D
:104EC0000069FFF7D9FE6069B0EE408AF0EE608AB3
:104ED000FFF7D2FEA069B0EE409AF0EE609AFFF7BD
:104EE000CBFEE069B0EE40AAF0EE60AAFFF7C4FE88
:104EF000206AB0EE40BAF0EE60BAFFF7BDFE606A1D
:104F0000B0EE40CAF0EE60CAFFF7B6FEA06AB0EE9F
:104F100040DAF0EE60DAFFF7AFFEB0EE4D5AF0EE99
:104F20006D5AB0EE4C4AF0EE6C4AB0EE406AF0EECC
:104F3000606AB0EE4B3AF0EE6B3AB0EE4A2AF0EE11
:104F40006A2AB0EE491AF0EE691AB0EE480AF0EE9D
:104F5000680ABDEC0C8B2B46BDE87040184713F077
:104F6000180F85680DD003F00703013B062B08D806
:104F7000DFE813F00E001900330058008800C3006A
:104F80000901BDEC0C8B20692B46BDE87040184729
:104F900046690069FFF770FEBDEC0C8B30462B466E
:104FA000BDE87040184786690069FFF765FE6069D3
:104FB000B0EE408AF0EE608AFFF75EFEB0EE401A77
:104FC000F0EE601AB0EE480AF0EE680ABDEC0C8B09
:104FD00030462B46BDE870401847C6690069FFF7A8
:104FE0004BFE6069B0EE408AF0EE608AFFF744FE47
:104FF000A069B0EE409AF0EE609AFFF73DFEB0EE89
:10500000491AF0EE691AB0EE402AF0EE602AB0EECE
:10501000480AF0EE680ABDEC0C8B30462B46BDE822
:1050200070401847066A0069FFF726FE6069B0EE17
:10503000408AF0EE608AFFF71FFEA069B0EE409A4A
:10504000F0EE609AFFF718FEE069B0EE40AAF0EECD
:1050500060AAFFF711FEB0EE4A2AF0EE6A2AB0EE1F
:10506000491AF0EE691AB0EE403AF0EE603AB0EE4E
:10507000480AF0EE680ABDEC0C8B30462B46BDE8C2
:1050800070401847466A0069FFF7F6FD6069B0EEA8
:10509000408AF0EE608AFFF7EFFDA069B0EE409A1B
:1050A000F0EE609AFFF7E8FDE069B0EE40AAF0EE9E
:1050B00060AAFFF7E1FD206AB0EE40BAF0EE60BAF8
:1050C000FFF7DAFDB0EE4B3AF0EE6B3AB0EE4A2A5B
:1050D000F0EE6A2AB0EE404AF0EE604AB0EE491AAD
:1050E000F0EE691AB0EE480AF0EE680ABDEC0C8BDF
:1050F00030462B46BDE870401847866A0069FFF7C6
:10510000BBFD6069B0EE408AF0EE608AFFF7B4FD47
:10511000A069B0EE409AF0EE609AFFF7ADFDE0694D
:10512000B0EE40AAF0EE60AAFFF7A6FD206AB0EE4E
:1051300040BAF0EE60BAFFF79FFD606AB0EE40CA79
:10514000F0EE60CAFFF798FDB0EE4C4AF0EE6C4A04
:10515000B0EE4B3AF0EE6B3AB0EE405AF0EE605AD9
:10516000B0EE4A2AF0EE6A2AB0EE491AF0EE691A59
:10517000B0EE480AF0EE680ABDEC0C8B30462B46C8
:10518000BDE870401847C66A0069FFF775FD6069A1
:10519000B0EE408AF0EE608AFFF76EFDA069B0EED7
:1051A000409AF0EE609AFFF767FDE069B0EE40AA22
:1051B000F0EE60AAFFF760FD206AB0EE40BAF0EEB4
:1051C00060BAFFF759FD606AB0EE40CAF0EE60CAFF
:1051D000FFF752FDA06AB0EE40DAF0EE60DAFFF7BA
:1051E0004BFDB0EE4D5AF0EE6D5AB0EE4C4AF0EE7B
:1051F0006C4AB0EE406AF0EE606AB0EE4B3AF0EE08
:105200006B3AB0EE4A2AF0EE6A2AB0EE491AF0EE96
:10521000691AB0EE480AF0EE680ABDEC0C8B304615
:105220002B46BDE8704018479FED030BBDEC0C8B7F
:1052300070BD00BFAFF30080000000000000F87FE9
:10524000F8B52DED028B0268012A044627D9930692
:1052500025D512F0180318BF02F00703033300F13D
:105260000C0600EB83050127AE4209D056F8040F67
:10527000FFF7E6FF33681B68012B18BF0027F3E731
:105280006FB12046FFF7F8FC2046B0EE408AF0EE02
:10529000608AFFF765F984ED028B01232360BDEC82
:1052A000028BF8BD30B58BB01D460190009068466A
:1052B00007910892FFF780F96846FFF7BBFA029B57
:1052C0001A2B04460DD0FFF740F90DB900200EE06F
:1052D0009DE80500101A01D02860F7E701232B6034
:1052E00005E0FFF7ADFF0DB100232B6020460BB0AA
:1052F00030BD7047014B01221A7070470CDF03204C
:1053000010B506F05FF85B2104F0F2FF06F05AF8E2
:10531000044604F087F90A220146204605F021F8E8
:1053200006F050F80249BDE8104004F0DDBF00BFB0
:10533000235C0E0038B5064D002404F160002844BB
:10534000103C04F01BFE14F1700FF6D138BD00BF05
:1053500078D7032010B508460DF071F8084C094BBA
:10536000206001221A7006F02DF8074904F0BCFFF6
:1053700006F028F821680A22BDE8104005F042B87E
:105380001CD60320DCE10320265C0E0010B5054B83
:1053900000220446114640F8043B04F0A3FB2046DB
:1053A00010BD00BFC45B0E0010B50446FFF7EEFF52
:1053B0002046202106F0BBFE204610BDF8B504466D
:1053C0000E461746FFF79CFF05F0FCFF214604F050
:1053D0008BFF37440124BE4228D016F8015BA5F1AB
:1053E00020035E2B0BD824B905F0ECFF5D2104F0FF
:1053F0007FFF05F0E7FF294604F07AFFEAE705F0B2
:10540000E1FF002C14BF5B217C2104F071FF0F2D04
:1054100004D805F0D7FF302104F06AFF05F0D2FF71
:105420001022294604F0AAFF0024D4E724B905F08D
:10543000C9FF5D2104F05CFF05F0C4FFBDE8F84042
:1054400004F059BF00221146406804F0C1BB00239C
:105450001A461946406804F0C3BB000008B504F0C2
:1054600091F9034B1860BDE8084004F0E9BB00BFA8
:1054700010E6032003682BB14268934202D218461B
:105480000CF0DDBF0020704738B50568044645B113
:1054900043689D4205D228460EF0B0F8013005441D
:1054A0002560204638BDF8B504460F46466821B948
:1054B0000368721C42609955F8BD08460EF09EF8CC
:1054C000A368451CAA199A4208D820682A4639467A
:1054D00030440DF0C7F863681D446560F8BD0000F6
:1054E00070B504464068A6682568054A0B46311A1F
:1054F000284404F005FC636801301844606070BD06
:105500003E5C0E0070B504464068A6682568054AF2
:105510000B46311A284404F0F3FB63680130184449
:10552000606070BD415C0E00F0B5476B87B004460B
:10553000EFB1FFF7E5FE05F045FF2F4904F0D4FE7B
:1055400005F040FF616B04F0CFFE05F03BFF3A2110
:1055500004F0CEFE05F036FF218F0A2204F052FF40
:105560000023228F616B204606F09CF93FE0FFF795
:10557000C7FE05F027FF204904F0B6FE05F022FF24
:105580000A2294F8231004F0F9FE05F01BFF2E21E7
:1055900004F0AEFE05F016FF0A2294F8221004F083
:1055A000EDFE05F00FFF2E2104F0A2FE254605F0CA
:1055B00009FF0A2294F8211004F0E0FE05F002FF32
:1055C0002E2104F095FE05F0FDFE0A2215F8201F9D
:1055D00004F0D6FE094B00930FCD01AE0FC62B6829
:1055E0003370228F3B466946204606F0DDF9431EA4
:1055F0005842584107B0F0BD455C0E00FC6B0E00F0
:1056000070B54160044616461D4604F00BF8A0F53F
:105610009C5008382061E0606061FFF771FE05F082
:10562000D1FE034904F073FE21684E630D8770BDFF
:10563000545C0E002DE9F04F92468FB09946064615
:105640001D4688460124C9EB05039A457BD918F805
:10565000017B06F047FD394605F050FF06F042FD9C
:1056600005F057FF78BB05F0ADFE3949834602A827
:1056700004F0CBFC314602A804F066FD354904F085
:105680006FFD354904F06CFD10220190394606A8E3
:1056900004F01EFD019B06A9184604F055FD0146C5
:1056A0000AA804F0F1FC0A99584604F030FE0AA852
:1056B00004F064FC06A804F061FC02A804F05EFC9F
:1056C00001232B703CE006F00DFD05F029FF06F0EC
:1056D00009FD394605F012FF06F004FD05F019FF3B
:1056E0000028C0D005F06EFE1949044602A804F057
:1056F0008CFC314602A804F027FD184904F030FD67
:10570000154904F02DFD10228346394606A804F001
:10571000DFFC06A9584604F017FD01460AA804F06C
:10572000B3FC0A99204604F0F2FD0AA804F026FC16
:1057300006A804F023FC002402A804F01FFC2C702F
:10574000103601357FE720460FB0BDE8F08F00BF6F
:10575000E25C0E00FA5C0E00EA5C0E00F65C0E00E5
:1057600040F21C43024A0348002103F013B900BF72
:10577000D8DA032060D7032040F21C43024A0348D2
:10578000002103F0BBB800BFD8DA032060D70320A4
:1057900007B500220221154803F0F6F90022032183
:1057A000124803F0F1F906F09DFC05F0B5FE18B9BA
:1057B00006F098FC05F088FE05F004FE0C4904F0A4
:1057C000A6FD0C4800231A461946406804F010FA5A
:1057D00041F2883005F0ACF8074B00221B6801212C
:1057E000684604F051FB03B05DF804FBF4DE0320CF
:1057F000425D0E00E0E5032068DF032008B5054B9D
:1058000000221A7005F0DEFD0349BDE8084004F0EF
:105810007EBD00BF9CDA0320565D0E001FB50968EF
:10582000684604F0F2FB684604F0EDFC0099054878
:105830000DF0ACF9FFF794FF684604F09FFB05B04C
:105840005DF804FBE8DB03201FB50968684604F037
:10585000DCFB684604F0D7FC009905480DF096F98A
:10586000FFF77EFF684604F089FB05B05DF804FB96
:10587000E8DC03201FB50968684604F0C6FB6846EB
:1058800004F0C1FC009905480DF080F9FFF768FFAE
:10589000684604F073FB05B05DF804FBE8DD032007
:1058A00008B508680CF0C8FD51EC100B0CF038FD81
:1058B000024B1860BDE80840FFF752BFE8DE032046
:1058C00008B508680CF0BBFD034B01280CBF002293
:1058D00001221A7008BD00BF9DDA032008B50868D0
:1058E0000CF0ADFD034BC3F81804BDE80840FFF70A
:1058F00037BF00BFD8DA032008B5074B1A78074B2B
:1059000093F81414914205D083F81424FFF728FF6C
:10591000012008BD002008BD2CE20320D8DA0320B6
:1059200008B5074B1A78074B93F81514914205D028
:1059300083F81524FFF714FF012008BD002008BDDF
:105940000EDF0320D8DA032008B5074B1A78074B7F
:1059500093F81614914205D083F81624FFF700FF40
:10596000012008BD002008BD0DDF0320D8DA032088
:1059700038B5046805467CB16368013B63605BB978
:10598000236820469B689847A368013BA3601BB926
:1059900023682046DB689847284638BD1FB5164B5C
:1059A000D3F81824154B013A032A15D8DFE802F082
:1059B0001402080E1B788DF80030114A3C2310E0C9
:1059C0001B788DF800300F4A3C230AE01B788DF8D5
:1059D00000300D4A3C2304E01B780C4A8DF800305F
:1059E0003C230B4902A805F0CFF903A8FFF7C0FF3D
:1059F00005B05DF804FB00BFD8DA032074D703209C
:105A0000B25D0E00C25D0E00D25D0E00A15D0E0003
:105A100075650E0010B5044B044640F8183BFFF7BF
:105A2000A7FF204610BD00BFE86C0E0008B500239C
:105A30004377006806F032F8BDE8084003F0FABD8D
:105A40002DE9F0418E188EB0B14280460D461746C2
:105A50000591069680F03D810B88ADF8123005A8BF
:105A6000FFF712FD03689E4240F2338105980378E8
:105A7000412B12D101300CF0E2FC052801DDFF249E
:105A80000FE0059801300CF0DAFC0028F7DB0598F0
:105A900001300CF0D4FC0E3002E005A8FFF7EAFC60
:105AA000C4B2BDF8123047F27622934200F0B780BC
:105AB0000DD847F2612293427DD047F2642293428F
:105AC00051D046F67052934240F0D48027E047F21E
:105AD0006472934259D047F27672934200F0B080DC
:105AE00047F26172934240F0C58085E00378412B14
:105AF00025D101300CF0A3FC052814DDFF2405A8F6
:105B0000FFF7C2FC059D744928460DF035F80146A3
:105B1000D0B9204606F04AFA05A8FFF7B5FC05986B
:105B20008642E3D8D5E0059801300CF088FC0028C7
:105B3000E4DB059801300CF082FC0E3002E005A891
:105B4000FFF798FCC4B2DAE7644928460DF014F870
:105B5000002800F0A480624928460DF00DF80028C6
:105B600000F09D809DE00AAB079307A81023002555
:105B70005C4909930895FFF796FC07A82146FFF7B3
:105B8000AFFC204606F03CFA26E005A8FFF77CFCB7
:105B900003689E4240F29D80A4B20121204606F097
:105BA00005FA05A8FFF766FC011C18BF0121204675
:105BB00006F00DFA8DE00AAB07934B49102307A8B6
:105BC000002509930895FFF76EFC07A82146FFF70B
:105BD00087FC204606F027FA014607A8FFF792FC4B
:105BE000089B0295013B0093079B01952A461421CF
:105BF000404600F05FFB6CE005A8FFF745FC03683A
:105C00009E4266D9A4B20121204606F0CFF905A82C
:105C1000FFF730FC0146204606F01CFA59E00EADB5
:105C2000204605F8104D03F007FD0346284623B132
:105C30002E4A934201D098474BE003F0F9FC48E02C
:105C400005A8FFF721FC059B0A935D1B7F1B2046DF
:105C50000B970C978DF81C4003F0F8FC03460AA93B
:105C600007A823B1224A934201D0984731E003F0BC
:105C7000E0FC2EE0FFF744FB05F0A4FB1D4904F017
:105C800033FB05F09FFB294604F041FB0023022172
:105C90000091B8F81A20029301931946A8E7012150
:105CA00037E7FFF72DFB05F08DFB134904F01CFBD4
:105CB00005F088FB0A22214604F060FB05F082FB18
:105CC0000E4904F011FB05F07DFB059904F01FFB64
:105CD00022E70EB0BDE8F0819B630E00FA5E0E0075
:105CE000E65D0E00EA5D0E00ED5D0E0031960D00E2
:105CF00033960D00F05D0E00015E0E000E5E0E008C
:105D00002DE9F0418EB004AF0446052207F10C01E5
:105D1000006804F090FC0546002800F0EB8105289F
:105D20001AD1024607F10C01B048FFF747FBB7F85C
:105D30000D20B7F80F80130A43EA02234FEA182216
:105D400042EA08289BB21FFA88F8A7F80D30A7F896
:105D50000F8093B92C4601E04FF0FF34FFF7D0FAE3
:105D600005F030FBA24904F0BFFA05F02BFB0A2234
:105D7000214604F047FB0020C1E13B7B002B5BD1B7
:105D800003F050FC657FE060B7F80F00002D4FD1A5
:105D9000B7F80D30012B4BD1092834D0C82801D0D9
:105DA000042838D1FFF7ACFA05F00CFB914904F058
:105DB0009BFA05F007FB6369E1680A22C91A04F03F
:105DC000D0FA05F0FFFA8C4904F0A1FAE3686361A8
:105DD0000123637703F028FC054660B1FFF790FAD2
:105DE00005F0F0FA854904F07FFA05F0EBFA0A2293
:105DF000294604F0D1FA204600F06CFBFFF72EFB99
:105E000000F0CCFD76E1FFF77BFA05F0DBFA7C4988
:105E100004F07DFAAFE7FFF773FA05F0D3FA79499A
:105E200004F062FA05F0CEFA0A22B7F80F10A0E7E4
:105E3000053818BF012062E1B8F5806F11D9FFF76E
:105E40005FFA05F0BFFA704904F04EFA05F0BAFAAD
:105E50000A22B7F80F1004F0D5FA2046FFF7E6FD46
:105E600048E108F1080323F007036E46ADEB030D8C
:105E700004AD42462946206804F0DDFB804507D08A
:105E8000FFF73EFA05F09EFA604904F040FA5EE042
:105E9000B7F80F200023AB541AB129465348FFF737
:105EA0008DFA03F0BFFB3B7BE060112B00F0B48068
:105EB00007D8062B31D00F2B00F08A80022B09D097
:105EC00005E1292B35D0372B00F0F180142B40F061
:105ED000FE807DE0637F03BBFFF712FA05F072FAE4
:105EE0004B4904F014FA0123637703F09DFB054648
:105EF00060B1FFF705FA05F065FA404904F0F4F9DE
:105F000005F060FA0A22294604F046FA204600F01D
:105F1000E1FAFFF7A3FA00F041FD0023C821B7F82A
:105F20000D200091029301931946204600F0C2F91A
:105F3000DDE0A3681BB9202003F0BAFEA060B7F82B
:105F40000F80FD61A8444545C7F8208001D300209B
:105F5000CEE020222946A0680DF06DFB07F11C0061
:105F6000FFF792FA0368434508D2F86920B13B6A0B
:105F70009842C0F0C180002085B200E05025FFF7B4
:105F8000BFF905F01FFA234904F0AEF905F01AFA3B
:105F9000A16804F0A9F905F015FA3A2104F0A8F96E
:105FA00005F010FA0A22294604F02CFA206805F0C0
:105FB00075FD2368A2685A631D870023637703F089
:105FC00031FBA0F59C5008382061E06060618EE0F4
:105FD000FB68C3F30F236383B7F80F2029462046DD
:105FE000FFF72EFD0023638381E000BF155E0E00E6
:105FF000175E0E00255E0E00335E0E00385E0E004A
:10600000435E0E00565E0E006D5E0E007E5E0E005C
:106010008E5E0E00945E0E0000233B71B7F80F30C9
:106020007D612B449D42BB6161D22868B86007F155
:106030001400FFF729FA7A69B7F80F30FA61511B9B
:106040005B1A3B627B62304ABB6893421DD00BD81F
:1060500002F1FD3202F10222934222D107F11C012A
:10606000381D03F0E6FA42E0284A934213D002F1C9
:106070009F6202F5003202F58072934211D107F15E
:106080001C01381DFFF7BAFB31E007F11C01381D78
:1060900003F0CFFA2BE007F11C01381D00F022FBC2
:1060A00025E0FFF72DF905F08DF9194907E0B7F85C
:1060B0000F30E3B1FFF724F905F084F9154904F036
:1060C00013F905F07FF9294604F021F90FE0FFF7F5
:1060D00017F905F077F9104904F006F905F072F99F
:1060E0000A22397B04F04CF92046FFF79FFC01207F
:1060F000B54604E0012002E00CF0A5F93CE72837A2
:10610000BD46BDE8F08100BF7274630061636F6ECD
:10611000A45E0E00BA5E0E00C35E0E002DE9FF41C4
:1061200004460D46FFF79AF9637F022B00F0A78023
:10613000237F628B0133DBB22377002A64D1022BE9
:1061400062D8206805F0D7FA40B1002D40F0998060
:10615000206805F0BBFC002800F3938003F062FA8E
:106160000746206805F0C7FA657F012D06464DD128
:1061700028B967612046FFF759FC35467BE0E368A4
:10618000484AFB1A934227D9FFF7BAF805F01AF9E3
:10619000454904F0A9F805F015F90A22394604F03A
:1061A000E0F805F00FF9414904F09EF805F00AF90E
:1061B0000A22E16804F0D5F805F004F93B4904F03F
:1061C00093F805F0FFF80A22616904F0EFF8204621
:1061D000FFF72CFC00254EE04EF66022934203D8D8
:1061E0002369FB1A93420FD9636940F6B832FB1A50
:1061F000934209D900230293019300931A46062182
:10620000204600F057F86761012534E0002DFBD1EE
:106210006169791A78B140F6B8339942F4D9FFF739
:106220006FF805F0CFF8224904F071F8206805F006
:1062300035FC65771FE041F288339942E4D9206844
:1062400005F02CFC2068FFF76FF9054608B9676177
:1062500011E0D4F804800127278340460DF0CEF9E1
:1062600043468DE8410002963A460221204600F05E
:1062700021F823696361237F013B23770EE000252A
:106280000CE02046FFF73CFD054600287FF460AF98
:10629000206805F003FC03F0CDF9ECE7284604B0D4
:1062A000BDE8F081880D0100D95E0E00ED5E0E00A4
:1062B000F05E0E002DE9F04F83B000AF0446006899
:1062C0003D6B894616469B46EA4605F014FA0028BF
:1062D00070D019F0FD0F00F0C980B9F1060F00F081
:1062E000C580637F012B65D116B9668B002E66D001
:1062F000A9F10C03082B6AD97A6BBBF1000F14BF0C
:10630000A8464FF00008002ABA6B08F1050314BF35
:1063100090464FF00008984408F1070323F0070364
:10632000AA18ADEB030DC2F3072376BA43EA0223A2
:10633000C7F804D08DF80090ADF80160ADF80330D7
:10634000BBF1000F63D0002D61D02A4659460DF1F4
:1063500005000CF087F9681D7B6B002B59D10025D7
:10636000454562D2C5EB0806B6F5806F7B6828BF4D
:106370004FF4806603EB050926B1324649463D4895
:10638000FFF71CF832464946206805F09EF906469C
:10639000002003F045F9002E45D1FEF7B1FF05F0CE
:1063A00011F8354903F0B3FF206805F077FB6677F5
:1063B00003F040F90C37D546BD46BDE8F08F238B7E
:1063C00001339BB203B901232383268B90E7E36853
:1063D0002269934238BF134603F1420803F022F9C1
:1063E000C0EB080000280ADB00212046FFF796FEDC
:1063F00003F018F9C0EB08000028F5DA7CE7217FEC
:1064000000297FF479AF2046FFF788FE74E7052066
:10641000A2E7BB6B002BA2D01A467B68796B1844AD
:106420000CF020F99BE735449AE71BD0FEF768FF94
:1064300004F0C8FF114903F057FF04F0C3FF0A221C
:10644000294603F0A7FF04F0BDFF2F2103F050FF02
:1064500004F0B8FF0A22414603F09EFF2046FFF7F2
:10646000E5FAA7E703F0DEF82061A3E7002E7FF44A
:1064700043AF3AE7FE5E0E00005F0E000A5F0E00BB
:10648000F0B5ADF2244D08AB002405460F46059348
:1064900005A84FF480630E49079316460694FFF74C
:1064A00002F8394605A8FFF71BF8314605A8FFF7A3
:1064B00017F8069B0294013B00930194059B22462A
:1064C00014212846FFF7F6FE0DF2244DF0BD00BF63
:1064D000105F0E001FB50022492300930292019223
:1064E000034B1121FFF7E6FE05B05DF804FB00BF8A
:1064F000D85B0E00F0B5ADF2344D0CAB0024054670
:106500000F46059305A84FF480631149079316467B
:106510000694FEF7C8FF394605A8FEF7E1FF3146AD
:1065200008A803F0B1FD089905A8FEF7BCFF08A86C
:1065300003F024FD069B0294013B00930194059B0C
:10654000224614212846FFF7B5FE0DF2344DF0BD6A
:10655000105F0E00F0B5ADF2244D1E4608AB174695
:1065600000240546059305A84FF48063079306941D
:10657000FEF799FF394605A8FEF795FF316805A893
:10658000FEF791FF069B0294013B00930194059B4B
:1065900022460D212846FFF78DFE0DF2244DF0BD59
:1065A000F0B5ADF2344D0CAB002405460F46059313
:1065B00005A84FF480631149079316460694FEF729
:1065C00072FF394605A8FEF78BFF314608A803F095
:1065D0005BFD089905A8FEF766FF08A803F0CEFC4E
:1065E000069B0294013B00930194059B22461421D3
:1065F0002846FFF75FFE0DF2344DF0BD105F0E0030
:10660000F0B5ADF22C4D0AAB002406460D460793BB
:1066100007A84FF4806317498DED050A0993089484
:10662000FEF741FF294607A8FEF75AFF9DED050A30
:10663000089B0999079D10EE100ACF1A1D440BF014
:1066400023FB0D4ACDE900013946284603F058FBEB
:10665000089B02940130184408900138009001947E
:10666000079B224614213046FFF724FE0DF22C4DE5
:10667000F0BD00BF105F0E00175F0E0038B5094D6A
:10668000094C6A6820460B21FFF7FAFE2046AA68EB
:106690000D21FFF7F5FE95ED030A0F212046FFF7C8
:1066A000AFFF38BDD8DA032034E2032008B508680C
:1066B0000BF0C5FE034B5860FFF752F8BDE80840E9
:1066C000FFF7DCBFD8DA032008B508680BF0B7FE87
:1066D000034B9860FFF744F8BDE80840FFF7CEBFD2
:1066E000D8DA032008B5064B01221A70FFF7C6FF5F
:1066F00004F068FE0349BDE8084003F008BE00BF8F
:106700009CDA03201D5F0E0010B508680BF097FEA1
:1067100001280DD109480A4C01F032FE84ED030A2C
:10672000FFF71EF894ED030A06480F21FFF768FFF4
:1067300000220E210348FFF7A3FE10BD10DF032047
:10674000D8DA032034E20320F0B5ADF2244D08ABD3
:10675000002405460F46059305A84FF480630E49B3
:10676000079316460694FEF79EFE394605A8FEF7E7
:10677000B7FE314605A8FEF796FE069B0294013B44
:1067800000930194059B224614212846FFF792FDB1
:106790000DF2244DF0BD00BF105F0E002DE9FF414A
:1067A0000968684603F031FC4549684603F0EAFC95
:1067B00000287FD0434C444A44481621FFF7C4FFC9
:1067C0000F26052300274FF000084149A36004F17C
:1067D000100066602760C4F80C800CF0D7F93D49C2
:1067E00004F588700CF0D2F93A4904F504700CF005
:1067F000CDF904F58265374904F544700CF0C6F90B
:10680000012332460A213148C4F81834C5F8008003
:1068100084F8147484F81574FFF732FEA2682B48CC
:106820000C21FFF72DFE626828480B21FFF728FE98
:10683000A26826480D21FFF723FE04F1100214215F
:106840002248FFF781FF04F5887210211F48FFF7E7
:106850007BFF04F5047212211C48FFF775FF04F555
:1068600044721A211948FFF76FFF94ED030A174885
:106870003146FFF7C5FE95ED000A14481921FFF7D0
:10688000BFFED4F8182411481721FFF7F9FD12486C
:1068900002F0B5F8114A0D481521FFF755FF04F035
:1068A00091FD0E4903F033FD4FF4FA7004F040F807
:1068B00003F0E6FA684603F061FB04B0BDE8F0813E
:1068C000275F0E00D8DA03202F5F0E0034E203208A
:1068D000435F0E00595F0E0060D703206A5F0E0011
:1068E00010B5294C294862680A21FFF7C9FDA26842
:1068F00026480C21FFF7C4FD626824480B21FFF7EE
:10690000BFFDA26821480D21FFF7BAFD04F1100276
:1069100014211E48FFF718FF04F5887210211B4848
:10692000FFF712FF04F5047212211848FFF70CFF5D
:1069300004F544721A211548FFF706FF94ED030A87
:1069400012480F21FFF75CFE04F5826393ED000A05
:106950000E481921FFF754FED4F818240B481721CC
:10696000FFF78EFD0A4A09481621FFF7EDFE094B95
:106970001B7823B1084A05481521FFF7E5FEBDE85D
:106980001040FEF7EDBE00BFD8DA032034E203204A
:106990002F5F0E009DDA0320795F0E001FB504F013
:1069A00011FD0B4903F0B3FC0A4B1A680A4B1B6834
:1069B0009A4201D0FFF794FF0023029301930093C2
:1069C0001A4610210548FFF775FC05B05DF804FB79
:1069D000945F0E00D8DA0320F0D5032034E20320C0
:1069E0002DE9F04FADF2CC4D0546602200211AA8EA
:1069F0000BF043FE6C4B1A936C4B1E936C4B229323
:106A00006C4B26936C4B2A936C4C6D4B2E930EABB8
:106A10002B9323780DF1180B0DF1200A0DF12809A5
:106A20000DF1300810AFCDF86CB0CDF87CA0CDF8EA
:106A30008C90CDF89C802F9723B12A461521614870
:106A4000FFF782FE05AB06221AA92846FEF72AFCAC
:106A5000064600287AD05C4D68680BF015F9CBE942
:106A60000001A8680BF010F9CAE90001E8680BF012
:106A70000BF9C9E9000128690BF006F9534BC8E985
:106A8000000118680BF000F9C7E900013046FEF775
:106A9000F3F8237857EC106B5BB14D4932A803F043
:106AA000F3FA484832AA1521FFF724FD32A803F073
:106AB00065FA2378002B38D032AB00251693454970
:106AC00017954FF4806316A81893FEF7ECFC152178
:106AD00016A8FEF705FD179B189916983E4AC91A85
:106AE0001844CDE9006703F00BF9179B02950130BC
:106AF0001844179001380090169B324801952A4699
:106B00001421FFF7D7FB0022344B304639460BF0F7
:106B100077FB90B1294B1C780CB901243FE0304A37
:106B200028481521FFF710FE39E000222B4B304694
:106B300039460BF065FB0028EFD12478002C2ED0CD
:106B4000284A20481521FFF7FFFD27E0264932A8F3
:106B500003F05BFA0A22059916A803F0CBFA16A9EE
:106B600032A803F0F1FA014612A803F08DFA16A834
:106B700003F004FA32A803F001FA23785BB112A9FA
:106B800032A803F081FA0F4832AA1521FFF7B2FCB0
:106B900032A803F0F3F912A803F0F0F9002420461C
:106BA0000DF2CC4DBDE8F08FBF5F0E00C35F0E004D
:106BB000C75F0E00CB5F0E00D05F0E009DDA032092
:106BC000D55F0E0034E2032030D7032068E20320B3
:106BD000F8DE0320105F0E00DA5F0E000000F03FC9
:106BE000E05F0E00F75F0E000F600E001FB5096832
:106BF000684603F00AFA684603F005FB0099084866
:106C00000BF0C4FFFEF7ACFD064B1B7813B1044834
:106C1000FFF7E6FE684603F0B1F905B05DF804FB46
:106C2000E8DA0320B0E10320F0B5ADF2244D1E46B2
:106C300008AB174600240546059305A84FF480636A
:106C400007930694FEF72FFC394605A8FEF72BFCA8
:106C5000314605A8FEF727FC069B0294013B0093F2
:106C60000194059B22460D212846FFF723FB0DF2D8
:106C7000244DF0BD70B5314B314C1A781D46002AB9
:106C800046D004F09FFB2F4903F041FB00212E4822
:106C900002F062F900212C4802F058F92A4802F06B
:106CA000A0F8032206460146274802F095F898B15D
:106CB00004F088FB254903F02AFB00232370FEF72C
:106CC00043FE28B1224B234A23492448FFF7ACFF57
:106CD00001211D4802F03AF9042231461A4802F017
:106CE0007BF898B104F06EFB1D4903F010FB012303
:106CF0002370FEF729FE28B11A4B1B4A1649174884
:106D0000FFF792FF0121104802F026F900232B70B3
:106D1000237833B9154B197819B9154B188805F034
:106D200056F9237813B9114B1B7833B1104B01215D
:106D30001888BDE8704005F04AB970BD0CDF03202B
:106D40000DDF032021600E00A0DA03203B600E005F
:106D50004E600E0070600E00E8DD032034E2032078
:106D600093600E00A4600E00C0600E002CE20320B1
:106D700020D6032070B5044600680E4604F08EFE4F
:106D80000023637702F04EFC0546637F012B09D098
:106D900002F048FC401BB04204D200212046FFF71D
:106DA000BDF9F2E7607F431E5842584170BD0000B4
:106DB000F8B5544D2846FEF745FB044630BB04F0B9
:106DC00001FB5149514E03F0A2FA2846FEF73FFB62
:106DD000234622462146686802F0E2FE204602F081
:106DE000E9FC002504460027002002F0E3FC001B1C
:106DF00061EB05018F4208BF86425ED34148FEF732
:106E000021FB002859D102F01BFFEDE704F0DAFA6C
:106E10003F4903F07CFA02F023FF0446F8B904F07E
:106E2000D1FA3C4903F073FA02F012FF204602F057
:106E3000C1FC002504464EF65F260027002002F024
:106E4000B9FC001B61EB05018F4208BF864247D3A6
:106E500002F006FF002843D102F0F2FEEEE704F054
:106E6000B1FA2D4903F053FA2C4C637F012B1DD04E
:106E700004F0A8FA2A4903F04AFA2A492A4A204685
:106E80005023FEF7BDFB42F228312046FFF772FF88
:106E9000002836D104F096FA244903F038FAC820C5
:106EA00003F046FDBDE8F84002F0EABF04F08AFABC
:106EB0001F49BDE8F84003F02ABA1248FEF7C2FAAB
:106EC0001048FEF7BFFA0028A5D104F07BFA194953
:106ED00003F01DFAC82003F02BFD02F0D1FF9AE762
:106EE00002F0BEFE02F0BCFE0028BDD104F06AFA3A
:106EF000114903F00CFAC82003F01AFD02F0C0FF9C
:106F0000B2E7F8BDE0E50320DD600E001FBF020020
:106F1000FB600E0006610E0042610E0034E20320A9
:106F200055610E00F8D5032077610E008D5D0E00CF
:106F30008C610E007E5D0E002B610E0070B52E4C34
:106F40002046FEF77FFA0546E0B904F03BFA2B49EC
:106F500003F0DDF92A462946606802F029FE05465D
:106F6000002848D104F02EFA254903F0D0F9204634
:106F7000FEF76DFA2B462A4629466068BDE8704048
:106F800002F00EBE1F4C04F01DFA1F4903F0BFF9BA
:106F9000637F012B12D004F015FA1C4903F0B7F9F6
:106FA00000212046FFF7BAF842F228312046FFF7C9
:106FB000E1FE40B904F006FA154902E004F002FAD5
:106FC000144903F0A4F902F04BFE68B904F0FAF991
:106FD000114903F09CF902F03BFE02F041FE50B96A
:106FE00004F0F0F90D4902E004F0ECF90C49BDE8B9
:106FF000704003F08CB970BDE0E503207E5D0E00AB
:10700000DD600E0034E20320FB600E0055610E00CF
:107010008D5D0E008C610E0006610E002B610E006E
:1070200042610E00000000002DE9F0472DED028BBB
:10703000A0B0FFF783FF03F049FC28B3454B1A7853
:107040001D460ABB03F063FC0146434801F0C8FB40
:1070500003F05DFC0446404801F00BFC844200F064
:107060004F8403F054FC04463B4801F002FC201A14
:1070700009288CBF0020012030B101232B7004F0BF
:10708000A1F9364903F043F9354B1B780BB9FEF7EC
:1070900085FCFFF7EFFD3348324C02F058F800282A
:1070A00000F0DB833049314E314DDFF8BC802046A3
:1070B00002F066F92F49204602F076F904F082F9D1
:1070C0002D4903F024F90023336037463368DFF895
:1070D0009C90032B17DC04F075F93B6803F1010A5F
:1070E00008EB8303814618680AF0CEFDCDE9000164
:1070F000224A55F82A300021484603F04DFA3B68F1
:1071000001333B60E2E704F05DF91D49DFF8608080
:1071100003F0FDF80023C9F800304D46DFF8549025
:107120003368042B2EDC04F04DF92F6809EB87033C
:10713000824618680AF0A8FDCDE9000158F827300A
:107140000E4A0021504603F027FA2B6801332B60CA
:10715000E6E700BFF5DE03206CD703209C610E003C
:10716000DCE1032030D7032058DF032008DF0320B1
:10717000D4D5032054E20320B9610E00D0610E0083
:10718000DC610E006068C64DC64F0AF07DFD024608
:107190000B4617A8C44903F049F817A9C34802F0E1
:1071A0007EFF17A802F0EAFEA0680AF06DFD024615
:1071B0000B4617A8BC4903F039F817A9BC4802F0E0
:1071C0006EFF17A802F0DAFEE0680AF05DFD0246E5
:1071D0000B4617A8B44903F029F817A9B54802F0DF
:1071E0005EFF17A802F0CAFE20690AF04DFD0B46AB
:1071F0000246AD4917A803F019F817A9AE4802F0E6
:107200004EFF17A802F0BAFEAC4AAD48012101F0CA
:1072100055F807EE900AF8EEE77AC5ED007A04F02B
:10722000D1F8A84903F060F804F0CCF804462868C7
:107230000AF02AFD41EC100B0221204603F09EF9D2
:1072400004F0C0F803F057F804F0BCF89E4903F0CE
:107250004BF804F0B7F801210446994801F0E2F830
:1072600010EE100A0AF010FD41EC100B022120462E
:1072700003F084F904F0A6F803F03DF804F0A2F856
:107280009249934C03F030F8924A8D48012101F065
:1072900015F807EE900A0121B8EEE70A884801F0D8
:1072A000FFF884ED000A04F08DF8064620680AF025
:1072B000EBFC41EC100B0221304603F062F9206830
:1072C000854C864E0AF0E0FC02460B4617A876492C
:1072D00002F0ACFF17A9824802F0E1FE17A802F005
:1072E0004DFE28687F4D0AF0CFFC02460B4617A8DA
:1072F0006D4902F09BFF17A97B4802F0D0FE17A84A
:1073000002F03CFE212004F08EFE0AF0ABFC5EA3EE
:10731000D3E900230AF00CFD0BF002F80AF0B4FCEC
:107320005BA3D3E900230AF003FD41EC100B05F049
:10733000EBFD59A3D3E9002351EC100B0AF0F8FC44
:107340000AF0EEFFDFED697A08EE100AB4EE678A04
:10735000F1EE10FAC8BFB0EE678A18EE100A0AF014
:1073600093FC0B460246624917A802F05FFF17A97B
:10737000604802F094FE17A802F000FE5E4917A8CC
:1073800004F010FD17A804F0B9FCFDEEC07A5B49CB
:1073900017EE902A13A802F049FF13A9584802F0EB
:1073A0007EFE13A802F0EAFD404913A802F06CFE2D
:1073B000544913A802F0D4FE3D4902F0C5FE5149DC
:1073C00002F0CEFE3B4902F0BFFE4E4902F0C8FE7D
:1073D000394902F0B9FE4B4902F0C2FE404902F0C1
:1073E000B3FE484902F0BCFE3F4902F0ADFE4549FC
:1073F00002F0B6FE3F4902F0A7FE424902F0B0FE9D
:107400003F4902F0A1FE0146204602F02EFE13A8DD
:1074100002F0B4FD254913A802F036FE13AA01219B
:107420003948FFF767F813A802F0A8FD204913A810
:1074300002F02AFE13AA02213348FFF75BF813A8D3
:1074400002F09CFD1B4913A802F01EFE13AA0321A3
:107450002D48FFF74FF813A802F090FD164913A826
:1074600002F012FE13AA04212748FFF743F813A8DD
:1074700002F084FD1A4913A802F006FE13AA0521A2
:107480002148FFF737F841E09402C1D2AF63523F81
:107490005AF5B9DA8A3D144048AFBC9AF2D77A3E21
:1074A00068E203209DDA0320F5610E001CE2032050
:1074B000E8D70320F8D7032008D80320FB610E008B
:1074C00010DF0320FD610E0005620E000C620E004D
:1074D00030E20320A3650E00F8DE03202CE2032037
:1074E00018D80320F5DE032028D803200000C84266
:1074F00013620E0038D80320E0E50320406D0E0033
:1075000048D80320B85E0E0034E2032013A802F02E
:1075100035FDA04913A802F0B7FD13AA06219E4825
:10752000FEF7E8FF13A802F029FD9C4913A802F01A
:10753000ABFD13AA07219848FEF7DCFF13A802F061
:107540001DFD974913A802F09FFD13AA0821924838
:10755000FEF7D0FF13A802F011FD03F033FF2168FE
:1075600002F0D5FE8F4B9049012403A81C7002F055
:107570004CFD8E48FFF734FA0246002800F0828066
:107580002246002184483470FEF77AFF0222092146
:107590008148FEF775FF2B781BB3854913A802F0CD
:1075A00034FD844801F065F9834B84491A68844BA3
:1075B00002440FA803F058F90FA913A802F0C4FD64
:1075C000804902F0CDFD754902F0BEFD7E4902F012
:1075D000C7FD014603A802F048FD0FA802F0CEFC4B
:1075E0000EE07A4913A802F010FD6C4913A802F0CE
:1075F000ABFD754902F0B4FD014603A802F035FD6C
:1076000013A802F0BBFC03A913A802F03DFD13AAC6
:107610001E216148FEF76EFF13A802F0AFFC3B7815
:10762000002B00F0AE8003F072F9014607A803F0CA
:107630009BF807A90BA802F027FD65490BA802F0EB
:107640008FFD5D4B0A22196804460FA802F052FD17
:107650000FA9204602F078FD014613A802F014FDA0
:1076600013AA15214C48FEF79BFF13A802F086FCD5
:107670000FA802F083FC0BA802F080FC07A802F020
:107680007DFC7EE001464448FEF7FAFE22460921D1
:107690004148FEF7F5FE2B781BB34E4913A802F0C4
:1076A000B4FC444801F0E5F8434B44491A68444BA4
:1076B00002440FA803F0D8F80FA913A802F044FD64
:1076C000404902F04DFD354902F03EFD3E4902F0D1
:1076D00047FD014603A802F0C8FC0FA802F04EFCCB
:1076E0000EE03D4913A802F090FC2C4913A802F0CB
:1076F0002BFD354902F034FD014603A802F0B5FC2C
:1077000013A802F03BFC03A913A802F0BDFC13AAC6
:107710001E212148FEF7EEFE13A802F02FFC3B7855
:107720006BB303F0F4F8014607A803F01DF807A9AE
:107730000BA802F0A9FC26490BA802F011FD1E4B74
:107740000A22196804460FA802F0D4FC0FA92046AB
:1077500002F0FAFC014613A802F096FC13AA1521C8
:107760000D48FEF71DFF13A802F008FC0FA802F059
:1077700005FC0BA802F002FC07A802F0FFFB0023A7
:107780003370FEF7B9F898B333785BB3134B144AF0
:107790002AE000BF28D8032034E2032038D8032091
:1077A00048D80320B0E10320E15C0E00E8DA0320B2
:1077B00019620E006CD703201CD60320ACE2032014
:1077C00021620E0054620E0027620E0029620E0034
:1077D0003D620E003F620E0043620E0056620E00D4
:1077E00071620E004A4B4B4A4B494C48FFF71CFA5A
:1077F0004B4B4C4CD3ED007AB4EEE78AF1EE10FA25
:107800004CBF012300232370FEF78AF808B32378C6
:10781000454913A85BB102F0F8FB444913A802F0F4
:1078200093FC434902F09CFC424A03460AE002F002
:10783000ECFB3E4913A802F087FC3F4902F090FCA4
:107840003E4A034635483E49FEF784FE13A802F03F
:1078500095FB03A802F092FB0EE0204601F005FE26
:1078600050B903F0AFFD374902F051FD4FF47A7083
:1078700003F05EF802F004FB334B344C1B78F3B199
:107880000A2221680FA802F035FC0FA913A802F004
:10789000FBFB2F4913A802F063FC014617A802F076
:1078A000F3FB17AA15211D48FEF77AFE17A802F070
:1078B00065FB13A802F062FB0FA802F05FFB03F068
:1078C00081FD054601F05EFF0A220146284602F0CE
:1078D00048FD03F077FD1F4902F006FD03F072FD3D
:1078E0000A22216802F08EFD03F06CFD02F003FD18
:1078F00023680133236020B0BDEC028BBDE8F08724
:10790000154800F0B6FF044603F001F8FFF7AFBBDF
:1079100087620E00A2620E00E8DB032034E203203F
:10792000E8DE03200EDF0320BE620E0038D80320FD
:10793000D8620E00DB620E00FD620E0000630E00D6
:10794000E8DC032028630E009DDA032070D70320B3
:10795000E05C0E00686B0E006CD703202DE9F0414F
:107960008AB004F0BFFB44F6206103F0A3FD0321BD
:10797000082004F01BFB03F073FC4FF4E13103F02B
:1079800063FCB34CB34D03F01DFD4FF4E13103F044
:1079900013FD642002F0CCFF0121208804F006FBD7
:1079A0000021208804F013FB04F09CFB03F086FD0B
:1079B000642002F0BDFFA84801F03CF8012202213A
:1079C000A54801F0E1F801220321A34801F0DCF809
:1079D000642002F0ADFF0AAA002142F81C1D042316
:1079E0009E4800F08BFF03F0EDFC039B9C4A0121B5
:1079F00002F0D2FD9B4B1E7886B90AA801221A70AC
:107A000040F8106D3246314601F0E4FE069B1E2B15
:107A100004D103232B7008236E80AB802868AB88C9
:107A2000049004A8ADF8143002F046FA032814D8E4
:107A3000DFE800F002060A0E03F0C4FC8A490AE0FF
:107A400003F0C0FC894906E003F0BCFC884902E071
:107A500003F0B8FC874902F05AFC03F0B3FC8649F6
:107A6000DFF82082854F02F052FC844B8449854820
:107A70000722FDF7DFFD0025064603F0A3FC2B01DE
:107A800053F8081002F030FC03F09CFC7E4902F031
:107A90002BFC03F097FC795D0A22013502F0B2FC61
:107AA000072DEAD10EBB03F08DFC784902F02FFCC4
:107AB0000121208804F08BFA642002F039FF31465E
:107AC000208804F084FA04F00DFB03F029FD04F093
:107AD00009FB03F021FD18B904F004FB03F0EEFCF0
:107AE00004F000FB03F0F0FC1DE003F06BFC6849C0
:107AF00002F00DFC0121208804F069FA052002F053
:107B000017FF0021208804F062FAC82002F010FF5D
:107B10000121208804F05BFA052002F009FF002112
:107B2000208804F054FAC82002F002FF0EB902F0D7
:107B3000A7F95848584D00F09CFE044603F042FC5B
:107B4000564902F0E4FB03F03DFC0A22214602F014
:107B500037FC03F037FC4C4902F0D9FB03F032FC50
:107B60002B684F492246064606A802F07DFE06997C
:107B7000304602F0CCFB06A802F000FA494B9C42CA
:107B800027DC4949434800F02BFE424800F071FED3
:107B9000044603F017FC454902F0B9FB03F012FC60
:107BA0000A22214602F00CFC03F00CFC364902F0DC
:107BB000AEFB03F007FC2B6839490646224606A8AF
:107BC00002F052FE0699304602F0A1FB06A802F030
:107BD000D5F904F087FA01463548364C01F04AFCE5
:107BE000354801F07AF8FDF7C7FD344B22681B6871
:107BF0009A426FD0182363600523A3603049314B4C
:107C0000E36004F110000AF0C1FF2F4904F5887009
:107C10000AF0BCFF2C4904F504700AF0B7FF2A49AA
:107C200004F544700AF0B2FF04F58263274A1A6033
:107C3000002384F8143484F815340123C4F818346C
:107C400003F0C0FB224902F062FBFFF7B1F846E007
:107C500020D6032078E20320F4DE032060D703203F
:107C600050630E002CD7032056630E0081630E0074
:107C70009E630E00EC630E004A640E0050DF03208A
:107C8000E8D5032078D70320686B0E0062640E00ED
:107C90006C640E006CD703202CD6032073640E0096
:107CA000ACE203207F436D38003B3D4B7A640E000D
:107CB00030D70320D8DA0320A0DA0320F0D5032040
:107CC00080640E0000001CC3B8640E000000204158
:107CD000D2640E0003F076FB874902F018FB03F034
:107CE00071FB864902F000FB03F06CFB02F003FB22
:107CF000834800F0F2FF0421814801F03BF80123A2
:107D00001A4619467E4801F0A4F812217C4801F079
:107D100051F801231A461946794801F0B9F81221A1
:107D2000774801F04DF80A21754801F04FF8012518
:107D300000231A46194601950095714801F0BDF8D7
:107D400029466F4801F008F929466E4D6C4801F04C
:107D5000FDF82888002104F029F900224FF0FF33B4
:107D600069492888009203F0A3FA03F02BFB02F084
:107D7000C2FA03F027FB02F0BEFA03F023FB6349CB
:107D800002F0C5FA03F01EFB614902F0ADFA03F000
:107D900019FB604B0546186809F076FF41EC100BA3
:107DA0000221284602F0EDFB03F00CFB5A4902F0D9
:107DB0009BFA03F007FB594B0546186809F064FF6E
:107DC00041EC100B0221284602F0DBFB03F0FAFA2B
:107DD0005349544D02F088FA03F0F4FA0646A86AB3
:107DE00009F052FF41EC100B0221304602F0C9FBB2
:107DF00003F0E8FA0646E068686209F045FF41ECE6
:107E0000100B0221304602F0BCFB03F0DBFA4649BE
:107E100002F06AFA03F0D6FA0646A86B09F034FFBE
:107E200041EC100B0221304602F0ABFB03F0CAFA22
:107E30003E4902F06CFA03F0C5FA3D4902F067FAD8
:107E40004FF4967002F074FD04F04CF90146394885
:107E500001F010FB50B903F0B5FA374902F057FAB8
:107E60004FF47A7002F064FD02F00AF85023334AAE
:107E700033493448FDF7C4FBFFF760F80023019352
:107E800000931A463049314801F0FAFE304B1B7816
:107E90000BB9FDF783FD01F075FC41F6A3760546AD
:107EA000244801F054F9E0B1A3682A4A2A484FF463
:107EB0007A71594301F046FB274801F065FB274AD8
:107EC00027486F2101F03EFB254801F05DFB03F0E0
:107ED00079FA244902F01BFAFFF7A6F80AB0BDE8C8
:107EE000F08101F04FFC401BB042DDD8642002F06D
:107EF0001FFDFEF7BFFED3E7DD640E00EC640E004D
:107F0000A0DA0320F4D50320F5520D0050650E00D1
:107F1000FA640E0028D6032012650E0024D6032032
:107F200029650E0010DF03203E650E0047650E0038
:107F30005B650E0030D7032028630E0077610E00CA
:107F4000F8D5032034E2032055530D0067650E0079
:107F5000DCE1032029700D006CDF0320756C0D003F
:107F600058D803207F650E0008B500210E48FEF7A3
:107F7000D5F80E4801F008FB0D4801F005FB0D4B4C
:107F80005A680D4B1B689A420CDC0C4B0021188878
:107F900004F01DF84FF4FA6002F0CAFCBDE8084096
:107FA000FDF7F6BB08BD00BF34E203206CDF032001
:107FB00058D80320D8DA032070D7032020D6032016
:107FC0007C4B2DE9F34100247B4E1C607B4B7C4DA8
:107FD000DFF8608201271F7001F054FB304603F088
:107FE00011FE06F11C0003F08BF82A4675497463F4
:107FF0003046348704F096F8734B22461E605C606E
:108000009C60DC601C615C611C835C831C775C771A
:108010001421022001F0A8FD6C4E01971E2300934D
:10802000022203466A496B4F304601F0DDFE2A46C4
:108030006949304604F076F86848694E00F0ACFDB6
:1080400004F050F822460146304600F04FFC2A4624
:108050006449304604F066F86348644E00F0AEFAB6
:10806000634800F0E5FC634801F02FF821463046F4
:1080700002F0C6FC2A466049304604F053F85F4ED1
:108080003946404601F0C1FF4046DFF8AC812A4640
:10809000314604F047F83946404601F0B6FF404605
:1080A000DFF898812A46314604F03CF839464046CC
:1080B00001F0ABFF4046DFF888812A46314604F0E4
:1080C00031F83946404601F0A0FF4046DFF87481A0
:1080D0002A46314604F026F83946404601F095FF1D
:1080E0004046DFF864812A46314604F01BF83946E1
:1080F000404601F08AFF4046DFF850812A4631466B
:1081000004F010F83946404601F07FFF4046DFF8A2
:1081100040812A46314604F005F83946404601F0D0
:1081200074FF4046DFF82C812A46314603F0FAFFFF
:108130003946404601F069FF2A463146404603F081
:10814000F1FF2F4E2F4801F0A2F92F4801F09FF9BF
:108150002E49304601F059FF2D4906F1100001F07B
:1081600054FF2C4906F1200001F04FFF2A4906F187
:10817000300001F04AFF294906F1400001F045FFB7
:10818000274906F1500001F040FF264906F1600042
:1081900001F03BFF2A462449204603F0C3FF9FED30
:1081A000230A23480F22112102B0BDE8F04100F05C
:1081B000D1B900BF68DF0320E0E1032074D70320BA
:1081C00028D70320155A0D0034E20320B4E1032020
:1081D00000FFFF00E15C0E008D530D00A0DA0320CC
:1081E00060D70320D5880D006CD70320D4E103208D
:1081F000F4DE032030D703201FAA0D007D9F0D0061
:1082000078D703206CDF032058D803208E650E003A
:1082100092650E0096650E00A1650E00A5650E0024
:10822000AA650E00B2650E0035530D009A99814083
:1082300010DF03201CE20320E8D70320F8D7032037
:1082400008D8032018D8032028D8032038D80320C2
:1082500048D80320F8DE032080E80600104A826335
:108260000261104AC261104ADFED106AD2ED007A55
:108270009FED0F7A0F4980ED020A67EEA66AC16092
:1082800086EE876ADFED0C6A80ED087A67EEA67AE3
:1082900080ED056AC7EE876AC0ED066A704700BFC9
:1082A0000000A0410000904128D603200000684251
:1082B0000000AE4200002042000018422DE9F041CB
:1082C0000C460646904601F05DFA4FF47A7707FBBC
:1082D000040700242546B08803F0A5FE04440120CD
:1082E00002F026FB01F04EFAB84205F10105F2D387
:1082F00007EE105A07EE904AF8EE476AF8EE677AF2
:10830000184BD6ED085A87EEA67AD3ED007A164BB5
:1083100093ED006A154BC5EE866A984567EE277A9D
:108320009FED137A27EE877AD6ED077AD7EE267A75
:108330000CD1B2EE027A67EE877AF1EE046A87EE2C
:10834000A67ADFED0C7A77EE277A02E00A4B9845A1
:1083500002D1FDEEE77A01E0DFED087A17EE900A30
:10836000BDE8F08124D6032028D60320FB610E004F
:108370000000803900000042A3650E0000000000EC
:10838000F8B5044601F0FEF9002500F51C5710373A
:108390002E46208803F047FE0544012002F0C8FA6B
:1083A00001F0F0F9B84206F10106F2D307EE905A57
:1083B00007EE106AF8EE677AB8EE477A154BC7EE0B
:1083C000876AD3ED007A66EEA77A17EE900A09F075
:1083D0005BFC0022104B09F0ABFC104B002209F0B3
:1083E000A7FC09F09DFFD4ED0A7A0D4A07EE100AAA
:1083F00077EE677A0A21C4ED097A2046FFF75EFF1F
:1084000007EE900AF8EEE77A94ED090AC4ED0E7AC9
:10841000F8BD00BF24D6032000408F400000303F4D
:10842000A3650E00F8B50C46074601F0ABF94FF412
:108430007A7606FB040600242546388803F0F3FD0F
:108440000444012002F074FA01F09CF9B04205F1F5
:108450000105F2D307EE904A07EE105AF8EE677A5C
:10846000B8EE477A0B4BC7EE876AD3ED007A66EE1B
:10847000A77A17EE900A09F007FC0022064B09F0D4
:1084800057FC0022054B09F053FC09F049FF00EEB0
:10849000100AF8BD24D6032000408F400000303F72
:1084A000D0B52DED028B0446B0EE408AFFF7BAFF3F
:1084B000D4ED0A7A30EE670AD4ED097A70EE677A65
:1084C00017EE900A09F0E0FB0022214B09F05AFD5B
:1084D000D4ED0F7AF8EEE77A064617EE900A0F46CB
:1084E00009F0D2FB02460B463046394609F04AFDF8
:1084F00015A3D3E9002309F01BFC09F011FFB3EE2B
:10850000077AB4EEC78A94ED0E7AF1EE10FA78EE9F
:10851000476A07EE900ACCBF94ED0C6A94ED0D6AA1
:1085200038EE478AE6EE667AD4ED0B6AB7EE000ABB
:10853000A6EEC80ABDEC028BD4ED026A87EEA67ADD
:1085400020EE070AD0BD00BF0000000065CDCD4180
:1085500000408F4008B50346FFF77EFE0D4A9FEDB1
:108560000E7AD2ED007ADFED0D6A0D4ADA6327EE5E
:10857000877A4FF07C52C7EE267ADA62094A1A638C
:10858000094A5A6318469FED097A67EE877AC3ED68
:108590000A7A08BD28D6032040E38649A07A004A1B
:1085A000A08601009A9981411F85934000007A447A
:1085B00001F068B80368C9B29B68184710B5044653
:1085C00003F090FD02F0A8FF18B903F08BFD02F054
:1085D00075FF204610BD2DE9F84F924698460D468E
:1085E0009DF828B09DF82C709DF830609DF834906F
:1085F00003F078FD6F210A2402F084FF03F072FD7E
:108600000021FFF7D7FF03F06DFDB5FBF4F304FB8A
:10861000135505EB0315EDB205F07F01FFF7CAFF17
:1086200003F060FDBAFBF4F104FB11AA0AEB01119F
:1086300001F07F01FFF7BEFF03F054FDB8FBF4F13A
:1086400004FB118808EB011101F03F01FFF7B2FFB5
:1086500003F048FDBBFBF4F104FB11B101F007018D
:1086600041F00801FFF7A6FF03F03CFDB7FBF4F172
:1086700004FB117707EB011101F03F01FFF79AFFAF
:1086800003F030FDB6FBF4F104FB116606EB0111BB
:1086900001F01F01FFF78EFF03F024FDB9FBF4F199
:1086A000036804FB119404EB01119B68C9B298475D
:1086B00003F018FD02F02DFF03F014FD6F2102F00E
:1086C00021FF03F00FFD0021FFF774FF03F00AFD07
:1086D00045F08001FFF76EFF03F004FDBDE8F84FA1
:1086E00002F017BF70B51C4615460E4603F0FAFCA3
:1086F0006F2102F007FF03F0F5FC0021FFF75AFF9E
:1087000003F0F0FC02F005FF03F0ECFC6F21072200
:1087100002F0EAFE03F0E6FC03685B699847C0B22A
:10872000C0F3021303EB830300F00F0000EB4300E0
:10873000307003F0D7FC03685B699847C0B2C0F3A0
:10874000021303EB830300F00F0000EB43002870DB
:1087500003F0C8FC03685B699847C0B2C0F301131B
:1087600003EB830300F00F0000EB4300207003F0E5
:10877000B9FC03685B699847049B00F00700187018
:1087800003F0B0FC03685B699847C0B2C0F3011303
:1087900003EB830300F00F0000EB4300059B187010
:1087A00003F0A0FC03685B699847C0B2C0F30012F5
:1087B0009300134400F00F0000EB4300069B187079
:1087C00003F090FC03685B699847C0B2030903EBB0
:1087D000830300F00F0000EB4300079B187070BD8F
:1087E0002DE9F04F07468DB008460C4601F090FF8A
:1087F0008046204601F084FF8146204601F078FF44
:108800008246204601F094FF0546204601F088FF8D
:108810000646204601F096FF8346204601F09CFF65
:108820000A22014604A801F065FC04A9022208A856
:1088300001F0E2FC08A801F0F3FC044608A801F0EE
:108840009DFBE4B25FFA8BF3F6B2EDB202935FFAEE
:1088500089F25FFA8AF35FFA88F138460394019649
:108860000095FFF7B8FE04A801F088FB0DB0BDE845
:10887000F08F00B591B00DF11B0303930DF11A03B6
:1088800002930DF11903019306AB00930DF116024B
:108890000DF117030DF11501FFF724FF9DF81530B9
:1088A00007939DF8163008939DF8173009939DF8AB
:1088B00019300A939DF81A30013B0B939DF81B3039
:1088C00007A864330C9309F0BDFF11B05DF804FBF9
:1088D00000F0D8BE704710B50C21044603F027FC09
:1088E000204610BD0368C9B29B68184710B5024CFA
:1088F00004604160826010BD80660E002DE9F04783
:1089000004460D4617469846B8F1000F3FD0A168BF
:10891000606841F0500102F0F5FD290A6068FFF738
:10892000E1FF29466068FFF7DDFF0021606802F083
:10893000ECFD10B10020BDE8F087B8F1200FA16870
:108940006068C14628BF4FF0200901234A4641F024
:10895000500102F0CEFD03F0C5FB03681B69984788
:108960008145E7DC3E46C7EB050A03F0BBFB036825
:108970005B69984706F8010BF21BC6EB08039145AB
:1089800006EB0A053B44F0D898463746BCE7012081
:10899000BDE8F0872DE9F04704460D4690461F4696
:1089A00057B3A168606841F0500102F0ABFD290A9D
:1089B0006068FFF797FF29466068FFF793FF08F1AB
:1089C0001E094646C8EB050A606816F8011B0368D5
:1089D0009B6898474E4506EB0A05B04607F1FF37FE
:1089E00001D0002FF0D10121606802F08EFD002837
:1089F000D6D00020BDE8F0870120BDE8F08730B573
:108A000089B0054620220021684609F036FE002480
:108A100020236A4621462846FFF7BCFF20B12034B8
:108A2000B4F5004FF4D1012009B030BD00F02ABEEA
:108A30007047000010B5534C204600F00FFB204655
:108A40000122002100F00DFB01221146204600F01A
:108A500008FB20460122022100F003FB20460122F0
:108A6000032100F0FEFA20460122042100F0F9FA69
:108A700020460122052100F0F4FA204600220621BA
:108A800000F0EFFA20460122072100F0EAFA204622
:108A90000022082100F0E5FA20460022092100F01A
:108AA000E0FA204600220A2100F0DBFA20460022EC
:108AB0000B2100F0D6FA204600220C2100F0D1FA5A
:108AC000204600220D2100F0CCFA204600220E2183
:108AD00000F0C7FA204600220F2100F0C2FA20461B
:108AE0000122002100F0E6FA01221146204600F0A2
:108AF000E1FA20460122022100F0DCFA20460122A0
:108B0000032100F0D7FA20460122042100F0D2FA16
:108B100020460122052100F0CDFA2046012206213F
:108B200000F0C8FA20460122072100F0C3FA2046CF
:108B30000122082100F0BEFA20460122092100F09E
:108B4000B9FA204601220A2100F0B4FA2046012297
:108B50000B2100F0AFFA204601220C2100F0AAFA06
:108B6000204601220D2100F0A5FA204601220E2107
:108B700000F0A0FA204601220F21BDE8104000F0CD
:108B800099BA00BF6CE20320014800F076BA00BF3A
:108B90006CE2032000F076BD30B50EA5D5E90045A6
:108BA000C0E902450DA5D5E900450A22C0E9044502
:108BB0000CA5D5E900458262012280F82C200449E9
:108BC0000270002201634270C0E9064530BD00BF5B
:108BD000404B4C009F27F96C78D56E3F0E7F8FF28B
:108BE0007ACD6E3F200FD8309E9C6C3F38B514462E
:108BF0000D4603F077FA532102F084FC03F072FA79
:108C0000036829469B68984703F06CFA036821467D
:108C10009B68984703F066FABDE8384002F079BCDB
:108C20002DE9F04116461F460C46054603F05AFA58
:108C3000532102F067FC03F055FA036821469B6854
:108C4000984703F04FFA02F064FC03F04BFA53210B
:108C500002F058FC03F046FA3246532102F044FC7D
:108C60003C4603F03FFA03681B69C7EB04089847CA
:108C700038B103F037FA03685B69984704F8010BD1
:108C8000EFE746451EBF012328706B7003F02AFAF8
:108C9000BDE8F04102F03DBCF8B50B4D04460F466F
:108CA000008D0021164603F092F93946284601F05E
:108CB000D9F83146284601F0D5F8208D0121BDE8CC
:108CC000F84003F084B900BFF0E5032090F82C30A1
:108CD0000BB1FFF78BBFFFF7DFBF10B590F82C305B
:108CE00004461BB103F0FEF902F0E8FB2046002227
:108CF0002D21FFF7EBFF204610222D21FFF7E6FF85
:108D0000204608222D21BDE81040FFF7DFBF0000FC
:108D1000F8B5012AD4BF41F0800441F0C0040546F3
:108D20000021008D1F46164603F051F921460A48DE
:108D300001F098F83C46E31B9E4206DD0021064800
:108D400001F090F804F8010BF5E7288D0121BDE84A
:108D5000F84003F03CB900BFF0E5032010B490F8F0
:108D60002C401CB15DF8044BFFF75ABF5DF8044B73
:108D7000FFF7CEBF37B504390C2998BF0C4B4FF025
:108D8000010298BF5D5C0DF107034FF0310188BF10
:108D900000250446FFF7E2FF9DF8072022F01302AA
:108DA0002A4331212046FFF791FF03B030BD00BFB9
:108DB00088660E0081F30802D2B22421FFF786BF35
:108DC00081F30802D2B22521FFF780BF81F30802A8
:108DD000D2B22621FFF77ABF41FA02F202F0010077
:108DE000704707B501220DF107033021FFF7B6FFE9
:108DF0009DF8070003B05DF804FBF7B516461F4663
:108E000001220DF1070304460D46FFF7A7FF0122DB
:108E10009DF80730B2400FB1134301E023EA02038B
:108E20008DF807309DF8072029462046FFF74EFFB2
:108E300003B0F0BD0B4606222721FFF7DEBF0B462D
:108E400005222721FFF7D9BF0B4604222721FFF770
:108E5000D4BF70B5044616461D46FFF7EBFF3146FA
:108E60002046FFF7ECFF29462046BDE87040FFF79B
:108E7000EBBF0B4602222721FFF7BFBF0B460122A3
:108E80002721FFF7BABF0B4600222721FFF7B5BF06
:108E900070B5044616461D46FFF7EBFF31462046E7
:108EA000FFF7ECFF29462046BDE87040FFF7EBBF17
:108EB00013460A462F21FFF7A0BF2DE9F0410129F3
:108EC000044690461D46069F079E01D1002202E0FF
:108ED000022903D101220621FFF7EAFFB8F1010FB1
:108EE00001D1002203E0B8F1020F04D101220521D3
:108EF0002046FFF7DDFF012D02D10022022103E011
:108F0000022D04D1012229462046FFF7D1FF012F6F
:108F100001D1002202E0022F04D1012204212046C7
:108F2000FFF7C6FF012E01D1002202E0022E06D17A
:108F3000012220460321BDE8F041FFF7B9BFBDE89B
:108F4000F08113460A462E21FFF757BF0A4601B1AA
:108F500001220421FFF7F5BF0A4601B101220321D6
:108F6000FFF7EFBF00F08EBB10B5044603F0BAF870
:108F7000036821469B68BDE81040184708B503F018
:108F8000B1F803685B699847C0B208BD38B50446BC
:108F90000D4603F0A7F8217841F0200102F0B2FA63
:108FA0002846FFF7E1FF03F09DF802F0B2FA03F064
:108FB00099F82178012241F0200102F095FABDE8EC
:108FC0003840FFF7DBBF70B5064614460D4603F088
:108FD00089F8317841F0200102F094FA2846FFF731
:108FE000C3FF2046FFF7C0FF03F07CF8BDE87040E8
:108FF00002F08FBA2DE9F0419DF81860072998BF5B
:109000001E4601F007079046314601240546BC4044
:10901000FFF7BCFFB8F1000F01D0044301E020EAE4
:109020000404E2B231462846BDE8F041FFF7CBBF69
:1090300010B5072928BF07210170044603F052F834
:1090400002F03CFA2046FF220021FFF7BCFF204639
:10905000FF220121BDE81040FFF7B5BF0021FFF757
:10906000E7BF07B50123B2FA82F200935209002349
:10907000FFF7C0FF03B05DF804FB0829F8B501F065
:1090800007060C4634BF1421152105461746FFF785
:109090007DFF0123B3400FB1034301E020EA030346
:1090A000082CDAB2284634BF12211321BDE8F8405B
:1090B000FFF789BF07B50D2300930C23FFF79AFF35
:1090C00003B05DF804FB00F0DDBA0022426082606C
:1090D000C260026142618261C26102624262826276
:1090E000012280F82C2080F82D2080F82E20704757
:1090F00038B505460C460068692102F003FA210ADA
:109100002868FFF757FAE1B22868FFF753FA286892
:1091100002F0FFF908B1002038BD02226921286859
:1091200002F0DFF9286803681B6998470028F2D02D
:10913000286803685B6998470446286803685B6988
:109140009847240204F47F44C0B2204338BD08B5D8
:1091500040F20221FFF7CCFF431E5842584108BDA0
:10916000F0B58BB00546FFF7F2FF0446002800F08B
:1091700004810027692128680097019702970397C7
:1091800004970597069707970897099702F0BAF989
:1091900003212868FFF70EFA39462868FFF70AFA14
:1091A000286802F0B6F90646002840F0E5803C2227
:1091B0006921286802F095F9286803681B699847B7
:1091C00018BB009868600198A8600298E86003984E
:1091D0002861049868610598A8610698E861079875
:1091E00028620898686200230998A86285F82C30E4
:1091F00085F82D3085F82E30BFE0009BC0B240EAE4
:109200000320009001363C2EDBD0286803685B69A0
:109210009847F3B23A2BF5D801A252F823F000BFD9
:10922000FB910D00FB910D0005920D00FB910D00CF
:10923000FB910D0005920D000D930D000D930D0097
:1092400005920D000D930D000D930D0005920D007C
:1092500019930D0019930D0005920D0019930D003F
:1092600019930D0005920D0025930D0025930D0017
:1092700005920D0025930D0025930D0005920D001C
:1092800031930D0031930D0005920D0031930D00C7
:1092900031930D0005920D003D930D003D930D009F
:1092A00005920D003D930D003D930D0005920D00BC
:1092B00049930D0049930D0005920D0049930D004F
:1092C00049930D0005920D0055930D0055930D0027
:1092D00005920D0055930D0055930D0005920D005C
:1092E00061930D0061930D0005920D0061930D00D7
:1092F00061930D0005920D006D930D006D930D00AF
:1093000005920D006D930D006D930D00019BC0B291
:1093100040EA0320019075E7029BC0B240EA0320B7
:1093200002906FE7039BC0B240EA0320039069E715
:10933000049BC0B240EA0320049063E7059BC0B2DF
:1093400040EA032005905DE7069BC0B240EA032394
:10935000069357E7C3B2079843EA0023079351E700
:10936000C3B2089843EA002308934BE7C3B20998B5
:1093700043EA0023099345E73C4620460BB0F0BD85
:1093800038B590F82C3004460D460BB1FFF7E8FED7
:10939000012384F82C3063682B60A3686B60E3685A
:1093A000AB602369EB6038BD38B590F82D300446CA
:1093B0000D460BB1FFF7D4FE012384F82D3063690D
:1093C0002B60A3696B60E369AB60236AEB60636A3F
:1093D0002B6138BD10B5FF200C46631ADBB29A42F0
:1093E00011D914F8013B5840082310F0800F03F105
:1093F000FF334FEA400018BF80F0310013F0FF0345
:10940000C0B2F2D1E9E710BD2DE9F3410F461612C3
:1094100015468DF8052001A9022204468DF8046046
:10942000FFF7D8FF69218046206802F06BF8390AFF
:109430002068FFF7BFF8F9B22068FFF7BBF83146A4
:109440002068FFF7B7F8E9B22068FFF7B3F82068A3
:10945000036841469B689847206802F05AF8B0FAC2
:1094600080F0400902B0BDE8F0814FF44072102155
:10947000FFF7CABF10B504460160084602F01EF8A7
:109480002046BDE81040FFF7F0BF00F0FBB84FF0FA
:10949000FF33C0F84032704770B5054600F0C2F89F
:1094A0000024064628192422002109F0E6F82E514E
:1094B0002434B4F5107FF5D10023C5F8403270BDD7
:1094C000D0F840320F2B08DC0023242202FB0301DA
:1094D000496829B10133102BF8D14FF0FF307047A4
:1094E000184670472DE9F8439846D0F84032002BD3
:1094F00005468946174601DAFFF7CEFF2846FFF7F3
:10950000DFFF041E1ADBCFB124266643AB199DF89A
:1095100020201A73099A5A610122C3F810905F60E3
:10952000C3F808801A7700F07DF8A851D5F84032CA
:109530000133C5F840322046BDE8F8834FF0FF30D4
:10954000BDE8F88307B5002301930093FFF7CAFF36
:1095500003B05DF804FB0F2938B5044613D8D0F8E2
:10956000403283B1242202FB01F52844436853B101
:10957000002109F082F800F055F86051D4F840322B
:10958000013BC4F8403238BD2DE9F041054605F5F0
:10959000117700F047F801262B1D4FF0000E4FF019
:1095A000020C1A68C3F81CE0E2B153F8048CDC68C2
:1095B000C8EB0002A24215D3B2FBF4F104FB018216
:1095C00043F8042C1A7E6AB1196909B9DE6109E011
:1095D0005A69914206D901329142DE615A6198BFBF
:1095E000C3F81CC02433BB42DBD12C460026236ABF
:1095F0006BB1227B636812B1A068984700E098477E
:10960000236A022B03D131462846FFF7A4FF013617
:10961000102E04F12404EAD1BDE8F08100F032B844
:1096200001F086B900F0AEB80020704700F02AB80B
:1096300070477047704700007F289ABF024B53F86D
:1096400020000020704700BF98680E007F289ABF56
:10965000024B53F820000020704700BF98660E00B0
:1096600000F010B808B5024B1B689B68019308BD59
:109670006802030008B5024B1B68DB68019308BD54
:109680006802030008B5024B1B681B68019308BD04
:109690002C02030008B5024B1B685B68019308BDF0
:1096A0002C02030008B5024B1B689B68019308BDA0
:1096B0002C02030008B5024B1B68DB68019308BD50
:1096C0002C02030008B5024B1B681B69019308BDFF
:1096D0002C02030008B5024B1B685B69019308BDAF
:1096E0002C02030008B5024B1B689B69019308BD5F
:1096F0002C02030008B5024B1B68DB69019308BD0F
:109700002C02030008B5024B1B689B6A019308BD3D
:109710002C02030008B5024B1B681B6B019308BDAC
:109720002C02030008B5024B1B689B6F019308BD18
:109730002C02030008B5024B1B685B69019308BD4E
:109740003002030008B5024B1B68DB69019308BDBA
:109750003002030008B5024B1B681B6A019308BD69
:109760003002030008B5024B1B685B69019308BD1A
:109770006C02030008B5024B1B685B68019308BDCF
:109780001802030008B5024B1B685B69019308BD12
:109790001802030008B5024B1B68DB69019308BD82
:1097A0001802030008B5024B1B689B6D019308BDAE
:1097B0001802030008B5024B1B68DB6D019308BD5E
:1097C0001802030008B5024B1B689B6E019308BD8D
:1097D0003402030008B5024B1B68DB6E019308BD21
:1097E0003402030008B5024B1B689B68019308BD57
:1097F0004802030008B5024B1B681B69019308BDB2
:109800004802030008B5024B1B685B69019308BD61
:109810004802030008B5024B1B681B6B019308BD8F
:109820004802030008B5024B1B685B6C019308BD3E
:109830004802030008B5024B1B685B69019308BD31
:109840006402030008B5024B1B681B6A019308BD44
:109850006402030008B5024B1B689B6A019308BDB4
:109860006402030008B5024B1B681B68019308BD26
:109870003C02030008B5024B1B68DB68019308BD7E
:109880003C02030008B5024B1B681B69019308BD2D
:109890003C02030008B5024B1B685B69019308BDDD
:1098A0003C02030008B5024B1B689B69019308BD8D
:1098B0003C02030008B5024B1B68DB69019308BD3D
:1098C0003C02030008B5024B1B681B6A019308BDEC
:1098D0003C02030008B5024B1B689B6A019308BD5C
:1098E0003C02030008B5024B1B68DB6A019308BD0C
:1098F0003C02030008B5024B1B681B68019308BDBE
:109900002802030008B5024B1B68DB68019308BD01
:109910002802030008B5024B1B681B69019308BDB0
:109920002802030008B5024B1B685B69019308BD60
:109930002802030008B5024B1B689B69019308BD10
:109940002802030008B5024B1B68DB69019308BDC0
:109950002802030008B5024B1B681B6A019308BD6F
:109960002802030008B5024B1B685B6A019308BD1F
:109970002802030008B5024B1B689B6A019308BDCF
:109980002802030008B5024B1B68DB6A019308BD7F
:109990002802030008B5024B1B681B6B019308BD2E
:1099A0002802030008B5024B1B685B6B019308BDDE
:1099B0002802030008B5024B1B681B6C019308BD0D
:1099C0002802030008B5024B1B685B6C019308BDBD
:1099D0002802030008B5024B1B689B6C019308BD6D
:1099E0002802030008B5024B1B68DB6C019308BD1D
:1099F0002802030008B5024B1B689B69019308BD50
:109A00003802030008B5024B1B68DB69019308BDEF
:109A10003802030008B5024B1B681B6A019308BD9E
:109A20003802030008B5024B1B689B6A019308BD0E
:109A30003802030008B5024B1B681B6B019308BD7D
:109A40003802030008B5024B1B689B6B019308BDED
:109A50003802030008B5024B1B681B68019308BD60
:109A60004C02030008B5024B1B685B68019308BDFC
:109A70004C02030008B5024B1B681B69019308BD2B
:109A80004C02030008B5024B1B685B69019308BDDB
:109A90004C02030008B5024B1B689B69019308BD8B
:109AA0004C02030008B5024B1B68DB69019308BD3B
:109AB0004C02030008B5024B1B681B6A019308BDEA
:109AC0004C02030008B5024B1B685B6F019308BD95
:109AD0007402030008B5024B1B681B6D019308BD9F
