:02000002D0002C
:1040000000400D00E08D0E00000006000C000501D0
:084010000401DE0500000000C0
:04401800446B0E00E7
:1040200009480A49884208B505D0094A824202D0A7
:10403000121A0FF0E7FB0748074A0021121A0FF087
:10404000ECFB014808BD00BF5CD50320648C0E006A
:10405000B0D60320B0D60320F0E7032070B507F0F8
:1040600097FD074C074BE41AA40800251E46A542FD
:1040700004D056F8253098470135F8E770BD00BFE9
:10408000548C0E00F48B0E0004F0C6BA08B504F090
:104090005BFEBDE8084007F03DBD06F09FBD06F0A1
:1040A000A5BD06F0A3BD0078B0FA80F040097047C6
:1040B00001230370704700009FED010B704700BFA4
:1040C000182D4454FB2109409FED010B704700BFA0
:1040D0006957148B0ABF054008B551EC100B53EC1F
:1040E000112B0EF043FD41EC100B08BD08B551EC4F
:1040F000100B53EC112B0EF037FD41EC100B08BDEB
:1041000008B551EC100B53EC112B0EF0E1FE41EC15
:10411000100B08BD08B551EC100B53EC112B0FF030
:1041200001F841EC100B08BD51EC100B10EE102AF9
:1041300001F1004343EC102B7047B0EE410AF0EE62
:10414000610A70470000000008B551EC100B53ECF9
:10415000112B0FF04DF910B99FED030B08BD9FED2A
:10416000040B08BDAFF30080000000000000000059
:10417000000000000000F03F08B551EC100B53ECBC
:10418000112B0FF02BF910B99FED030B08BD9FED1C
:10419000040B08BDAFF30080000000000000000029
:1041A000000000000000F03F08B551EC100B53EC8C
:1041B000112B0FF0FFF810B99FED030B08BD9FED19
:1041C000040B08BDAFF300800000000000000000F9
:1041D000000000000000F03F08B551EC100B53EC5C
:1041E000112B0FF0F1F810B99FED030B08BD9FEDF7
:1041F000040B08BDAFF300800000000000000000C9
:10420000000000000000F03F08B551EC100B53EC2B
:10421000112B0FF0C5F810B99FED030B08BD9FEDF2
:10422000040B08BDAFF30080000000000000000098
:10423000000000000000F03F08B551EC100B53ECFB
:10424000112B0FF0ADF810B19FED030B08BD9FEDE2
:10425000040B08BDAFF30080000000000000000068
:10426000000000000000F03F07B50023002251ECE1
:10427000100B8DED001B0FF093F858B99DED001B4E
:104280000022002351EC110B0FF08AF8B0FA80F0F5
:10429000400900E000200EF0B5FD41EC100B03B02A
:1042A0005DF804FB07B50023002251EC100B8DEDE7
:1042B000001B0FF075F858B19DED001B0022002384
:1042C00051EC110B0FF06CF8B0FA80F0400900E0EF
:1042D00001200EF097FD41EC100B03B05DF804FBDC
:1042E00008B50022002351EC100B0FF059F810B95B
:1042F0009FED030B08BD9FED040B08BDAFF30080DD
:104300000000000000000000000000000000F03F7E
:1043100008B50022002351EC100B0FF041F810B14A
:104320009FED030B08BD9FED040B08BDAFF30080AC
:104330000000000000000000000000000000F03F4E
:1043400008B50022002351EC100B0FF029F80030C3
:1043500018BF012040420EF055FD41EC100B08BD86
:1043600008B50022002351EC100B0FF019F8B0FA39
:1043700080F0400940420EF045FD41EC100B08BDB5
:104380002DE9F84310F0180718BF00F007074FEAAF
:10439000870910F0100F14BF0423002309F114063D
:1043A0001E4404463046884606F018FC324600217A
:1043B00005460FF032FA47B1B8F1000F05D04A4672
:1043C000414605F110000FF01DFA00232C60AB6090
:1043D0002846BDE8F883000038B555EC104B0022A4
:1043E000002310EE100A29460EF0E4FFE0B914A3F2
:1043F000D3E90023204629460EF0FAFFB8B9294632
:1044000020460FF03DF801231A464FF0FF31984245
:1044100006D3B1FBF2F49C4209D35A430133F6E7C9
:1044200010460EF0DFFC04E00020034901E00349E0
:10443000002041EC100B38BD0000F87F0000F07F39
:104440000000E0FFFFFFEF41F8B555EC104B0022F4
:10445000002310EE100A294657EC116B0EF0AAFF4C
:1044600000283FD100220023304639460EF0A2FF3B
:10447000C0BB32463B46204629460EF09BFF88BB18
:104480001FA3D3E90023204629460EF0B1FF60BBED
:104490001BA3D3E90023304639460EF0A9FF20BB09
:1044A000294620460EF0ECFF3946044630460EF011
:1044B000E7FFB0EB540F88BF201A01231A46241AD5
:1044C0004FF0FF35904209D3A118B5FBF1F69E429B
:1044D0000BD34B43B3FBF2F30132F3E718460EF074
:1044E00081FC04E00020044901E00449002041EC83
:1044F000100BF8BDAFF300800000F87F0000F07FE4
:104500000000E0FFFFFFEF4100B52DED028BB0EEA4
:10451000418AF0EE618A83B0FFF796FF51EC100BF1
:10452000B0EE480AF0EE680ACDE90001FFF754FF4B
:10453000DDE9000153EC102B0EF0CAFC41EC100B2E
:1045400003B0BDEC028B5DF804FB10B5044630B13E
:1045500000F006F82046BDE8104006F047BB10BD4D
:1045600010B5044630B3036803F01F03093B0E2B5C
:1045700020D8DFE803F01A1714110E0B081F1A17C2
:1045800014110E0B0800806AFFF7DFFF606AFFF767
:10459000DCFF206AFFF7D9FFE069FFF7D6FFA069CB
:1045A000FFF7D3FF6069FFF7D0FF2069BDE8104037
:1045B000FFF7CBBF10BD00002DE9F74F1823DFF840
:1045C00070B28360044665682B7813B91A23A36020
:1045D0000CE1A3F13002092A01D92E2B07D1211DAC
:1045E000284610F029FF1E2384ED040BF3E0613B05
:1045F000192B5AD863681A78A2F16101192902D8D7
:1046000001336360F6E7A2F130010929F8D95F2A86
:10461000F6D0E669C5EB03087EB1276A77B1D6F814
:10462000009042464946284610F0C0F810B919F8E3
:1046300008302BB31036013FF0E737464FF0170A2A
:10464000C7EB0A0907EB69094FEA09130BEB0306ED
:104650005BF80330019342461946284610F0A6F84D
:10466000002840F0BE80019B13F808301BB9002ED3
:1046700000F0B08004E009F1FF3A5745E0DDA9E021
:10468000B36803F01F030F2B06DC082B09DA002B9D
:1046900040F0A2801F2305E0172B00F39D80F368F4
:1046A000A361B368A36073683DE06A1C62602B7805
:1046B0002A2B3ED01ED8212B43D00CD80D2B00F036
:1046C0008B8004D8093B012B40F2868082E0202BAE
:1046D00000F082807EE0262B66D005D8252B79D18C
:1046E0002023A360434B1EE0282B6FD0292B71D1D0
:1046F0001D2370E03C2B3BD00AD82C2B68D00FD365
:104700002D2B12D02F2B65D12023A3603A4B0AE02A
:104710003E2B3BD023D35E2B0FD07C2B4DD059E0CA
:104720002023A360354B236156E02023A360344B44
:10473000F9E72023A360334BF5E72023A360324B36
:10474000F1E7AB1C63606B783D2B4FF020030BBF90
:10475000A360A3602D4B626018BF2D4BE3E7AB1C39
:1047600063606B783D2B35D12023A360294BDAE7BA
:10477000AB1C63606B783D2B4FF020030BBFA36035
:10478000A360254B626018BF244BCCE7AB1C636071
:104790006B783D2B4FF020030BBFA360A360204B31
:1047A000626018BF1F4BBEE7AB1C63606B78262BA3
:1047B00010D12023A3601C4BB5E7AB1C63606B7862
:1047C0007C2B07D12023A360184BACE71C2302E00D
:1047D0001B2300E01923A360A368182B3FF4F3AE5A
:1047E00004E07FF748AF09F1010746E703B0BDE8F1
:1047F000F08F00BFB1E10D0015410D00D9400D0053
:10480000ED400D0001410D00B1E40D0039420D00F5
:10481000E1420D0009420D00D9410D00A9410D00F2
:1048200079410D0049410D0069420D00A5420D007E
:10483000586B0E0073B5054600F0F6F90B4E0446B2
:10484000AB681B2B0ED12846FFF7B6FE2846009416
:1048500000F0EAF9694601902A20FFF791FD04462D
:104860008660EDE7204602B070BD00BF3B410D0001
:104870002DE9F0410446806800F01F03083B172B28
:1048800000F28A80DFE803F01E334646464646467D
:104890001E334646464646468888888877880C16E2
:1048A00000210120FFF76CFDD4E904230546C0E98F
:1048B00002236DE000210846FFF762FD2369836053
:1048C000054665E00021FFF75BFD23698360A3686F
:1048D000D90644BFA369036105462046FFF76CFE75
:1048E000A3681C2B63D12046FFF766FE4AE0002137
:1048F000FFF746FD23698360A368DA0644BFA36916
:10490000436105462046FFF757FE204600F054F865
:1049100028614CE010F018064FF0000118BF00F0BD
:104920000706FFF72DFD23698360A368DB0642BFFE
:10493000331DA26940F8232005462046FFF73CFEC0
:10494000A3681C2B21D105F10C080027B7420AD01F
:104950002046FFF731FE204600F066F948F8040FC4
:10496000A3681B2B05D0A3681D2B0ED1013EBE42B0
:104970000AE00137EAE72046FFF71EFE2046FFF770
:1049800059FF0546A3681D2B02D01923A3600EE032
:104990002046FFF711FE0AE000210846FFF7F0FC71
:1049A0001923A360034B0022C0E9022305462846D1
:1049B000BDE8F0810000F87F2DE9F043394F3A4D12
:1049C00087B004460126A368202B02D0012E44D1D3
:1049D00027E02369DFF8CC80BB4203D12046FFF7F4
:1049E000EBFDF0E7AB42DFF8C09001D17642F5E78E
:1049F0002E4F0025A368202B10D12369434503D1F6
:104A00002046FFF7D9FDF5E74B45F9D0BB4205D16C
:104A10000DB16D42F4E74FF0FF35F1E7012E1BD1E8
:104A20001DB92046FFF724FF39E00135204609D1A2
:104A3000FFF71EFF06A941F8140D2920FFF7A0FC7F
:104A40001A4B2BE0FFF714FF06A941F8100D29209F
:104A5000FFF796FC164B21E055B92046FFF708FFFB
:104A600006A941F80C0D2920FFF78AFC114B15E02F
:104A70000135204609D1FFF7FBFE06A941F8080DD4
:104A80002920FFF77DFC0C4B08E0FFF7F1FE06A99B
:104A900041F8040D2920FFF773FC084B836007B031
:104AA000BDE8F083D9400D00ED400D00E1420D005E
:104AB00011430D0029410D0041430D0061430D00DC
:104AC00073B50546FFF778FF0C4E0446AB68202B04
:104AD00011D12B69B3420ED12846FFF76DFD284650
:104AE0000094FFF769FF694601902A20FFF748FC10
:104AF00004468660EAE7204602B070BDB1E40D00CE
:104B00002DE9F7430646FFF7DBFFDFF84880DFF8C3
:104B100048900F4F0446B368202B15D135694545A1
:104B20000ED13046FFF748FD30460094FFF7C8FF2E
:104B3000694601902A20FFF723FC04468560EAE7D6
:104B40004D45EED0BD42ECD0204603B0BDE8F08329
:104B5000B1E10D0001410D0015410D002DE9F341BA
:104B60000546FFF7CDFFDFF840800E4F0446AB68E7
:104B7000202B13D12E6946450ED12846FFF71CFD88
:104B800028460094FFF7BCFF694601902A20FFF7F2
:104B9000F7FB04468660EAE7BE42EED0204602B04C
:104BA000BDE8F081ED400D00D9400D002DE9F7433F
:104BB0000646FFF7D3FF164FDFF86480DFF86490F6
:104BC0000546B368202B1ED13469BC420ED1304655
:104BD000FFF7F2FC30460095FFF7C0FF69460190F1
:104BE0002A20FFF7CDFB05468460EAE74445EED076
:104BF0004C45ECD0074B9C42E9D0074B9C42E6D099
:104C0000064B9C42E3D0284603B0BDE8F08300BFCA
:104C100049410D00D9410D0009420D0039420D00F6
:104C200079410D00A9410D002DE9F3410546FFF73B
:104C3000BDFFDFF840800E4F0446AB68202B13D138
:104C40002E6946450ED12846FFF7B6FC284600944B
:104C5000FFF7ACFF694601902A20FFF791FB04465D
:104C60008660EAE7BE42EED0204602B0BDE8F081A1
:104C7000A5420D0069420D0070B504462DED0C8B68
:104C8000002800F0D182036803F01F020F2A08DC1D
:104C9000082A0EDA4AB1012A40F0C68290ED020BD2
:104CA000C4E2172A40F35B81BEE2836893ED000BF8
:104CB000BCE213F0180F85680DD003F00703013B29
:104CC000062B08D8DFE813F00D0016002E00510067
:104CD0007F00B800FC00BDEC0C8B2B46BDE870409B
:104CE00018470069FFF7C8FFBDEC0C8B2B46BDE8E9
:104CF000704018470069FFF7BFFF6069B0EE408A57
:104D0000F0EE608AFFF7B8FFB0EE401AF0EE601ADE
:104D1000B0EE480AF0EE680ABDEC0C8B2B46BDE8FD
:104D2000704018470069FFF7A7FF6069B0EE408A3E
:104D3000F0EE608AFFF7A0FFA069B0EE409AF0EEB7
:104D4000609AFFF799FFB0EE491AF0EE691AB0EEDB
:104D5000402AF0EE602AB0EE480AF0EE680ABDEC98
:104D60000C8B2B46BDE8704018470069FFF784FFA5
:104D70006069B0EE408AF0EE608AFFF77DFFA069BF
:104D8000B0EE409AF0EE609AFFF776FFE069B0EE81
:104D900040AAF0EE60AAFFF76FFFB0EE4A2AF0EEED
:104DA0006A2AB0EE491AF0EE691AB0EE403AF0EE17
:104DB000603AB0EE480AF0EE680ABDEC0C8B2B4668
:104DC000BDE8704018470069FFF756FF6069B0EE14
:104DD000408AF0EE608AFFF74FFFA069B0EE409A7C
:104DE000F0EE609AFFF748FFE069B0EE40AAF0EEFF
:104DF00060AAFFF741FF206AB0EE40BAF0EE60BA59
:104E0000FFF73AFFB0EE4B3AF0EE6B3AB0EE4A2ABB
:104E1000F0EE6A2AB0EE404AF0EE604AB0EE491A6F
:104E2000F0EE691AB0EE480AF0EE680ABDEC0C8BA1
:104E30002B46BDE8704018470069FFF71DFF606909
:104E4000B0EE408AF0EE608AFFF716FFA069B0EE80
:104E5000409AF0EE609AFFF70FFFE069B0EE40AACB
:104E6000F0EE60AAFFF708FF206AB0EE40BAF0EE5D
:104E700060BAFFF701FF606AB0EE40CAF0EE60CAA8
:104E8000FFF7FAFEB0EE4C4AF0EE6C4AB0EE4B3A49
:104E9000F0EE6B3AB0EE405AF0EE605AB0EE4A2AAD
:104EA000F0EE6A2AB0EE491AF0EE691AB0EE480A3E
:104EB000F0EE680ABDEC0C8B2B46BDE8704018473D
:104EC0000069FFF7D9FE6069B0EE408AF0EE608AB3
:104ED000FFF7D2FEA069B0EE409AF0EE609AFFF7BD
:104EE000CBFEE069B0EE40AAF0EE60AAFFF7C4FE88
:104EF000206AB0EE40BAF0EE60BAFFF7BDFE606A1D
:104F0000B0EE40CAF0EE60CAFFF7B6FEA06AB0EE9F
:104F100040DAF0EE60DAFFF7AFFEB0EE4D5AF0EE99
:104F20006D5AB0EE4C4AF0EE6C4AB0EE406AF0EECC
:104F3000606AB0EE4B3AF0EE6B3AB0EE4A2AF0EE11
:104F40006A2AB0EE491AF0EE691AB0EE480AF0EE9D
:104F5000680ABDEC0C8B2B46BDE87040184713F077
:104F6000180F85680DD003F00703013B062B08D806
:104F7000DFE813F00E001900330058008800C3006A
:104F80000901BDEC0C8B20692B46BDE87040184729
:104F900046690069FFF770FEBDEC0C8B30462B466E
:104FA000BDE87040184786690069FFF765FE6069D3
:104FB000B0EE408AF0EE608AFFF75EFEB0EE401A77
:104FC000F0EE601AB0EE480AF0EE680ABDEC0C8B09
:104FD00030462B46BDE870401847C6690069FFF7A8
:104FE0004BFE6069B0EE408AF0EE608AFFF744FE47
:104FF000A069B0EE409AF0EE609AFFF73DFEB0EE89
:10500000491AF0EE691AB0EE402AF0EE602AB0EECE
:10501000480AF0EE680ABDEC0C8B30462B46BDE822
:1050200070401847066A0069FFF726FE6069B0EE17
:10503000408AF0EE608AFFF71FFEA069B0EE409A4A
:10504000F0EE609AFFF718FEE069B0EE40AAF0EECD
:1050500060AAFFF711FEB0EE4A2AF0EE6A2AB0EE1F
:10506000491AF0EE691AB0EE403AF0EE603AB0EE4E
:10507000480AF0EE680ABDEC0C8B30462B46BDE8C2
:1050800070401847466A0069FFF7F6FD6069B0EEA8
:10509000408AF0EE608AFFF7EFFDA069B0EE409A1B
:1050A000F0EE609AFFF7E8FDE069B0EE40AAF0EE9E
:1050B00060AAFFF7E1FD206AB0EE40BAF0EE60BAF8
:1050C000FFF7DAFDB0EE4B3AF0EE6B3AB0EE4A2A5B
:1050D000F0EE6A2AB0EE404AF0EE604AB0EE491AAD
:1050E000F0EE691AB0EE480AF0EE680ABDEC0C8BDF
:1050F00030462B46BDE870401847866A0069FFF7C6
:10510000BBFD6069B0EE408AF0EE608AFFF7B4FD47
:10511000A069B0EE409AF0EE609AFFF7ADFDE0694D
:10512000B0EE40AAF0EE60AAFFF7A6FD206AB0EE4E
:1051300040BAF0EE60BAFFF79FFD606AB0EE40CA79
:10514000F0EE60CAFFF798FDB0EE4C4AF0EE6C4A04
:10515000B0EE4B3AF0EE6B3AB0EE405AF0EE605AD9
:10516000B0EE4A2AF0EE6A2AB0EE491AF0EE691A59
:10517000B0EE480AF0EE680ABDEC0C8B30462B46C8
:10518000BDE870401847C66A0069FFF775FD6069A1
:10519000B0EE408AF0EE608AFFF76EFDA069B0EED7
:1051A000409AF0EE609AFFF767FDE069B0EE40AA22
:1051B000F0EE60AAFFF760FD206AB0EE40BAF0EEB4
:1051C00060BAFFF759FD606AB0EE40CAF0EE60CAFF
:1051D000FFF752FDA06AB0EE40DAF0EE60DAFFF7BA
:1051E0004BFDB0EE4D5AF0EE6D5AB0EE4C4AF0EE7B
:1051F0006C4AB0EE406AF0EE606AB0EE4B3AF0EE08
:105200006B3AB0EE4A2AF0EE6A2AB0EE491AF0EE96
:10521000691AB0EE480AF0EE680ABDEC0C8B304615
:105220002B46BDE8704018479FED030BBDEC0C8B7F
:1052300070BD00BFAFF30080000000000000F87FE9
:10524000F8B52DED028B0268012A044627D9930692
:1052500025D512F0180318BF02F00703033300F13D
:105260000C0600EB83050127AE4209D056F8040F67
:10527000FFF7E6FF33681B68012B18BF0027F3E731
:105280006FB12046FFF7F8FC2046B0EE408AF0EE02
:10529000608AFFF765F984ED028B01232360BDEC82
:1052A000028BF8BD30B58BB01D460190009068466A
:1052B00007910892FFF780F96846FFF7BBFA029B57
:1052C0001A2B04460DD0FFF740F90DB900200EE06F
:1052D0009DE80500101A01D02860F7E701232B6034
:1052E00005E0FFF7ADFF0DB100232B6020460BB0AA
:1052F00030BD7047014B01221A707047C4DE032095
:1053000038B5064D002404F160002844103C05F037
:1053100089FE14F1700FF6D138BD00BF18D70320F5
:1053200037B59DF8184023438DF800303C230546DF
:1053300006F09CFD284603B030BD002211464068AF
:1053400005F0DCBB00231A461946406805F0DEBBB9
:1053500073B51E4B1D7806460C46B5B902A801224E
:105360001A7040F8045D2A46294605F097F9019B1A
:105370001E2B0AD103232068A3710823A580258151
:10538000638110B105F032FC2560B4F904300BB92B
:1053900022689AB1216859B18A88012A03D0042A67
:1053A00006D1022205E089896181A271238105E08D
:1053B000042223814FF6FF73A271638154F8063FE4
:1053C0003360A388B380304602B070BDB4D60320EA
:1053D00008B505F03BF9034B1860BDE8084005F03F
:1053E000C5BB00BF08E603200022043005F006BB61
:1053F00010B5044B036004460021FFF7F5FF20467B
:1054000010BD00BF646D0E0010B50446FFF7F0FF3D
:105410002046202107F04AFF204610BD03682BB12B
:105420004268934202D218460EF0D9B80020704765
:1054300038B50568044645B143689D4205D2284603
:105440000FF0ACF9013005442560204638BDF8B5B1
:1054500004460F46466821B90368721C426099559C
:10546000F8BD08460FF09AF9A368451CAA199A429C
:1054700008D820682A46394630440EF0C3F96368DC
:105480001D446560F8BD000070B504464068A6681C
:105490002568054A0B46311A284405F0C7FB6368A6
:1054A00001301844606070BDC36D0E0070B50446D5
:1054B0004068A6682568054A0B46311A284405F05D
:1054C000B5FB636801301844606070BDC66D0E00A6
:1054D0002DE9F04F92468FB0994606461D46884604
:1054E0000124C9EB05039A457BD918F8017B07F025
:1054F000A9FE394607F08FF807F0A4FE07F096F8EA
:1055000078BB06F0D1FF3949834602A805F0D1FDEA
:10551000314602A805F06CFE354905F075FE3549A7
:1055200005F072FE10220190394606A805F024FE0F
:10553000019B06A9184605F05BFE01460AA805F086
:10554000F7FD0A99584605F042FF0AA805F06AFDE2
:1055500006A805F067FD02A805F064FD01232B7085
:105560003CE007F06FFE07F068F807F06BFE394685
:1055700007F051F807F066FE07F058F80028C0D091
:1055800006F092FF1949044602A805F092FD314643
:1055900002A805F02DFE184905F036FE154905F064
:1055A00033FE10228346394606A805F0E5FD06A91C
:1055B000584605F01DFE01460AA805F0B9FD0A99F6
:1055C000204605F004FF0AA805F02CFD06A805F00A
:1055D00029FD002402A805F025FD2C7010360135A8
:1055E0007FE720460FB0BDE8F08F00BFCA6D0E0008
:1055F000E26D0E00D26D0E00DE6D0E0010B506F0ED
:1056000053FF064905F0E3FE40F22C43044A0548E7
:105610000021BDE8104004F016B900BF2A6E0E004C
:1056200080DA0320E8D6032010B506F03DFF0649D6
:1056300005F0CDFE40F22C43044A05480021BDE8A8
:10564000104004F0B3B800BF376E0E0080DA0320BC
:10565000E8D6032008B5054B00221A7006F024FF97
:105660000349BDE8084005F0B2BE00BF44DA03209C
:10567000456E0E001FB50968684605F01AFD6846BC
:1056800005F00DFE009905480EF050FBFFF7B6FF40
:10569000684605F0C7FC05B05DF804FB90DB03200D
:1056A0001FB50968684605F004FD684605F0F7FD7A
:1056B000009905480EF03AFBFFF7A0FF684605F099
:1056C000B1FC05B05DF804FB90DC03201FB5096850
:1056D000684605F0EEFC684605F0E1FD00990548D6
:1056E0000EF024FBFFF78AFF684605F09BFC05B02F
:1056F0005DF804FB90DD032008B508680DF06CFF31
:1057000051EC100B0DF0DCFE024B1860BDE80840B8
:10571000FFF774BF90DE032008B508680DF05FFF47
:10572000034B01280CBF002201221A7008BD00BFE4
:1057300045DA032008B5074B1A78074B93F8141481
:10574000914205D083F81424FFF758FF012008BDCB
:10575000002008BD1CE2032080DA032008B5074BB7
:105760001A78074B93F81514914205D083F8152445
:10577000FFF744FF012008BD002008BDCDDE032057
:1057800080DA032008B5074B1A78074B93F81614F4
:10579000914205D083F81624FFF730FF012008BDA1
:1057A000002008BDCCDE032080DA032038B5046871
:1057B00005467CB16368013B63605BB923682046A2
:1057C0009B689847A368013BA3601BB923682046E8
:1057D000DB689847284638BD10B5044B044640F8AE
:1057E000183BFFF7E3FF204610BD00BFBC810E0051
:1057F00038B5054622B90368C9B29B68984702E0EC
:10580000D2B205F0EEFD0446284605F0D4FD204452
:1058100038BD38B505461AB903689B68984702E059
:10582000D2B205F0DEFD0446284605F0C4FD204452
:1058300038BD000010B508680B4C0DF0D0FE0030EC
:1058400018BF012084F81704FFF7D8FE06F02CFEDD
:10585000064905F0A9FD06F027FE0A2294F8171460
:10586000FFF7D7FF10BD00BF80DA0320906E0E0057
:1058700010B508680B4C0DF0B2FE003018BF0120C7
:1058800084F81804FFF7BAFE06F00EFE064905F08C
:105890008BFD06F009FE0A2294F81814FFF7B9FFF1
:1058A00010BD00BF80DA0320B96E0E0010B5086885
:1058B0000B4C0DF094FE003018BF012084F8190441
:1058C000FFF79CFE06F0F0FD064905F06DFD06F0C1
:1058D000EBFD0A2294F81914FFF79BFF10BD00BFDF
:1058E00080DA0320E16E0E0010B508680B4C0DF055
:1058F00076FE003018BF012084F81A04FFF77EFE00
:1059000006F0D2FD064905F04FFD06F0CDFD0A2256
:1059100094F81A14FFF77DFF10BD00BF80DA032052
:10592000096F0E0010B508680B4C0DF058FE0030E2
:1059300018BF012084F81B04FFF760FE06F0B4FDD9
:10594000064905F031FD06F0AFFD0A2294F81B145C
:10595000FFF75FFF10BD00BF80DA0320326F0E003B
:1059600010B42AB903685DF8044B9B68C9B21847A4
:10597000D2B25DF8044B05F034BD000010B506F05E
:1059800093FD5B2105F014FD06F08EFD044604F046
:105990009DFD0A2201462046FFF7E2FF06F084FD46
:1059A0000249BDE8104005F0FFBC00BF576F0E0074
:1059B000F8B504460E461746FFF7E0FF06F074FD03
:1059C000214605F0F1FC37440124BE4228D016F8E8
:1059D000015BA5F120035E2B0BD824B906F064FD12
:1059E0005D2105F0E5FC06F05FFD294605F0E0FCD1
:1059F000EAE706F059FD002C14BF5B217C2105F07D
:105A0000D7FC0F2D04D806F04FFD302105F0D0FC57
:105A100006F04AFD1022294605F0E3FC0024D4E7F5
:105A200024B906F041FD5D2105F0C2FC06F03CFD05
:105A3000BDE8F84005F0BFBCF0B5476B87B0044641
:105A4000EFB1FFF79BFF06F02FFD314905F0ACFCED
:105A500006F02AFD616B05F0A7FC06F025FD3A2152
:105A600005F0A6FC06F020FD218F0A22FFF7C0FEFC
:105A70000023228F616B204606F0AEFF43E0FFF764
:105A80007DFF06F011FD224905F08EFC06F00CFDAD
:105A90000A2294F8231005F0A4FC06F005FD2E213F
:105AA00005F086FC06F000FD0A2294F8221005F0AD
:105AB00098FC06F0F9FC2E2105F07AFC06F0F4FCC7
:105AC0000A2294F8211005F08CFC06F0EDFC2E2142
:105AD00005F06EFC06F0E8FC254606460A2215F89D
:105AE000201F05F07EFC304605F065FC094B009355
:105AF0000FCD01AE0FC62B683370228F3B4669462F
:105B0000204606F0EBFF431E5842584107B0F0BD57
:105B10005A6F0E00D0800E0070B5416004461646E4
:105B20001D4604F0D3FCA0F59C5008382061E060CD
:105B30006061FFF723FF06F0B7FC034905F047FC5F
:105B400021684E630D8770BD696F0E0008B5002394
:105B50004377006807F03CF8BDE8084004F0BEBC9D
:105B60002DE9F04107460C4615462AB90368C9B22B
:105B70009B68BDE8F0411847002907DA0A2A05D1D9
:105B80002D2105F015FC6142064601E02146002664
:105B9000EAB2384605F025FC3044BDE8F08138B55E
:105BA0000546FFF7DDFF0446284605F004FC2044C7
:105BB00038BD000010B508680B4C0DF010FDC4F89E
:105BC000200406F071FC094905F0EEFB06F06CFCC0
:105BD0000A22D4F82014FFF7E2FF054B00221A70C6
:105BE000BDE81040FFF70ABD80DA0320F76F0E0012
:105BF000ACE1032070B508681E4C0DF0F0FCD4F841
:105C00001C64054606F050FC1B4905F0CDFB06F070
:105C10004BFC0A222946FFF7C2FF032D234601D180
:105C2000902203E0012D14BF64224822C3F81C24F3
:105C3000D3F81C349E421BD006F036FC0F4905F009
:105C4000B3FB06F031FC0B4B0A22D3F81C14FFF710
:105C5000A6FF06F029FC0A4905F0A6FBFFF7CEFCDB
:105C60004FF47A6005F096FEBDE8704005F0F0B89C
:105C700070BD00BF80DA032013700E0042700E006A
:105C800062700E0010B508460DF0A9FC084C094BD7
:105C9000206001221A7006F007FC074905F084FB1A
:105CA00006F002FC0A222168FFF779FF10BD00BF51
:105CB000A4D50320ACE1032075700E001FB5194C6C
:105CC00006F0F2FB184905F06FFB06F0EDFB0A2227
:105CD000D4F82014FFF763FFD4F82014134B0022EC
:105CE000032912D8DFE801F01102070C1B788DF8A8
:105CF00000200F4A0DE01B788DF800200D4A08E0C7
:105D00001B788DF800200C4A03E01B788DF80020EA
:105D10000A4A0B4902A8FFF703FB03A8FFF746FD59
:105D200004B010BD80DA03208D700E0014D703205C
:105D3000CD700E00DD700E00ED700E00BC700E0018
:105D4000BB790E0038B50546FFF70AFE0446284623
:105D500005F031FB204438BD2DE9F0418E188EB09E
:105D6000B14280460D4617460591069680F03D816A
:105D70000B88ADF8123005A8FFF75AFB03689E4266
:105D800040F2338105980378412B12D101300DF098
:105D900026FC052801DDFF240FE0059801300DF0F9
:105DA0001EFC0028F7DB059801300DF018FC0E30C2
:105DB00002E005A8FFF732FBC4B2BDF8123047F28B
:105DC0007622934200F0B7800DD847F261229342C9
:105DD0007DD047F26422934251D046F670529342EE
:105DE00040F0D48027E047F26472934259D047F2E2
:105DF0007672934200F0B08047F26172934240F0B5
:105E0000C58085E00378412B25D101300DF0E7FBFB
:105E1000052814DDFF2405A8FFF70AFB059D74493A
:105E200028460DF079FF0146D0B9204607F056F913
:105E300005A8FFF7FDFA05988642E3D8D5E0059856
:105E400001300DF0CCFB0028E4DB059801300DF0AB
:105E5000C6FB0E3002E005A8FFF7E0FAC4B2DAE7AD
:105E6000644928460DF058FF002800F0A4806249DC
:105E700028460DF051FF002800F09D809DE00AAB00
:105E8000079307A8102300255C4909930895FFF79D
:105E9000DEFA07A82146FFF7F7FA204607F048F98F
:105EA00026E005A8FFF7C4FA03689E4240F29D80F1
:105EB000A4B20121204607F011F905A8FFF7AEFAB8
:105EC000011C18BF0121204607F019F98DE00AAB2B
:105ED00007934B49102307A8002509930895FFF75E
:105EE000B6FA07A82146FFF7CFFA204607F033F9A4
:105EF000014607A8FFF7DAFA089B0295013B0093D9
:105F0000079B01952A461421404600F079FB6CE07E
:105F100005A8FFF78DFA03689E4266D9A4B2012155
:105F2000204607F0DBF805A8FFF778FA014620467F
:105F300007F028F959E00EAD204605F8104D04F0A1
:105F4000CFFA0346284623B12E4A934201D0984700
:105F50004BE004F0C1FA48E005A8FFF769FA059B99
:105F60000A935D1B7F1B20460B970C978DF81C40F6
:105F700004F0C0FA03460AA907A823B1224A9342B3
:105F800001D0984731E004F0A8FA2EE0FFF7F6FCC4
:105F900006F08AFA1D4905F007FA06F085FA294647
:105FA00005F015FA002302210091B8F81A20029397
:105FB00001931946A8E7012137E7FFF7DFFC06F058
:105FC00073FA134905F0F0F906F06EFA0A22214639
:105FD00005F007FA06F068FA0E4905F0E5F906F053
:105FE00063FA059905F0F3F922E70EB0BDE8F081F8
:105FF00013760E0015720E0001710E0005710E0071
:1060000008710E00D9A40D00DBA40D000B710E0069
:106010001C710E0029710E002DE9F0418EB004AF05
:106020000446052207F10C01006805F031FB054626
:10603000002800F0038205281AD1024607F10C015E
:10604000B648FFF7B5FCB7F80D20B7F80F80130A74
:1060500043EA02234FEA182242EA08289BB21FFAB9
:1060600088F8A7F80D30A7F80F8093B92C4601E007
:106070004FF0FF34FFF782FC06F016FAA84905F04E
:1060800093F906F011FA0A222146FFF788FD002055
:10609000D9E13B7B002B5FD104F018FA657FE0600B
:1060A000B7F80F00002D53D1B7F80D30012B4FD1A9
:1060B000092834D0C82801D004283AD1FFF75EFC63
:1060C00006F0F2F9974905F06FF906F0EDF963690A
:1060D000E1680A22C91AFFF743FC06F0E5F9924984
:1060E00005F075F9E36863610123637704F0F0F963
:1060F000054660B1FFF742FC06F0D6F98B4905F082
:1061000053F906F0D1F90A222946FFF71BFE204673
:1061100000F060FBFFF75CF900F064FF8EE1FFF731
:106120002DFC06F0C1F9824905F051F9032363778C
:10613000ADE7FFF723FC06F0B7F97E4905F034F927
:1061400006F0B2F90A22B7F80F10FFF751FB9EE7ED
:10615000053818BF012076E1B8F5806F11D9FFF737
:106160000DFC06F0A1F9744905F01EF906F09CF942
:106170000A22B7F80F10FFF73BFB2046FFF7E6FCBB
:106180005CE108F1080323F007036E46ADEB030D55
:1061900004AD42462946206805F07AFA804507D0CA
:1061A000FFF7ECFB06F080F9644905F010F963E0B5
:1061B000B7F80F200023AB541AB129465748FFF710
:1061C000F7FB04F083F93B7BE060112B00F0BC800F
:1061D00008D8062B36D00F2B00F09280022B40F00F
:1061E00016810CE01D2B0AD003D8142B00F08880F8
:1061F0000DE1292B32D0372B00F0F98007E1637FC6
:1062000003BBFFF7BBFB06F04FF94D4905F0DFF884
:106210000123637704F05CF9054660B1FFF7AEFB3C
:1062200006F042F9414905F0BFF806F03DF90A22AF
:106230002946FFF787FD204600F0CCFAFFF7C8F8A3
:1062400000F0D0FE0023C821B7F80D200091029382
:1062500001931946204600F0D3F9ECE0A3681BB97E
:10626000202004F0BBFCA060B7F80F80FD61A844BB
:106270004545C7F8208001D30020DDE029462022D3
:10628000A0680EF0A8FAA3680025DD7707F11C00CE
:10629000FFF7CEF80368434508D2F86920B13B6A9E
:1062A0009842C0F0CD80284685B200E05025FFF727
:1062B00065FB06F0F9F8234905F076F806F0F4F8E6
:1062C000A16805F071F806F0EFF83A2105F070F8D2
:1062D00006F0EAF80A222946FFF78AFA206806F053
:1062E00077FC2368A2685A631D870023637704F054
:1062F000EDF8A0F59C5008382061E06060619AE0FC
:10630000FB68C3F30F236383B7F80F2029462046A9
:10631000FFF722FD002363838DE000BF30710E0084
:1063200032710E0040710E004E710E0053710E005E
:106330005E710E0071710E0088710E0099710E0071
:10634000A9710E00AF710E0000233B71B7F80F303A
:106350007D612B449D42BB616DD22868B86007F116
:106360001400FFF765F87A69B7F80F30FA61511B2E
:106370005B1A3B627B62364ABB6893422BD00DD8D6
:10638000344A93421BD002F500320332934228D1A3
:1063900007F11C01381D04F0A0F84CE02E4A93428E
:1063A00013D002F19F6202F5003202F5807293422F
:1063B00017D107F11C01381DFFF74CF93BE007F13D
:1063C0001C01381D04F089F835E007F11C01381D67
:1063D00000F002FC2FE007F11C01381D04F07DF8ED
:1063E00029E0FFF7CBFA06F05FF81C4907E0B7F8A1
:1063F0000F3003B3FFF7C2FA06F056F8184904F05D
:10640000D3FF06F051F8294604F0E1FF13E0FFF74F
:10641000B5FA06F049F8134904F0C6FF06F044F84F
:106420000A220546397B04F0DCFF284604F0C3FF4E
:106430002046FFF78BFB0120B54604E0012002E077
:106440000DF0D1F830E72837BD46BDE8F08100BF38
:106450006D6574616F74610061636F6EBF710E0072
:10646000D5710E00DE710E002DE9FF4104460D4688
:10647000FEF7AEFF637F022B00F0A780237F628BC5
:106480000133DBB22377002A64D1022B62D8206863
:1064900006F0CBF940B1002D40F09980206806F05D
:1064A000AFFB002800F3938004F010F80746206843
:1064B00006F0BBF9657F012D06464DD128B967610D
:1064C0002046FFF743FB35467BE0E368484AFB1A6A
:1064D000934227D9FFF752FA05F0E6FF454904F049
:1064E00063FF05F0E1FF0A223946FFF739FA05F0AC
:1064F000DBFF414904F058FF05F0D6FF0A22E168AE
:10650000FFF72EFA05F0D0FF3B4904F04DFF05F0F0
:10651000CBFF0A226169FFF715FC2046FFF716FB47
:1065200000254EE04EF66022934203D82369FB1A01
:1065300093420FD9636940F6B832FB1A934209D9E6
:1065400000230293019300931A460621204600F08F
:1065500057F86761012534E0002DFBD16169791A94
:1065600078B140F6B8339942F4D9FFF707FA05F04D
:106570009BFF224904F02BFF206806F029FB65777A
:106580001FE041F288339942E4D9206806F020FBED
:106590002068FFF751FA054608B9676111E0D4F8A1
:1065A00004800127278340460EF0F8F843468DE823
:1065B000410002963A461D21204600F021F8236949
:1065C0006361237F013B23770EE000250CE020462A
:1065D000FFF722FD054600287FF460AF206806F033
:1065E000F7FA03F07BFFECE7284604B0BDE8F08142
:1065F000880D0100F4710E0008720E000B720E007F
:106600002DE9F04F83B000AF044600683D6B89462A
:1066100016469B46EA4606F008F9002871D0B9F103
:106620001D0F05D8674B23FA09F3DB0700F1C5807E
:10663000637F012B65D116B9668B002E66D0A9F158
:106640000C03082B6AD97A6BBBF1000F14BFA84664
:106650004FF00008002ABA6B08F1050314BF9046FA
:106660004FF00008984408F1070323F00703AA1825
:10667000ADEB030DC2F3072376BA43EA0223C7F852
:1066800004D08DF80090ADF80160ADF80330BBF197
:10669000000F63D0002D61D02A4659460DF1050048
:1066A0000DF0B0F8681D7B6B002B59D100254545D6
:1066B00062D2C5EB0806B6F5806F7B6828BF4FF441
:1066C000806603EB050926B1324649463E48FFF78E
:1066D0006FF932464946206806F091F806460020D8
:1066E00003F0F2FE002E45D1FFF748F905F0DCFE7D
:1066F000364904F06CFE206806F06AFA667703F00B
:10670000EDFE0C37D546BD46BDE8F08F238B013337
:106710009BB203B901232383268B90E7E3682269A8
:10672000934238BF134603F1420803F0CFFEC0EB9B
:10673000080000280ADB00212046FFF795FE03F041
:10674000C5FEC0EB08000028F5DA7CE7217F0029B0
:106750007FF479AF2046FFF787FE74E70520A2E7B4
:10676000BB6B002BA2D01A467B68796B18440DF0E6
:1067700049F89BE735449AE71BD0FFF7FFF805F08F
:1067800093FE134904F010FE05F08EFE0A222946FE
:10679000FFF7E6F805F088FE2F2104F009FE05F06A
:1067A00083FE0A224146FFF7CDFA2046FFF7CEF9D5
:1067B000A7E703F08BFE2061A3E7002E7FF443AF31
:1067C0003AE700BF4500002019720E001B720E0050
:1067D00025720E0000B595B004AB00220193492349
:1067E00000930292034B1121FFF70AFF15B05DF8E9
:1067F00004FB00BF786D0E00F0B5ADF2244D08AB80
:10680000002405460F46059305A84FF480630E4902
:10681000079316460694FEF71AFE394605A8FEF7BA
:1068200033FE314605A8FEF72FFE069B0294013B7E
:1068300000930194059B224614212846FFF7E0FEB1
:106840000DF2244DF0BD00BF2B720E00F0B5ADF27D
:10685000344D0CAB002405460F46059305A84FF4B4
:1068600080631149079316460694FEF7F0FD3946FA
:1068700005A8FEF709FE314608A804F059FC08995E
:1068800005A8FEF7E4FD08A804F0CCFB069B0294E3
:10689000013B00930194059B224614212846FFF7F3
:1068A000AFFE0DF2344DF0BD2B720E0070B592B0FC
:1068B0006249634C06A804F0FCFB6249624804F09C
:1068C0004AFC03F0C3FE614AD4F8283412689B1ACC
:1068D0001844C4F82804FEF791FE5D4B5A491B7812
:1068E00043B30AA804F024FC5A490AA804F08CFC1B
:1068F0000546594802F015FF584B59491A68594B3B
:1069000002440EA804F0E2FF0EA9284604F070FC31
:10691000504904F079FC544904F06AFC534904F0EE
:1069200073FC014606A804F0F4FB0EA804F07AFB01
:106930000AA811E00EA804F0FBFB4D490EA804F0D4
:1069400063FC494904F054FC484904F05DFC0146ED
:1069500006A804F0DEFB0EA804F064FB06A90EA84E
:1069600004F0E6FB0EAA1E214248FFF76FFF0EA8B7
:1069700004F058FB40F6B83005F00CF80022022174
:106980003D4803F059F8002203213B4803F054F836
:1069900006F058FC05F04DFE18B906F053FC05F062
:1069A00005FE05F081FD3549254D04F010FD344804
:1069B00000231A461946406804F0B0F800234FF44B
:1069C0007A7084F8243484F8253404F0E3FF94F8D2
:1069D0002444CCB105F068FD2A4904F0F8FC2A4BA8
:1069E00019680823ADF8283012AB012285F8252458
:1069F00003F8312D02914FF46171019100920AA9BF
:106A00000EA804F067FA14E005F04EFD1F4904F0EB
:106A1000DEFC01264FF4FA6085F8244485F82564ED
:106A200004F0B8FF1A4B22461B6831460EA804F04A
:106A300013FA06A804F0F6FA12B070BDF66F0E0055
:106A400080DA03202E720E00D8D7032078E10320CD
:106A5000ADDE03204C720E0074E10320A4D50320A8
:106A6000C0E2032033720E00E8D703203B720E0011
:106A70003D720E0034E20320ACDE03204E720E00A5
:106A8000E8E503205D720E00C8DE032074720E007C
:106A900070E10320F0B5ADF2344D0CAB0024054697
:106AA0000F46059305A84FF48063114907931646D6
:106AB0000694FEF7CCFC394605A8FEF7E5FC314606
:106AC00008A804F035FB089905A8FEF7C0FC08A843
:106AD00004F0A8FA069B0294013B00930194059BE5
:106AE000224614212846FFF78BFD0DF2344DF0BDF0
:106AF0002B720E00F0B5ADF22C4D0AAB0024064609
:106B00000D46079307A84FF4806317498DED050ADA
:106B100009930894FEF79BFC294607A8FEF7B4FCEE
:106B20009DED050A089B0999079D10EE100ACF1AE2
:106B30001D440CF079F90D4ACDE90001394628468B
:106B400004F074F8089B029401301844089001384E
:106B500000900194079B224614213046FFF750FD18
:106B60000DF22C4DF0BD00BF2B720E008C720E008A
:106B700038B5094D094C6A6820460B21FFF73CFEE9
:106B80002046AA680D21FFF737FE95ED030A0F2175
:106B90002046FFF7AFFF38BD80DA032034E2032040
:106BA00008B508680CF01BFD034B5860FEF726FD86
:106BB000BDE80840FFF7DCBF80DA032008B50868AD
:106BC0000CF00DFD034B9860FEF718FDBDE8084082
:106BD000FFF7CEBF80DA032008B5064B01221A70FA
:106BE000FFF7C6FF05F060FC0349BDE8084004F06C
:106BF000EEBB00BF44DA032092720E0010B50868A5
:106C00000CF0EDFC01280DD10D480E4C02F00EFBEE
:106C100084ED030AFEF7F2FC94ED030A0A480F2103
:106C2000FFF768FF00220E210748FFF7E5FD4FF44C
:106C30007A6004F0AFFEBDE8104004F009B900BF6F
:106C4000D0DE032080DA032034E20320F0B5ADF279
:106C5000244D08AB002405460F46059305A84FF4C4
:106C600080630E49079316460694FEF7F0FB3946FB
:106C700005A8FEF709FC314605A8FEF7E8FB069BD0
:106C80000294013B00930194059B2246142128465F
:106C9000FFF7B6FC0DF2244DF0BD00BF2B720E00C5
:106CA000F0B5ADF2244D08AB002405460F46059320
:106CB00005A84FF480630E49079316460694FEF725
:106CC000C6FB394605A8FEF7DFFB314605A8FEF7EF
:106CD000DBFB069B0294013B00930194059B22463B
:106CE00014212846FFF78CFC0DF2244DF0BD00BFA7
:106CF0002B720E0010B5464C464862680A21FFF719
:106D00007BFDA26843480C21FFF776FD626841488D
:106D10000B21FFF771FDA2683E480D21FFF76CFDC6
:106D200004F1100214213B48FFF790FF04F588722C
:106D300010213848FFF78AFF04F504721221354804
:106D4000FFF784FF04F544721A213248FFF77EFFF3
:106D500094ED030A2F480F21FFF7CCFE04F5826360
:106D600093ED000A2B481921FFF7C4FED4F8202424
:106D700028481721FFF740FD274A26481621FFF72C
:106D800065FF94F8172423481821FFF789FF94F82A
:106D9000182420481B21FFF783FF94F819241D486D
:106DA0001C21FFF77DFF94F81A241A481D21FFF7D4
:106DB00077FF94F81B2417482021FFF771FFD4F8C0
:106DC0001C34902B01D1032203E0482B0CBF01227D
:106DD00002221F210F48FFF70FFD104B1B7823B134
:106DE0000F4A0C481521FFF731FF0E4B1B6823603B
:106DF000012384F82434002384F8253405F054FB5F
:106E0000094904F0E4FABDE81040FEF7F7BB00BF03
:106E100080DA032034E203209C720E0045DA03205E
:106E2000B0720E0078D50320CB720E002DE9FF4121
:106E30000968684604F03DF96149684604F0F6F9CE
:106E4000002800F0B6805F4C5F4A60481621FFF7CB
:106E5000FDFE0523002501274FF00F08A3605C49C4
:106E6000C4F80480002304F11000E360256084F876
:106E7000247484F825540CF059FF564904F58870A1
:106E80000CF054FF534904F504700CF04FFF04F567
:106E90008266504904F544700CF048FF4E4B336055
:106EA000424664230A214948C4F81C34C4F82054DB
:106EB00084F8145484F8155484F8177484F818541A
:106EC00084F8197484F81A7484F81B74C4F828546C
:106ED000FFF792FCA2683D480C21FFF78DFC626829
:106EE0003A480B21FFF788FCA26838480D21FFF7CC
:106EF00083FC04F1100214213448FFF7A7FE04F5C7
:106F0000887210213148FFF7A1FE04F504721221A6
:106F10002E48FFF79BFE04F544721A212B48FFF719
:106F200095FE94ED030A29484146FFF7E3FD96EDEF
:106F3000000A26481921FFF7DDFDD4F82024234854
:106F40001721FFF759FC94F8172420481821FFF760
:106F5000A7FE94F818241D481B21FFF7A1FE94F802
:106F600019241A481C21FFF79BFE94F81A2417488D
:106F70001D21FFF795FE02221F211448FFF73CFC5C
:106F800094F81B2411482021FFF78AFE134802F0D1
:106F90008FFC134A0D481521FFF758FE05F084FABF
:106FA0000F4904F014FA4FF4FA7004F0F3FC03F004
:106FB0004FFF684604F036F804B0BDE8F08100BF2A
:106FC000E3720E0080DA03209C720E0034E203208C
:106FD000EB720E0001730E000000A041E8D6032002
:106FE00012730E001FB505F05FFA0B4904F0EFF9BC
:106FF0000A4B1A680A4B1B689A4201D0FFF77AFEC7
:1070000000230293019300931A4610210548FFF7CD
:10701000F7FA05B05DF804FB21730E0080DA032057
:1070200078D5032034E203202DE9F04FADF2D44DA2
:107030000546602200211CA80CF0EFFB7E4B1C9340
:107040007E4B20937E4B24937E4B28937E4C7F4B2C
:107050002C937F4B309323780DF1200B0DF1280AF0
:107060000DF130090DF1380810AF12AECDF874B043
:10707000CDF884A0CDF89490CDF8A4802D973196CA
:1070800023B12A4615217348FFF7E0FD07AB06221E
:107090001CA92846FEF706F90590002800F09D80FF
:1070A0006D4D68680BF0C0FECBE90001A8680BF0DD
:1070B000BBFECAE90001E8680BF0B6FEC9E90001B1
:1070C00028690BF0B1FE654AC8E9000110680BF0B1
:1070D000ABFE634AC7E9000110680BF0A5FE059BF3
:1070E000C6E900011846FDF7C7FD237857EC106B81
:1070F0005BB15C4934A804F01BF8564834AA15214A
:10710000FFF7A4FB34A803F08DFF237833B334AB2F
:1071100000251893544919954FF4806318A81A93C1
:10712000FEF795F9152118A8FEF7AEF9199B1A99E3
:1071300018984E4AC91A1844CDE9006703F076FD45
:10714000199B02950130184419900138009001955F
:10715000189B40482A461421FFF752FA23785BB166
:10716000434934A803F0E4FF3A4834AA1521FFF755
:107170006DFB34A803F056FF2378EBB13D4934A8EA
:1071800003F0D6FF34AA15213248FFF75FFB34A87D
:1071900003F048FF0022384B304639460CF000F926
:1071A00090B1294B1C780CB901243FE0334A29489F
:1071B0001521FFF74BFD39E000222F4B30463946B1
:1071C0000CF0EEF80028EFD12478002C2ED02C4AB9
:1071D00020481521FFF73AFD27E02A4934A803F09B
:1071E00068FF0A22079918A803F0D8FF18A934A845
:1071F00003F0FEFF014614A803F09AFF18A803F05D
:1072000011FF34A803F00EFF23785BB114A934A852
:1072100003F08EFF0F4834AA1521FFF717FB34A89F
:1072200003F000FF14A803F0FDFE002420460DF239
:10723000D44DBDE8F08F00BF4C730E0050730E00AC
:1072400054730E0058730E0045DA03205D730E0070
:1072500062730E0034E20320ECE103205CE10320C2
:1072600068E20320B0DE03202B720E0067730E006D
:1072700090E1032020E203200000F03F6D730E0038
:1072800084730E009C730E001FB50968684603F0F6
:1072900010FF684604F003F8009908480CF046FD1A
:1072A000FEF7ACF9064B1B7813B10448FFF7BCFEA0
:1072B000684603F0B7FE05B05DF804FB90DA0320E2
:1072C0007CE1032030B5ADF2244D08AB0024054627
:1072D000059305A84FF4806307930694FEF7B7F86B
:1072E000069B0294013B00930194059B224640219A
:1072F0002846FFF785F90DF2244D30BD70B52F4BB0
:107300002F4C1A781E46002A41D005F0CDF82D49A1
:1073100004F05DF800212C4802F072FD00212A489B
:1073200002F068FD284802F0B0FC03220546014641
:10733000254802F0A5FC60B105F0B6F8234904F039
:1073400046F800232370FEF71DFA01211E4802F0C3
:1073500051FD042229461C4802F092FCA8B105F018
:10736000A3F81B4904F033F801232370FEF70AFA4F
:1073700038B1184B93F81A341BB117491748FFF767
:10738000A1FF0121104802F03BFD00233370237858
:1073900033B9134B197819B9124B188805F0AFFEA1
:1073A000237853B10B4B93F8173433B10D4B0121B4
:1073B0001888BDE8704005F0A2BE70BDC4DE032091
:1073C000CCDE0320AE730E0048DA0320C8730E0033
:1073D000DB730E0080DA0320EC730E0034E203202E
:1073E000F8D7032070D5032070B5044600680E4618
:1073F00005F0EEFB0023637703F068F80546637F32
:10740000012B09D003F062F8401BB04204D20021E6
:107410002046FFF729F8F2E7607F431E58425841A3
:1074200070BD0000F8B5554D2846FDF786FF0446AF
:1074300030BB05F039F85249524E03F0C8FF2846D8
:10744000FDF780FF234622462146686803F03EFB95
:10745000204603F013F9002504460027002003F01E
:107460000DF9001B61EB05018F4208BF86425FD317
:107470004248FDF762FF00285AD103F077FBEDE7A1
:1074800005F012F8404903F0A2FF03F07FFB044629
:10749000F8B905F009F83D4903F099FF03F06EFBD8
:1074A000204603F0EBF8002504464EF65F26002741
:1074B000002003F0E3F8001B61EB05018F4208BFD9
:1074C000864248D303F062FB002844D103F04EFB10
:1074D000EEE704F0E9FF2E4903F079FF2D4C637FBE
:1074E000012B1ED004F0E0FF2B4903F070FF2B4B63
:1074F0002B491B882B4A2046FEF70EFB42F228310F
:107500002046FFF771FF002836D104F0CDFF264951
:1075100003F05DFFC82004F03DFABDE8F84003F039
:1075200097BC04F0C1FF2149BDE8F84003F04FBF0C
:107530001248FDF702FF1148FDF7FFFE0028A4D115
:1075400004F0B2FF1A4903F042FFC82004F022FA07
:1075500003F07EFC99E703F019FB03F017FB00280A
:10756000BCD104F0A1FF134903F031FFC82004F09F
:1075700011FA03F06DFCB1E7F8BD00BFE8E50320A8
:10758000F9730E001FBF020017740E0022740E0064
:107590005E740E0034E2032071740E0074D5032073
:1075A00080D5032093740E007C6E0E00A8740E002C
:1075B0006D6E0E0047740E0070B52E4C2046FDF720
:1075C000BCFE0546E0B904F06FFF2B4903F0FFFE57
:1075D0002A462946606803F081FA0546002848D10A
:1075E00004F062FF254903F0F2FE2046FDF7AAFEF3
:1075F0002B462A4629466068BDE8704003F066BA0B
:107600001F4C04F051FF1F4903F0E1FE637F012B83
:1076100012D004F049FF1C4903F0D9FE0021204696
:10762000FEF722FF42F228312046FFF7DDFE40B987
:1076300004F03AFF154902E004F036FF144903F064
:10764000C6FE03F0A3FA68B904F02EFF114903F057
:10765000BEFE03F093FA03F099FA50B904F024FF48
:107660000D4902E004F020FF0C49BDE8704003F032
:10767000AEBE70BDE8E503206D6E0E00F9730E001E
:1076800034E2032017740E0071740E007C6E0E003D
:10769000A8740E0022740E0047740E005E740E0073
:1076A0002DE9F04F2DED028BA5B0A54C04F0FCFEAA
:1076B000A44903F08CFE04F0F7FEA34903F074FE26
:1076C00004F0F2FE0A2294F81714FEF7A2F804F070
:1076D000EBFE9E4903F068FE04F0E6FE0A2294F8F1
:1076E0001814FEF796F804F0DFFE994903F05CFEEB
:1076F00004F0DAFE0A2294F81914FEF78AF804F06E
:10770000D3FE944903F050FE04F0CEFE0A2294F812
:107710001A14FEF77EF804F0C7FE8F4903F044FE0A
:1077200004F0C2FE0A2294F81B14FEF772F804F06B
:10773000BBFE8A4903F038FE04F0B6FE0A22D4F8F4
:107740001C14FEF72CFA04F0AFFE854903F02CFE62
:1077500004F0AAFE0A22D4F82014FEF720FA94F8C6
:1077600025342546002B00F0F88105F06BFD44F62A
:10777000206104F011FF0321082005F0AFFC04F0A4
:10778000E1FD4FF4E13104F0D1FD764C04F08CFEC4
:107790004FF4E13104F082FE642004F0FBF8012193
:1077A000208805F09BFC0021208805F0A8FC05F04E
:1077B00049FD04F0F5FE642004F0ECF804F074FEDA
:1077C000694903F004FE05F03DFD202104F023FF8C
:1077D00005F038FD04F02AFF002841D005F032FD05
:1077E00004F02BFF05F02EFD202104F014FF05F01E
:1077F00029FD04F01BFF98B304F056FE5B4903F02B
:10780000E6FD5B4B594A1B785A4900241BA88DF8AA
:107810000040FDF785FD1CA8FDF7C8FF0121564873
:10782000FDF7E2FD40F6B83004F0B4F821465248C6
:10783000FDF7DAFD01215148FDF7D6FD40F6B830DD
:1078400004F0A8F821464D48FDF7CEFD01214A4835
:10785000FDF7CAFD40F6B83004F09CF803F0F8FAE2
:107860004748DFF83481474F02F03CF801220221FB
:10787000434802F0E1F801220321414802F0DCF81C
:10788000642004F087F824AA002442F8344D04232D
:1078900021463D4801F08AFF04F006FE179B3B4A53
:1078A000012103F0A6FE04F0FFFD394903F08FFD2E
:1078B000344B384938480722FDF70AFE064604F0E3
:1078C000F3FD230153F8081003F06EFD04F0ECFD06
:1078D000324903F069FD04F0E7FD395D0A22013405
:1078E000FDF797FF072CEAD1002E5FD12C492D48D8
:1078F00003F031FC04F0D8FD2B4903F068FD0120B2
:1079000004F085F832463146FF2004F090F840F646
:10791000B83004F03FF8304604F079F805F092FCF6
:1079200004F08BFE05F08EFC04F083FE18B905F020
:1079300089FC04F035FE05F085FC04F037FE3EE0DE
:1079400080DA0320B8740E00CA740E00EB740E00C7
:10795000F9740E0007750E0016750E0026750E00E0
:107960003A750E0070D5032047750E0069750E003C
:1079700014D703209A750E00C8D60320F4D603202E
:10798000ACDE032010DF0320E8D60320A0750E0034
:10799000A6750E00A8D5032018D703203C800E0042
:1079A000BE750E00D8D70320C2750E00B649B74881
:1079B00003F0D1FB04F078FDB54903F008FDC820C1
:1079C00003F0E8FF0EB903F043FAB248B24E01F0FB
:1079D000A8FE044604F068FDB04903F0F8FC04F08A
:1079E00063FD0A222146FEF7BBF804F05DFDAC49B9
:1079F00003F0EDFC04F058FD3368AA49224607461F
:107A00001BA803F063FF1B99384603F0E0FC1BA89A
:107A100003F008FBA44B9C4227DCA4499D4801F0DD
:107A200037FE9C4801F07DFE044604F03DFDA04970
:107A300003F0CDFC04F038FD0A222146FEF790F851
:107A400004F032FD964903F0C2FC04F02DFD3368CA
:107A50009449074622461BA803F038FF1B99384675
:107A600003F0B5FC1BA803F0DDFA924B00241C7058
:107A700005F0E8FB0146904802F050FCFDF7D4FD0C
:107A800004F012FD8D4903F08FFC04F00DFD03F0AE
:107A900092FC8B4802F077F80421894802F0BEF886
:107AA00001231A461946864802F027F9D5F81C1416
:107AB000834802F0D3F801231A461946804802F0A1
:107AC0003BF9D5F81C147E4802F0CEF801260A21B5
:107AD0007B4802F0CFF823462246214601960096C5
:107AE000774802F03EF93146754802F089F931468F
:107AF000744E734802F07EF92146308805F0EEFAA4
:107B000022464FF0FF3370493088009404F042FC65
:107B10004FF4967003F03EFF02F098FD044602F029
:107B200095FD001BB0F5FA5FC0F0088500F062BD5E
:107B300004F0BAFC654903F04AFC02F087FD41F607
:107B4000A37604465C4802F056FA002800F00A8545
:107B50005F4A0023136085F825344B494B4803F0F6
:107B6000FAFAFFF729FD03F0E3FE28B3514B1A7828
:107B70001E460ABB03F0FDFE0146464801F088FDA3
:107B800003F0F7FE0446434801F0CBFD844200F0C9
:107B9000298503F0EEFE04463E4801F0C2FD201A9E
:107BA00009288CBF0020012030B10123337004F07C
:107BB0007BFC484903F00BFC474B1B780BB9FEF7E5
:107BC0007DF8FFF79BFB3C483B4C02F014FA002881
:107BD00000F061844149424FDFF81891DFF8FCA0C2
:107BE000204602F021FB3F49204602F031FB04F021
:107BF0005BFC3D4903F0EBFB00233B60B8463B6870
:107C0000374E032B1ADC04F04FFCD8F8003003F198
:107C1000010B0AEB8303064618680BF005F9CDE962
:107C20000001324A59F82B300021304603F0E1FCC4
:107C3000D8F800300133C8F80030E0E704F034FC35
:107C40002B49DFF8B080DFF89C9003F0C0FB0023E5
:107C500033603B68042B4FDC04F026FCD6F800A010
:107C600009EB8A03834618680BF0DEF8CDE90001C2
:107C70001E4A58F82A300021584603F0BAFC3368EF
:107C800001333360E5E700BFCC750E00D8D7032081
:107C9000D0750E0074E10320B8D50320D7750E000F
:107CA0003C800E00C0E203207F436D38003B3D4B1B
:107CB000DE750E00ADDE0320ECE10320E4750E005E
:107CC00048DA03207CD50320F5520D0016760E000D
:107CD00030E2032021760E00ACE1032060E10320B6
:107CE000C0DE032054E203203E760E0055760E00DF
:107CF00061760E005CD503206068C54FDFF87483A1
:107D00000BF092F802460B461BA8C24903F0DAFAC0
:107D10001BA9C14803F017FA1BA803F083F9A06858
:107D20000BF082F802460B461BA8BA4903F0CAFAC8
:107D30001BA9BA4803F007FA1BA803F073F9E0681F
:107D40000BF072F802460B461BA8B24903F0BAFAD0
:107D50001BA9B34803F0F7F91BA803F063F92069E6
:107D6000B04C0BF061F80B460246AA491BA803F081
:107D7000A9FA1BA9AC4803F0E6F91BA803F052F9D5
:107D8000AA4AAB48012101F0EFF907EE900AF8EE9C
:107D9000E77AC4ED007A04F087FBA64903F004FB00
:107DA00004F082FB94ED000A022103F0F9FB04F0D9
:107DB0007BFB03F000FB04F077FB9F4903F0F4FA30
:107DC00004F072FB01210646994801F081FA022174
:107DD000304603F0E5FB04F067FB03F0ECFA04F037
:107DE00063FB9649964E03F0DFFA964A90480121CC
:107DF00001F0BAF907EE900A0121B8EEE70A8C48C3
:107E000001F0A6FA86ED000A04F04EFB96ED000A9A
:107E1000022103F0DFFB30680BF006F802460B4648
:107E20001BA87C4903F04EFA1BA9874803F08BF985
:107E30001BA803F0F7F82068844C0AF0F5FF02460F
:107E40000B461BA8734903F03DFA1BA9804803F0B9
:107E50007AF91BA803F0E6F8212005F07CF90AF076
:107E6000D1FF65A3D3E900230BF032F80BF028FB18
:107E70000AF0DAFF62A3D3E900230BF029F841EC02
:107E8000100B06F011F960A3D3E9002351EC100B9D
:107E90000BF01EF80BF014FBDFED6E7A08EE100A03
:107EA000B4EE678AF1EE10FAC8BFB0EE678A18EE3A
:107EB000100A0AF0B9FF0B46024667491BA803F0F7
:107EC00001FA1BA9654803F03EF91BA803F0AAF8C4
:107ED00063491BA805F000F81BA804F0A9FFFDEEFC
:107EE000C07A604917EE902A17A803F0EBF917A99A
:107EF0005D4803F028F917A803F094F8464917A83D
:107F000003F016F9594917A803F07EF9434903F025
:107F10006FF9564903F078F9414903F069F953497B
:107F200003F072F9404903F063F9504903F06CF92A
:107F3000454903F05DF94D4903F066F9444903F002
:107F400057F94A4903F060F9444903F051F94749A8
:107F500003F05AF9444903F04BF90146204603F077
:107F6000D8F817A803F05EF82B4917A803F0E0F83B
:107F700017AA01213E48FEF769FC17A803F052F842
:107F8000264917A803F0D4F817AA02213848FEF7AB
:107F90005DFC17A803F046F8214917A803F0C8F8BC
:107FA00017AA03213248FEF751FC17A803F03AF84C
:107FB0001D4917A803F0BCF817AA04212C48FEF7A6
:107FC00045FC17A803F02EF81F4917A803F0B0F8D6
:107FD00017AA05212648FEF739FC17A803F022F856
:107FE0001B4917A803F0A4F817AA06212048FEF79A
:107FF0002DFC17A840E000BF9402C1D2AF63523FEE
:108000005AF5B9DA8A3D144048AFBC9AF2D77A3EA5
:108010001CE203207A760E0088D7032098D703202D
:10802000A8D7032068E20320B8D7032080760E008B
:10803000D0DE032082760E008A760E0091760E0046
:108040005CE103207E7A0E00C8D70320B0DE032057
:1080500080E103200000C84298760E00E8D7032094
:10806000E8E5032014820E00B8D60320D3710E0079
:1080700034E2032045DA032002F0D4FF774917A841
:1080800003F056F817AA07217548FEF7DFFB17A87B
:1080900002F0C8FF734917A803F04AF817AA08218D
:1080A0006F48FEF7D3FB17A802F0BCFF04F0FCF901
:1080B00021686D4C03F08BF96C4B6D49012603A8C8
:1080C0001E7002F0F6FF6A4907A802F0F2FF694845
:1080D000FEF7AAFF0246002800F083800022092153
:1080E0005F483E70FEF788FB324609215C48FEF788
:1080F00083FB23781BB3604917A802F0DAFF5F48BF
:1081000001F00FFB5E4B5F491A685F4B024413A8F6
:1081100003F0DCFB13A917A803F06AF85B4903F02E
:1081200073F84E4903F064F8594903F06DF80146BD
:1081300003A802F0EEFF13A802F074FF0EE0554909
:1081400017A802F0B6FF454917A803F051F85049A7
:1081500003F05AF8014603A802F0DBFF17A802F06B
:1081600061FF03A917A802F0E3FF17AA1E213C48EC
:10817000FEF76CFB17A802F055FF98F80030002BB3
:1081800000F0FE8003F0F5FB01460BA803F01AFB9C
:108190000BA90FA802F0CCFF3F490FA803F034F859
:1081A000374B0A221968044613A802F0F7FF13A9F7
:1081B000204603F01DF8014617A802F0B9FF17AAE0
:1081C00015212748FEF766FC17A802F02BFF13A81D
:1081D00002F028FF0FA802F025FF0BA802F022FFF3
:1081E000CEE001461E48FEF707FB2C4B1A7822B161
:1081F0002B492C4802F0AFFF324609211848FEF700
:10820000FBFA23782749002B4ED013A802F090FFE9
:108210001E4913A802F0F8FF0446184801F081FA3D
:10822000174B18491A68184B024417A803F04EFB65
:1082300017A9204602F0DCFF144902F0E5FF0749C8
:1082400002F0D6FF124902F0DFFF014603A802F058
:1082500060FF17A802F0E6FE13A837E0E8D7032076
:1082600034E20320B8D60320ADDE03207CE10320F6
:10827000F66F0E0090DA03209E760E0074E1032064
:10828000A4D50320C0E2032033720E004C720E000E
:108290003B720E00A5760E00B9760E00CCDE0320F0
:1082A000BB760E00D8D7032017A802F041FFB449CF
:1082B00017A802F0A9FFB34902F09AFFB24902F0F1
:1082C000A3FF014603A802F024FF17A802F0AAFEAC
:1082D000059B042B15DCAD4917A802F0F3FF17A985
:1082E00003A802F030FF17A802F09CFE04F0DCF8AF
:1082F000039903F06CF84FF47A7003F04BFB02F033
:10830000A7FD03A917A802F013FF17AA1E21A04872
:10831000FEF79CFA17A802F085FE98F800306BB3C0
:1083200003F027FB01460BA803F04CFA0BA90FA89A
:1083300002F0FEFE97490FA802F066FF964B0A2254
:108340001968044613A802F029FF13A9204602F079
:108350004FFF014617A802F0EBFE17AA15218C4823
:10836000FEF798FB17A802F05DFE13A802F05AFE74
:108370000FA802F057FE0BA802F054FE00233B703A
:10838000864C2378FBB102F061F9854B85491E6864
:10839000861B324617A802F095FF17A907A802F01E
:1083A000D2FE17A802F03EFE04F07EF8079903F013
:1083B0000EF8B6F5FA5F06D97B4B0021188804F059
:1083C0009EFE00232370FDF7B5F9002844D03B78CA
:1083D00053B395F81834DBB1734B0121188804F0BE
:1083E0008EFE02F033F96E4B70491860024617A8F2
:1083F00002F068FF17A907A802F0A5FE17A802F06F
:1084000011FE04F051F8079902F0E1FF01232370F7
:1084100095F8193403B366495D48FEF753FF02F03F
:1084200015F9644B186017E002F010F9614B6249CE
:108430001A680A23821A17A8B2FBF3F202F042FF6D
:1084400017A907A802F07FFE17A802F0EBFD04F0C1
:108450002BF8079902F0BBFF584B594CD3ED007A2B
:10846000B4EEE78AF1EE10FA4CBF0123002323702B
:10847000FDF774F940B1237833B195F81B341BB183
:1084800050494348FEF71EFF07A802F0CBFD03A8A2
:1084900002F0C8FD0EE0204601F03BFF50B904F0A9
:1084A00003F8494902F093FF4FF47A7003F072FA2F
:1084B00002F0CEFC454B464C1B78F3B10A222168F2
:1084C00013A802F06BFE13A917A802F031FE414970
:1084D00017A802F099FE01461BA802F029FE1BAA6C
:1084E00015212B48FEF7D6FA1BA802F09BFD17A812
:1084F00002F098FD13A802F095FD03F0D5FF0546A4
:1085000002F0A4F80A2201462846FDF729FA03F0F2
:10851000CBFF314902F048FF03F0C6FF0A22216871
:10852000FDF73DFB03F0C0FF02F045FF2368013378
:10853000236025B0BDEC028BBDE8F08F04F082FE15
:108540000146264801F0EAFE00287FF4F1AA03F074
:10855000ABFF234902F03BFF4FF47A7003F01AFAA5
:10856000FFF7DDBA02F072F8001BB0423FF6F0AA46
:10857000642003F00FFAFEF7C1FEFFF7E3BA00BF75
:108580003D720E00E8D703203B720E00C1760E004C
:1085900034E20320B9760E00A4D50320F8D70320D7
:1085A00040DA0320CA760E0070D50320E5760E006F
:1085B0000E770E00A0E1032019770E0090DE032055
:1085C000CDDE032040770E0055770E0045DA0320FC
:1085D00030E20320F56F0E003C800E00ECE103203A
:1085E000F2750E000A4801F09CF8044603F0C1F948
:1085F000FFF7D5BA03F058FF064902F0E8FE4FF442
:108600007A7003F0C7F902F023FCFFF796BA00BFB7
:1086100074E103207F770E00F0B58BB002F016F8FE
:10862000844B854C186004F00DFE44F6206103F085
:10863000B3FF0321082004F051FD03F083FE4FF443
:10864000E13103F073FE03F02FFF4FF4E13103F04B
:1086500025FF642003F09EF90121208804F03EFDEF
:108660000021208804F04BFD04F0ECFD03F098FF9E
:10867000642003F08FF903F017FF704902F0A7FEA2
:1086800004F0E0FD202103F0C6FF04F0DBFD03F061
:10869000CDFF002841D004F0D5FD03F0CEFF04F05B
:1086A000D1FD202103F0B7FF04F0CCFD03F0BEFFA5
:1086B00098B303F0F9FE624902F089FE614B604A0B
:1086C0001B786149002406A88DF80040FCF728FEBD
:1086D00007A8FDF76BF801215C48FCF785FE40F622
:1086E000B83003F057F921465848FCF77DFE0121C8
:1086F0005748FCF779FE40F6B83003F04BF92146B5
:108700005348FCF771FE01215048FCF76DFE40F61E
:10871000B83003F03FF902F09BFB4E4801F0E2F85D
:10872000012202214B4801F087F901220321494827
:1087300001F082F9642003F02DF90AAA002142F821
:108740001C1D0423444801F031F803F0ADFE039BE7
:10875000424A012102F04DFF04A84149FCF7F8FD0F
:1087600004A802F0EFFB032814D8DFE800F00206AB
:108770000A0E03F099FE3B490AE003F095FE3A49E0
:1087800006E003F091FE394902E003F08DFE38491E
:1087900002F01DFE03F088FE3649374F374E02F0D7
:1087A00016FE364B364934480722FCF791FE002569
:1087B000044603F079FE2B01D95902F0F5FD03F0D0
:1087C00073FE304902F0F0FD03F06EFE715D0A2287
:1087D0000135FDF71EF8072DEBD1002C5AD12A499F
:1087E0002A4802F0B8FC03F05FFE294902F0EFFDD1
:1087F000012003F00CF922462146FF2003F017F96F
:1088000040F6B83003F0C6F8204603F000F904F053
:1088100019FD03F012FF04F015FD03F00AFF18B96B
:1088200004F010FD03F0BCFE04F00CFD03F0BEFEEE
:1088300039E000BF78E1032070D50320A7770E0050
:1088400069750E0014D703209A750E00C8D6032050
:10885000F4D60320ACDE0320E8D60320A0750E007A
:1088600078E20320BE770E00E9770E0006780E004E
:1088700054780E00A6750E0018D7032010DF0320D1
:10888000A8D503203C800E00BE750E00D8D703206B
:10889000C2750E00C449C54802F05DFC03F004FE39
:1088A000C34902F094FDC82003F074F80CB902F03B
:1088B000CFFAC048C04D00F034FF044603F0F4FD89
:1088C000BE4902F084FD03F0EFFD0A222146FDF7C8
:1088D00047F903F0E9FDBA4902F079FD03F0E4FD40
:1088E0002B68B8492246064606A802F0EFFF069913
:1088F000304602F06CFD06A802F094FBB24B9C429D
:1089000027DCB249AB4800F0C3FEAA4800F009FFDB
:10891000044603F0C9FDAE4902F059FD03F0C4FD61
:108920000A222146FDF71CF903F0BEFDA44902F01E
:108930004EFD03F0B9FD2B68A2490646224606A863
:1089400002F0C4FF0699304602F041FD06A802F08D
:1089500069FB04F077FC9F4C9F4D01469F4801F056
:10896000DDFC9F4801F00FF9FCF75EFE22682B68E2
:108970009A4252D003F098FD9A4902F015FD03F097
:1089800093FD0A222168FDF70AF903F08DFD96494F
:1089900002F00AFD03F088FD0A222968FDF7FFF8BE
:1089A000182363600523A3609049914BE36004F1B1
:1089B00010000BF0BBF98F4904F588700BF0B6F985
:1089C0008C4904F504700BF0B1F98A4904F5447040
:1089D0000BF0ACF904F58263874A1A606422002325
:1089E000C4F81C24012284F8143484F8153484F863
:1089F000172484F8183484F8192484F81A2484F885
:108A00001B24C4F82834C4F8203403F04DFD7B49FE
:108A100002F0DDFCFEF706FD04E003F045FD7849B9
:108A200002F0D5FC03F040FD764902F0BDFC03F0F6
:108A30003BFD02F0C0FC6A4801F0A5F8042168483B
:108A400001F0ECF801231A461946654801F055F982
:108A5000D4F81C14624801F001F901231A461946A2
:108A60005F4801F069F9D4F81C145D4801F0FCF886
:108A70000A215B4801F0FEF8012500231A46194639
:108A800001950095564801F06CF92946544801F0CB
:108A9000B7F929465C4D524801F0ACF9288800210D
:108AA00004F01CFB00224FF0FF3358492888009245
:108AB00003F070FC03F0F8FC02F07DFC03F0F4FC22
:108AC00002F079FC03F0F0FC5149524D02F07FFCBA
:108AD00003F0EAFC504B196802F079FC03F0E4FC67
:108AE0004E4902F061FC03F0DFFC4D4B022193ED97
:108AF000000A02F06FFD03F0D7FC4A4902F054FC73
:108B000003F0D2FC484B022193ED000A02F062FD13
:108B100003F0CAFC454902F047FC03F0C5FC95EDA3
:108B20000A0A022102F056FD03F0BEFC94ED030A8E
:108B3000022185ED090A02F04DFD03F0B5FC3C4928
:108B400002F032FC03F0B0FC95ED0E0A022102F0B7
:108B500041FD03F0A9FC374902F039FC03F0A4FC05
:108B6000354902F034FC4FF4967002F013FF01F027
:108B70006DFD054601F06AFD401BB0F5FA5F80F01F
:108B8000B38004F05FFB0146144801F0C7FB0028E6
:108B900056D103F089FC294902F019FC4FF47A7090
:108BA00002F0F8FEE6E700BFCC750E00D8D7032030
:108BB000D0750E0074E10320B8D50320D7750E00E0
:108BC0003C800E00C0E203207F436D38003B3D4BEC
:108BD000DE750E0080DA032078D50320ECE1032057
:108BE00048DA0320B2780E00C9780E00DA780E0059
:108BF00000001CC312790E000000A04126790E006F
:108C000031790E00E4750E007CD50320F5520D007D
:108C100096790E00D0DE032020E2032040790E007A
:108C2000B4D5032058790E00B0D503206F790E001B
:108C300084790E008D790E00A1790E00F2750E0078
:108C400003F032FC2E4902F0C2FB2E4B2E4A1B8849
:108C50002E492F48FCF760FFFEF7AEFC002301937E
:108C600000931A462B492C4801F0A0FF2B4B1B7890
:108C70000BB9FDF723F801F0E9FC41F6A3760546B0
:108C8000274801F0B8F950B901F0E0FC401BB042B0
:108C900005D8642002F07EFEFEF730FBF0E7A36803
:108CA000204A21484FF47A71594301F09FFB1E4836
:108CB00001F0BEFB1D4A1E486F2101F097FB1C48C6
:108CC00001F0B6FB03F0F0FB1A4902F080FB1A49F1
:108CD0001A4802F040FAFEF7E3FC03F0E5FB1849FE
:108CE00002F075FB0BB0F0BD03F0DEFB154902F09E
:108CF0006EFB4FF47A7002F04DFE02F0A9F8A4E783
:108D000016760E0074D5032093740E0080D50320D0
:108D100034E20320855C0D00AD790E00ACE1032048
:108D2000ECE10320A1760D00FCD70320FD720D00BD
:108D300018DF0320C5790E00CC750E00D8D70320AC
:108D4000D4790E007F770E0013B51C491C4C684681
:108D5000FCF7FEFA684602F0F5F8022811D103F09C
:108D6000A3FB184902F033FB174B0021188884F845
:108D7000241404F0C4F94FF4FA6002F00BFEFDF77E
:108D800095FD00211148FDF76FFB114801F050FBE4
:108D9000104801F04DFB104B62681B689A420ADCD8
:108DA000094B0021188804F0AAF94FF4FA6002F088
:108DB000F1FDFDF77BFD02B010BD00BF78E203209E
:108DC00080DA0320E9790E0070D5032034E2032015
:108DD000FCD7032018DF032030E20320984B2DE955
:108DE000F74300251D60974B974E984CDFF8EC82B7
:108DF00001271F60964B1F7001F098FB304603F06F
:108E00009BFF06F11C0003F0EDF9224691497563C2
:108E10003046358704F03CFA8F4B2A461E605D6071
:108E20009D60DD601D615D611D835D831D775D77E4
:108E30001421022001F024FE884E01974FF01E09F4
:108E40000346CDF8009002228549304601F062FFCA
:108E500022464146304604F01BFA2A4614210220DD
:108E600001F00EFE7F4E01970346CDF800900222DE
:108E70004FF47F01304601F04DFF22464146304617
:108E800004F006FA7848794E794FDFF8548200F002
:108E9000DBFD04F0D7F92A460146304600F07EFC9F
:108EA00022467449304604F0F3F97348734E00F0DB
:108EB000DDFA734800F015FD724801F05AF82946B2
:108EC000304602F0F1FD22466F49304604F0E0F9E9
:108ED0006E4E3946404602F0ECF84046DFF8048218
:108EE0002246314604F0D4F93946404602F0E1F812
:108EF0004046DFF8F4812246314604F0C9F939468C
:108F0000404602F0D6F84046DFF8E081224631467E
:108F100004F0BEF93946404602F0CBF84046DFF88F
:108F2000D0812246314604F0B3F93946404602F07A
:108F3000C0F84046DFF8BC812246314604F0A8F96B
:108F40003946404602F0B5F84046DFF8AC8122468B
:108F5000314604F09DF93946404602F0AAF84046F1
:108F6000DFF898812246314604F092F939464046AE
:108F700002F09FF84046DFF888812246314604F02F
:108F800087F939464046424F02F093F8224631466F
:108F9000404604F07DF93F49384602F08AF83846E9
:108FA0003D4F2246314604F073F93C49384602F001
:108FB00080F838463A4F2246314604F069F939497B
:108FC000384602F076F822463146384604F060F919
:108FD000354E364801F0AFF9354801F0ACF9354966
:108FE000304602F066F8344906F1100002F061F8EC
:108FF000324906F1200002F05CF8314906F13000F8
:1090000002F057F82F4906F1400002F052F82E49BD
:1090100006F1500002F04DF82C4906F1600002F014
:1090200048F822462A49284604F032F99FED290AD9
:1090300029480F22112103B0BDE8F04300F0E2B946
:1090400070E10320C8DE0320B0E10320B0D6032086
:1090500014D70320D9570D0034E20320F4D603209F
:1090600000FFFF00C8D6032048DA0320E8D603201B
:10907000F66F0E0085970D0074E10320A4E1032034
:10908000ACDE0320ECE10320C7BA0D0025B00D00D3
:1090900020E20320387A0E0090E10320577A0E0078
:1090A000D8D70320CC750E0018D70320FCD7032097
:1090B00018DF0320697A0E006D7A0E00717A0E00B7
:1090C0007C7A0E00807A0E00857A0E001B760E00E8
:1090D00001530D009A998140D0DE0320F1530D0019
:1090E00088D7032098D70320A8D70320B8D7032018
:1090F000C8D7032080E10320E8D70320B8D6032097
:10910000B0DE032080E80600104A82630261104A44
:10911000C261104ADFED106AD2ED007A9FED0F7A3E
:109120000F4980ED020A67EEA66AC16086EE876A83
:10913000DFED0C6A80ED087A67EEA67A80ED056AAD
:10914000C7EE876AC0ED066A704700BF0000A04105
:1091500000009041B4D50320000068420000AE42F8
:1091600000002042000018422DE9F0410C4606465E
:10917000904601F06BFA4FF47A7707FB040700245E
:109180002546B08803F0E7FF0444012002F002FC0A
:1091900001F05CFAB84205F10105F2D307EE105A6E
:1091A00007EE904AF8EE476AF8EE677A184BD6ED6C
:1091B000085A87EEA67AD3ED007A164B93ED006A33
:1091C000154BC5EE866A984567EE277A9FED137AB0
:1091D00027EE877AD6ED077AD7EE267A0CD1B2EE53
:1091E000027A67EE877AF1EE046A87EEA67ADFEDFF
:1091F0000C7A77EE277A02E00A4B984502D1FDEE11
:10920000E77A01E0DFED087A17EE900ABDE8F08119
:10921000B0D50320B4D5032080760E00000080393D
:10922000000000427E7A0E0000000000F8B50446FF
:1092300001F00CFA002500F51C5710372E46208847
:1092400003F089FF0544012002F0A4FB01F0FEF9C0
:10925000B84206F10106F2D307EE905A07EE106A03
:10926000F8EE677AB8EE477A154BC7EE876AD3ED0A
:10927000007A66EEA77A17EE900A09F0D5FD002273
:10928000104B09F025FE104B002209F021FE0AF0D8
:1092900017F9D4ED0A7A0D4A07EE100A77EE677ACD
:1092A0000A21C4ED097A2046FFF75EFF07EE900A17
:1092B000F8EEE77A94ED090AC4ED0E7AF8BD00BF26
:1092C000B0D5032000408F400000303F7E7A0E0072
:1092D000F8B50C46074601F0B9F94FF47A7606FB6B
:1092E000040600242546388803F035FF0444012095
:1092F00002F050FB01F0AAF9B04205F10105F2D3EA
:1093000007EE904A07EE105AF8EE677AB8EE477A01
:109310000B4BC7EE876AD3ED007A66EEA77A17EE9D
:10932000900A09F081FD0022064B09F0D1FD0022D0
:10933000054B09F0CDFD0AF0C3F800EE100AF8BDA8
:10934000B0D5032000408F400000303F00000000F7
:10935000D0B52DED028B0446B0EE408AFFF7B8FF82
:10936000D4ED0A7A30EE670AD4ED097A70EE677AA6
:1093700017EE900A09F058FD0022214B09F0D2FEA9
:10938000D4ED0F7AF8EEE77A064617EE900A0F460C
:1093900009F04AFD02460B463046394609F0C2FE46
:1093A00015A3D3E9002309F093FD0AF089F8B3EE81
:1093B000077AB4EEC78A94ED0E7AF1EE10FA78EEE1
:1093C000476A07EE900ACCBF94ED0C6A94ED0D6AE3
:1093D00038EE478AE6EE667AD4ED0B6AB7EE000AFD
:1093E000A6EEC80ABDEC028BD4ED026A87EEA67A1F
:1093F00020EE070AD0BD00BF0000000065CDCD41C2
:1094000000408F4008B50346FFF77CFE0D4A9FEDF4
:109410000E7AD2ED007ADFED0D6A0D4ADA6327EE9F
:10942000877A4FF07C52C7EE267ADA62094A1A63CD
:10943000094A5A6318469FED097A67EE877AC3EDA9
:109440000A7A08BDB4D5032040E38649A07A004AD1
:10945000A08601009A9981411F85934000007A44BB
:1094600001F064B80368C9B29B68184710B5044698
:1094700003F0E8FE03F0DDF818B903F0E3FE03F0B3
:109480008FF8204610BD2DE9F84F924698460D46BC
:109490009DF828B09DF82C709DF830609DF83490B0
:1094A00003F0D0FE6F210A2403F0B9F803F0CAFEDE
:1094B0000021FFF7D7FF03F0C5FEB5FBF4F304FB73
:1094C000135505EB0315EDB205F07F01FFF7CAFF59
:1094D00003F0B8FEBAFBF4F104FB11AA0AEB011188
:1094E00001F07F01FFF7BEFF03F0ACFEB8FBF4F123
:1094F00004FB118808EB011101F03F01FFF7B2FFF7
:1095000003F0A0FEBBFBF4F104FB11B101F0070175
:1095100041F00801FFF7A6FF03F094FEB7FBF4F15A
:1095200004FB117707EB011101F03F01FFF79AFFF0
:1095300003F088FEB6FBF4F104FB116606EB0111A3
:1095400001F01F01FFF78EFF03F07CFEB9FBF4F181
:10955000036804FB119404EB01119B68C9B298479E
:1095600003F070FE03F062F803F06CFE6F2103F06D
:1095700056F803F067FE0021FFF774FF03F062FE68
:1095800045F08001FFF76EFF03F05CFEBDE8F84F89
:1095900003F04CB870B51C4615460E4603F052FE5B
:1095A0006F2103F03CF803F04DFE0021FFF75AFF56
:1095B00003F048FE03F03AF803F044FE6F2107225F
:1095C00003F026F803F03EFE03685B699847C0B2DB
:1095D000C0F3021303EB830300F00F0000EB430022
:1095E000307003F02FFE03685B699847C0B2C0F388
:1095F000021303EB830300F00F0000EB430028701D
:1096000003F020FE03685B699847C0B2C0F3011302
:1096100003EB830300F00F0000EB4300207003F026
:1096200011FE03685B699847049B00F007001870FF
:1096300003F008FE03685B699847C0B2C0F30113EA
:1096400003EB830300F00F0000EB4300059B187051
:1096500003F0F8FD03685B699847C0B2C0F30012DD
:109660009300134400F00F0000EB4300069B1870BA
:1096700003F0E8FD03685B699847C0B2030903EB98
:10968000830300F00F0000EB4300079B187070BDD0
:109690002DE9F04F07468DB008460C4602F066F8FB
:1096A0008046204602F05AF88146204602F04EF8E5
:1096B0008246204602F06AF80546204602F05EF82F
:1096C0000646204602F06CF88346204602F072F807
:1096D0000A22014604A801F061FD04A9022208A89B
:1096E00001F0D6FD08A801F0E7FD044608A801F046
:1096F00099FCE4B25FFA8BF3F6B2EDB202935FFA33
:1097000089F25FFA8AF35FFA88F13846039401968A
:109710000095FFF7B8FE04A801F084FC0DB0BDE889
:10972000F08F00B591B00DF11B0303930DF11A03F7
:1097300002930DF11903019306AB00930DF116028C
:109740000DF117030DF11501FFF724FF9DF81530FA
:1097500007939DF8163008939DF8173009939DF8EC
:1097600019300A939DF81A30013B0B939DF81B307A
:1097700007A864330C930AF035F911B05DF804FBC7
:1097800000F0D4BE704710B50C21044603F08EFDE6
:10979000204610BD0368C9B29B68184710B5024C3B
:1097A00004604160826010BD547B0E002DE9F047DB
:1097B00004460D4617469846B8F1000F40D0A16800
:1097C000606841F0500102F02AFF290A6068FFF743
:1097D000E1FF29466068FFF7DDFF0021606802F0C5
:1097E00021FF10B10020BDE8F087A1686068B8F1E2
:1097F000200FC14641F0500128BF4FF0200901233E
:109800004A46C9B202F0F2FE03F01CFD03681B6970
:1098100098474845E6DB3E46C7EB050A03F012FDD4
:1098200003685B69984706F8010BF21BC6EB080357
:10983000914506EB0A053B44F0D898463746BBE70E
:109840000120BDE8F0872DE9F04704460D4690461B
:109850001F4657B3A168606841F0500102F0DFFE77
:10986000290A6068FFF796FF29466068FFF792FFB4
:1098700008F11E094646C8EB050A606816F8011B88
:1098800003689B6898474E4506EB0A05B04607F10A
:10989000FF3701D0002FF0D10121606802F0C2FE35
:1098A0000028D6D00020BDE8F0870120BDE8F08771
:1098B00030B589B0054620220021684609F0ADFF89
:1098C000002420236A4621462846FFF7BCFF20B12A
:1098D0002034B4F5004FF4D1012009B030BD00F0C0
:1098E00025BE704710B5534C204600F00BFB2046B8
:1098F0000122002100F009FB01221146204600F060
:1099000004FB20460122022100F0FFFA204601223A
:10991000032100F0FAFA20460122042100F0F5FAB2
:1099200020460122052100F0F0FA204600220621FF
:1099300000F0EBFA20460122072100F0E6FA20466B
:109940000022082100F0E1FA20460022092100F05F
:10995000DCFA204600220A2100F0D7FA2046002235
:109960000B2100F0D2FA204600220C2100F0CDFAA3
:10997000204600220D2100F0C8FA204600220E21C8
:1099800000F0C3FA204600220F2100F0BEFA204664
:109990000122002100F0E2FA01221146204600F0E7
:1099A000DDFA20460122022100F0D8FA20460122E9
:1099B000032100F0D3FA20460122042100F0CEFA60
:1099C00020460122052100F0C9FA20460122062185
:1099D00000F0C4FA20460122072100F0BFFA204619
:1099E0000122082100F0BAFA20460122092100F0E4
:1099F000B5FA204601220A2100F0B0FA20460122E1
:109A00000B2100F0ABFA204601220C2100F0A6FA4F
:109A1000204601220D2100F0A1FA204601220E214C
:109A200000F09CFA204601220F21BDE8104000F012
:109A300095BA00BF6CE20320014800F072BA00BF83
:109A40006CE2032000F072BD30B50EA5D5E90045EB
:109A5000C0E902450DA5D5E900450A22C0E9044543
:109A60000CA5D5E900458262012280F82C2004492A
:109A70000270002201634270C0E9064530BD00BF9C
:109A8000404B4C009F27F96C78D56E3F0E7F8FF2CC
:109A90007ACD6E3F200FD8309E9C6C3F38B514466F
:109AA0000D4603F0CFFB532102F0B9FD03F0CAFBD2
:109AB000036829469B68984703F0C4FB0368214666
:109AC0009B68984703F0BEFBBDE8384002F0AEBD8E
:109AD0002DE9F04116461F460C46054603F0B2FB41
