:02000002D0002C
:1040000000400D00FC8B0E00000006000D000501B5
:0840100004017D050000000021
:0440180054690E00D9
:1040200009480A49884208B505D0094A824202D0A7
:10403000121A0FF0EFFA0748074A0021121A0FF080
:10404000F4FA014808BD00BF18D50320808A0E008D
:104050006CD6032070D60320F4E7032070B507F078
:1040600061FD074C074BE41AA40800251E46A54233
:1040700004D056F8253098470135F8E770BD00BFE9
:10408000808A0E001C8A0E0004F010BA08B504F0F5
:10409000BDFDBDE8084007F013BD06F0F3BC06F017
:1040A000F9BC06F0F7BC0078B0FA80F04009704720
:1040B00001230370704700009FED010B704700BFA4
:1040C000182D4454FB2109409FED010B704700BFA0
:1040D0006957148B0ABF054008B551EC100B53EC1F
:1040E000112B0EF04BFC41EC100B08BD08B551EC48
:1040F000100B53EC112B0EF03FFC41EC100B08BDE4
:1041000008B551EC100B53EC112B0EF0E9FD41EC0E
:10411000100B08BD08B551EC100B53EC112B0EF031
:1041200009FF41EC100B08BD51EC100B10EE102AEA
:1041300001F1004343EC102B7047B0EE410AF0EE62
:10414000610A70470000000008B551EC100B53ECF9
:10415000112B0FF055F810B99FED030B08BD9FED23
:10416000040B08BDAFF30080000000000000000059
:10417000000000000000F03F08B551EC100B53ECBC
:10418000112B0FF033F810B99FED030B08BD9FED15
:10419000040B08BDAFF30080000000000000000029
:1041A000000000000000F03F08B551EC100B53EC8C
:1041B000112B0FF007F810B99FED030B08BD9FED11
:1041C000040B08BDAFF300800000000000000000F9
:1041D000000000000000F03F08B551EC100B53EC5C
:1041E000112B0EF0F9FF10B99FED030B08BD9FEDE9
:1041F000040B08BDAFF300800000000000000000C9
:10420000000000000000F03F08B551EC100B53EC2B
:10421000112B0EF0CDFF10B99FED030B08BD9FEDE4
:10422000040B08BDAFF30080000000000000000098
:10423000000000000000F03F08B551EC100B53ECFB
:10424000112B0EF0B5FF10B19FED030B08BD9FEDD4
:10425000040B08BDAFF30080000000000000000068
:10426000000000000000F03F07B50023002251ECE1
:10427000100B8DED001B0EF09BFF58B99DED001B40
:104280000022002351EC110B0EF092FFB0FA80F0E7
:10429000400900E000200EF0BDFC41EC100B03B023
:1042A0005DF804FB07B50023002251EC100B8DEDE7
:1042B000001B0EF07DFF58B19DED001B0022002376
:1042C00051EC110B0EF074FFB0FA80F0400900E0E1
:1042D00001200EF09FFC41EC100B03B05DF804FBD5
:1042E00008B50022002351EC100B0EF061FF10B94D
:1042F0009FED030B08BD9FED040B08BDAFF30080DD
:104300000000000000000000000000000000F03F7E
:1043100008B50022002351EC100B0EF049FF10B13C
:104320009FED030B08BD9FED040B08BDAFF30080AC
:104330000000000000000000000000000000F03F4E
:1043400008B50022002351EC100B0EF031FF0030B5
:1043500018BF012040420EF05DFC41EC100B08BD7F
:1043600008B50022002351EC100B0EF021FFB0FA2B
:1043700080F0400940420EF04DFC41EC100B08BDAE
:104380002DE9F84310F0180718BF00F007074FEAAF
:10439000870910F0100F14BF0423002309F114063D
:1043A0001E4404463046884606F06CFB3246002127
:1043B00005460FF03AF947B1B8F1000F05D04A466B
:1043C000414605F110000FF025F900232C60AB6089
:1043D0002846BDE8F883000038B555EC104B0022A4
:1043E000002310EE100A29460EF0ECFEE0B914A3EB
:1043F000D3E90023204629460EF002FFB8B929462A
:1044000020460EF045FF01231A464FF0FF31984237
:1044100006D3B1FBF2F49C4209D35A430133F6E7C9
:1044200010460EF0E7FB04E00020034901E00349D9
:10443000002041EC100B38BD0000F87F0000F07F39
:104440000000E0FFFFFFEF41F8B555EC104B0022F4
:10445000002310EE100A294657EC116B0EF0B2FE45
:1044600000283FD100220023304639460EF0AAFE34
:10447000C0BB32463B46204629460EF0A3FE88BB11
:104480001FA3D3E90023204629460EF0B9FE60BBE6
:104490001BA3D3E90023304639460EF0B1FE20BB02
:1044A000294620460EF0F4FE3946044630460EF00A
:1044B000EFFEB0EB540F88BF201A01231A46241ACE
:1044C0004FF0FF35904209D3A118B5FBF1F69E429B
:1044D0000BD34B43B3FBF2F30132F3E718460EF074
:1044E00089FB04E00020044901E00449002041EC7C
:1044F000100BF8BDAFF300800000F87F0000F07FE4
:104500000000E0FFFFFFEF4100B52DED028BB0EEA4
:10451000418AF0EE618A83B0FFF796FF51EC100BF1
:10452000B0EE480AF0EE680ACDE90001FFF754FF4B
:10453000DDE9000153EC102B0EF0D2FB41EC100B27
:1045400003B0BDEC028B5DF804FB10B5044630B13E
:1045500000F006F82046BDE8104006F09BBA10BDFA
:1045600010B5044630B3036803F01F03093B0E2B5C
:1045700020D8DFE803F01A1714110E0B081F1A17C2
:1045800014110E0B0800806AFFF7DFFF606AFFF767
:10459000DCFF206AFFF7D9FFE069FFF7D6FFA069CB
:1045A000FFF7D3FF6069FFF7D0FF2069BDE8104037
:1045B000FFF7CBBF10BD00002DE9F74F1823DFF840
:1045C00070B28360044665682B7813B91A23A36020
:1045D0000CE1A3F13002092A01D92E2B07D1211DAC
:1045E000284610F031FE1E2384ED040BF3E0613BFE
:1045F000192B5AD863681A78A2F16101192902D8D7
:1046000001336360F6E7A2F130010929F8D95F2A86
:10461000F6D0E669C5EB03087EB1276A77B1D6F814
:1046200000904246494628460FF0C8FF10B919F8D5
:1046300008302BB31036013FF0E737464FF0170A2A
:10464000C7EB0A0907EB69094FEA09130BEB0306ED
:104650005BF8033001934246194628460FF0AEFF3F
:10466000002840F0BE80019B13F808301BB9002ED3
:1046700000F0B08004E009F1FF3A5745E0DDA9E021
:10468000B36803F01F030F2B06DC082B09DA002B9D
:1046900040F0A2801F2305E0172B00F39D80F368F4
:1046A000A361B368A36073683DE06A1C62602B7805
:1046B0002A2B3ED01ED8212B43D00CD80D2B00F036
:1046C0008B8004D8093B012B40F2868082E0202BAE
:1046D00000F082807EE0262B66D005D8252B79D18C
:1046E0002023A360434B1EE0282B6FD0292B71D1D0
:1046F0001D2370E03C2B3BD00AD82C2B68D00FD365
:104700002D2B12D02F2B65D12023A3603A4B0AE02A
:104710003E2B3BD023D35E2B0FD07C2B4DD059E0CA
:104720002023A360354B236156E02023A360344B44
:10473000F9E72023A360334BF5E72023A360324B36
:10474000F1E7AB1C63606B783D2B4FF020030BBF90
:10475000A360A3602D4B626018BF2D4BE3E7AB1C39
:1047600063606B783D2B35D12023A360294BDAE7BA
:10477000AB1C63606B783D2B4FF020030BBFA36035
:10478000A360254B626018BF244BCCE7AB1C636071
:104790006B783D2B4FF020030BBFA360A360204B31
:1047A000626018BF1F4BBEE7AB1C63606B78262BA3
:1047B00010D12023A3601C4BB5E7AB1C63606B7862
:1047C0007C2B07D12023A360184BACE71C2302E00D
:1047D0001B2300E01923A360A368182B3FF4F3AE5A
:1047E00004E07FF748AF09F1010746E703B0BDE8F1
:1047F000F08F00BFC1DF0D0015410D00D9400D0045
:10480000ED400D0001410D00C1E20D0039420D00E7
:10481000E1420D0009420D00D9410D00A9410D00F2
:1048200079410D0049410D0069420D00A5420D007E
:1048300068690E0073B5054600F0F6F90B4E0446A4
:10484000AB681B2B0ED12846FFF7B6FE2846009416
:1048500000F0EAF9694601902A20FFF791FD04462D
:104860008660EDE7204602B070BD00BF3B410D0001
:104870002DE9F0410446806800F01F03083B172B28
:1048800000F28A80DFE803F01E334646464646467D
:104890001E334646464646468888888877880C16E2
:1048A00000210120FFF76CFDD4E904230546C0E98F
:1048B00002236DE000210846FFF762FD2369836053
:1048C000054665E00021FFF75BFD23698360A3686F
:1048D000D90644BFA369036105462046FFF76CFE75
:1048E000A3681C2B63D12046FFF766FE4AE0002137
:1048F000FFF746FD23698360A368DA0644BFA36916
:10490000436105462046FFF757FE204600F054F865
:1049100028614CE010F018064FF0000118BF00F0BD
:104920000706FFF72DFD23698360A368DB0642BFFE
:10493000331DA26940F8232005462046FFF73CFEC0
:10494000A3681C2B21D105F10C080027B7420AD01F
:104950002046FFF731FE204600F066F948F8040FC4
:10496000A3681B2B05D0A3681D2B0ED1013EBE42B0
:104970000AE00137EAE72046FFF71EFE2046FFF770
:1049800059FF0546A3681D2B02D01923A3600EE032
:104990002046FFF711FE0AE000210846FFF7F0FC71
:1049A0001923A360034B0022C0E9022305462846D1
:1049B000BDE8F0810000F87F2DE9F043394F3A4D12
:1049C00087B004460126A368202B02D0012E44D1D3
:1049D00027E02369DFF8CC80BB4203D12046FFF7F4
:1049E000EBFDF0E7AB42DFF8C09001D17642F5E78E
:1049F0002E4F0025A368202B10D12369434503D1F6
:104A00002046FFF7D9FDF5E74B45F9D0BB4205D16C
:104A10000DB16D42F4E74FF0FF35F1E7012E1BD1E8
:104A20001DB92046FFF724FF39E00135204609D1A2
:104A3000FFF71EFF06A941F8140D2920FFF7A0FC7F
:104A40001A4B2BE0FFF714FF06A941F8100D29209F
:104A5000FFF796FC164B21E055B92046FFF708FFFB
:104A600006A941F80C0D2920FFF78AFC114B15E02F
:104A70000135204609D1FFF7FBFE06A941F8080DD4
:104A80002920FFF77DFC0C4B08E0FFF7F1FE06A99B
:104A900041F8040D2920FFF773FC084B836007B031
:104AA000BDE8F083D9400D00ED400D00E1420D005E
:104AB00011430D0029410D0041430D0061430D00DC
:104AC00073B50546FFF778FF0C4E0446AB68202B04
:104AD00011D12B69B3420ED12846FFF76DFD284650
:104AE0000094FFF769FF694601902A20FFF748FC10
:104AF00004468660EAE7204602B070BDC1E20D00C0
:104B00002DE9F7430646FFF7DBFFDFF84880DFF8C3
:104B100048900F4F0446B368202B15D135694545A1
:104B20000ED13046FFF748FD30460094FFF7C8FF2E
:104B3000694601902A20FFF723FC04468560EAE7D6
:104B40004D45EED0BD42ECD0204603B0BDE8F08329
:104B5000C1DF0D0001410D0015410D002DE9F341AC
:104B60000546FFF7CDFFDFF840800E4F0446AB68E7
:104B7000202B13D12E6946450ED12846FFF71CFD88
:104B800028460094FFF7BCFF694601902A20FFF7F2
:104B9000F7FB04468660EAE7BE42EED0204602B04C
:104BA000BDE8F081ED400D00D9400D002DE9F7433F
:104BB0000646FFF7D3FF164FDFF86480DFF86490F6
:104BC0000546B368202B1ED13469BC420ED1304655
:104BD000FFF7F2FC30460095FFF7C0FF69460190F1
:104BE0002A20FFF7CDFB05468460EAE74445EED076
:104BF0004C45ECD0074B9C42E9D0074B9C42E6D099
:104C0000064B9C42E3D0284603B0BDE8F08300BFCA
:104C100049410D00D9410D0009420D0039420D00F6
:104C200079410D00A9410D002DE9F3410546FFF73B
:104C3000BDFFDFF840800E4F0446AB68202B13D138
:104C40002E6946450ED12846FFF7B6FC284600944B
:104C5000FFF7ACFF694601902A20FFF791FB04465D
:104C60008660EAE7BE42EED0204602B0BDE8F081A1
:104C7000A5420D0069420D0070B504462DED0C8B68
:104C8000002800F0D182036803F01F020F2A08DC1D
:104C9000082A0EDA4AB1012A40F0C68290ED020BD2
:104CA000C4E2172A40F35B81BEE2836893ED000BF8
:104CB000BCE213F0180F85680DD003F00703013B29
:104CC000062B08D8DFE813F00D0016002E00510067
:104CD0007F00B800FC00BDEC0C8B2B46BDE870409B
:104CE00018470069FFF7C8FFBDEC0C8B2B46BDE8E9
:104CF000704018470069FFF7BFFF6069B0EE408A57
:104D0000F0EE608AFFF7B8FFB0EE401AF0EE601ADE
:104D1000B0EE480AF0EE680ABDEC0C8B2B46BDE8FD
:104D2000704018470069FFF7A7FF6069B0EE408A3E
:104D3000F0EE608AFFF7A0FFA069B0EE409AF0EEB7
:104D4000609AFFF799FFB0EE491AF0EE691AB0EEDB
:104D5000402AF0EE602AB0EE480AF0EE680ABDEC98
:104D60000C8B2B46BDE8704018470069FFF784FFA5
:104D70006069B0EE408AF0EE608AFFF77DFFA069BF
:104D8000B0EE409AF0EE609AFFF776FFE069B0EE81
:104D900040AAF0EE60AAFFF76FFFB0EE4A2AF0EEED
:104DA0006A2AB0EE491AF0EE691AB0EE403AF0EE17
:104DB000603AB0EE480AF0EE680ABDEC0C8B2B4668
:104DC000BDE8704018470069FFF756FF6069B0EE14
:104DD000408AF0EE608AFFF74FFFA069B0EE409A7C
:104DE000F0EE609AFFF748FFE069B0EE40AAF0EEFF
:104DF00060AAFFF741FF206AB0EE40BAF0EE60BA59
:104E0000FFF73AFFB0EE4B3AF0EE6B3AB0EE4A2ABB
:104E1000F0EE6A2AB0EE404AF0EE604AB0EE491A6F
:104E2000F0EE691AB0EE480AF0EE680ABDEC0C8BA1
:104E30002B46BDE8704018470069FFF71DFF606909
:104E4000B0EE408AF0EE608AFFF716FFA069B0EE80
:104E5000409AF0EE609AFFF70FFFE069B0EE40AACB
:104E6000F0EE60AAFFF708FF206AB0EE40BAF0EE5D
:104E700060BAFFF701FF606AB0EE40CAF0EE60CAA8
:104E8000FFF7FAFEB0EE4C4AF0EE6C4AB0EE4B3A49
:104E9000F0EE6B3AB0EE405AF0EE605AB0EE4A2AAD
:104EA000F0EE6A2AB0EE491AF0EE691AB0EE480A3E
:104EB000F0EE680ABDEC0C8B2B46BDE8704018473D
:104EC0000069FFF7D9FE6069B0EE408AF0EE608AB3
:104ED000FFF7D2FEA069B0EE409AF0EE609AFFF7BD
:104EE000CBFEE069B0EE40AAF0EE60AAFFF7C4FE88
:104EF000206AB0EE40BAF0EE60BAFFF7BDFE606A1D
:104F0000B0EE40CAF0EE60CAFFF7B6FEA06AB0EE9F
:104F100040DAF0EE60DAFFF7AFFEB0EE4D5AF0EE99
:104F20006D5AB0EE4C4AF0EE6C4AB0EE406AF0EECC
:104F3000606AB0EE4B3AF0EE6B3AB0EE4A2AF0EE11
:104F40006A2AB0EE491AF0EE691AB0EE480AF0EE9D
:104F5000680ABDEC0C8B2B46BDE87040184713F077
:104F6000180F85680DD003F00703013B062B08D806
:104F7000DFE813F00E001900330058008800C3006A
:104F80000901BDEC0C8B20692B46BDE87040184729
:104F900046690069FFF770FEBDEC0C8B30462B466E
:104FA000BDE87040184786690069FFF765FE6069D3
:104FB000B0EE408AF0EE608AFFF75EFEB0EE401A77
:104FC000F0EE601AB0EE480AF0EE680ABDEC0C8B09
:104FD00030462B46BDE870401847C6690069FFF7A8
:104FE0004BFE6069B0EE408AF0EE608AFFF744FE47
:104FF000A069B0EE409AF0EE609AFFF73DFEB0EE89
:10500000491AF0EE691AB0EE402AF0EE602AB0EECE
:10501000480AF0EE680ABDEC0C8B30462B46BDE822
:1050200070401847066A0069FFF726FE6069B0EE17
:10503000408AF0EE608AFFF71FFEA069B0EE409A4A
:10504000F0EE609AFFF718FEE069B0EE40AAF0EECD
:1050500060AAFFF711FEB0EE4A2AF0EE6A2AB0EE1F
:10506000491AF0EE691AB0EE403AF0EE603AB0EE4E
:10507000480AF0EE680ABDEC0C8B30462B46BDE8C2
:1050800070401847466A0069FFF7F6FD6069B0EEA8
:10509000408AF0EE608AFFF7EFFDA069B0EE409A1B
:1050A000F0EE609AFFF7E8FDE069B0EE40AAF0EE9E
:1050B00060AAFFF7E1FD206AB0EE40BAF0EE60BAF8
:1050C000FFF7DAFDB0EE4B3AF0EE6B3AB0EE4A2A5B
:1050D000F0EE6A2AB0EE404AF0EE604AB0EE491AAD
:1050E000F0EE691AB0EE480AF0EE680ABDEC0C8BDF
:1050F00030462B46BDE870401847866A0069FFF7C6
:10510000BBFD6069B0EE408AF0EE608AFFF7B4FD47
:10511000A069B0EE409AF0EE609AFFF7ADFDE0694D
:10512000B0EE40AAF0EE60AAFFF7A6FD206AB0EE4E
:1051300040BAF0EE60BAFFF79FFD606AB0EE40CA79
:10514000F0EE60CAFFF798FDB0EE4C4AF0EE6C4A04
:10515000B0EE4B3AF0EE6B3AB0EE405AF0EE605AD9
:10516000B0EE4A2AF0EE6A2AB0EE491AF0EE691A59
:10517000B0EE480AF0EE680ABDEC0C8B30462B46C8
:10518000BDE870401847C66A0069FFF775FD6069A1
:10519000B0EE408AF0EE608AFFF76EFDA069B0EED7
:1051A000409AF0EE609AFFF767FDE069B0EE40AA22
:1051B000F0EE60AAFFF760FD206AB0EE40BAF0EEB4
:1051C00060BAFFF759FD606AB0EE40CAF0EE60CAFF
:1051D000FFF752FDA06AB0EE40DAF0EE60DAFFF7BA
:1051E0004BFDB0EE4D5AF0EE6D5AB0EE4C4AF0EE7B
:1051F0006C4AB0EE406AF0EE606AB0EE4B3AF0EE08
:105200006B3AB0EE4A2AF0EE6A2AB0EE491AF0EE96
:10521000691AB0EE480AF0EE680ABDEC0C8B304615
:105220002B46BDE8704018479FED030BBDEC0C8B7F
:1052300070BD00BFAFF30080000000000000F87FE9
:10524000F8B52DED028B0268012A044627D9930692
:1052500025D512F0180318BF02F00703033300F13D
:105260000C0600EB83050127AE4209D056F8040F67
:10527000FFF7E6FF33681B68012B18BF0027F3E731
:105280006FB12046FFF7F8FC2046B0EE408AF0EE02
:10529000608AFFF765F984ED028B01232360BDEC82
:1052A000028BF8BD30B58BB01D460190009068466A
:1052B00007910892FFF780F96846FFF7BBFA029B57
:1052C0001A2B04460DD0FFF740F90DB900200EE06F
:1052D0009DE80500101A01D02860F7E701232B6034
:1052E00005E0FFF7ADFF0DB100232B6020460BB0AA
:1052F00030BD7047014B01221A70704784DE0320D5
:1053000010B507F005F95B2105F01AFF07F000F969
:10531000044605F03FF80A220146204605F049FF01
:1053200007F0F6F80249BDE8104005F005BF00BFE0
:10533000D36B0E0038B5064D002404F160002844FC
:10534000103C05F043FD14F1700FF6D138BD00BFDD
:10535000D8D6032010B508460EF049F8084C094B82
:10536000206001221A7007F0D3F8074905F0E4FE27
:1053700007F0CEF821680A22BDE8104005F06CBFA6
:1053800060D503206CE10320D66B0E00F8B504460F
:105390000E461746FFF7B4FF07F0BAF8214605F0AE
:1053A000CBFE37440124BE4228D016F8015BA5F19C
:1053B00020035E2B0BD824B907F0AAF85D2105F075
:1053C000BFFE07F0A5F8294605F0BAFEEAE707F0A8
:1053D0009FF8002C14BF5B217C2105F0B1FE0F2D3E
:1053E00004D807F095F8302105F0AAFE07F090F8F0
:1053F0001022294605F0EAFE0024D4E724B907F07C
:1054000087F85D2105F09CFE07F082F8BDE8F840C2
:1054100005F099BE37B59DF8184023438DF800304C
:105420003C23054606F0DAFC284603B030BD0023D5
:105430001A461946406805F0BDBA00221146406878
:1054400005F0B0BA73B50E4B1D7806460C4685B90B
:1054500002A801221A7040F8045D2A46294605F088
:1054600071F8019B1E2B04D1032323700823658050
:10547000A38023683360A388B380304602B070BD38
:1054800074D6032008B505F035F8034B1860BDE865
:10549000084005F0BFBA00BFF8E503200022043041
:1054A00005F000BA10B5044B036004460021FFF775
:1054B000F5FF204610BD00BF746B0E0010B504460A
:1054C000FFF7F0FF2046202107F009FE204610BD1F
:1054D00003682BB14268934202D218460DF087BF91
:1054E0000020704738B50568044645B143689D42C1
:1054F00005D228460FF05AF80130054425602046B1
:1055000038BDF8B504460F46466821B90368721CD9
:1055100042609955F8BD08460FF048F8A368451C4D
:10552000AA199A4208D820682A46394630440EF013
:1055300071F863681D446560F8BD000070B50446ED
:105540004068A6682568054A0B46311A284405F0CC
:10555000C1FA636801301844606070BDEE6B0E00E4
:1055600070B504464068A6682568054A0B46311A9E
:10557000284405F0AFFA636801301844606070BDDC
:10558000F16B0E00F0B5476B87B00446EFB1FFF743
:10559000B7FE06F0BDFF2F4905F0CEFD06F0B8FFBF
:1055A000616B05F0C9FD06F0B3FF3A2105F0C8FDB7
:1055B00006F0AEFF218F0A2205F04EFE0023228F57
:1055C000616B204607F014FA3FE0FFF799FE06F002
:1055D0009FFF204905F0B0FD06F09AFF0A2294F8DB
:1055E000231005F0F3FD06F093FF2E2105F0A8FD32
:1055F00006F08EFF0A2294F8221005F0E7FD06F06F
:1056000087FF2E2105F09CFD254606F081FF0A222A
:1056100094F8211005F0DAFD06F07AFF2E2105F04E
:105620008FFD06F075FF0A2215F8201F05F0D0FD4A
:10563000094B00930FCD01AE0FC62B683370228F3C
:105640003B466946204607F055FA431E58425841EA
:1056500007B0F0BDF56B0E00207F0E0070B5416005
:10566000044616461D4604F095FEA0F59C500838E9
:105670002061E0606061FFF743FE06F049FF0349E7
:1056800005F06DFD21684E630D8770BD046C0E0042
:105690002DE9F04F92468FB0994606461D46884642
:1056A0000124C9EB05039A457BD918F8017B07F063
:1056B000D1FC394606F0C8FF07F0CCFC06F0CFFF5E
:1056C00078BB06F025FF3949834602A805F0C5FBE3
:1056D000314602A805F060FC354905F069FC354902
:1056E00005F066FC10220190394606A805F018FC6A
:1056F000019B06A9184605F04FFC01460AA805F0D3
:10570000EBFB0A99584605F02AFD0AA805F05EFB56
:1057100006A805F05BFB02A805F058FB01232B70DF
:105720003CE007F097FC06F0A1FF07F093FC394638
:1057300006F08AFF07F08EFC06F091FF0028C0D02B
:1057400006F0E6FE1949044602A805F086FB31463C
:1057500002A805F021FC184905F02AFC154905F0BE
:1057600027FC10228346394606A805F0D9FB06A976
:10577000584605F011FC01460AA805F0ADFB0A9950
:10578000204605F0ECFC0AA805F020FB06A805F071
:105790001DFB002402A805F019FB2C701036013502
:1057A0007FE720460FB0BDE8F08F00BF926C0E007F
:1057B000AA6C0E009A6C0E00A66C0E0010B506F0D6
:1057C000A7FE064905F0CBFC40F22C43044A0548ED
:1057D0000021BDE8104003F095BF00BFF26C0E0041
:1057E00040DA0320A8D6032010B506F091FE064942
:1057F00005F0B5FC40F22C43044A05480021BDE801
:10580000104003F033BF00BFFF6C0E0040DA0320EE
:10581000A8D6032008B5054B00221A7006F078FEC2
:105820000349BDE8084005F09ABC00BF04DA032034
:105830000D6D0E001FB50968684605F00EFB684641
:1058400005F009FC009905480EF078F9FFF7B6FF5E
:10585000684605F0BBFA05B05DF804FB50DB032099
:105860001FB50968684605F0F8FA684605F0F3FBCD
:10587000009905480EF062F9FFF7A0FF684605F0B1
:10588000A5FA05B05DF804FB50DC03201FB50968DC
:10589000684605F0E2FA684605F0DDFB0099054828
:1058A0000EF04CF9FFF78AFF684605F08FFA05B055
:1058B0005DF804FB50DD032008B508680DF094FD89
:1058C00051EC100B0DF004FD024B1860BDE80840D0
:1058D000FFF774BF50DE032008B508680DF087FDA0
:1058E000034B01280CBF002201221A7008BD00BF23
:1058F00005DA032010B508680B4C0DF078FDC4F8EC
:10590000200406F005FE094905F016FC06F000FE2D
:105910000A22D4F8201405F09FFC054B00221A70CF
:10592000BDE81040FFF74ABF40DA03201A6D0E00B1
:105930006CE1032010B508680B4C0DF058FD0030E9
:1059400018BF012084F81704FFF738FF06F0E0FDC8
:10595000064905F0F1FB06F0DBFD94F817140A2266
:10596000BDE8104005F078BC40DA0320366D0E002B
:1059700010B508680B4C0DF03AFD003018BF01203F
:1059800084F81804FFF71AFF06F0C2FD064905F077
:10599000D3FB06F0BDFD94F818140A22BDE81040B0
:1059A00005F05ABC40DA03205F6D0E0010B50868A0
:1059B0000B4C0DF01CFD003018BF012084F81904B9
:1059C000FFF7FCFE06F0A4FD064905F0B5FB06F066
:1059D0009FFD94F819140A22BDE8104005F03CBC64
:1059E00040DA0320876D0E0010B508680B4C0DF0EF
:1059F000FEFC003018BF012084F81A04FFF7DEFE19
:105A000006F086FD064905F097FB06F081FD94F847
:105A10001A140A22BDE8104005F01EBC40DA03202B
:105A2000AF6D0E0070B508681E4C0DF0E0FCD4F8A8
:105A30001C64054606F06CFD1B4905F07DFB06F075
:105A400067FD0A22294605F007FC032D234601D1F4
:105A5000902203E0012D14BF64224822C3F81C24C5
:105A6000D3F81C349E421BD006F052FD0F4905F0BE
:105A700063FB06F04DFD0B4B0A22D3F81C1405F016
:105A8000EBFB06F045FD0A4905F056FBFFF796FED5
:105A90004FF47A6005F076FEBDE8704005F0DAB8A4
:105AA00070BD00BF40DA0320D86D0E00076E0E00F7
:105AB000276E0E0010B508680B4C0DF098FC0030F6
:105AC00018BF012084F81B04FFF778FE06F020FDC4
:105AD000064905F031FB06F01BFD94F81B140A2261
:105AE000BDE8104005F0B8BB40DA03203A6E0E0066
:105AF00008B5074B1A78074B93F81414914205D058
:105B000083F81424FFF75AFE012008BD002008BDC9
:105B1000DCE1032040DA032008B5074B1A78074B75
:105B200093F81514914205D083F81524FFF746FE2B
:105B3000012008BD002008BD8DDE032040DA0320CF
:105B400008B5074B1A78074B93F81614914205D005
:105B500083F81624FFF732FE012008BD002008BD9F
:105B60008CDE032040DA032038B5046805467CB19A
:105B70006368013B63605BB9236820469B68984774
:105B8000A368013BA3601BB923682046DB689847E4
:105B9000284638BD1FB5194C06F0BAFC184905F067
:105BA000CBFA06F0B5FC0A22D4F8201405F054FB19
:105BB000D4F82014134B0022032912D8DFE801F097
:105BC0001102070C1B788DF800200F4A0DE01B789E
:105BD0008DF800200D4A08E01B788DF800200C4A53
:105BE00003E01B788DF800200A4A0B4902A8FFF752
:105BF00011FC03A8FFF7B8FF04B010BD40DA032082
:105C0000A16E0E00D4D60320E16E0E00F16E0E00E0
:105C1000016F0E00D06E0E00D7770E0010B5044B4A
:105C2000044640F8183BFFF79FFF204610BD00BF19
:105C300040800E0008B500234377006806F0D4FFCB
:105C4000BDE8084004F0AEBB2DE9F0418E188EB0DF
:105C5000B14280460D4617460591069680F03D817B
:105C60000B88ADF8123005A8FFF73CFC03689E4294
:105C700040F2338105980378412B12D101300DF0A9
:105C8000B6FB052801DDFF240FE0059801300DF07B
:105C9000AEFB0028F7DB059801300DF0A8FB0E30B5
:105CA00002E005A8FFF714FCC4B2BDF8123047F2B9
:105CB0007622934200F0B7800DD847F261229342DA
:105CC0007DD047F26422934251D046F670529342FF
:105CD00040F0D48027E047F26472934259D047F2F3
:105CE0007672934200F0B08047F26172934240F0C6
:105CF000C58085E00378412B25D101300DF077FB7D
:105D0000052814DDFF2405A8FFF7ECFB059D744969
:105D100028460DF009FF0146D0B9204607F0FEF8ED
:105D200005A8FFF7DFFB05988642E3D8D5E0059884
:105D300001300DF05CFB0028E4DB059801300DF02C
:105D400056FB0E3002E005A8FFF7C2FBC4B2DAE74B
:105D5000644928460DF0E8FE002800F0A48062495E
:105D600028460DF0E1FE002800F09D809DE00AAB82
:105D7000079307A8102300255C4909930895FFF7AE
:105D8000C0FB07A82146FFF7D9FB204607F0F0F833
:105D900026E005A8FFF7A6FB03689E4240F29D801F
:105DA000A4B20121204607F0B9F805A8FFF790FB3F
:105DB000011C18BF0121204607F0C1F88DE00AAB95
:105DC00007934B49102307A8002509930895FFF76F
:105DD00098FB07A82146FFF7B1FB204607F0DBF848
:105DE000014607A8FFF7BCFB089B0295013B009307
:105DF000079B01952A461421404600F073FB6CE096
:105E000005A8FFF76FFB03689E4266D9A4B2012183
:105E1000204607F083F805A8FFF75AFB0146204605
:105E200007F0D0F859E00EAD204605F8104D04F00B
:105E3000BBFA0346284623B12E4A934201D0984725
:105E40004BE004F0ADFA48E005A8FFF74BFB059BDB
:105E50000A935D1B7F1B20460B970C978DF81C4007
:105E600004F0ACFA03460AA907A823B1224A9342D8
:105E700001D0984731E004F094FA2EE0FFF740FAA1
:105E800006F046FB1D4905F057F906F041FB29468F
:105E900005F065F9002302210091B8F81A20029359
:105EA00001931946A8E7012137E7FFF729FA06F021
:105EB0002FFB134905F040F906F02AFB0A22214680
:105EC00005F084F906F024FB0E4905F035F906F0DB
:105ED0001FFB059905F043F922E70EB0BDE8F081FC
:105EE0002F740E0029700E00156F0E00196F0E0032
:105EF0001C6F0E00A1A30D00A3A30D001F6F0E00C9
:105F0000306F0E003D6F0E002DE9F0418EB004AFF2
:105F10000446052207F10C01006805F0B6FA0546B3
:105F2000002800F0FD8105281AD1024607F10C0176
:105F3000B548FFF72BFAB7F80D20B7F80F80130A12
:105F400043EA02234FEA182242EA08289BB21FFACA
:105F500088F8A7F80D30A7F80F8093B92C4601E018
:105F60004FF0FF34FFF7CCF906F0D2FAA74905F05D
:105F7000E3F806F0CDFA0A22214605F06DF900207B
:105F8000D3E13B7B002B5DD104F004FA657FE06038
:105F9000B7F80F00002D51D1B7F80D30012B4DD1BE
:105FA000092834D0C82801D004283AD1FFF7A8F92D
:105FB00006F0AEFA964905F0BFF806F0A9FA636953
:105FC000E1680A22C91A05F0F4F806F0A1FA91492D
:105FD00005F0C5F8E36863610123637704F0DCF939
:105FE000054660B1FFF78CF906F092FA8A4905F090
:105FF000A3F806F08DFA0A22294605F0F5F82046A6
:1060000000F084FBFFF73EFA00F05CFF88E1FFF749
:1060100077F906F07DFA814905F0A1F8032363774B
:10602000ADE7FFF76DF906F073FA7D4905F084F8E6
:1060300006F06EFA0A22B7F80F109EE7053818BF6F
:10604000012072E1B8F5806F11D9FFF759F906F018
:106050005FFA744905F070F806F05AFA0A22B7F8A8
:106060000F1005F0F9F82046FFF7E4FD58E108F1BC
:10607000080323F007036E46ADEB030D04AD424663
:106080002946206805F001FA804507D0FFF738F966
:1060900006F03EFA644905F062F863E0B7F80F20B5
:1060A0000023AB541AB129465748FFF76FF904F0A3
:1060B00071F93B7BE060112B00F0BC8008D8062B07
:1060C00036D00F2B00F09280022B40F016810CE0AE
:1060D0001D2B0AD003D8142B00F088800DE1292B4A
:1060E00032D0372B00F0F98007E1637F03BBFFF765
:1060F00007F906F00DFA4D4905F031F801236377F1
:1061000004F04AF9054660B1FFF7FAF806F000FA24
:10611000414905F011F806F0FBF90A22294605F07D
:1061200063F8204600F0F2FAFFF7ACF900F0CAFE7F
:106130000023C821B7F80D2000910293019319465E
:10614000204600F0CFF9E8E0A3681BB9202004F056
:1061500099FCA060B7F80F80FD61A8444545C7F8D9
:10616000208001D30020D9E029462022A0680EF02B
:106170003AFAA3680025DD7707F11C00FFF7B2F9B2
:106180000368434508D2F86920B13B6A9842C0F0E1
:10619000C980284685B200E05025FFF7B1F806F027
:1061A000B7F9234904F0C8FF06F0B2F9A16804F07A
:1061B000C3FF06F0ADF93A2104F0C2FF06F0A8F9DA
:1061C0000A22294605F048F8206806F00DFD2368EC
:1061D000A2685A631D870023637704F0DBF8A0F5FB
:1061E0009C5008382061E060606196E0FB68C3F372
:1061F0000F236383B7F80F2029462046FFF724FDBD
:106200000023638389E000BF446F0E00466F0E00D9
:10621000546F0E00626F0E00676F0E00726F0E00FB
:10622000856F0E009C6F0E00AD6F0E00BD6F0E00EF
:10623000C36F0E0000233B71B7F80F307D612B4414
:106240009D42BB6169D22868B86007F11400FFF76E
:1062500049F97A69B7F80F30FA61511B5B1A3B6252
:106260007B62344ABB6893422BD00DD8324A9342AA
:106270001BD002F500320332934228D107F11C01F2
:10628000381D04F08EF848E02C4A934213D002F1F6
:106290009F6202F5003202F58072934217D107F136
:1062A0001C01381DFFF7B6FA37E007F11C01381D55
:1062B00004F077F831E007F11C01381D00F0FCFB19
:1062C0002BE007F11C01381D04F06BF825E0FFF707
:1062D00017F806F01DF91A4907E0B7F80F30E3B1D7
:1062E000FFF70EF806F014F9164904F025FF06F042
:1062F0000FF9294604F033FF0FE0FFF701F806F02D
:1063000007F9114904F018FF06F002F90A22397B57
:1063100004F05EFF2046FFF78DFC0120B54604E047
:10632000012002E00DF067F834E72837BD46BDE8EC
:10633000F08100BF6D6574616F74610061636F6EA1
:10634000D36F0E00E96F0E00F26F0E002DE9FF41D2
:1063500004460D46FFF796F8637F022B00F0A780F6
:10636000237F628B0133DBB22377002A64D1022BB7
:1063700062D8206806F065FA40B1002D40F099809F
:10638000206806F049FC002800F3938004F002F82E
:106390000746206806F055FA657F012D06464DD167
:1063A00028B967612046FFF745FC35467BE0E36886
:1063B000484AFB1A934227D9FEF7A2FF06F0A8F835
:1063C000454904F0B9FE06F0A3F80A22394604F064
:1063D000F0FE06F09DF8414904F0AEFE06F098F894
:1063E0000A22E16804F0E5FE06F092F83B4904F069
:1063F000A3FE06F08DF80A22616904F0FFFE204634
:10640000FFF718FC00254EE04EF66022934203D8B9
:106410002369FB1A93420FD9636940F6B832FB1A1D
:10642000934209D900230293019300931A4606214F
:10643000204600F057F86761012534E0002DFBD1BC
:106440006169791A78B140F6B8339942F4D9FEF708
:1064500057FF06F05DF8224904F081FE206806F03F
:10646000C3FB65771FE041F288339942E4D9206885
:1064700006F0BAFB2068FFF785F8054608B96761A2
:1064800011E0D4F804800127278340460EF08EF8EF
:1064900043468DE8410002963A461D21204600F011
:1064A00021F823696361237F013B23770EE00025F8
:1064B0000CE02046FFF728FD054600287FF460AF7A
:1064C000206806F091FB03F06DFFECE7284604B06E
:1064D000BDE8F081880D010008700E001C700E00F0
:1064E0001F700E002DE9F04F83B000AF0446006826
:1064F0003D6B894616469B46EA4606F0A2F90028FF
:1065000071D0B9F11D0F05D8674B23FA09F3DB07EA
:1065100000F1C580637F012B65D116B9668B002E13
:1065200066D0A9F10C03082B6AD97A6BBBF1000F76
:1065300014BFA8464FF00008002ABA6B08F1050303
:1065400014BF90464FF00008984408F1070323F069
:106550000703AA18ADEB030DC2F3072376BA43EA8B
:106560000223C7F804D08DF80090ADF80160ADF8B3
:106570000330BBF1000F63D0002D61D02A4659468D
:106580000DF105000DF046F8681D7B6B002B59D10D
:106590000025454562D2C5EB0806B6F5806F7B68DD
:1065A00028BF4FF4806603EB050926B13246494601
:1065B0003E48FEF7EBFE32464946206806F02BF9CE
:1065C0000646002003F0E4FE002E45D1FEF798FEBB
:1065D00005F09EFF364904F0C2FD206806F004FB7A
:1065E000667703F0DFFE0C37D546BD46BDE8F08F79
:1065F000238B01339BB203B901232383268B90E7BE
:10660000E3682269934238BF134603F1420803F05E
:10661000C1FEC0EB080000280ADB00212046FFF77E
:1066200095FE03F0B7FEC0EB08000028F5DA7CE722
:10663000217F00297FF479AF2046FFF787FE74E7BA
:106640000520A2E7BB6B002BA2D01A467B68796BB2
:1066500018440CF0DFFF9BE735449AE71BD0FEF7A8
:106660004FFE05F055FF134904F066FD05F050FF9D
:106670000A22294604F0B6FD05F04AFF2F2104F056
:106680005FFD05F045FF0A22414604F0ADFD2046BE
:10669000FFF7D0FAA7E703F07DFE2061A3E7002E05
:1066A0007FF443AF3AE700BF450000202D700E0095
:1066B0002F700E0039700E00F0B5ADF2244D08AB0E
:1066C000002405460F46059305A84FF480630E4944
:1066D000079316460694FEF714FF394605A8FEF701
:1066E0002DFF314605A8FEF729FF069B0294013BCA
:1066F00000930194059B224614212846FFF7F2FEE1
:106700000DF2244DF0BD00BF3F700E0000B595B0F6
:1067100004AB00220193492300930292034B112101
:10672000FFF7E0FE15B05DF804FB00BF886B0E00BC
:10673000F0B5ADF2344D0CAB002405460F46059381
:1067400005A84FF480631149079316460694FEF797
:10675000D8FE394605A8FEF7F1FE314608A804F038
:10676000BBFB089905A8FEF7CCFE08A804F02EFB99
:10677000069B0294013B00930194059B2246142141
:106780002846FFF7AFFE0DF2344DF0BD3F700E000E
:1067900070B592B06149624C06A804F05EFB614995
:1067A000614804F0ACFB03F0A5FE604AD4F828343D
:1067B00012689B1A1844C4F82804FEF7FFFF5C4BCC
:1067C00059491B7843B30AA804F086FB59490AA823
:1067D00004F0EEFB0546584802F003FF574B5849BA
:1067E0001A68584B02440EA804F068FF0EA9284608
:1067F00004F0D2FB4F4904F0DBFB534904F0CCFB1F
:10680000524904F0D5FB014606A804F056FB0EA839
:1068100004F0DCFA0AA811E00EA804F05DFB4C4974
:106820000EA804F0C5FB484904F0B6FB474904F044
:10683000BFFB014606A804F040FB0EA804F0C6FA10
:1068400006A90EA804F048FB0EAA1E214148FFF736
:106850006FFF0EA804F0BAFA40F6B83004F092FFC9
:10686000002202213C4803F047F8002203213A4865
:1068700003F042F806F0EEFB05F0F4FE18B906F05E
:10688000E9FB05F0C7FE05F043FE344904F067FC60
:1068900094F824342BB932481A461946406804F05B
:1068A00091F84FF47A7004F06DFF94F824441C4D75
:1068B000CCB105F02DFE2B4904F051FC2A4B196890
:1068C0000823ADF8283012AB012285F8252403F8FF
:1068D000312D02914FF46171019100920AA90EA825
:1068E00004F0ECF914E005F013FE204904F037FC45
:1068F00001264FF4FA6085F8244485F8256404F0F5
:1069000041FF1B4B22461B6831460EA804F0A6F936
:1069100006A804F05BFA12B070BD00BF916C0E00C7
:1069200040DA032042700E0098D7032038E103209C
:106930006DDE032060700E0034E1032060D503207B
:106940006CE2032047700E00A8D703204F700E00A2
:1069500051700E00F4E103206CDE032062700E0023
:10696000ACE2032071700E0088DE032088700E00F8
:1069700030E10320F0B5ADF2344D0CAB00240546F8
:106980000F46059305A84FF48063114907931646F7
:106990000694FEF7B6FD394605A8FEF7CFFD314651
:1069A00008A804F099FA089905A8FEF7AAFD08A816
:1069B00004F00CFA069B0294013B00930194059BA2
:1069C000224614212846FFF78DFD0DF2344DF0BD0F
:1069D0003F700E00F0B5ADF22C4D0AAB0024064618
:1069E0000D46079307A84FF4806317498DED050AFC
:1069F00009930894FEF785FD294607A8FEF79EFD3A
:106A00009DED050A089B0999079D10EE100ACF1A03
:106A10001D440CF011F90D4ACDE900013946284614
:106A200004F058F8089B029401301844089001388B
:106A300000900194079B224614213046FFF752FD37
:106A40000DF22C4DF0BD00BF3F700E00A0700E0087
:106A500038B5094D094C6A6820460B21FFF72CFE1A
:106A60002046AA680D21FFF727FE95ED030A0F21A6
:106A70002046FFF7AFFF38BD40DA0320F4E10320E2
:106A800008B508680CF0B3FC034B5860FEF796FE9F
:106A9000BDE80840FFF7DCBF40DA032008B508680E
:106AA0000CF0A5FC034B9860FEF788FEBDE808409B
:106AB000FFF7CEBF40DA032008B5064B01221A705B
:106AC000FFF7C6FF05F024FD0349BDE8084004F0C8
:106AD00046BB00BF04DA0320A6700E0010B508689C
:106AE0000CF085FC01280DD10D480E4C02F000FB86
:106AF00084ED030AFEF762FE94ED030A0A480F21B3
:106B0000FFF768FF00220E210748FFF7D5FD4FF47D
:106B10007A6004F037FEBDE8104004F09BB800BF77
:106B200090DE032040DA0320F4E10320F0B5ADF25B
:106B3000244D08AB002405460F46059305A84FF4E5
:106B400080630E49079316460694FEF7DAFC394631
:106B500005A8FEF7F3FC314605A8FEF7D2FC069B1C
:106B60000294013B00930194059B22461421284680
:106B7000FFF7B8FC0DF2244DF0BD00BF3F700E00D2
:106B8000F0B5ADF2244D08AB002405460F46059341
:106B900005A84FF480630E49079316460694FEF746
:106BA000B0FC394605A8FEF7C9FC314605A8FEF73A
:106BB000C5FC069B0294013B00930194059B224671
:106BC00014212846FFF78EFC0DF2244DF0BD00BFC6
:106BD0003F700E0010B5464C464862680A21FFF728
:106BE0006BFDA26843480C21FFF766FD62684148CF
:106BF0000B21FFF761FDA2683E480D21FFF75CFD08
:106C000004F1100214213B48FFF790FF04F588724D
:106C100010213848FFF78AFF04F504721221354825
:106C2000FFF784FF04F544721A213248FFF77EFF14
:106C300094ED030A2F480F21FFF7CCFE04F5826381
:106C400093ED000A2B481921FFF7C4FED4F8202445
:106C500028481721FFF730FD274A26481621FFF75D
:106C600065FF94F8172423481821FFF789FF94F84B
:106C7000182420481B21FFF783FF94F819241D488E
:106C80001C21FFF77DFF94F81A241A481D21FFF7F5
:106C900077FF94F81B2417482021FFF771FFD4F8E1
:106CA0001C34902B01D1032203E0482B0CBF01229E
:106CB00002221F210F48FFF7FFFC104B1B7823B166
:106CC0000F4A0C481521FFF731FF0E4B1B6823605C
:106CD000012384F82434002384F8253405F018FCBB
:106CE000094904F03CFABDE81040FEF767BD00BF5B
:106CF00040DA0320F4E10320B0700E0005DA03202F
:106D0000C4700E0034D50320DF700E002DE9FF4162
:106D10000968684604F0A1F86149684604F05AF928
:106D2000002800F0B6805F4C5F4A60481621FFF7EC
:106D3000FDFE0523002501274FF00F08A3605C49E5
:106D4000C4F80480002304F11000E360256084F897
:106D5000247484F825540CF0F1FE564904F588702B
:106D60000CF0ECFE534904F504700CF0E7FE04F55A
:106D70008266504904F544700CF0E0FE4E4B3360DF
:106D8000424664230A214948C4F81C34C4F82054FC
:106D900084F8145484F8155484F8177484F818543B
:106DA00084F8197484F81A7484F81B74C4F828548D
:106DB000FFF782FCA2683D480C21FFF77DFC62686A
:106DC0003A480B21FFF778FCA26838480D21FFF7FD
:106DD00073FC04F1100214213448FFF7A7FE04F5F8
:106DE000887210213148FFF7A1FE04F504721221C8
:106DF0002E48FFF79BFE04F544721A212B48FFF73B
:106E000095FE94ED030A29484146FFF7E3FD96ED10
:106E1000000A26481921FFF7DDFDD4F82024234875
:106E20001721FFF749FC94F8172420481821FFF791
:106E3000A7FE94F818241D481B21FFF7A1FE94F823
:106E400019241A481C21FFF79BFE94F81A241748AE
:106E50001D21FFF795FE02221F211448FFF72CFC8D
:106E600094F81B2411482021FFF78AFE134802F0F2
:106E70007EFC134A0D481521FFF758FE05F048FB2C
:106E80000F4904F06CF94FF4FA7004F07BFC03F046
:106E9000E1FE684603F09AFF04B0BDE8F08100BF50
:106EA000F7700E0040DA0320B0700E00F4E103200A
:106EB000FF700E0015710E000000A041A8D603203F
:106EC00026710E001FB505F023FB0B4904F047F9AE
:106ED0000A4B1A680A4B1B689A4201D0FFF77AFEE8
:106EE00000230293019300931A4610210548FFF7EF
:106EF000F9FA05B05DF804FB35710E0040DA0320A5
:106F000034D50320F4E103202DE9F04FADF2D44D48
:106F10000546602200211CA80CF087FB7E4B1C93C9
:106F20007E4B20937E4B24937E4B28937E4C7F4B4D
:106F30002C937F4B309323780DF1200B0DF1280A11
:106F40000DF130090DF1380810AF12AECDF874B064
:106F5000CDF884A0CDF89490CDF8A4802D973196EB
:106F600023B12A4615217348FFF7E0FD07AB06223F
:106F70001CA92846FEF796F90590002800F09D8090
:106F80006D4D68680BF058FECBE90001A8680BF066
:106F900053FECAE90001E8680BF04EFEC9E90001A2
:106FA00028690BF049FE654AC8E9000110680BF03A
:106FB00043FE634AC7E9000110680BF03DFE059BE4
:106FC000C6E900011846FDF757FE237857EC106B11
:106FD0005BB15C4934A803F07FFF564834AA152101
:106FE000FFF7A6FB34A803F0F1FE237833B334ABEC
:106FF00000251893544919954FF4806318A81A93E3
:10700000FEF77FFA152118A8FEF798FA199B1A992E
:1070100018984E4AC91A1844CDE9006703F05AFD82
:10702000199B029501301844199001380090019580
:10703000189B40482A461421FFF754FA23785BB185
:10704000434934A803F048FF3A4834AA1521FFF712
:107050006FFB34A803F0BAFE2378EBB13D4934A8A6
:1070600003F03AFF34AA15213248FFF761FB34A838
:1070700003F0ACFE0022384B304639460CF098F84D
:1070800090B1294B1C780CB901243FE0334A2948C0
:107090001521FFF74BFD39E000222F4B30463946D2
:1070A0000CF086F80028EFD12478002C2ED02C4A42
:1070B00020481521FFF73AFD27E02A4934A803F0BC
:1070C000CCFE0A22079918A803F03CFF18A934A89F
:1070D00003F062FF014614A803F0FEFE18A803F0B7
:1070E00075FE34A803F072FE23785BB114A934A8AE
:1070F00003F0F2FE0F4834AA1521FFF719FB34A85C
:1071000003F064FE14A803F061FE002420460DF293
:10711000D44DBDE8F08F00BF60710E0064710E00A9
:1071200068710E006C710E0005DA032071710E009B
:1071300076710E00F4E10320ACE103201CE1032092
:1071400028E2032070DE03203F700E007B710E00EA
:1071500050E10320E0E103200000F03F81710E00C8
:1071600098710E00B0710E001FB50968684603F0F3
:1071700074FE684603F06FFF009908480CF0DEFCCF
:10718000FEF71CFB064B1B7813B10448FFF7BCFE4F
:10719000684603F01BFE05B05DF804FB50DA0320DF
:1071A0003CE1032030B5ADF2244D08AB0024054688
:1071B000059305A84FF4806307930694FEF7A1F9A1
:1071C000069B0294013B00930194059B22464021BB
:1071D0002846FFF787F90DF2244D30BD70B52F4BCF
:1071E0002F4C1A781E46002A41D005F091F92D49FE
:1071F00003F0B5FF00212C4802F066FD00212A486B
:1072000002F05CFD284802F0A4FC0322054601467A
:10721000254802F099FC60B105F07AF9234903F0A2
:107220009EFF00232370FEF78BFC01211E4802F015
:1072300045FD042229461C4802F086FCA8B105F051
:1072400067F91B4903F08BFF01232370FEF778FCDD
:1072500038B1184B93F81A341BB117491748FFF788
:10726000A1FF0121104802F02FFD00233370237885
:1072700033B9134B197819B9124B188805F05FFE12
:10728000237853B10B4B93F8173433B10D4B0121D5
:107290001888BDE8704005F052BE70BD84DE032042
:1072A0008CDE0320C2710E0008DA0320DC710E00B0
:1072B000EF710E0040DA032000720E00F4E10320AB
:1072C000B8D703202CD5032070B5044600680E46BD
:1072D00005F08AFC0023637703F05CF80546637FC2
:1072E000012B09D003F056F8401BB04204D2002114
:1072F0002046FFF72BF8F2E7607F431E58425841C3
:1073000070BD0000F8B5554D2846FEF796F80446C6
:1073100030BB05F0FDF85249524E03F020FF2846DD
:10732000FEF785F8234622462146686803F022FBD3
:10733000204603F0F7F8002504460027002003F05C
:10734000F1F8001B61EB05018F4208BF86425FD355
:107350004248FEF772F800285AD103F05BFBEDE7D4
:1073600005F0D6F8404903F0FAFE03F063FB04464B
:10737000F8B905F0CDF83D4903F0F1FE03F052FBFA
:10738000204603F0CFF8002504464EF65F2600277E
:10739000002003F0C7F8001B61EB05018F4208BF16
:1073A000864248D303F046FB002844D103F032FB69
:1073B000EEE705F0ADF82E4903F0D1FE2D4C637FCA
:1073C000012B1ED005F0A4F82B4903F0C8FE2B4B6F
:1073D0002B491B882B4A2046FEF740F942F2283100
:1073E0002046FFF771FF002836D105F091F82649B5
:1073F00003F0B5FEC82004F0C5F9BDE8F84003F07D
:1074000029BC05F085F82149BDE8F84003F0A7BE86
:107410001248FEF712F81148FEF70FF80028A4D121
:1074200005F076F81A4903F09AFEC82004F0AAF98C
:1074300003F010FC99E703F0FDFA03F0FBFA0028D3
:10744000BCD105F065F8134903F089FEC82004F0AB
:1074500099F903F0FFFBB1E7F8BD00BFACE20320F0
:107460000D720E001FBF02002F720E003E720E0042
:107470007A720E00F4E103208D720E0030D50320E5
:107480003CD50320AF720E008D6E0E00C4720E004C
:107490007A6E0E0063720E0070B52E4C2046FDF71A
:1074A000CCFF0546E0B905F033F82B4903F057FE51
:1074B0002A462946606803F065FA0546002848D147
:1074C00005F026F8254903F04AFE2046FDF7AFFFF8
:1074D0002B462A4629466068BDE8704003F04ABA48
:1074E0001F4C05F015F81F4903F039FE637F012B8F
:1074F00012D005F00DF81C4903F031FE00212046A2
:10750000FEF724FF42F228312046FFF7DDFE40B9A6
:1075100004F0FEFF154902E004F0FAFF144903F0FD
:107520001EFE03F087FA68B904F0F2FF114903F078
:1075300016FE03F077FA03F07DFA50B904F0E8FF85
:107540000D4902E004F0E4FF0C49BDE8704003F08F
:1075500006BE70BDACE203207A6E0E000D720E0006
:10756000F4E103202F720E008D720E008D6E0E005E
:10757000C4720E003E720E0063720E007A720E002C
:107580002DE9F04F2DED028BA5B0A54C04F0C0FF06
:10759000A44903F0E4FD04F0BBFFA34903F0CCFDD4
:1075A00004F0B6FF0A2294F8171403F055FE04F015
:1075B000AFFF9E4903F0C0FD04F0AAFF0A2294F831
:1075C000181403F049FE04F0A3FF994903F0B4FD39
:1075D00004F09EFF0A2294F8191403F03DFE04F013
:1075E00097FF944903F0A8FD04F092FF0A2294F853
:1075F0001A1403F031FE04F08BFF8F4903F09CFD59
:1076000004F086FF0A2294F81B1403F025FE04F010
:107610007FFF8A4903F090FD04F07AFF0A22D4F834
:107620001C1403F019FE04F073FF854903F084FD78
:1076300004F06EFF0A22D4F8201403F00DFE94F833
:1076400025342546002B00F0F88105F003FD44F6B3
:10765000206104F0D5FF0321082005F05FFC04F051
:1076600029FE4FF4E13104F019FE764C04F050FF8E
:107670004FF4E13104F046FF642004F083F8012167
:10768000208805F04BFC0021208805F058FC05F00F
:10769000E1FC04F0B9FF642004F074F804F038FF52
:1076A000694903F05CFD05F0D5FC202104F0CCFF16
:1076B00005F0D0FC04F0D3FF002841D005F0CAFC4F
:1076C00004F0D4FF05F0C6FC202104F0BDFF05F056
:1076D000C1FC04F0C4FF98B304F01AFF5B4903F047
:1076E0003EFD5B4B594A1B785A4900241AA88DF875
:1076F0000040FDF78FFE1BA8FEF736FA0121564821
:10770000FDF7CCFE40F6B83004F03CF82146524874
:10771000FDF7C4FE01215148FDF7C0FE40F6B83028
:1077200004F030F821464D48FDF7B8FE01214A48E3
:10773000FDF7B4FE40F6B83004F024F803F08AFAFE
:107740004748DFF83481474F02F02CF8012202212C
:10775000434802F0D1F801220321414802F0CCF85D
:10776000642004F00FF824AA002442F8384D0423C2
:1077700021463D4801F07AFF04F0CAFE169B3B4AC1
:10778000012103F033FE04F0C3FE394903F0E7FCA6
:10779000344B384938480722FDF77AFF064604F093
:1077A000B7FE230153F8081003F0C6FC04F0B0FE46
:1077B000324903F0C1FC04F0ABFE395D0A2201340A
:1077C00003F04AFD072CEAD1002E5FD12C492D4849
:1077D00003F095FB04F09CFE2B4903F0C0FC012054
:1077E00004F00DF832463146FF2004F018F840F658
:1077F000B83003F0C7FF304604F001F805F02AFC6A
:1078000004F034FF05F026FC04F02CFF18B905F055
:1078100021FC04F0F9FE05F01DFC04F0FBFE3EE047
:1078200040DA0320D4720E00E6720E0007730E00D9
:1078300015730E0023730E0032730E0042730E0098
:1078400056730E002CD5032063730E0085730E0053
:10785000D4D60320B6730E0088D60320B4D60320F6
:107860006CDE0320D0DE0320A8D60320BC730E00FC
:10787000C2730E0064D50320D8D60320587E0E00B4
:10788000DA730E0098D70320DE730E00B649B748AE
:1078900003F035FB04F03CFEB54903F060FCC82062
:1078A00003F070FF0EB903F0D5F9B248B24E01F003
:1078B00098FE044604F02CFEB04903F050FC04F09E
:1078C00027FE0A22214603F0A3FC04F021FEAC4966
:1078D00003F045FC04F01CFE3368AA492246074623
:1078E0001AA803F0EBFE1A99384603F038FC1AA8E0
:1078F00003F06CFAA44B9C4227DCA4499D4801F09C
:1079000027FE9C4801F06DFE044604F001FEA049EC
:1079100003F025FC04F0FCFD0A22214603F078FC6C
:1079200004F0F6FD964903F01AFC04F0F1FD33680B
:107930009449074622461AA803F0C0FE1A99384611
:1079400003F00DFC1AA803F041FA924B00241C70BE
:1079500005F080FB0146904802F044FCFDF744FF2F
:1079600004F0D6FD8D4903F0E7FB04F0D1FD03F0F0
:10797000EAFB8B4802F069F80421894802F0B2F86A
:1079800001231A461946864802F01BF9D5F81C1443
:10799000834802F0C7F801231A461946804802F0CE
:1079A0002FF9D5F81C147E4802F0C2F801260A21EE
:1079B0007B4802F0C3F823462246214601960096F2
:1079C000774802F032F93146754802F07DF93146C8
:1079D000744E734802F072F92146308805F09EFA21
:1079E00022464FF0FF3370493088009404F08AFC3F
:1079F0004FF4967003F0C6FE02F07CFD044602F0E0
:107A000079FD001BB0F5FA5FC0F0E28400F03EBDE6
:107A100004F07EFD654903F0A2FB02F06BFD41F628
:107A2000A37604465C4802F04AFA002800F0E48499
:107A30005F4A0023136085F825344B494B4803F017
:107A40005EFAFFF729FD03F06BFE28B3514B1A785D
:107A50001E460ABB03F085FE0146464801F078FD4C
:107A600003F07FFE0446434801F0BBFD844200F072
:107A7000D08403F076FE04463E4801F0B2FD201AA1
:107A800009288CBF0020012030B10123337004F09D
:107A90003FFD484903F063FB474B1B780BB9FEF7EA
:107AA00079F8FFF79BFB3C483B4C02F008FA0028B2
:107AB00000F03B844149424FDFF81891DFF8FCA009
:107AC000204602F015FB3F49204602F025FB04F05A
:107AD0001FFD3D4903F043FB00233B60B8463B6874
:107AE000374E032B1ADC04F013FDD8F8003003F1F5
:107AF000010B0AEB8303064618680BF09DF8CDE9ED
:107B00000001324A59F82B300021304603F06EFC58
:107B1000D8F800300133C8F80030E0E704F0F8FC92
:107B20002B49DFF8B080DFF89C9003F018FB0023AE
:107B300033603B68042B4FDC04F0EAFCD6F800A06D
:107B400009EB8A03834618680BF076F8CDE900014B
:107B50001E4A58F82A300021584603F047FC336883
:107B600001333360E5E700BFE8730E0098D70320C8
:107B7000EC730E0034E1032074D50320F3730E0080
:107B8000587E0E006CE203207F436D38003B3D4B76
:107B9000FA730E006DDE0320ACE1032000740E00CA
:107BA00008DA032038D50320F5520D0032740E0098
:107BB000F0E103203D740E006CE1032020E103207E
:107BC00080DE032014E203205A740E0071740E004C
:107BD0007D740E0018D503206068C14EDFF8648301
:107BE0000BF02AF802460B461AA8BE4903F046FAE3
:107BF0001AA9BD4803F07BF91AA803F0E7F8A068BA
:107C00000BF01AF802460B461AA8B64903F036FAEA
:107C10001AA9B64803F06BF91AA803F0D7F8E06880
:107C20000BF00AF802460B461AA8AE4903F026FAF2
:107C30001AA9AF4803F05BF91AA803F0C7F8206946
:107C40000AF0FAFF0B460246A6491AA803F016FAF4
:107C50001AA9A84803F04BF91AA803F0B7F8A64AE6
:107C6000A648012101F0E2F907EE900AF8EEE77A62
:107C7000C6ED007A04F04CFCA14903F05DFA04F073
:107C800047FC044630680AF0D7FF41EC100B022194
:107C9000204603F09DFB04F03BFC03F054FA04F093
:107CA00037FC984903F048FA04F032FC01210446FD
:107CB000924801F06FFA10EE100A0AF0BDFF41EC95
:107CC000100B0221204603F083FB04F021FC03F09B
:107CD0003AFA04F01DFC8C498C4C03F02DFA8C4AC6
:107CE0008648012101F0A2F907EE900A0121B8EEC1
:107CF000E70A824801F08CFA84ED000A04F008FCDF
:107D0000074620680AF098FF41EC100B0221384624
:107D100003F061FB20687F4C7F4F0AF08DFF024625
:107D20000B461AA86F4903F0A9F91AA97B4803F07A
:107D3000DEF81AA803F04AF830680AF07DFF024620
:107D40000B461AA8674903F099F91AA9744803F079
:107D5000CEF81AA803F03AF8724803F06DFE10EE60
:107D6000100AB0EE408A0AF067FF02460B461AA8D6
:107D70006D4903F083F91AA96C4803F0B8F81AA802
:107D800003F024F86A491AA804F00EFB1D9A694909
:107D90006423534316A8312293FBF2F203F06EF9E9
:107DA00016A9654803F0A3F816A803F00FF84E498A
:107DB00016A803F091F8614916A803F0F9F84B49A9
:107DC00003F0EAF85D4903F0F3F8494903F0E4F8F9
:107DD0005A4903F0EDF8474903F0DEF8574903F03C
:107DE000E7F84E4903F0D8F8544903F0E1F84C495C
:107DF00003F0D2F8514903F0DBF84C4903F0CCF81A
:107E00004E4903F0D5F84C4903F0C6F80146204628
:107E100003F053F816A802F0D9FF334916A803F06F
:107E20005BF816AA01214648FEF782FC16A802F06C
:107E3000CDFF2E4916A803F04FF816AA022140489C
:107E4000FEF776FC16A802F0C1FF294916A803F038
:107E500043F816AA03213A48FEF76AFC16A802F076
:107E6000B5FF244916A803F037F816AA04213448B0
:107E7000FEF75EFC16A802F0A9FF284916A803F039
:107E80002BF816AA05212E48FEF752FC16A802F080
:107E90009DFF234916A803F01FF816AA06212848BB
:107EA000FEF746FC16A802F091FF204916A803F041
:107EB00013F816AA07212248FEF73AFC16A802F08A
:107EC00085FF1D4916A803F007F816AA08211C48CB
:107ED000FEF72EFC16A802F079FF04F019FB33E040
:107EE00028E2032096740E0048D7032058D70320B9
:107EF00068D7032078D703209C740E0090DE0320FF
:107F00009E740E00A6740E00AD740E001CE10320DA
:107F10009A780E0070DE0320DCE1032088D703206E
:107F200040E1032064E10320B4740E00A8D70320CD
:107F3000ACE2032098800E0078D60320E76F0E0095
:107F4000F4E1032005DA032021686A4C03F007F905
:107F5000694B6A49012602A81E7002F07EFF67493C
:107F600006A802F07AFF6648FEF7CEFF0246002818
:107F700000F083800022092162483E70FEF79CFBDE
:107F8000324609215F48FEF797FB23781BB35E4911
:107F900016A802F062FF5D4801F023FB5C4B5D49CF
:107FA0001A685D4B024412A803F088FB12A916A8B8
:107FB00002F0F2FF594902F0FBFF594902F0ECFFD1
:107FC000584902F0F5FF014602A802F076FF12A818
:107FD00002F0FCFE0EE0544916A802F03EFF5049A4
:107FE00016A802F0D9FF4F4902F0E2FF014602A8AD
:107FF00002F063FF16A802F0E9FE02A916A802F03B
:108000006BFF16AA1E213F48FEF792FB16A802F04E
:10801000DDFE98F80030002B00F0FC8003F0A1FB9F
:1080200001460AA803F0CAFA0AA90EA802F054FFF2
:108030003E490EA802F0BCFF354B0A2219680446DF
:1080400012A802F07FFF12A9204602F0A5FF014608
:1080500016A802F041FF16AA15212A48FEF78AFC4D
:1080600016A802F0B3FE12A802F0B0FE0EA802F0AD
:10807000ADFE0AA802F0AAFECCE001462148FEF7B8
:108080001BFB2B4B1A7822B12A492B4802F037FFF1
:10809000324609211B48FEF70FFB23782649002BA7
:1080A0004CD012A802F018FF1C4912A802F080FF61
:1080B0000446164801F095FA154B16491A68164BF6
:1080C000024416A803F0FAFA16A9204602F064FF4B
:1080D000124902F06DFF124902F05EFF114902F0F1
:1080E00067FF014602A802F0E8FE16A802F06EFE45
:1080F00012A835E06DDE03203CE10320916C0E00F8
:1081000050DA0320F4E10320BA740E0034E10320B6
:1081100060D503206CE2032047700E0060700E00F3
:10812000A8D703204F700E00C1740E00D5740E0046
:108130008CDE0320D7740E0098D7032016A802F017
:10814000CBFEB84916A802F033FFB74902F024FF6E
:10815000B64902F02DFF014602A802F0AEFE16A8B5
:1081600002F034FE049B042B15DCB14916A802F082
:1081700085FF16A902A802F0BAFE16A802F026FE94
:1081800004F0C6F9029902F0EAFF4FF47A7003F0A6
:10819000F9FA02F05FFD02A916A802F09DFE16AAE8
:1081A0001E21A448FEF7C4FA16A802F00FFE98F8A4
:1081B00000306BB303F0D5FA01460AA803F0FEF9CC
:1081C0000AA90EA802F088FE9B490EA802F0F0FE54
:1081D0009A4B0A221968044612A802F0B3FE12A9AB
:1081E000204602F0D9FE014616A802F075FE16AA36
:1081F00015219048FEF7BEFB16A802F0E7FD12A875
:1082000002F0E4FD0EA802F0E1FD0AA802F0DEFD96
:1082100000233B708A4C2378FBB102F06BF9894B49
:1082200089491E68861B324616A802F027FF16A948
:1082300006A802F05CFE16A802F0C8FD04F068F97A
:10824000069902F08CFFB6F5FA5F06D97F4B002144
:10825000188804F074FE00232370FDF749FC002801
:1082600044D03B7853B395F81834DBB1774B0121F8
:10827000188804F064FE02F03DF9724B74491860EE
:10828000024616A802F0FAFE16A906A802F02FFE72
:1082900016A802F09BFD04F03BF9069902F05FFF7F
:1082A0000123237095F8193403B36A496148FEF736
:1082B00079FF02F01FF9684B186017E002F01AF915
:1082C000654B66491A680A23821A16A8B2FBF3F2B4
:1082D00002F0D4FE16A906A802F009FE16A802F0C4
:1082E00075FD04F015F9069902F039FF5C4B5D4C01
:1082F000D3ED007AB4EEE78AF1EE10FA4CBF012319
:1083000000232370FDF708FC40B1237833B195F8C2
:108310001B341BB154494748FEF744FF06A802F03E
:1083200055FD02A802F052FD0EE0204601F055FF77
:1083300050B904F0EDF84D4902F011FF4FF47A7096
:1083400003F020FA02F086FC494B4A4C1B78F3B14B
:108350000A22216812A802F0F5FD12A916A802F05F
:10836000BBFD454916A802F023FE01461AA802F0FB
:10837000B3FD1AAA15212F48FEF7FCFA1AA802F03D
:1083800025FD16A802F022FD12A802F01FFD04F040
:10839000BFF8054602F0AEF80A220146284602F070
:1083A00008FF04F0B5F8354902F0C6FE04F0B0F855
:1083B0000A22216802F050FF04F0AAF802F0C3FE7E
:1083C00023680133236025B0BDEC028BBDE8F08F3C
:1083D00004F040FE01462A4801F004FF00287FF423
:1083E00017AB04F095F8274902F0B9FE4FF47A7004
:1083F00003F0C8F9FFF703BB02F07CF8001BB042A2
:108400003FF616AB642003F0BDF9FEF7E7FEFFF779
:1084100009BB1D4801F0E5F8044603F0A2F9FFF797
:108420002EBB00BF51700E00A8D703204F700E0066
:10843000DD740E00F4E10320D5740E0060D5032036
:10844000B8D7032000DA0320E6740E002CD50320F1
:1084500001750E002A750E0060E1032035750E00CF
:1084600050DE03208DDE03205C750E0071750E005A
:1084700005DA0320F0E10320906C0E00587E0E0018
:10848000ACE103200E740E0034E1032004F040F848
:10849000054902F064FE4FF47A7003F073F902F0BC
:1084A000D9FBFFF7BABA00BF9B750E00F0B58BB0D1
:1084B00002F020F8844B854C186004F0CBFD44F6A4
:1084C000206104F09DF80321082004F027FD03F04B
:1084D000F1FE4FF4E13103F0E1FE04F019F84FF43E
:1084E000E13104F00FF8642003F04CF901212088F9
:1084F00004F014FD0021208804F021FD04F0AAFD01
:1085000004F082F8642003F03DF904F001F87049AA
:1085100002F025FE04F09EFD202104F095F804F001
:1085200099FD04F09CF8002841D004F093FD04F07C
:108530009DF804F08FFD202104F086F804F08AFDF8
:1085400004F08DF898B303F0E3FF624902F007FEF0
:10855000614B604A1B786149002406A88DF80040F1
:10856000FCF758FF07A8FDF7FFFA01215C48FCF76C
:1085700095FF40F6B83003F005F921465848FCF75E
:108580008DFF01215748FCF789FF40F6B83003F012
:10859000F9F821465348FCF781FF01215048FCF7C8
:1085A0007DFF40F6B83003F0EDF802F053FB4E4883
:1085B00001F0F8F8012202214B4801F09DF9012257
:1085C0000321494801F098F9642003F0DBF80AAA76
:1085D000002142F81C1D0423444801F047F803F031
:1085E00097FF039B424A012102F000FF04A8414982
:1085F000FCF728FF04A802F087FB032814D8DFE863
:1086000000F002060A0E03F083FF3B490AE003F084
:108610007FFF3A4906E003F07BFF394902E003F0AF
:1086200077FF384902F09BFD03F072FF3649374F60
:10863000374E02F094FD364B364934480722FDF799
:1086400027F80025044603F063FF2B01D95902F0F7
:1086500073FD03F05DFF304902F06EFD03F058FF3B
:10866000715D0A22013502F0F7FD072DEBD1002CD8
:108670005AD12A492A4802F042FC03F049FF29490D
:1086800002F06DFD012003F0BAF822462146FF20DA
:1086900003F0C5F840F6B83003F074F8204603F054
:1086A000AEF804F0D7FC03F0E1FF04F0D3FC03F0D4
:1086B000D9FF18B904F0CEFC03F0A6FF04F0CAFC01
:1086C00003F0A8FF39E000BF38E103202CD50320D8
:1086D000C3750E0085730E00D4D60320B6730E004A
:1086E00088D60320B4D603206CDE0320A8D603204E
:1086F000BC730E0038E20320DA750E0005760E001A
:1087000022760E0070760E00C2730E00D8D60320BB
:10871000D0DE032064D50320587E0E00DA730E00ED
:1087200098D70320DE730E006149624802F0E7FB30
:1087300003F0EEFE604902F012FDC82003F022F8BB
:108740000CB902F087FA5D485D4D00F04AFF04461F
:1087500003F0DEFE5B4902F002FD03F0D9FE0A22BF
:10876000214602F055FD03F0D3FE574902F0F7FC15
:1087700003F0CEFE2B6855492246064606A802F0B5
:108780009DFF0699304602F0EAFC06A802F01EFBA7
:108790004F4B9C4227DC4F49484800F0D9FE4748E0
:1087A00000F01FFF044603F0B3FE4B4902F0D7FC74
:1087B00003F0AEFE0A22214602F02AFD03F0A8FED5
:1087C000414902F0CCFC03F0A3FE2B683F4906466A
:1087D000224606A802F072FF0699304602F0BFFC5E
:1087E00006A802F0F3FA04F035FC3C4C3C4D01467F
:1087F0003C4801F0F7FC3C4801F027F9FCF7F4FF96
:1088000022682B689A427FD003F082FE374902F03B
:1088100093FC03F07DFE0A22216802F01DFD03F0A7
:1088200077FE334902F088FC03F072FE0A222968C1
:1088300002F012FD182363600523A3602D492E4B1F
:10884000E36004F110000BF079F92C4904F588700D
:108850000BF074F9294904F504700BF06FF92749FE
:1088600004F544700BF06AF904F58263244A1A6037
:1088700064220023C4F81C24012284F8143484F8F0
:10888000153484F8172484F8183484F8192484F8EB
:108890001A2484F81B24C4F82834C4F8203403F0C4
:1088A00037FE184902F05BFCFEF72CFD31E000BFFB
:1088B000E8730E0098D70320EC730E0034E1032018
:1088C00074D50320F3730E00587E0E006CE2032073
:1088D0007F436D38003B3D4BFA730E0040DA0320B6
:1088E00034D50320ACE1032008DA0320CE760E0055
:1088F000E5760E00F6760E0000001CC32E770E0003
:108900000000A04142770E0003F002FE9C4902F0F5
:1089100026FC03F0FDFD9B4902F00EFC03F0F8FD80
:1089200002F011FC984801F090F80421964801F0FB
:10893000D9F801231A461946934801F042F9D4F8B0
:108940001C14914801F0EEF801231A4619468E488E
:1089500001F056F9D4F81C148B4801F0E9F80A210B
:10896000894801F0EBF8012500231A4619460195C4
:108970000095854801F059F92946834801F0A4F98A
:108980002946824D804801F099F92888002104F099
:10899000C5FA00224FF0FF337D492888009203F08A
:1089A000B1FC03F0B5FD02F0CEFB03F0B1FD02F027
:1089B000CAFB03F0ADFD774902F0D1FB03F0A8FD3F
:1089C000754B196802F0CBFB03F0A2FD734902F06E
:1089D000B3FB03F09DFD724B054618680AF02CF9B5
:1089E00041EC100B0221284602F0F5FC03F090FD4B
:1089F0006C4902F0A1FB03F08BFD6B4B0546186838
:108A00000AF01AF941EC100B0221284602F0E3FCAF
:108A100003F07EFD6549664D02F08EFB03F078FDA4
:108A20000646A86A0AF008F941EC100B022130460C
:108A300002F0D1FC03F06CFD0646E06868620AF0C3
:108A4000FBF841EC100B0221304602F0C4FC03F0AD
:108A50005FFD584902F070FB03F05AFD0646A86B13
:108A60000AF0EAF841EC100B0221304602F0B3FCA8
:108A700003F04EFD504902F072FB03F049FD4F49EF
:108A800002F06DFB4FF4967002F07CFE01F032FDB7
:108A9000054601F02FFD401BB0F5FA5F64D204F0EB
:108AA000D9FA0146464801F09DFB48B903F030FD74
:108AB000444902F054FB4FF47A7002F063FEE8E799
:108AC00003F026FD404902F04AFB404B404A1B8818
:108AD00040494148FCF7C2FDFEF7DEFC002301934C
:108AE00000931A463D493E4801F0B4FF3D4B1B78C8
:108AF0000BB9FDF74FF801F0FDFC41F6A3760546F2
:108B00002F4801F0DCF950B901F0F4FC401BB042F1
:108B100005D8642002F036FEFEF760FBF0E7A3689C
:108B2000314A32484FF47A71594301F0C3FB2F4860
:108B300001F0E2FB2E4A2F486F2101F0BBFB2D48CC
:108B400001F0DAFB03F0E4FC2B4902F008FB2B49AF
:108B50002B4802F0D4F9FEF713FD03F0D9FC2949A4
:108B600002F0FDFA0BB0F0BD03F0D2FC264902F092
:108B7000F6FA4FF47A7002F005FE02F06BF8A4E703
:108B80004D770E0000740E0008DA032038D503205C
:108B9000F5520D00B2770E00E0E103205C770E0085
:108BA00070D5032074770E006CD503208B770E00F0
:108BB00090DE0320A0770E00A9770E00BD770E008F
:108BC000ACE103200E740E0032740E0030D5032089
:108BD000AF720E003CD50320F4E1032055530D0085
:108BE000C9770E006CE1032081750D00BCD703200E
:108BF000DD710D00D8DE0320E1770E00E8730E0072
:108C000098D70320F0770E009B750E0013B51C4912
:108C10001C4C6846FCF716FC684602F075F8022802
:108C200011D103F075FC184902F099FA174B002195
:108C3000188884F8241404F082F94FF4FA6002F0E2
:108C4000A1FDFDF7A5FD00211148FDF77FFB1148AF
:108C500001F052FB104801F04FFB104B62681B689B
:108C60009A420ADC094B0021188804F068F94FF495
:108C7000FA6002F087FDFDF78BFD02B010BD00BF6A
:108C800038E2032040DA032005780E002CD50320BB
:108C9000F4E10320BCD70320D8DE0320F0E1032059
:108CA000984B2DE9F74300251D60974B974E984C44
:108CB000DFF8EC8201271F60964B1F7001F09AFBD2
:108CC000304604F045F806F11C0003F043FA224652
:108CD000914975633046358704F0FCF98F4B2A467D
:108CE0001E605D609D60DD601D615D611D835D8353
:108CF0001D775D771421022001F016FE884E019742
:108D00004FF01E090346CDF80090022285493046F7
:108D100001F054FF22464146304604F0DBF92A4672
:108D20001421022001F000FE7F4E01970346CDF88A
:108D3000009002224FF47F01304601F03FFF2246AF
:108D40004146304604F0C6F97848794E794FDFF84D
:108D5000548200F0D9FD04F07DF92A4601463046E0
:108D600000F07CFC22467449304604F0B3F97348A5
:108D7000734E00F0DBFA734800F012FD724801F008
:108D80005CF82946304602F017FE22466F4930460D
:108D900004F0A0F96E4E3946404602F05EF84046B7
:108DA000DFF804822246314604F094F93946404601
:108DB00002F053F84046DFF8F4812246314604F0D1
:108DC00089F93946404602F048F84046DFF8E0812C
:108DD0002246314604F07EF93946404602F03DF81D
:108DE0004046DFF8D0812246314604F073F9394617
:108DF000404602F032F84046DFF8BC812246314658
:108E000004F068F93946404602F027F84046DFF89A
:108E1000AC812246314604F05DF93946404602F005
:108E20001CF84046DFF898812246314604F052F99A
:108E30003946404602F011F84046DFF88881224664
:108E4000314604F047F939464046424F02F005F8F2
:108E500022463146404604F03DF93F49384601F08C
:108E6000FCFF38463D4F2246314604F033F93C4979
:108E7000384601F0F2FF38463A4F2246314604F0B8
:108E800029F93949384601F0E8FF2246314638468B
:108E900004F020F9354E364801F0B1F9354801F0BB
:108EA000AEF93549304601F0D8FF344906F11000DB
:108EB00001F0D3FF324906F1200001F0CEFF314925
:108EC00006F1300001F0C9FF2F4906F1400001F022
:108ED000C4FF2E4906F1500001F0BFFF2C4906F1F6
:108EE000600001F0BAFF22462A49284604F0F2F851
:108EF0009FED290A29480F22112103B0BDE8F04354
:108F000000F0E0B930E1032088DE032070E10320A7
:108F100070D60320D4D603201D5C0D00F4E103209D
:108F2000B4D6032000FFFF0088D6032008DA032010
:108F3000A8D60320916C0E0045960D0034E1032065
:108F400064E103206CDE0320ACE10320D7B90D00FF
:108F5000CDAD0D00E0E1032054780E0050E1032078
:108F600073780E0098D70320E8730E00D8D603203C
:108F7000BCD70320D8DE032085780E0089780E0048
:108F80008D780E0098780E009C780E00A1780E0067
:108F900037740E0035530D009A99814090DE0320FE
:108FA000A5540D0048D7032058D7032068D70320C5
:108FB00078D7032088D7032040E10320A8D70320D7
:108FC00078D6032070DE032080E80600104A826312
:108FD0000261104AC261104ADFED106AD2ED007AD8
:108FE0009FED0F7A0F4980ED020A67EEA66AC16015
:108FF00086EE876ADFED0C6A80ED087A67EEA67A66
:1090000080ED056AC7EE876AC0ED066A704700BF4B
:109010000000A0410000904170D50320000068428C
:109020000000AE4200002042000018422DE9F0414D
:109030000C460646904601F05DFA4FF47A7707FB3E
:10904000040700242546B08803F0A5FF044401204E
:1090500002F098FB01F04EFAB84205F10105F2D397
:1090600007EE105A07EE904AF8EE476AF8EE677A74
:10907000184BD6ED085A87EEA67AD3ED007A164B38
:1090800093ED006A154BC5EE866A984567EE277A20
:109090009FED137A27EE877AD6ED077AD7EE267AF8
:1090A0000CD1B2EE027A67EE877AF1EE046A87EEAF
:1090B000A67ADFED0C7A77EE277A02E00A4B984524
:1090C00002D1FDEEE77A01E0DFED087A17EE900AB3
:1090D000BDE8F0816CD5032070D503209C740E0090
:1090E00000008039000000429A780E000000000065
:1090F000F8B5044601F0FEF9002500F51C571037BD
:109100002E46208803F047FF0544012002F03AFB79
:1091100001F0F0F9B84206F10106F2D307EE905AD9
:1091200007EE106AF8EE677AB8EE477A154BC7EE8D
:10913000876AD3ED007A66EEA77A17EE900A09F0F7
:109140007BFD0022104B09F0CBFD104B002209F0F3
:10915000C7FD0AF0BDF8D4ED0A7A0D4A07EE100AF1
:1091600077EE677A0A21C4ED097A2046FFF75EFFA1
:1091700007EE900AF8EEE77A94ED090AC4ED0E7A4C
:10918000F8BD00BF6CD5032000408F400000303F89
:109190009A780E00F8B50C46074601F0ABF94FF48B
:1091A0007A7606FB040600242546388803F0F3FE91
:1091B0000444012002F0E6FA01F09CF9B04205F106
:1091C0000105F2D307EE904A07EE105AF8EE677ADF
:1091D000B8EE477A0B4BC7EE876AD3ED007A66EE9E
:1091E000A77A17EE900A09F027FD0022064B09F036
:1091F00077FD0022054B09F073FD0AF069F800EED7
:10920000100AF8BD6CD5032000408F400000303FAD
:10921000D0B52DED028B0446B0EE408AFFF7BAFFC1
:10922000D4ED0A7A30EE670AD4ED097A70EE677AE7
:1092300017EE900A09F000FD0022214B09F07AFE9A
:10924000D4ED0F7AF8EEE77A064617EE900A0F464D
:1092500009F0F2FC02460B463046394609F06AFE38
:1092600015A3D3E9002309F03BFD0AF031F8B3EE72
:10927000077AB4EEC78A94ED0E7AF1EE10FA78EE22
:10928000476A07EE900ACCBF94ED0C6A94ED0D6A24
:1092900038EE478AE6EE667AD4ED0B6AB7EE000A3E
:1092A000A6EEC80ABDEC028BD4ED026A87EEA67A60
:1092B00020EE070AD0BD00BF0000000065CDCD4103
:1092C00000408F4008B50346FFF77EFE0D4A9FED34
:1092D0000E7AD2ED007ADFED0D6A0D4ADA6327EEE1
:1092E000877A4FF07C52C7EE267ADA62094A1A630F
:1092F000094A5A6318469FED097A67EE877AC3EDEB
:109300000A7A08BD70D5032040E38649A07A004A56
:10931000A08601009A9981411F85934000007A44FC
:1093200001F068B80368C9B29B68184710B50446D5
:1093300003F090FE03F096F918B903F08BFE03F0EA
:1093400063F9204610BD2DE9F84F924698460D4628
:109350009DF828B09DF82C709DF830609DF83490F1
:1093600003F078FE6F210A2403F072F903F072FE15
:109370000021FFF7D7FF03F06DFEB5FBF4F304FB0C
:10938000135505EB0315EDB205F07F01FFF7CAFF9A
:1093900003F060FEBAFBF4F104FB11AA0AEB011121
:1093A00001F07F01FFF7BEFF03F054FEB8FBF4F1BC
:1093B00004FB118808EB011101F03F01FFF7B2FF38
:1093C00003F048FEBBFBF4F104FB11B101F007010F
:1093D00041F00801FFF7A6FF03F03CFEB7FBF4F1F4
:1093E00004FB117707EB011101F03F01FFF79AFF32
:1093F00003F030FEB6FBF4F104FB116606EB01113D
:1094000001F01F01FFF78EFF03F024FEB9FBF4F11A
:10941000036804FB119404EB01119B68C9B29847DF
:1094200003F018FE03F01BF903F014FE6F2103F0A4
:109430000FF903F00FFE0021FFF774FF03F00AFE9F
:1094400045F08001FFF76EFF03F004FEBDE8F84F22
:1094500003F005B970B51C4615460E4603F0FAFD3B
:109460006F2103F0F5F803F0F5FD0021FFF75AFF37
:1094700003F0F0FD03F0F3F803F0ECFD6F21072299
:1094800003F0D8F803F0E6FD03685B699847C0B2C3
:10949000C0F3021303EB830300F00F0000EB430063
:1094A000307003F0D7FD03685B699847C0B2C0F322
:1094B000021303EB830300F00F0000EB430028705E
:1094C00003F0C8FD03685B699847C0B2C0F301139D
:1094D00003EB830300F00F0000EB4300207003F068
:1094E000B9FD03685B699847049B00F0070018709A
:1094F00003F0B0FD03685B699847C0B2C0F3011385
:1095000003EB830300F00F0000EB4300059B187092
:1095100003F0A0FD03685B699847C0B2C0F3001276
:109520009300134400F00F0000EB4300069B1870FB
:1095300003F090FD03685B699847C0B2030903EB31
:10954000830300F00F0000EB4300079B187070BD11
:109550002DE9F04F07468DB008460C4602F002F8A0
:109560008046204601F0F6FF8146204601F0EAFFE2
:109570008246204602F006F80546204601F0FAFF32
:109580000646204602F008F88346204602F00EF810
:109590000A22014604A801F0D5FC04A9022208A869
:1095A00001F052FD08A801F063FD044608A801F08F
:1095B0000DFCE4B25FFA8BF3F6B2EDB202935FFA00
:1095C00089F25FFA8AF35FFA88F1384603940196CC
:1095D0000095FFF7B8FE04A801F0F8FB0DB0BDE858
:1095E000F08F00B591B00DF11B0303930DF11A0339
:1095F00002930DF11903019306AB00930DF11602CE
:109600000DF117030DF11501FFF724FF9DF815303B
:1096100007939DF8163008939DF8173009939DF82D
:1096200019300A939DF81A30013B0B939DF81B30BB
:1096300007A864330C930AF0DDF811B05DF804FB61
:1096400000F0D8BE704710B50C21044603F047FD6A
:10965000204610BD0368C9B29B68184710B5024C7C
:1096600004604160826010BD70790E002DE9F04702
:1096700004460D4617469846B8F1000F3FD0A16842
:10968000606841F0500102F0E3FF290A6068FFF7CB
:10969000E1FF29466068FFF7DDFF0021606802F006
:1096A000DAFF10B10020BDE8F087B8F1200FA16803
:1096B0006068C14628BF4FF0200901234A4641F0A7
:1096C000500102F0BCFF03F0C5FC03681B6998471A
:1096D0008145E7DC3E46C7EB050A03F0BBFC0368A7
:1096E0005B69984706F8010BF21BC6EB080391452E
:1096F00006EB0A053B44F0D898463746BCE7012004
:10970000BDE8F0872DE9F04704460D4690461F4618
:1097100057B3A168606841F0500102F099FF290A2F
:109720006068FFF797FF29466068FFF793FF08F12D
:109730001E094646C8EB050A606816F8011B036857
:109740009B6898474E4506EB0A05B04607F1FF3780
:1097500001D0002FF0D10121606802F07CFF0028C9
:10976000D6D00020BDE8F0870120BDE8F08730B5F5
:1097700089B0054620220021684609F056FF0024E2
:1097800020236A4621462846FFF7BCFF20B120343B
:10979000B4F5004FF4D1012009B030BD00F02ABE6D
:1097A0007047000010B5534C204600F00FFB2046D8
:1097B0000122002100F00DFB01221146204600F09D
:1097C00008FB20460122022100F003FB2046012273
:1097D000032100F0FEFA20460122042100F0F9FAEC
:1097E00020460122052100F0F4FA2046002206213D
:1097F00000F0EFFA20460122072100F0EAFA2046A5
:109800000022082100F0E5FA20460022092100F09C
:10981000E0FA204600220A2100F0DBFA204600226E
:109820000B2100F0D6FA204600220C2100F0D1FADC
:10983000204600220D2100F0CCFA204600220E2105
:1098400000F0C7FA204600220F2100F0C2FA20469D
:109850000122002100F0E6FA01221146204600F024
:10986000E1FA20460122022100F0DCFA2046012222
:10987000032100F0D7FA20460122042100F0D2FA99
:1098800020460122052100F0CDFA204601220621C2
:1098900000F0C8FA20460122072100F0C3FA204652
:1098A0000122082100F0BEFA20460122092100F021
:1098B000B9FA204601220A2100F0B4FA204601221A
:1098C0000B2100F0AFFA204601220C2100F0AAFA89
:1098D000204601220D2100F0A5FA204601220E218A
:1098E00000F0A0FA204601220F21BDE8104000F050
:1098F00099BA00BF2CE20320014800F076BA00BFFD
:109900002CE2032000F076BD30B50EA5D5E9004568
:10991000C0E902450DA5D5E900450A22C0E9044584
:109920000CA5D5E900458262012280F82C2004496B
:109930000270002201634270C0E9064530BD00BFDD
:10994000404B4C009F27F96C78D56E3F0E7F8FF20D
:109950007ACD6E3F200FD8309E9C6C3F38B51446B0
:109960000D4603F077FB532102F072FE03F072FB09
:10997000036829469B68984703F06CFB03682146FF
:109980009B68984703F066FBBDE8384002F067BE6D
:109990002DE9F04116461F460C46054603F05AFBDA
:1099A000532102F055FE03F055FB036821469B68E6
:1099B000984703F04FFB02F052FE03F04BFB53219C
:1099C00002F046FE03F046FB3246532102F032FE1F
:1099D0003C4603F03FFB03681B69C7EB040898474C
:1099E00038B103F037FB03685B69984704F8010B53
:1099F000EFE746451EBF012328706B7003F02AFB7A
:109A0000BDE8F04102F02BBEF8B50B4D04460F4601
:109A1000008D0021164603F092FA3946284601F0DF
:109A20000BF93146284601F007F9208D0121BDE8E8
:109A3000F84003F084BA00BFD8E5032090F82C303A
:109A40000BB1FFF78BBFFFF7DFBF10B590F82C30DD
:109A500004461BB103F0FEFA02F0D6FD20460022B8
:109A60002D21FFF7EBFF204610222D21FFF7E6FF07
:109A7000204608222D21BDE81040FFF7DFBF00007F
:109A8000F8B5012AD4BF41F0800441F0C004054676
:109A90000021008D1F46164603F051FA21460A4860
:109AA00001F0CAF83C46E31B9E4206DD0021064851
:109AB00001F0C2F804F8010BF5E7288D0121BDE89B
:109AC000F84003F03CBA00BFD8E5032010B490F88A
:109AD0002C401CB15DF8044BFFF75ABF5DF8044BF6
